:100000000C9467000C948F000C948F000C948F005C
:100010000C948F000C948F000C948F000C948F0024
:100020000C948F000C948F000C948F000C948F0014
:100030000C948F000C948F000C948F000C948F0004
:100040000C94C2030C948F000C9490030C946A03DC
:100050000C948F000C948F000C948F000C948F00E4
:100060000C948F000C948F0089028F029902A702D2
:10007000A902AF02B902C702D902DB0200000008E0
:10008000000201000003040700000000000000005F
:1000900000000000250028002B00000000002400C4
:1000A00027002A00040404040404040402020202D7
:1000B000020203030303030301020408102040802B
:1000C0000102040810200102040810200C0411246D
:1000D0001FBECFEFD8E0DEBFCDBF11E0A0E0B1E0A2
:1000E000EEEEFBE002C005900D92AA31B107D9F700
:1000F00021E0AAE1B1E001C01D92A63FB207E1F7FD
:1001000010E0C7E6D0E004C02197FE010E94D605AA
:10011000C636D107C9F70E948E040C94F5050C94DD
:10012000000090E0FC01E854FF4F2491FC01EC55E5
:10013000FF4F8491882399F090E0880F991FFC016C
:10014000E656FF4FA591B491FC01E057FF4F859112
:1001500094918FB7F894EC91E22BEC938FBF0895B4
:10016000CF92DF92EF92FF920F931F93CF93DF9383
:100170006C017A018B01C0E0D0E0CE15DF0589F07B
:10018000D8016D918D01D601ED91FC910190F08126
:10019000E02DC6010995892B11F47E0102C021963C
:1001A000ECCFC701DF91CF911F910F91FF90EF909E
:1001B000DF90CF900895FC01918D828D981761F0AA
:1001C000828DDF01A80FB11D5D968C91928D9F5F8E
:1001D0009F73928F90E008958FEF9FEF0895FC0139
:1001E000918D828D981731F0828DE80FF11D858DEC
:1001F00090E008958FEF9FEF0895FC01918D228D7F
:10020000892F90E0805C9F4F821B91098F73992703
:10021000089585E291E00E94FD0021E0892B09F418
:1002200020E0822F0895FC01848DDF01A80FB11D0D
:10023000A35ABF4F2C91848D90E001968F7399271C
:10024000848FA689B7892C93A089B1898C91806409
:100250008C93938D848D981306C00288F389E02DCA
:1002600080818F7D80830895EF92FF920F931F937B
:10027000CF93DF93EC0181E0888F9B8D8C8D981359
:1002800005C0E889F989808185FD24C0F62E0B8D93
:1002900010E00F5F1F4F0F731127E02E8C8DE812B7
:1002A0000CC00FB607FCFACFE889F989808185FF79
:1002B000F5CFCE010E941301F1CF8B8DFE01E80F27
:1002C000F11DE35AFF4FF0820B8FEA89FB89808191
:1002D000806207C0EE89FF896083E889F98980819F
:1002E0008064808381E090E0DF91CF911F910F9136
:1002F000FF90EF900895CF93DF93EC01888D8823D2
:10030000C9F0EA89FB89808185FD05C0A889B98982
:100310008C9186FD0FC00FB607FCF5CF808185FF5D
:10032000F2CFA889B9898C9185FFEDCFCE010E94CB
:100330001301E7CFDF91CF91089580E090E0892B02
:1003400029F00E94090181110C940000089590E0A9
:10035000FC01E458FF4F3491FC01E854FF4F249115
:10036000FC01EC55FF4FE491EE2309F43BC033232D
:1003700039F1333091F038F43130A9F0323001F5F1
:1003800084B58F7D12C0373091F03830A1F0343011
:10039000B9F4809180008F7D03C0809180008F77B9
:1003A000809380000DC084B58F7784BD09C0809193
:1003B000B0008F7703C08091B0008F7D8093B00034
:1003C000F0E0EE0FFF1FE057FF4FA591B4918FB7FC
:1003D000F894EC91611103C020952E2301C02E2BBF
:1003E0002C938FBF08953FB7F89480911F0190918F
:1003F0002001A0912101B091220126B5A89B05C042
:100400002F3F19F00196A11DB11D3FBFBA2FA92F93
:10041000982F8827820F911DA11DB11DBC01CD0110
:1004200042E0660F771F881F991F4A95D1F70895FC
:100430000F931F93CF93DF93EC018B0188859985F0
:100440000297F1F46130710569F024F4672BC1F46F
:1004500060E009C06230710559F06330710581F4C4
:1004600060E007C061E08C850E94A70161E005C0E3
:1004700061E08C850E94A70160E08E850E94A70143
:10048000888599850497B9F501301105B1F04CF4D0
:100490000115110581F561E08C850E94A70160E0DE
:1004A00011C002301105B9F00330110521F561E0EA
:1004B0008C850E94A70160E013C060E08C850E94DB
:1004C000A70161E08E850E94A70161E088890E94F2
:1004D000A70160E00DC060E08C850E94A70161E08B
:1004E0008E850E94A70160E088890E94A70161E0D3
:1004F0008A890E94A70188859985059709F073C0AC
:100500000A30110508F06FC0F801EC5CFF4F0C9445
:10051000D60560E08C850E94A70161E051C060E0D3
:100520008C850E94A70161E08E850E94A70160E092
:100530004BC060E08C850E94A70161E08E850E941F
:10054000A70160E088890E94A70161E041C060E0E6
:1005500001C061E08C850E94A70161E005C061E0F7
:100560008C850E94A70160E08E850E94A70160E053
:1005700009C061E08C850E94A70160E08E850E9421
:10058000A70161E088890E94A70161E00DC061E0D8
:100590008C850E94A70160E08E850E94A70161E022
:1005A00088890E94A70160E08A890E94A70160E013
:1005B00013C061E001C060E08C850E94A70160E08B
:1005C0008E850E94A70161E088890E94A70160E0F2
:1005D0008A890E94A70161E08C89DF91CF911F91E8
:1005E0000F910C94A701DF91CF911F910F91089566
:1005F000CF92DF92EF92FF920F931F93CF93DF93EF
:10060000EC0181E090E0998388830E94F3010E89D8
:100610001F89288D398D6B017C01C01AD10AE20A2D
:10062000F30A0A811B812C813D81C016D106E206A6
:10063000F30658F36E8B7F8B888F998F28813981D1
:100640008A859B852130310569F0892B31F08A85B7
:100650009B8501979B878A870FC08E819F819B878F
:100660008A87F5CF01969B878A872E813F818217E3
:10067000930711F41B861A86288539858A859B8500
:100680002530310519F064E070E002C06AE070E0E6
:100690000E94A005BC01CE01DF91CF911F910F9167
:1006A000FF90EF90DF90CF900C941802009769F0C4
:1006B000FC0101900020E9F73197AF01481B590B6D
:1006C000BC0185E291E00C94B00080E090E00895D8
:1006D0000E94F0051F920F920FB60F9211242F93D4
:1006E0003F934F935F936F937F938F939F93AF93BA
:1006F000BF93EF93FF9385E291E00E941301FF9176
:10070000EF91BF91AF919F918F917F916F915F9189
:100710004F913F912F910F900FBE0F901F90189502
:100720001F920F920FB60F9211242F938F939F93C6
:10073000EF93FF93E0913501F09136018081E091D4
:100740003B01F0913C0182FD12C0908180913E01FD
:100750008F5F8F7320913F01821751F0E0913E012E
:10076000F0E0EB5DFE4F958F80933E0101C08081EC
:10077000FF91EF919F918F912F910F900FBE0F904E
:100780001F9018951F920F920FB60F9211242F935E
:100790003F938F939F93AF93BF9380911B01909151
:1007A0001C01A0911D01B0911E0130911A0123E09E
:1007B000230F2D3720F40196A11DB11D05C026E899
:1007C000230F0296A11DB11D20931A0180931B01D6
:1007D00090931C01A0931D01B0931E0180911F01F5
:1007E00090912001A0912101B09122010196A11DBB
:1007F000B11D80931F0190932001A0932101B0931C
:100800002201BF91AF919F918F913F912F910F90B6
:100810000FBE0F901F901895EF92FF920F931F93AA
:10082000CF93DF93E5E2F1E01382128288EE93E04A
:10083000A0E0B0E084839583A683B78384E091E051
:100840009183808385EC90E09587848784EC90E0A9
:100850009787868780EC90E0918B808B81EC90E08D
:10086000938B828B82EC90E0958B848B86EC90E06E
:10087000978B868B118E128E138E148ECCEDD1E059
:100880001B861A86198218821E8A1F8A188E198E54
:1008900080E3E82EF12CFF82EE8288E090E09D87D5
:1008A0008C8789E090E09F878E8788E00E94910086
:1008B0008E850E949100198A188A1B8A1A8A1D8ABD
:1008C0001C8A02E010E019870887C2ECD1E01B8681
:1008D0001A86198218821E8A1F8A188E198EFF8224
:1008E000EE828AE090E09D878C878BE090E09F8786
:1008F0008E878AE00E9491008E850E949100198A5D
:10090000188A1B8A1A8A1D8A1C8A19870887DF9110
:10091000CF911F910F91FF90EF900895CF93DF93A8
:10092000CDB7DEB7A1970FB6F894DEBF0FBECDBF2F
:10093000789484B5826084BD84B5816084BD85B5BA
:10094000826085BD85B5816085BD80916E008160C6
:1009500080936E001092810080918100826080936C
:10096000810080918100816080938100809180006E
:100970008160809380008091B10084608093B10099
:100980008091B00081608093B00080917A00846093
:1009900080937A0080917A00826080937A008091BF
:1009A0007A00816080937A0080917A0080688093D9
:1009B0007A001092C100E0913501F091360182E099
:1009C0008083E0913101F09132011082E091330196
:1009D000F09134018FEC808310923D01E091390158
:1009E000F0913A0186E08083E0913701F09138017F
:1009F000808180618083E0913701F09138018081AE
:100A000088608083E0913701F091380180818068AF
:100A10008083E0913701F091380180818F7D808360
:100A20009AE0892E912CA12CB12C8CED91E00E94A2
:100A3000F80282EC91E00E94F80280E191E00E94CD
:100A40005603C0902301D09024010D2C000CEE0819
:100A5000FF08F7FE26C0E0912501F09126010190E4
:100A6000F081E02D6DE285E291E0099522273327A0
:100A7000A9012C193D094E095F0919A28E010F5DCC
:100A80001F4FCA01B901A50194010E94B405605D20
:100A9000F80162938F01211531054105510589F750
:100AA00015C0A701960119A28E010F5D1F4FCA0143
:100AB000B901A50194010E94B405605DF80162933B
:100AC0008F01211531054105510589F7C8010E94A3
:100AD000560387E191E00E94560380912301909193
:100AE0002401019690932401809323010E94F30135
:100AF0002B013C0184EFC82EDD24D394E12CF12C92
:100B00000E94F301DC01CB0184199509A609B709FC
:100B1000883E9340A105B10558F0F1E0CF1AD10805
:100B2000E108F10828EE420E23E0521E611C711C00
:100B3000C114D104E104F10419F70E949D0175CF9D
:100B400097FB072E16F4009407D077FD09D00E947A
:100B5000DC0507FC05D03EF4909581959F4F0895E4
:100B6000709561957F4F0895A1E21A2EAA1BBB1BB9
:100B7000FD010DC0AA1FBB1FEE1FFF1FA217B30769
:100B8000E407F50720F0A21BB30BE40BF50B661F7F
:100B9000771F881F991F1A9469F760957095809543
:100BA00090959B01AC01BD01CF010895EE0FFF1F91
:100BB0000590F491E02D0994AA1BBB1B51E107C0DD
:100BC000AA1FBB1FA617B70710F0A61BB70B881FDD
:100BD000991F5A95A9F780959095BC01CD0108956C
:0E0BE00081E090E0F8940C94F505F894FFCFB6
:100BEE00000000003401B000FD00DB00EF007B01CF
:0A0BFE007061736F733A000D0A0076
:00000001FF
