:100000000C946C000C9494000C9494000C94940048
:100010000C9494000C9494000C9494000C9453044D
:100020000C9494000C9494000C9494000C94940000
:100030000C9494000C9494000C9494000C949400F0
:100040000C9481030C9494000C94EE020C94C8025E
:100050000C9494000C9494000C9494000C949400D0
:100060000C9494000C94940057025D026702750290
:1000700077027D0287029502A702A9020000000014
:1000800023002600290000000000240027002A0089
:1000900000000000250028002B00040404040404D0
:1000A0000404020202020202030303030303010227
:1000B00004081020408001020408102001020408F6
:1000C00010200000000800020100000304070000E7
:1000D000000000000000F50D11241FBECFEFD8E096
:1000E000DEBFCDBF11E0A0E0B1E0E2EEF2E202C07F
:1000F00005900D92AC31B107D9F722E0ACE1B1E047
:1001000001C01D92AB3DB207E1F710E0CCE6D0E0B4
:1001100004C02197FE010E94C60ECB36D107C9F755
:100120000E9441060C946F110C940000CF92DF9254
:10013000EF92FF920F931F93CF93DF936C017A019D
:100140008B01C0E0D0E0CE15DF0589F0D8016D91BC
:100150008D01D601ED91FC910190F081E02DC60159
:100160000995892B11F47E0102C02196ECCFC701BD
:10017000DF91CF911F910F91FF90EF90DF90CF9083
:100180000895FC01918D828D981761F0828DDF01B9
:10019000A80FB11D5D968C91928D9F5F9F73928F7A
:1001A00090E008958FEF9FEF0895FC01918D828D6F
:1001B000981731F0828DE80FF11D858D90E008953C
:1001C0008FEF9FEF0895FC01918D228D892F90E094
:1001D000805C9F4F821B91098F739927089587E355
:1001E00091E00E94E30021E0892B09F420E0822FB6
:1001F0000895FC01848DDF01A80FB11DA35ABF4FE4
:100200002C91848D90E001968F739927848FA68915
:10021000B7892C93A089B1898C9180648C93938D3C
:10022000848D981306C00288F389E02D80818F7D2C
:1002300080830895EF92FF920F931F93CF93DF93E4
:10024000EC0181E0888F9B8D8C8D981305C0E88927
:10025000F989808185FD24C0F62E0B8D10E00F5F9B
:100260001F4F0F731127E02E8C8DE8120CC00FB6B4
:1002700007FCFACFE889F989808185FFF5CFCE01A7
:100280000E94F900F1CF8B8DFE01E80FF11DE35ABA
:10029000FF4FF0820B8FEA89FB898081806207C063
:1002A000EE89FF896083E889F98980818064808391
:1002B00081E090E0DF91CF911F910F91FF90EF903F
:1002C0000895CF93DF93EC01888D8823C9F0EA89E4
:1002D000FB89808185FD05C0A889B9898C9186FD3F
:1002E0000FC00FB607FCF5CF808185FFF2CFA8893C
:1002F000B9898C9185FFEDCFCE010E94F900E7CF3F
:10030000DF91CF91089580E090E0892B29F00E9441
:10031000EF0081110C9400000895833081F028F4DF
:10032000813099F08230A1F008958730A9F08830AB
:10033000B9F08430D1F4809180008F7D03C080912A
:1003400080008F7780938000089584B58F7702C0F6
:1003500084B58F7D84BD08958091B0008F7703C0F0
:100360008091B0008F7D8093B00008951F93CF934C
:10037000DF93282F30E0F901EE53FF4F8491F9010C
:10038000E255FF4FD491F901E656FF4FC491CC23BB
:10039000C9F0162F81110E948D01EC2FF0E0EE0FB5
:1003A000FF1FE057FF4FA591B4918FB7F89411113B
:1003B00005C09C91ED2FE095E92302C0EC91ED2B57
:1003C000EC938FBFDF91CF911F9108950F931F93EF
:1003D000CF93DF93EC018B01888599850297F1F427
:1003E0006130710569F024F4672BC1F460E009C045
:1003F0006230710559F06330710581F460E007C027
:1004000061E08C850E94B60161E005C061E08C85E9
:100410000E94B60160E08E850E94B60188859985AC
:100420000497B9F501301105B1F04CF4011511052F
:1004300081F561E08C850E94B60160E011C0023058
:100440001105B9F00330110521F561E08C850E949A
:10045000B60160E013C060E08C850E94B60161E0E7
:100460008E850E94B60161E088890E94B60160E035
:100470000DC060E08C850E94B60161E08E850E940F
:10048000B60160E088890E94B60161E08A890E9415
:10049000B60188859985059709F073C00A30110562
:1004A00008F06FC0F801EC5CFF4F0C94C60E60E0E2
:1004B0008C850E94B60161E051C060E08C850E948D
:1004C000B60161E08E850E94B60160E04BC060E03D
:1004D0008C850E94B60161E08E850E94B60160E0C5
:1004E00088890E94B60161E041C060E001C061E01E
:1004F0008C850E94B60161E005C061E08C850E9498
:10050000B60160E08E850E94B60160E009C061E03E
:100510008C850E94B60160E08E850E94B60161E084
:1005200088890E94B60161E00DC061E08C850E945F
:10053000B60160E08E850E94B60161E088890E9464
:10054000B60160E08A890E94B60160E013C061E0F4
:1005500001C060E08C850E94B60160E08E850E943B
:10056000B60161E088890E94B60160E08A890E9434
:10057000B60161E08C89DF91CF911F910F910C94AE
:10058000B601DF91CF911F910F9108950E946A11DA
:100590001F920F920FB60F9211242F933F934F93F8
:1005A0005F936F937F938F939F93AF93BF93EF93DB
:1005B000FF9387E391E00E94F900FF91EF91BF91D3
:1005C000AF919F918F917F916F915F914F913F91EB
:1005D0002F910F900FBE0F901F9018951F920F92A2
:1005E0000FB60F9211242F938F939F93EF93FF9346
:1005F000E0914701F09148018081E0914D01F09137
:100600004E0182FD12C09081809150018F5F8F73E7
:1006100020915101821751F0E0915001F0E0E95C26
:10062000FE4F958F8093500101C08081FF91EF9123
:100630009F918F912F910F900FBE0F901F90189543
:10064000CF93DF9390E0FC01E255FF4F2491FC0132
:10065000E656FF4F8491882361F190E0880F991F3F
:10066000FC01EA57FF4FC591D491FC01E057FF4FC1
:10067000A591B491611109C09FB7F8948881209524
:1006800082238883EC912E230BC0623061F49FB7E4
:10069000F8943881822F809583238883EC912E2BC8
:1006A0002C939FBF06C08FB7F894E8812E2B288328
:1006B0008FBFDF91CF9108953FB7F89480912301C8
:1006C00090912401A0912501B091260126B5A89B07
:1006D00005C02F3F19F00196A11DB11D3FBFBA2FD4
:1006E000A92F982F8827820F911DA11DB11DBC0134
:1006F000CD0142E0660F771F881F991F4A95D1F7F9
:1007000008951F920F920FB60F9211242F933F93CB
:100710008F939F93AF93BF9380911F01909120017E
:10072000A0912101B091220130911E0123E0230FFD
:100730002D3720F40196A11DB11D05C026E8230F19
:100740000296A11DB11D20931E0180931F0190935D
:100750002001A0932101B093220180912301909167
:100760002401A0912501B09126010196A11DB11D82
:100770008093230190932401A0932501B093260137
:10078000BF91AF919F918F913F912F910F900FBE8D
:100790000F901F9018954F925F926F927F928F9259
:1007A0009F92AF92BF92CF92DF92EF92FF920F9300
:1007B0001F93CF93DF93EC018B0177FF04C00027D9
:1007C0001127061B170B161617062CF481E090E074
:1007D0009983888304C0672B11F01982188284E002
:1007E000E82EF12C9AE0C92ED12C0115110509F43F
:1007F00049C00E945C038E889F88A88CB98C2B010D
:100800003C01481859086A087B088A809B80AC80A4
:10081000BD80481459046A047B0438F36E8B7F8BC7
:10082000888F998F288139818A859B852130310570
:1008300059F401969B878A872E813F8182179307FF
:1008400071F41B861A860BC0892B21F48E819F813F
:100850009B878A878A859B8501979B878A8701501A
:100860001109288539858A859B852530310511F444
:10087000B60101C0B7010E94900EBC01CE010E94DA
:10088000E601B3CFDF91CF911F910F91FF90EF90D1
:10089000DF90CF90BF90AF909F908F907F906F90A0
:1008A0005F904F9008951F920F920FB60F921124F0
:1008B0002F933F934F935F936F937F938F939F9368
:1008C000AF93BF93CF93DF93EF93FF932091D50125
:1008D00030E0F901EE53FF4F8491F901E255FF4FEB
:1008E000D491F901E656FF4FC491CC23A1F08111B8
:1008F0000E948D01EC2FF0E0EE0FFF1FE458FF4F38
:10090000A591B491EC91ED2331E020E009F430E0C1
:10091000832F922F02C080E090E02091D901309186
:10092000DA012F5F3F4F3093DA012093D9012091F4
:10093000D801253618F026E02093D4012091D40167
:100940002430D9F128F4223069F02330D9F060C086
:10095000253009F453C0263009F05AC021E0209315
:10096000A50253C0009709F053C02091D9013091DE
:10097000DA012436310508F443C01092A502109222
:10098000D8011DC08130910509F042C0E091D80125
:1009900021E02E0F2093D801F0E02091D901309171
:1009A000DA01EE0FFF1FEC52FE4F308727831092C3
:1009B000DA011092D90124E029C00097B9F4E0913E
:1009C000D80121E02E0F2093D801F0E02091D90129
:1009D0003091DA01EE0FFF1FEC52FE4F3087278374
:1009E0001092DA011092D90123E010C02091D901B0
:1009F0003091DA012536310558F007C0009741F4EF
:100A00001092DA011092D90103C025E02093D4019D
:100A10002091D7012223B9F0892B51F48091D6017E
:100A2000882321F08091D60161E009C02D9A0BC086
:100A30008091D601882331F08091D60160E00E9438
:100A4000B60101C02D98FF91EF91DF91CF91BF9139
:100A5000AF919F918F917F916F915F914F913F9156
:100A60002F910F900FBE0F901F901895CF92DF928D
:100A7000EF92FF92CF93DF93EC01072E000C880BCF
:100A8000990B0E944D106B017C0120E030E040E4A6
:100A90005FE30E94FD1020E030E048E452E40E9451
:100AA000A30F0E941510C617D707D4F020E030E03E
:100AB00040EA5FE3C701B6010E94FD1020E030E08C
:100AC00048E452E40E94A30F20E030E040E85FE3F6
:100AD0000E94320F0E94151021E06C177D070CF464
:100AE00020E0822F90E0DF91CF91FF90EF90DF9098
:100AF000CF900895009769F0FC0101900020E9F77C
:100B00003197AF01481B590BBC0187E391E00C946E
:100B1000960080E090E008958F929F92AF92BF92EE
:100B20000F931F93CF93DF93CDB7DEB7A1970FB687
:100B3000F894DEBF0FBECDBF19A2423008F44AE0E0
:100B40008E010F5D1F4F842E912CA12CB12CA5017D
:100B500094010E94A40EE62FB901CA0101501109A7
:100B6000EA3014F4E05D01C0E95CD801EC93232B7A
:100B7000242B252B61F7C8010E947A05A1960FB698
:100B8000F894DEBF0FBECDBFDF91CF911F910F91C3
:100B9000BF90AF909F908F9008958F929F92AF9249
:100BA000BF92CF92DF92EF92FF920F931F93CF935A
:100BB000DF93FC01C081D181209133013091340158
:100BC000C217D3070CF04BC09E01220F331FE091D8
:100BD0003101F0913201E20FF31F80809180C170EA
:100BE000DD27F1E0CF27209719F404E610E002C0DA
:100BF0000CE91FEF7A015B016C01040F151FB801AE
:100C0000C4010E943605892B99F40E0D1F1DB801F1
:100C1000C4010E943605892B71F4B8016E0D7F1D49
:100C2000C4010E943605892BE9F023E030E005C0BD
:100C300021E030E002C022E030E0F50180819181C6
:100C40000196821793073CF0F50111821082F6019C
:100C500080819181019691838083CE0105C081E0DE
:100C600090E002C08FEF9FEFDF91CF911F910F9126
:100C7000FF90EF90DF90CF90BF90AF909F908F90BC
:100C80000895CF93DF93CDB7DEB72C970FB6F894C6
:100C9000DEBF0FBECDBF789484B5826084BD84B5BD
:100CA000816084BD85B5826085BD85B5816085BD67
:100CB00080916E00816080936E001092810080911F
:100CC00081008260809381008091810081608093A7
:100CD0008100809180008160809380008091B100CC
:100CE00084608093B1008091B00081608093B000F7
:100CF00080917A00846080937A0080917A0082608B
:100D000080937A0080917A00816080937A0080914C
:100D10007A00806880937A001092C100E0914701C8
:100D2000F091480182E08083E0914301F091440119
:100D30001082E0914501F09146019FEC9083109262
:100D40004F01E0914B01F0914C0196E09083E091CE
:100D50004901F0914A01908190619083E0914901AD
:100D6000F0914A01908198609083E0914901F0915F
:100D70004A01908190689083E0914901F0914A0185
:100D800090819F7D9083F8948093B0008093B10010
:100D900094E69093B3001092B20080937000789420
:100DA0008093D4011092D8018091D50160E00E9417
:100DB000200310E2212E312C44244A94542C320179
:100DC0002BED31E030933201209331018091D80135
:100DD00090E090933401809333018091A50290E0DC
:100DE00090933601809335018091D401853009F0CC
:100DF0003AC28091DD019091DE01885891098D35CC
:100E0000910588F48091D801843041F48091DF010C
:100E10009091E0018097479708F48FC28091D801A4
:100E2000843408F0CDC18091D8018A3108F44FC0D4
:100E30008091DB019091DC01843F914068F4109235
:100E4000300110922F0140922B0150922C016092A0
:100E50002D0170922E0159C08091DD019091DE012B
:100E600085974B97A0F5E1EEF1E082E090E0C12C90
:100E7000D12C7601AC014F5F5F4F2091D80130E05B
:100E8000421753075CF4DF0112972D913C912750D4
:100E900031092730310508F474C2CA0101979595CC
:100EA00087959093300180932F010C972CF410922A
:100EB000300110922F010BC0C0922B01D0922C0157
:100EC000E0922D01F0922E0184E090E093C3809196
:100ED000D8018A3108F44CC08091DB019091DC018B
:100EE0008032934008F4ABCF8091DD019091DE0118
:100EF000C697869708F462C23BC0C0922B01D0927D
:100F00002C01E0922D01F0922E018BE090E072C353
:100F100020813181255231092B31310508F05EC223
:100F2000CC0CDD1CEE1CFF1C6894C0F802963496B5
:100F3000AC014F5F5F4F2091D80130E0421753075B
:100F400054F4DF0112972D913C912C5031092B3034
:100F50003105F0F2CA01019795958795909330017C
:100F600080932F010C974CF61092300110922F01B4
:100F70008091D8018232E8F18091DD019091DE010B
:100F800006970797B0F5E1EEF1E082E090E0C12C22
:100F9000D12C76019C012F5F3F4F4091D80150E04A
:100FA000241735076CF4DF0112974D915C9111976E
:100FB0004E5151094731510508F434C21CC2C901D0
:100FC0000197959587959093300180932F014097D5
:100FD0002CF41092300110922F010BC0C0922B0103
:100FE000D0922C01E0922D01F0922E018CE090E045
:100FF00001C31C821B8221E030E03A832983809167
:10100000D8018D3008F46BC049E753E0BE016D5F35
:101010007F4FCE0101960E94CD05892B09F05FC05C
:1010200049E753E0BE016D5F7F4FCE0101960E94FC
:10103000CD05019709F053C049E753E0BE016D5F4C
:101040007F4FCE0101960E94CD05892B09F047C044
:10105000812C912C540100E010E08091D80190E0A7
:1010600029813A81281739075CF549E753E0BE0129
:101070006D5F7F4FCE0101960E94CD057C0149E74F
:1010800053E0BE016D5F7F4FCE0101960E94CD05FA
:1010900031E0E316F10449F4892B09F5880C991C19
:1010A000AA1CBB1C689480F808C0EF28C1F4019703
:1010B000B1F4880C991CAA1CBB1C0F5F1F4FCDCF2D
:1010C0001093300100932F0180922B0190922C01FC
:1010D000A0922D01B0922E0181E090E08BC21C8283
:1010E0001B82A1E0B0E0BA83A98380913301909183
:1010F0003401181619060CF058C0E0913101F09136
:10110000320182E090E09A8389838281938189977A
:101110004E9708F04AC023E030E03A832983848167
:1011200095810B970A9708F040C04CEB51E0BE0147
:101130006D5F7F4FCE0101960E94CD05892BA9F5E9
:101140004CEB51E0BE016D5F7F4FCE0101960E94D6
:10115000CD05019751F5812C912C540100E010E050
:1011600029813A8180913301909134012817390700
:101170000CF095C14CEB51E0BE016D5F7F4FCE018D
:1011800001960E94CD056C010330110509F051C193
:101190004CEB51E0BE016D5F7F4FCE0101960E9486
:1011A000CD05C816D90609F444C1E0913101F0918A
:1011B000320182819381C697869708F47FC11FC24E
:1011C0008091DF019091E001825491098E9708F09F
:1011D0002ACE80E090E040E050E0BA01FC01EF51FF
:1011E000FE4F20813181295031092930310508F025
:1011F0001ACEFC01ED51FE4F20813181275131097A
:101200002231310508F0B0C0440F551F661F771F0B
:10121000416004968038910509F7309230012092A0
:101220002F0140932B0150932C0160932D0170935B
:101230002E01A3E0B0E0B0932801A09327016091B4
:101240002B0170912C0180912D0190912E0140E194
:101250000E948C0589E191E00E947A0582E08093EA
:10126000D4011092D80161E070E081EC92E00E941C
:10127000CB036FEF7FEF87EA92E00E94CB0380E120
:1012800091E00E947A05C0901C01D0901D010D2CA8
:10129000000CEE08FF08F7FE14C0E0913701F09152
:1012A00038010190F081E02D6DE287E391E009952E
:1012B00066277727CB016C197D098E099F094AE0C3
:1012C00003C04AE0C701B6010E948C0589E191E0A4
:1012D0000E947A0580911C0190911D0101969093C6
:1012E0001D0180931C010E945C034B015C0104EF13
:1012F000C02EDD24D394E12CF12C0E945C03DC0190
:10130000CB0188199909AA09BB09883E9340A10518
:10131000B10558F031E0C31AD108E108F10888EEB0
:10132000880E83E0981EA11CB11CC114D104E104F5
:10133000F10419F70E94830143CD8091E10190915E
:10134000E2010997099708F069CD109230011092D7
:101350002F0140922B0150922C0160922D0170922E
:101360002E0183E090E046C1208131812650310971
:101370002730310508F057CD440F551F661F771FE2
:1013800048CF20813181235131092F30310578F048
:10139000208131812A5031092930310508F097CD5B
:1013A000CC0CDD1CEE1CFF1C0296349663CDCC0CDD
:1013B000DD1CEE1CFF1C6894C0F8F6CF8091DF01A5
:1013C0009091E001C697869708F0D2CDE3EEF1E068
:1013D00083E090E0C12CD12C7601AACD208131810F
:1013E0002C5031092A30310508F0C2CDCC0CDD1C5F
:1013F000EE1CFF1C9BCD4D915C914C5051094B3024
:10140000510508F0F6CDCC0CDD1CEE1CFF1C408114
:1014100051813496435051094530510508F0CFCDE4
:101420000296B8CDCC0CDD1CEE1CFF1C6894C0F8F5
:10143000EECF4CEB51E0BE016D5F7F4FCE010196C8
:101440000E94CD057C010330110569F44CEB51E09D
:10145000BE016D5F7F4FCE0101960E94CD05E8165B
:10146000F90609F0A2CEC114D10459F4EA94EF2888
:1014700009F09BCE880C991CAA1CBB1C689480F8B0
:101480000BC0CA94CD2809F090CEEF2809F08DCE7C
:10149000880C991CAA1CBB1C0F5F1F4F61CE1093B8
:1014A000300100932F0180922B0190922C01A09289
:1014B0002D01B0922E0182E090E09CC08481958144
:1014C0004B97459708F09BC0DF0116967F0136ECDD
:1014D000E30EF11C20E030E040E050E060E070E01E
:1014E00080E090E0CD90DC90119719E0C11AD1080E
:1014F00018E0C116D10408F082C01296CD90DC909D
:10150000139711E1C11AD1081DE0C116D10420F5CD
:1015100001E00E94D70E21601496AE15BF0511F7A9
:1015200020932B0130932C0140932D0150932E01D9
:1015300000E20E94F20E2093290130932A0185E0F7
:1015400090E0909328018093270180E390E09093AE
:10155000300180932F0173CE1296CD90DC901397BB
:1015600014E0C11AD10815E0C116D10408F047C033
:1015700001E00E94D70ED0CFA80142505109DA01F4
:101580004D915C91495051094830510508F0E5C032
:10159000BC016F5F7F4FD8014D915C91475051095D
:1015A0004730510508F0D4C2220F331F2160029644
:1015B0000C5F1F4F4091D80150E0445051098417EF
:1015C0009507D4F201979595879590933001809374
:1015D0002F018A970CF4C1C0C901330FAA0BBB0BB2
:1015E00080932B0190932C01A0932D01B0932E0199
:1015F00089E090E0909328018093270120CE80918C
:10160000D801893370F1828193818957910983359B
:10161000910508F448C125C0D90112966D917C91BD
:101620001397665171096131710508F068C1D701DE
:10163000C601880F991FAA1FBB1F6C017D0168940A
:10164000C0F84E5F5F4F2C5F3F4F4B33510509F49D
:1016500039C1D9016D917C916A5071096930710568
:10166000D8F28091D801823231F4828193810A9735
:10167000099708F454C18281938189579109833570
:101680009105D0F48091D8018132B0F084819581A8
:10169000CA97899788F49F012A5F3F4FC12CD12CAC
:1016A000760143E050E0D9016D917C916A50710957
:1016B0006930710508F44FC1828193818C5491097E
:1016C000C59778F48091D801843031F48481958174
:1016D0008097479708F49FC18091D801843408F01F
:1016E00081C18091D801863460F1828193810C9709
:1016F0000B9708F4D9C125C0D90112966D917C9140
:1017000013976E5171096731710508F0E8C1D7016F
:10171000C601880F991FAA1FBB1F6C017D01689429
:10172000C0F84E5F5F4F2C5F3F4F4534510509F4C1
:10173000E5C1D9016D917C916C5071096B307105D7
:10174000D8F28091D801883540F082819381855804
:1017500091098B35910508F4ECC18091D801803254
:10176000E1F48281938106970697B8F4848195818C
:101770000997099790F49F012A5F3F4FBF01625C70
:101780007F4FC12CD12C7601D9014D915C914650EF
:1017900051094630510508F4E8C1209133013091D8
:1017A000340138872F83263031050CF457CD8F0153
:1017B0000A5F1F4F83E090E09E838D8395ECC92ED6
:1017C0009DE9D92E9CE1E92E91E8F92ED8016D9181
:1017D0007C91F8013497A080B18080E090E00E9475
:1017E0004B1069877A878B879C87B50180E090E0F2
:1017F0000E944B104B015C012DEC3CEC4CE45FE390
:101800000E94FD109B01AC0169857A858B859C85C2
:101810000E949E0F87FD19C02DEC3CEC4CE45FE369
:1018200069857A858B859C850E94FD109B01AC01A2
:10183000C501B4010E949E0FE82F880FFF0BEE2711
:10184000FF0FEE1FFF27319602C0E0E0F0E0A70196
:10185000960163E971E080E091E00E94800E6F01E3
:10186000FF0FEE08FF08C626D726E826F926ED81E9
:10187000FE813196FE83ED830E5F1F4F2F813885E9
:10188000E217F30709F0A2CFC0922B01D0922C01EE
:10189000E0922D01F0922E013092300120922F0122
:1018A0008FEF9FEFA7CE84819581CA97899708F023
:1018B000D8CE9F012A5F3F4FC12CD12C760143E047
:1018C00050E0C7CE9F012A583F4FD9012D913C913E
:1018D0002A5031092930310508F0C3CE2CE130E01F
:1018E0003093300120932F01C0922B01D0922C0114
:1018F000E0922D01F0922E018AE090E07BCED9019A
:1019000012966D917C91139766507109673071053D
:1019100008F0A7CECC0CDD1CEE1CFF1C92CE209153
:10192000D801CF01820F911D820F911DDC0112970A
:101930008D919C910A97099708F09DCE10923001E5
:1019400010922F0140922B0150922C0160922D0198
:1019500070922E0144C1D90112966D917C9113971A
:10196000665171096131710568F5D701C601880FAB
:10197000991FAA1FBB1F6C017D016894C0F84E5FC0
:101980005F4F2C5F3F4F4332510509F08CCE9F01D2
:101990002A5B3F4FD9012D913C912A5031092930C2
:1019A000310508F089CEE0E1F0E0F0933001E093FA
:1019B0002F01C0922B01D0922C01E0922D01F092C8
:1019C0002E010DC1D90112966D917C91139766502D
:1019D00071096730710508F06FCECC0CDD1CEE1C70
:1019E000FF1CCDCF8481958189549109C39708F05C
:1019F00078CE9F012A5F3F4FBF016A577F4FC12CAE
:101A0000D12C7601D9014D915C9149505109493051
:101A10005105A0F066CE868197810997099708F055
:101A20005BCE1092300110922F0140922B01509208
:101A30002C0160922D0170922E01D4C0D901129612
:101A40004D915C9113974651510941315105E0F494
:101A5000D701C601880F991FAA1FBB1F6C017D010A
:101A60006894C0F82C5F3F4F2617370759F630921D
:101A7000300120922F01C0922B01D0922C01E092D4
:101A80002D01F0922E01AEC0D90112964D915C91BC
:101A90001397465051094730510508F022CECC0C1F
:101AA000DD1CEE1CFF1CDECF848195810997099710
:101AB00008F047CE868197818C974F9708F041CEEA
:101AC0008085918589974D9708F03BCE9F01265FD1
:101AD0003F4FC12CD12C760145E050E02ACE129622
:101AE0006D917C911397695071096930710508F007
:101AF00028CECC0CDD1CEE1CFF1C13CE9F012657FC
:101B00003F4FD9012D913C912C5031092B3031059B
:101B100008F017CE3092300120922F01C0922B0195
:101B2000D0922C01E0922D01F0922E0188E090E0FD
:101B300061CD84819581825491098E9708F00DCEF4
:101B40008F01045C1F4F8DE190E020E030E032CD4A
:101B5000D8014D915C91485151094231510510F025
:101B6000CB0130CD220F331F22CDD90112964D91DA
:101B70005C911397495151094331510528F112964F
:101B80004D915C911397495051094930510508F026
:101B900004CECC0CDD1CEE1CFF1C2C5F3F4F261727
:101BA000370709F0F1CD2EE030E03093300120937B
:101BB0002F01C0922B01D0922C01E0922D01F092C6
:101BC0002E018FE090E016CDD701C601880F991F36
:101BD000AA1FBB1F6C017D016894C0F8DECF86E0B0
:101BE00090E008CD87E090E005CDEF92FF920F9353
:101BF0001F93CF93DF93E7E3F1E01382128288EE25
:101C000093E0A0E0B0E084839583A683B78384E06B
:101C100091E09183808385EC90E09587848784ECC4
:101C200090E09787868780EC90E0918B808B81ECA9
:101C300090E0938B828B82EC90E0958B848B86EC8A
:101C400090E0978B868B118E128E138E148EC1ECC2
:101C5000D2E01B861A86198218821E8A1F8A188E65
:101C6000198E80E3E82EF12CFF82EE8288E090E06E
:101C70009D878C8789E090E09F878E8761E088E070
:101C80000E94200361E08E850E942003198A188A31
:101C90001B8A1A8A1D8A1C8A02E010E019870887AD
:101CA000C7EAD2E01B861A86198218821E8A1F8A0A
:101CB000188E198EFF82EE828AE090E09D878C87D5
:101CC0008BE090E09F878E8761E08AE00E9420038E
:101CD00061E08E850E942003198A188A1B8A1A8A5D
:101CE0001D8A1C8A19870887E4EDF1E085E081836D
:101CF0001382DF91CF911F910F91FF90EF90089584
:101D0000DB018F939F930E94CC0EBF91AF91A29F56
:101D1000800D911DA39F900DB29F900D11240895E9
:101D200097FB072E16F4009407D077FD09D00E9488
:101D30000E0F07FC05D03EF4909581959F4F0895B6
:101D4000709561957F4F0895A1E21A2EAA1BBB1BC7
:101D5000FD010DC0AA1FBB1FEE1FFF1FA217B30777
:101D6000E407F50720F0A21BB30BE40BF50B661F8D
:101D7000771F881F991F1A9469F760957095809551
:101D800090959B01AC01BD01CF010895EE0FFF1F9F
:101D90000590F491E02D09940E94220FA59F900DCB
:101DA000B49F900DA49F800D911D112408950F9351
:101DB000083090F0982F872F762F652F542F432FC0
:101DC000322F22270850F4CF220F331F441F551FF4
:101DD000661F771F881F991F0A95B2F70F91089504
:101DE00097FB10F8169400080F93083098F00850ED
:101DF000232F342F452F562F672F782F892F902D83
:101E0000F4CF05949795879577956795579547955E
:101E1000379527950A95AAF70F910895AA1BBB1B22
:101E200051E107C0AA1FBB1FA617B70710F0A61BDA
:101E3000B70B881F991F5A95A9F780959095BC01FB
:101E4000CD010895A29FB001B39FC001A39F700D63
:101E5000811D1124911DB29F700D811D1124911DB2
:101E600008955058BB27AA270E94490F0C94C3100D
:101E70000E94B51038F00E94BC1020F039F49F3F4A
:101E800019F426F40C94B2100EF4E095E7FB0C94D0
:101E9000AC10E92F0E94D41058F3BA1762077307E9
:101EA0008407950720F079F4A6F50C94F6100EF44B
:101EB000E0950B2EBA2FA02D0B01B90190010C015A
:101EC000CA01A0011124FF27591B99F0593F50F472
:101ED000503E68F11A16F040A22F232F342F4427CA
:101EE000585FF3CF469537952795A795F0405395C2
:101EF000C9F77EF41F16BA0B620B730B840BBAF092
:101F00009150A1F0FF0FBB1F661F771F881FC2F7FC
:101F10000EC0BA0F621F731F841F48F48795779510
:101F20006795B795F7959E3F08F0B0CF9395880FCA
:101F300008F09927EE0F9795879508950E948810CD
:101F400008F481E008950E94B70F0C94C3100E941A
:101F5000BC1058F00E94B51040F029F45F3F29F002
:101F60000C94AC1051110C94F7100C94B2100E9408
:101F7000D41068F39923B1F3552391F3951B550BB6
:101F8000BB27AA2762177307840738F09F5F5F4F4C
:101F9000220F331F441FAA1FA9F335D00E2E3AF08B
:101FA000E0E832D091505040E695001CCAF72BD0A3
:101FB000FE2F29D0660F771F881FBB1F26173707F4
:101FC0004807AB07B0E809F0BB0B802DBF01FF2726
:101FD00093585F4F3AF09E3F510578F00C94AC1047
:101FE0000C94F7105F3FE4F3983ED4F38695779511
:101FF0006795B795F7959F5FC9F7880F911D9695DF
:10200000879597F90895E1E0660F771F881FBB1F3A
:10201000621773078407BA0720F0621B730B840BE7
:10202000BA0BEE1F88F7E09508950E941C10689483
:10203000B1110C94F71008950E94DC1088F09F579E
:1020400098F0B92F9927B751B0F0E1F0660F771FDC
:10205000881F991F1AF0BA95C9F714C0B13091F0D2
:102060000E94F610B1E008950C94F610672F782FB7
:102070008827B85F39F0B93FCCF386957795679597
:10208000B395D9F73EF490958095709561957F4F03
:102090008F4F9F4F0895E89409C097FB3EF49095A9
:1020A0008095709561957F4F8F4F9F4F9923A9F031
:1020B000F92F96E9BB279395F695879577956795C0
:1020C000B795F111F8CFFAF4BB0F11F460FF1BC004
:1020D0006F5F7F4F8F4F9F4F16C0882311F096E997
:1020E00011C0772321F09EE8872F762F05C0662345
:1020F00071F096E8862F70E060E02AF09A95660FFE
:10210000771F881FDAF7880F9695879597F90895B6
:10211000990F0008550FAA0BE0E8FEEF16161706F8
:10212000E807F907C0F012161306E407F50798F060
:10213000621B730B840B950B39F40A2661F0232B79
:10214000242B252B21F408950A2609F4A140A695F5
:102150008FEF811D811D089597F99F6780E870E0DA
:1021600060E008959FEF80EC089500240A9416160D
:10217000170618060906089500240A941216130675
:10218000140605060895092E0394000C11F4882303
:1021900052F0BB0F40F4BF2B11F460FF04C06F5F1F
:1021A0007F4F8F4F9F4F089557FD9058440F551FF5
:1021B00059F05F3F71F04795880F97FB991F61F0C9
:1021C0009F3F79F087950895121613061406551F40
:1021D000F2CF4695F1DF08C0161617061806991FAC
:1021E000F1CF86957105610508940895E894BB27A1
:1021F00066277727CB0197F908950E9410110C9458
:10220000C3100E94B51038F00E94BC1020F0952336
:1022100011F00C94AC100C94B21011240C94F71023
:102220000E94D41070F3959FC1F3950F50E0551F95
:10223000629FF001729FBB27F00DB11D639FAA271B
:10224000F00DB11DAA1F649F6627B00DA11D661F6A
:10225000829F2227B00DA11D621F739FB00DA11D8B
:10226000621F839FA00D611D221F749F3327A00D45
:10227000611D231F849F600D211D822F762F6A2FE1
:1022800011249F5750409AF0F1F088234AF0EE0F46
:10229000FF1FBB1F661F771F881F91505040A9F773
:1022A0009E3F510580F00C94AC100C94F7105F3FEA
:1022B000E4F3983ED4F3869577956795B795F795AF
:1022C000E7959F5FC1F7FE2B880F911D9695879527
:1022D00097F9089581E090E0F8940C946F11F894C8
:0222E000FFCF2E
:1022E200000000001A019600E300C100D500610160
:0C22F2004E207061736F733A000D0A00FB
:00000001FF
