:100000000C9492000C94BA000C94BA000C94BA00B0
:100010000C94BA000C94BA000C94BA000C94ED073E
:100020000C94BA000C94BA000C94BA000C94BA0068
:100030000C94BA000C94BA000C94BA000C94BA0058
:100040000C94A3070C94BA000C9471070C944B0702
:100050000C94BA000C94BA000C94BA000C94BA0038
:100060000C94BA000C94BA002F0335033F034D03E0
:100070004F0355035F036D037F038103084AD73B9A
:100080003BCE016E84BCBFFDC12F3D6C74319ABD67
:1000900056833DDA3D00C77F11BED9E4BB4C3E918B
:1000A0006BAAAABE000000803F05A84CCDB2D44E7A
:1000B000B93836A9020C50B9918688083CA6AAAA7C
:1000C0002ABE000000803F00000000002300260040
:1000D000290000000000240027002A000000000082
:1000E000250028002B000404040404040404020274
:1000F00002020202030303030303010204081020A7
:1001000040800102040810200102040810200000B1
:1001100000080002010000030407000000000000C6
:100120000000150911241FBECFEFD8E0DEBFCDBF00
:1001300022E0A6E2B1E001C01D92AE3CB207E1F7B9
:1001400011E0A0E0B1E0E2EBF1E202C005900D9217
:10015000A632B107D9F710E0C2E9D0E004C0219778
:10016000FE010E94330BC139D107C9F70E945B0A17
:100170000C94D7100C940000CF92DF92EF92FF9274
:100180000F931F93CF93DF936C017A018B01C0E033
:10019000D0E0CE15DF0589F0D8016D918D01D60133
:1001A000ED91FC910190F081E02DC6010995892B1C
:1001B00011F47E0102C02196ECCFC701DF91CF91EF
:1001C0001F910F91FF90EF90DF90CF900895FC0169
:1001D000918D828D981761F0828DDF01A80FB11D7E
:1001E0005D968C91928D9F5F9F73928F90E00895A2
:1001F0008FEF9FEF0895FC01918D828D981731F05C
:10020000828DE80FF11D858D90E008958FEF9FEFAF
:100210000895FC01918D228D892F90E0805C9F4F85
:10022000821B91098F739927089581E092E00E94C3
:10023000090121E0892B09F420E0822F0895FC01B7
:10024000848DDF01A80FB11DA35ABF4F2C91848D5F
:1002500090E001968F739927848FA689B7892C9394
:10026000A089B1898C9180648C93938D848D98132F
:1002700006C00288F389E02D80818F7D80830895F8
:10028000EF92FF920F931F93CF93DF93EC0181E0E6
:10029000888F9B8D8C8D981305C0E889F9898081A2
:1002A00085FD24C0F62E0B8D10E00F5F1F4F0F73DE
:1002B0001127E02E8C8DE8120CC00FB607FCFACF88
:1002C000E889F989808185FFF5CFCE010E941F0161
:1002D000F1CF8B8DFE01E80FF11DE35AFF4FF08245
:1002E0000B8FEA89FB898081806207C0EE89FF89D4
:1002F0006083E889F98980818064808381E090E06F
:10030000DF91CF911F910F91FF90EF900895CF93C0
:10031000DF93EC01888D8823C9F0EA89FB8980810D
:1003200085FD05C0A889B9898C9186FD0FC00FB6DF
:1003300007FCF5CF808185FFF2CFA889B9898C9120
:1003400085FFEDCFCE010E941F01E7CFDF91CF9156
:10035000089580E090E0892B29F00E941501811119
:100360000C9400000895833081F028F4813099F0D6
:100370008230A1F008958730A9F08830B9F0843038
:10038000D1F4809180008F7D03C0809180008F77B1
:1003900080938000089584B58F7702C084B58F7DE7
:1003A00084BD08958091B0008F7703C08091B00024
:1003B0008F7D8093B00008951F93CF93DF93282FF4
:1003C00030E0F901E25FFE4F8491F901E650FF4F02
:1003D000D491F901EA51FF4FC491CC23C9F0162FF3
:1003E00081110E94B301EC2FF0E0EE0FFF1FE452E9
:1003F000FF4FA591B4918FB7F894111105C09C914E
:10040000ED2FE095E92302C0EC91ED2BEC938FBF2B
:10041000DF91CF911F910895CF93DF9390E0FC017E
:10042000E650FF4F2491FC01EA51FF4F849188234D
:1004300061F190E0880F991FFC01EE52FF4FC591CA
:10044000D491FC01E452FF4FA591B491611109C010
:100450009FB7F8948881209582238883EC912E237E
:100460000BC0623061F49FB7F8943881822F809579
:1004700083238883EC912E2B2C939FBF06C08FB7CC
:10048000F894E8812E2B28838FBFDF91CF910895B8
:100490008E3008F08E508770806480937C0080914D
:1004A0007A00806480937A0080917A0086FDFCCF88
:1004B000809178002091790090E0922B08953FB7C9
:1004C000F8948091FD019091FE01A091FF01B091FF
:1004D000000226B5A89B05C02F3F19F00196A11D6B
:1004E000B11D3FBFBA2FA92F982F8827820F911DCA
:1004F000A11DB11DBC01CD0142E0660F771F881F11
:10050000991F4A95D1F708958F929F92AF92BF920B
:10051000CF92DF92EF92FF926B017C010E945F020B
:100520004B015C01C114D104E104F104F1F00E941B
:100530005F02DC01CB0188199909AA09BB09883E31
:100540009340A105B10570F321E0C21AD108E1087A
:10055000F10888EE880E83E0981EA11CB11CC1141E
:10056000D104E104F10419F7DDCFFF90EF90DF90A3
:10057000CF90BF90AF909F908F9008950F931F934F
:10058000CF93DF93EC018B01888599850297F1F475
:100590006130710569F024F4672BC1F460E009C093
:1005A0006230710559F06330710581F460E007C075
:1005B00061E08C850E94DC0161E005C061E08C8512
:1005C0000E94DC0160E08E850E94DC0188859985AF
:1005D0000497B9F501301105B1F04CF4011511057E
:1005E00081F561E08C850E94DC0160E011C0023081
:1005F0001105B9F00330110521F561E08C850E94E9
:10060000DC0160E013C060E08C850E94DC0161E0E9
:100610008E850E94DC0161E088890E94DC0160E037
:100620000DC060E08C850E94DC0161E08E850E9437
:10063000DC0160E088890E94DC0161E08A890E9417
:10064000DC0188859985059709F073C00A3011058A
:1006500008F06FC0F801EC5CFF4F0C94330B60E0C6
:100660008C850E94DC0161E051C060E08C850E94B5
:10067000DC0161E08E850E94DC0160E04BC060E03F
:100680008C850E94DC0161E08E850E94DC0160E0C7
:1006900088890E94DC0161E041C060E001C061E046
:1006A0008C850E94DC0161E005C061E08C850E94C0
:1006B000DC0160E08E850E94DC0160E009C061E041
:1006C0008C850E94DC0160E08E850E94DC0161E087
:1006D00088890E94DC0161E00DC061E08C850E9488
:1006E000DC0160E08E850E94DC0161E088890E9467
:1006F000DC0160E08A890E94DC0160E013C061E0F7
:1007000001C060E08C850E94DC0160E08E850E9463
:10071000DC0161E088890E94DC0160E08A890E9436
:10072000DC0161E08C89DF91CF911F910F910C94D6
:10073000DC01DF91CF911F910F9108954F925F924D
:100740006F927F928F929F92AF92BF92CF92DF92E1
:10075000EF92FF920F931F93CF93DF93EC018B01E6
:1007600077FF04C000271127061B170B1616170664
:100770002CF481E090E09983888304C0672B11F00A
:100780001982188284E0E82EF12C9AE0C92ED12C2F
:100790000115110509F449C00E945F028E889F88E7
:1007A000A88CB98C2B013C01481859086A087B08B1
:1007B0008A809B80AC80BD80481459046A047B0405
:1007C00038F36E8B7F8B888F998F288139818A854A
:1007D0009B852130310559F401969B878A872E81AC
:1007E0003F818217930771F41B861A860BC0892BF1
:1007F00021F48E819F819B878A878A859B850197BB
:100800009B878A8701501109288539858A859B85B0
:100810002530310511F4B60101C0B7010E941F0B4C
:10082000BC01CE010E94BE02B3CFDF91CF911F91D8
:100830000F91FF90EF90DF90CF90BF90AF909F907F
:100840008F907F906F905F904F9008958F929F92BE
:10085000AF92BF92CF92DF92EF92FF926B017C0139
:100860000E945F024B015C0184E0C81AD108E108D4
:10087000F108C80CD91CEA1CFB1CC814D904EA04F2
:10088000FB0438F40E945F0286169706A806B90694
:10089000C8F30E945F026C157D058E059F05C8F3A5
:1008A000FF90EF90DF90CF90BF90AF909F908F9090
:1008B0000895E0EBF0E080818F7D808368E572E051
:1008C00080E090E00C9426048F929F92AF92BF92AA
:1008D000CF92DF92EF92FF92CF93DF93EC014A0128
:1008E0005B01C12CD12C7601C814D904EA04FB04A5
:1008F000ACF46C817D81888199810E949E036E8118
:100900007F817195619571098A819B810E949E0307
:100910008FEFC81AD80AE80AF80AE6CFDF91CF911C
:10092000FF90EF90DF90CF90BF90AF909F908F900F
:1009300008950E9413102F923F924F925F926F92F0
:100940007F928F929F92AF92BF92CF92DF92EF925F
:10095000FF920F931F93CF93DF93CDB7DEB72C9702
:100960000FB6F894DEBF0FBECDBF1C01DC01909620
:100970008C91823009F4B4C1833009F4FDC1813017
:1009800009F070C2812C912C540113E0E12EF12C5E
:1009900003E2C02ED12C60E0D10114968C910E940C
:1009A000DC01C7010197F1F761E0F10184810E9448
:1009B000DC01C6010197F1F760E0D10114968C913A
:1009C0000E94DC01F101858190E0FC01E650FF4FBF
:1009D0006491FC01EA51FF4FE491F0E0EE0FFF1F3C
:1009E000E853FF4F8591949100E412E42FE030E04A
:1009F000462F0E94D008611571058105910539F0D7
:100A0000DC01CB010196A11DB11DBF7003C080E0C8
:100A100090E0DC01BC01CD019695879577956795AF
:100A20000E94DE0C2BE032ED4CE05DE30E94FE0DF7
:100A300020E030E040E85FE30E944D0BD1011696C4
:100A40002D913D914D915C9119970E942C0C87FF3F
:100A50006FC00E9466100E946610F101028113812E
:100A6000D80118966D917C911997072E000C880B70
:100A7000990B0E94E00C20E030E0A9010E94FE0DDD
:100A80000E94A80CAB01770F660B770BC8010E9480
:100A9000640420E030E0A901F10160897189828954
:100AA00093890E94FE0D20E030E044EB53E40E9465
:100AB000FE0DD10154962D913D914D915C9157972A
:100AC0000E94360C9B01AC01C501B4010E944E0B83
:100AD0004B015C0161E0F10183850E94DC01612C26
:100AE000712C04E010E0D1011A968C910E9448020A
:100AF000680E791E01501109B1F7C30177FC039606
:100B00009595879595958795F10124853585468539
:100B10005785B901640F751F861797070CF03BCFF7
:100B2000241B350B281739070CF035CF82E022C182
:100B300020E030E040E85EE3F1016089718982895C
:100B400093890E94FE0D6B017C01D1015C968D9111
:100B50009D910D90BC91A02D8D839E83AF83B8870E
:100B6000F101408C518C628C738C2BED3FE049E499
:100B700050E4C501B4010E94FE0D20E030E044E3E2
:100B800053E40E94360C2D813E814F8158850E948E
:100B90004D0B4B015C010E94310C69877A878B8772
:100BA0009C87A3019201C301B2010E94FE0D6983DB
:100BB0007A838B839C83A7019601C701B6010E94AB
:100BC000FE0D9B01AC0169817A818B819C810E9421
:100BD0004E0B69837A838B839C83A3019201C301AB
:100BE000B2010E944E0BA70196010E94FE0D2985BD
:100BF0003A854B855C850E94FE0D9B01AC016981A5
:100C00007A818B819C810E944E0B0E94790ED101CA
:100C100058966D937D938D939C935B97C501B4011A
:100C20000E946B0E4B015C0129853A854B855C85E2
:100C3000C701B6010E94FE0D9B01AC01C301B201C8
:100C40000E944E0B2B013C01A5019401C701B60186
:100C50000E94FE0DA30192010E94CD0B9B01AC01ED
:100C60006D817E818F8198850E944E0BF101648F8A
:100C7000758F868F978F02811381D8011896CD903A
:100C8000DC901997D7FE03C0B3E0CB0ED11CD594EE
:100C9000C794D594C7940D2C000CEE08FF08812C46
:100CA000912C54018C149D04AE04BF040CF0DAC0E6
:100CB000F80164817581808191810E949E03D80131
:100CC00016966D917C91179712968D919C91139722
:100CD0000E949E03BFEF8B1A9B0AAB0ABB0AE2CFAE
:100CE000F10182819381DC0118964D915C911997F5
:100CF00057FF02C04F5F5F4F55954795052E000C7B
:100D0000660B770B0E946404F101208931894289C6
:100D10005389608D718D828D938D0E94360C0E9457
:100D2000A80C4B015C01D10112960D911C911397F7
:100D3000C12CD12C7601C814D904EA04FB04C4F4F4
:100D4000F80164817581808191810E949E03D801A0
:100D500016966D917C91179712968D919C91139791
:100D60000E949E03BFEFCB1ADB0AEB0AFB0AE3CF1C
:100D700083E0F10180A376C083E090E09A838983C9
:100D8000D1015C964D905D906D907C905F97710164
:100D9000B1E2EB0EF11C29E0D22E38ECC32E1092FA
:100DA000700061E083E00E940C0260E083E00E943A
:100DB000DC0181E08093B000D092B100C092B3001A
:100DC000E2E4E093B4008091B00080628093B000D0
:100DD00060E679E080E090E00E942604C7010E946E
:100DE000590400E210E0812C912CA12C90E8B92E3E
:100DF000D501C40184219521A621B721892B8A2BF5
:100E00008B2B51F08091B00080628093B00060EB3A
:100E100074E080E090E009C08091B000806280932F
:100E2000B00068E572E080E090E00E942604C7010F
:100E30000E945904B694A79497948794015011097D
:100E4000B9F664E670E080E090E00E948402898157
:100E50009A8101979A838983892B09F0A0CFD101C8
:100E600090961C922C960FB6F894DEBF0FBECDBFA5
:100E7000DF91CF911F910F91FF90EF90DF90CF9076
:100E8000BF90AF909F908F907F906F905F904F90AA
:100E90003F902F9008951F920F920FB60F9211243A
:100EA0002F933F934F935F936F937F938F939F9372
:100EB000AF93BF93EF93FF9381E092E00E941F01F5
:100EC000FF91EF91BF91AF919F918F917F916F9122
:100ED0005F914F913F912F910F900FBE0F901F90F8
:100EE00018951F920F920FB60F9211242F938F9384
:100EF0009F93EF93FF93E0911102F0911202808192
:100F0000E0911702F091180282FD12C09081809149
:100F10001A028F5F8F7320911B02821751F0E091AC
:100F20001A02F0E0EF5FFD4F958F80931A0201C027
:100F30008081FF91EF919F918F912F910F900FBE24
:100F40000F901F9018951F920F920FB60F921124B9
:100F50002F933F938F939F93AF93BF938091F9010A
:100F60009091FA01A091FB01B091FC013091F80140
:100F700023E0230F2D3720F40196A11DB11D05C0DC
:100F800026E8230F0296A11DB11D2093F80180933E
:100F9000F9019093FA01A093FB01B093FC018091B9
:100FA000FD019091FE01A091FF01B0910002019618
:100FB000A11DB11D8093FD019093FE01A093FF013F
:100FC000B0930002BF91AF919F918F913F912F916C
:100FD0000F900FBE0F901F9018951F920F920FB693
:100FE0000F9211242F933F934F935F936F937F93AF
:100FF0008F939F93AF93BF93CF93DF93EF93FF9321
:101000002091270130E0F901E25FFE4F8491F90160
:10101000E650FF4FD491F901EA51FF4FC491CC2320
:10102000A1F081110E94B301EC2FF0E0EE0FFF1F41
:10103000E853FF4FA591B491EC91ED2331E020E00E
:1010400009F430E0832F922F02C080E090E02091DD
:101050002B0130912C012F5F3F4F30932C012093B7
:101060002B0120912A01253618F026E02093260135
:10107000209126012430D9F128F4223069F0233060
:10108000D9F060C0253009F453C0263009F05AC0A9
:1010900021E02093F70153C0009709F053C020913D
:1010A0002B0130912C012436310508F443C01092F5
:1010B000F70110922A011DC08130910509F042C04C
:1010C000E0912A0121E02E0F20932A01F0E02091E7
:1010D0002B0130912C01EE0FFF1FEA5DFE4F308790
:1010E000278310922C0110922B0124E029C0009735
:1010F000B9F4E0912A0121E02E0F20932A01F0E0BB
:1011000020912B0130912C01EE0FFF1FEA5DFE4F65
:101110003087278310922C0110922B0123E010C0FE
:1011200020912B0130912C012536310558F007C054
:10113000009741F410922C0110922B0103C025E07E
:1011400020932601209129012223B9F0892B51F403
:1011500080912801882321F08091280161E009C055
:101160002D9A0BC080912801882331F080912801AD
:1011700060E00E94DC0101C02D98FF91EF91DF91AA
:10118000CF91BF91AF919F918F917F916F915F911F
:101190004F913F912F910F900FBE0F901F90189578
:1011A000CF92DF92EF92FF920F931F93E82FF92FC8
:1011B00005C0015011092109310961F1908196237F
:1011C0009417B9F305C0015011092109310911F132
:1011D000908196239413F7CFC12CD12CE12CF12CC4
:1011E0000AC08FEFC81AD80AE80AF80A0C151D05BC
:1011F0002E053F0579F080818623841791F36C2DAD
:101200007D2D8E2D9F2D1F910F91FF90EF90DF90E0
:10121000CF90089560E070E080E090E01F910F9122
:10122000FF90EF90DF90CF900895EF92FF920F9391
:101230001F93CF93DF93109204021092030288EE63
:1012400093E0A0E0B0E08093050290930602A093A3
:101250000702B09308028EE091E09093020280931F
:10126000010285EC90E090930E0280930D0284ECD5
:1012700090E09093100280930F0280EC90E09093A6
:1012800012028093110281EC90E0909314028093FB
:10129000130282EC90E0909316028093150286EC84
:1012A00090E0909318028093170210921A02109205
:1012B0001B0210921C0210921D028AE190E00E9413
:1012C000E60EEC011B861A86198218821E8A1F8A76
:1012D000188E198E00E310E01F830E838AE090E0E1
:1012E0009D878C878CE090E09F878E878BE090E0D5
:1012F000998B888B8DE090E09B8B8A8B61E08AE0F4
:101300000E940C0261E08E850E940C0261E08889D7
:101310000E940C0261E08A890E940C021D8A1C8ACC
:1013200084E0E82EF12CF986E886D093C102C093C0
:10133000C0028AE190E00E94E60EEC011B861A864C
:10134000198218821E8A1F8A188E198E1F830E8397
:1013500086E090E09D878C8788E090E09F878E876D
:1013600087E090E0998B888B89E090E09B8B8A8B5B
:1013700061E086E00E940C0261E08E850E940C0212
:1013800061E088890E940C0261E08A890E940C0257
:101390001D8A1C8AF986E886D093C302C093C202D4
:1013A0001093C9020093C80281E090E09093C502B7
:1013B0008093C4029093C7028093C6028EE191E0AD
:1013C00090939F0280939E0280EC92E09093A10202
:1013D0008093A00285E08093A20284E08093A30220
:1013E00080E090E0A0E7B1E48093A4029093A5028E
:1013F000A093A602B093A7028EE08093A80282E099
:101400008093A9028BE790E09093AB028093AA02AD
:1014100084EE9BECA6E9B1E48093AE029093AF0218
:10142000A093B002B093B10280EE9DEEAFE2B2E4C1
:101430008093B2029093B302A093B402B093B5022A
:1014400061E085E00E940C0260E084E00E940C02F2
:1014500082E090E09093AD028093AC021092BA02C9
:101460001092BB021092BC021092BD021092B60202
:101470001092B7021092B8021092B90282E10E9453
:101480004802BC01990F880B990B61157105810504
:10149000910511F00E946B1084E291E090939F02FD
:1014A00080939E021092BE02DF91CF911F910F9107
:1014B000FF90EF900895789484B5826084BD84B5E0
:1014C000816084BD85B5826085BD85B5816085BD3F
:1014D00080916E00816080936E00109281008091F7
:1014E000810082608093810080918100816080937F
:1014F0008100809180008160809380008091B100A4
:1015000084608093B1008091B00081608093B000CE
:1015100080917A00846080937A0080917A00826062
:1015200080937A0080917A00816080937A00809124
:101530007A00806880937A001092C100C091C00246
:10154000D091C1022E813F81032E000C440B550B1C
:10155000C12C87E8D82E83E9E82E83E0F82EC70156
:10156000B6010E94741095E0892E912CA12CB12C0B
:10157000CA01B901A50194010E9474102A833B831A
:101580004C835D83C091C202D091C3020E811F8142
:101590009801110F440B550BC701B6010E9474103E
:1015A000CA01B901A50194010E9474102A833B83EA
:1015B0004C835D8381E08093BE02E0911102F09143
:1015C000120282E08083E0910D02F0910E021082FF
:1015D000E0910F02F09110028FEC808310921902BB
:1015E000E0911502F091160286E08083E0911302EB
:1015F000F0911402808180618083E0911302F09168
:101600001402808188608083E0911302F0911402BB
:10161000808180688083E0911302F09114028081C0
:101620008F7D80838EE992E00E949B0465E070E0EC
:1016300080E090E00E9484020E94A901F3CF97FB12
:10164000072E16F4009407D077FD09D00E94390BBD
:1016500007FC05D03EF4909581959F4F08957095B5
:1016600061957F4F0895EE0FFF1F0590F491E02DD7
:101670000994AA1BBB1B51E107C0AA1FBB1FA617D9
:10168000B70710F0A61BB70B881F991F5A95A9F72B
:1016900080959095BC01CD0108955058BB27AA278D
:1016A0000E94650B0C94A80D0E946F0D38F00E94EB
:1016B000760D20F039F49F3F19F426F40C94450D73
:1016C0000EF4E095E7FB0C943F0DE92F0E94CD0D41
:1016D00058F3BA17620773078407950720F079F467
:1016E000A6F50C94EF0D0EF4E0950B2EBA2FA02D5D
:1016F0000B01B90190010C01CA01A0011124FF27BF
:10170000591B99F0593F50F4503E68F11A16F040B9
:10171000A22F232F342F4427585FF3CF46953795B8
:101720002795A795F0405395C9F77EF41F16BA0B7D
:10173000620B730B840BBAF09150A1F0FF0FBB1F2B
:10174000661F771F881FC2F70EC0BA0F621F731F74
:10175000841F48F4879577956795B795F7959E3FD1
:1017600008F0B0CF9395880F08F09927EE0F979562
:10177000879508950E946F0D60F080E891E009F46C
:101780009EEF0E94760D28F040E851E071F45EEF84
:101790000CC00C94450D0C94EF0DE92FE0780E94DD
:1017A000CD0D40F3092E052AB1F326173707480758
:1017B000590738F00E2E07F8E02569F0E025E064BF
:1017C0000AC0EF6307F8009407FADB01B9019D0135
:1017D000DC01CA01AD01EF930E944D0C0E94A80DDF
:1017E0000E94FD0B5F91552339F02BED3FE049E45A
:1017F00050FD49EC0C944E0B0895DF93DD27B92F73
:10180000BF7740E85FE31616170648075B0718F432
:10181000D92F0E94F60D9F938F937F936F930E9411
:10182000B90EECE7F0E00E94480D0E94A80D2F9140
:101830003F914F915F910E94110EDD2351F090581E
:10184000A2EA2AED3FE049EC5FE3D0785D270E94F1
:10185000650BDF910C94A80D0E941B0D08F481E02C
:1018600008950E947F0DE3950C94B90D0E944A0CD7
:101870000C94A80D0E94760D58F00E946F0D40F058
:1018800029F45F3F29F00C943F0D51110C94F00D99
:101890000C94450D0E94CD0D68F39923B1F35523A7
:1018A00091F3951B550BBB27AA2762177307840773
:1018B00038F09F5F5F4F220F331F441FAA1FA9F309
:1018C00035D00E2E3AF0E0E832D091505040E695F7
:1018D000001CCAF72BD0FE2F29D0660F771F881F58
:1018E000BB1F261737074807AB07B0E809F0BB0B4B
:1018F000802DBF01FF2793585F4F3AF09E3F51055F
:1019000078F00C943F0D0C94F00D5F3FE4F3983E9B
:10191000D4F3869577956795B795F7959F5FC9F747
:10192000880F911D9695879597F90895E1E0660FC8
:10193000771F881FBB1F621773078407BA0720F041
:10194000621B730B840BBA0BEE1F88F7E0950895AA
:101950000E94AF0C6894B1110C94F00D08950E9490
:10196000D50D88F09F5798F0B92F9927B751B0F04F
:10197000E1F0660F771F881F991F1AF0BA95C9F713
:1019800014C0B13091F00E94EF0DB1E008950C94B5
:10199000EF0D672F782F8827B85F39F0B93FCCF368
:1019A000869577956795B395D9F73EF49095809590
:1019B000709561957F4F8F4F9F4F0895E89409C0B0
:1019C00097FB3EF490958095709561957F4F8F4F72
:1019D0009F4F9923A9F0F92F96E9BB279395F69588
:1019E000879577956795B795F111F8CFFAF4BB0F06
:1019F00011F460FF1BC06F5F7F4F8F4F9F4F16C06A
:101A0000882311F096E911C0772321F09EE8872FF3
:101A1000762F05C0662371F096E8862F70E060E0AF
:101A20002AF09A95660F771F881FDAF7880F969528
:101A3000879597F90895990F0008550FAA0BE0E8CC
:101A4000FEEF16161706E807F907C0F01216130680
:101A5000E407F50798F0621B730B840B950B39F4C0
:101A60000A2661F0232B242B252B21F408950A2626
:101A700009F4A140A6958FEF811D811D089597F966
:101A80009F6780E870E060E008959FEF80EC089524
:101A9000DF93CF931F930F93FF92EF92DF927B011F
:101AA0008C01689406C0DA2EEF010E94110EFE012F
:101AB000E894A5912591359145915591A6F3EF01B3
:101AC0000E94650BFE019701A801DA9469F7DF9087
:101AD000EF90FF900F911F91CF91DF910895002417
:101AE0000A941616170618060906089500240A9483
:101AF000121613061406050608950C94450D0E944F
:101B0000D50DD8F3E894E0E0BB279F57F0F02AED1D
:101B10003FE049EC06C0EE0FBB0F661F771F881F22
:101B200028F0B23A62077307840728F0B25A620BB2
:101B3000730B840BE3959A9572F7803830F49A957D
:101B4000BB0F661F771F881FD2F790480C94BF0EFB
:101B5000092E0394000C11F4882352F0BB0F40F4BB
:101B6000BF2B11F460FF04C06F5F7F4F8F4F9F4FFB
:101B70000895EF93E0FF07C0A2EA2AED3FE049ECA9
:101B80005FEB0E94650B0E94A80D0F90039401FC6F
:101B90009058E9EAF0E00C94D20E57FD9058440FAB
:101BA000551F59F05F3F71F04795880F97FB991FBC
:101BB00061F09F3F79F08795089512161306140679
:101BC000551FF2CF4695F1DF08C016161706180606
:101BD000991FF1CF86957105610508940895E894E1
:101BE000BB2766277727CB0197F908959B01AC01A6
:101BF00060E070E080E89FE30C94360C0E94110EC8
:101C00000C94A80D0E946F0D38F00E94760D20F004
:101C1000952311F00C943F0D0C94450D11240C9458
:101C2000F00D0E94CD0D70F3959FC1F3950F50E01C
:101C3000551F629FF001729FBB27F00DB11D639F7E
:101C4000AA27F00DB11DAA1F649F6627B00DA11D24
:101C5000661F829F2227B00DA11D621F739FB00DCA
:101C6000A11D621F839FA00D611D221F749F33273A
:101C7000A00D611D231F849F600D211D822F762FD3
:101C80006A2F11249F5750409AF0F1F088234AF0B0
:101C9000EE0FFF1FBB1F661F771F881F915050401C
:101CA000A9F79E3F510580F00C943F0D0C94F00D68
:101CB0005F3FE4F3983ED4F3869577956795B795A3
:101CC000F795E7959F5FC1F7FE2B880F911D9695BD
:101CD000879597F908959F930E947F0D0F9007FCB9
:101CE000EE5F0C94B90D19F416F40C94450D0C9498
:101CF000BD0E0E94D50DB8F39923C9F3B6F39F57D3
:101D0000550B87FF0E94CB0E0024A0E640EA90010D
:101D100080585695979528F4805C660F771F881F2A
:101D200020F026173707480730F4621B730B840B2B
:101D3000202931294A2BA69517940794202531256F
:101D40004A2758F7660F771F881F20F02617370796
:101D5000480730F4620B730B840B200D311D411DBD
:101D6000A09581F7B901842F9158880F9695879592
:101D700008959B01AC010C94FE0D9F3F31F09150F2
:101D800020F4879577956795B795880F911D96955F
:101D9000879597F9089591505040660F771F881FD7
:101DA000D2F708959F938F937F936F93FF93EF9351
:101DB0009B01AC010E94FE0DEF91FF910E94480D26
:101DC0002F913F914F915F910C94FE0DCF93DF9334
:101DD0008230910510F482E090E0E091CC02F09125
:101DE000CD0220E030E0C0E0D0E0309711F140813A
:101DF000518148175907C0F04817590761F482818B
:101E00009381209719F09B838A832BC09093CD02F6
:101E10008093CC0226C02115310519F042175307D3
:101E200018F49A01BE01DF01EF010280F381E02D79
:101E3000DCCF2115310509F1281B390B2430310580
:101E400090F412968D919C9113976115710521F074
:101E5000FB019383828304C09093CD028093CC02D4
:101E6000FD01329644C0FD01E20FF31F819391936F
:101E7000225031092D933C933AC02091CA023091EF
:101E8000CB02232B41F420910201309103013093C6
:101E9000CB022093CA02209100013091010121154B
:101EA000310541F42DB73EB7409104015091050131
:101EB000241B350BE091CA02F091CB02E217F30725
:101EC000A0F42E1B3F0B2817390778F0AC014E5FAA
:101ED0005F4F2417350748F04E0F5F1F5093CB021A
:101EE0004093CA028193919302C0E0E0F0E0CF01F9
:101EF000DF91CF9108950F931F93CF93DF930097B6
:101F000009F48CC0FC013297138212820091CC023A
:101F10001091CD020115110581F420813181820FCC
:101F2000931F2091CA023091CB022817390779F507
:101F3000F093CB02E093CA0271C0D80140E050E0B8
:101F4000AE17BF0750F412962D913C911397AD0137
:101F50002115310509F1D901F3CF9D01DA01338350
:101F6000228360817181860F971F8217930769F41E
:101F7000EC0128813981260F371F2E5F3F4F3183B7
:101F800020838A819B8193838283452B29F4F0935C
:101F9000CD02E093CC0242C01396FC93EE931297CD
:101FA000ED01499159919E01240F351FE217F30766
:101FB00071F480819181840F951F029611969C93F4
:101FC0008E938281938113969C938E931297E0E077
:101FD000F0E0D80112968D919C911397009719F01B
:101FE000F8018C01F6CF8D919C9198012E5F3F4FA7
:101FF000820F931F2091CA023091CB022817390714
:1020000069F4309729F41092CD021092CC0202C0EC
:10201000138212821093CB020093CA02DF91CF91F8
:102020001F910F91089581E090E0F8940C94D710DF
:102030008F929F92AF92BF92CF92DF92EF92FF92D8
:10204000CF93DF93EC01688179818A819B8161154F
:1020500071058105910521F464E279ED8BE597E046
:102060002DE133EF41E050E00E94741049015A0124
:102070009B01AC01A7EAB1E40E9493106B017C01C3
:10208000ACEEB4EFA50194010E94A110DC01CB01DC
:102090008C0D9D1DAE1DBF1DB7FF03C00197A1098B
:1020A000B04888839983AA83BB83BC01CD019F7705
:1020B000DF91CF91FF90EF90DF90CF90BF90AF90E6
:1020C0009F908F9008950E941810089586E091E0E7
:1020D0000E94181008956093060170930701809381
:1020E0000801909309010895052E97FB1EF40094B2
:1020F0000E948B1057FD07D00E94A61007FC03D04A
:102100004EF40C948B1050954095309521953F4F8F
:102110004F4F5F4F089590958095709561957F4FD3
:102120008F4F9F4F08950E94C810A59F900DB49F98
:10213000900DA49F800D911D11240895B7FF0C945C
:1021400093100E949310821B930B0895A1E21A2E04
:10215000AA1BBB1BFD010DC0AA1FBB1FEE1FFF1F4B
:10216000A217B307E407F50720F0A21BB30BE40B9B
:10217000F50B661F771F881F991F1A9469F76095E2
:102180007095809590959B01AC01BD01CF0108959C
:10219000A29FB001B39FC001A39F700D811D1124A8
:1021A000911DB29F700D811D1124911D0895F89409
:0221B000FFCF5F
:1021B2000000CE028000010000000000000040018B
:1021C200BC000901E700FB00870100000000990440
:0621D200000000009B0468
:00000001FF
