:100000000C9490000C94B8000C94B8000C94B800B8
:100010000C94B8000C94B8000C94B8000C943D10EB
:100020000C94B8000C94B8000C94B8000C94B80070
:100030000C94B8000C94B8000C94B8000C94B80060
:100040000C947F0F0C94B8000C94570A0C94310A4E
:100050000C94B8000C94B8000C94B8000C94B80040
:100060000C94B8000C94B8000B151A1539154C15E2
:1000700067156D157715C415CF15141614161416BB
:1000800014161416141607164E414E494E4954596B
:10009000494E46CDCCCC3D0AD7233C17B7D1387753
:1000A000CC2B329595E6241FB14F0A000020410069
:1000B00000C84200401C4620BCBE4CCA1B0E5AAEB3
:1000C000C59D7400000000230026002900000000E8
:1000D00000240027002A0000000000250028002B33
:1000E00000040404040404040402020202020203E1
:1000F00003030303030102040810204080010204EB
:10010000081020010204081020000000080002016D
:10011000000003040700000000000000000041167A
:1001200011241FBECFEFD8E0DEBFCDBF12E0A0E0AC
:10013000B1E0EEE9FFE302C005900D92A233B107F2
:10014000D9F727E0A2E3B2E001C01D92A733B207BE
:10015000E1F710E0C0E9D0E004C02197FE010E9461
:10016000421DCF38D107C9F70E9415130C94CD1F3B
:100170000C9400002F923F924F925F926F927F9269
:100180008F929F92AF92BF92CF92DF92EF92FF92A7
:100190000F931F93CF93DF93CDB7DEB72C970FB696
:1001A000F894DEBF0FBECDBF6C01DC0118968C91B8
:1001B000823009F478C2843009F426C281116AC7FA
:1001C000F601ED5AFC4FE080F1803297A080B180BB
:1001D0008AED92E0F701938782878091D70290E0C1
:1001E000958784878091A40390E097878687809184
:1001F000D302853009F04EC78091DC029091DD0278
:10020000885891098D35910588F48091D702843002
:1002100041F48091DE029091DF028097479708F4C5
:10022000B1C28091D702843408F093C28091D70282
:100230008A3108F448C08091DA029091DB02843F51
:10024000914050F4D70119961C921E9218978FEF87
:100250009FEFDC01F70149C08091DC029091DD0243
:1002600085974B9780F5E0EEF2E082E090E040E089
:1002700050E0BA018C010F5F1F4F2091D70230E090
:10028000021713076CF49F0122503109D9012D91F7
:100290003C91275031092730310508F4B2C2C8011A
:1002A000019795958795F701918780870C971CF4A6
:1002B0001186108608C0D7014483558366837783EF
:1002C00084E090E002C48091D7028A3108F44CC0E7
:1002D0008091DA029091DB028032934068F4F7015A
:1002E000118610868FEF9FEFDC0184839583A683B0
:1002F000B7838BE090E028C48091DC029091DD020E
:10030000C697869708F499C22FC020813181255263
:1003100031092B31310508F0A8C2440F551F661F63
:10032000771F4160029634968C010F5F1F4F20911A
:10033000D70230E00217130764F49F0122503109FD
:10034000D9012D913C912C5031092B303105E8F227
:10035000C801019795958795F701918780870C973C
:100360000CF07BC2118610868091D702823208F48D
:1003700047C08091DC029091DD020697079708F054
:100380003FC0E0EEF2E082E090E0412C512C3201DF
:100390009C012F5F3F4F4091D70250E02417350753
:1003A000E4F4DF0112974D915C9111974E51510980
:1003B0004731510508F066C2440C551C661C771C79
:1003C000689440F84081518134964350510945303A
:1003D000510510F40296DCCFC901019795958795D8
:1003E000F7019187808740971CF41186108608C01A
:1003F000D70144825582668277828CE090E065C3A3
:100400001C821B8281E090E09A8389838091D702CD
:100410008D3008F477C009E713E09E012D5F3F4F50
:10042000AE014F5F5F4FB701C5010E94C90F892B15
:1004300009F068C09E012D5F3F4FAE014F5F5F4FD7
:10044000B701C5010E94C90F019709F05BC09E0169
:100450002D5F3F4FAE014F5F5F4FB701C5010E9457
:10046000C90F892B09F04EC0212C312C2101812C80
:10047000912C8091D70290E029813A812817390781
:10048000A4F509E713E09E012D5F3F4FAE014F5FDA
:100490005F4FB701C5010E94C90F3C019E012D5F4E
:1004A0003F4FAE014F5F5F4FB701C5010E94C90FBB
:1004B000B1E06B16710469F4892B21F5D201C101F9
:1004C000880F991FAA1FBB1F1C012D01689420F8DB
:1004D00008C06728B9F40197A9F4220C331C441C06
:1004E000551CEFEF8E1A9E0AC4CFD70119969C9225
:1004F0008E921897F701248235824682578281E0D6
:1005000090E022C31C821B8281E090E09A83898361
:10051000D7011C968D919C911D97181619060CF009
:1005200067C01A96ED91FC911B9782E090E09A8348
:1005300089838281938189974E9708F059C083E01F
:1005400090E09A838983848195810B970A9708F0BC
:100550004FC00CEB11E09E012D5F3F4FFE01319625
:100560004F01AF01B701C5010E94C90F892B09F0E6
:100570003FC00CEB11E09E012D5F3F4FA401B7017E
:10058000C5010E94C90F019799F5212C312C210139
:10059000612C712C8B869C8629813A81D7011C960F
:1005A0008D919C911D97281739070CF0C1C10CEB58
:1005B00011E09E012D5F3F4FA401B701C5010E94CC
:1005C000C90F9E838D83B3E06B16710409F067C178
:1005D0000CEB11E09E012D5F3F4FA401B701C50157
:1005E0000E94C90F2D813E812817390709F457C190
:1005F000D7011A96ED91FC911B9782819381C69742
:10060000869708F4A1C1F3C1F60161897289072EAA
:10061000000C880B990B0E94EA194B015C012BED31
:100620003FE049EC50E4D6015F966D917D918D914C
:100630009C9192970E94111C9B01AC01C501B401D1
:100640000E94491A0E94831CAB01BC01F601828101
:1006500093810E942011C6010E94F6114B015C019A
:10066000F60123893489458956890E94E3191816B1
:1006700064F441E050E060E070E0D60112968D91A4
:100680009C9113970E948B11E6CF20E030E0A901E6
:10069000C501B4010E94B91C87FDEBCF82E0D601F1
:1006A00018968C93F7C4F60161897289072E000CA5
:1006B000880B990B0E94EA194B015C012BED3FE07E
:1006C00049EC50E4D60193966D917D918D919C916A
:1006D00096970E94111C20E030E040E05FE30E940A
:1006E000A51B9B01AC01C501B4010E94491A0E94DF
:1006F000831CAB01BC01F601828193810E94201111
:10070000D60112960D911C911397F801668977898D
:10071000072E000C880B990B0E94EA19D6015B96F4
:100720002D913D914D915C915E970E94491AF60181
:1007300027A130A541A552A50E94111C0E94831C2F
:10074000AB01BC01C8010E948B11D60118961C9206
:10075000A1C48091DE029091DF02825491098E97AC
:1007600008F064CD20E030E080E090E0DC01F901A9
:10077000E052FD4F408151814950510949305105A6
:1007800098F054CD8091E0029091E1020997099789
:1007900008F047CDD70119961C921E9218978FEF3B
:1007A0009FEFDC01F70119C0F901EE51FD4F4081C7
:1007B00051814751510942315105B0F4880F991FB9
:1007C000AA1FBB1F81602C5F3F4F2038310579F68F
:1007D00020E230E0F7013187208784839583A68368
:1007E000B78383E090E0B0C1408151814650510908
:1007F0004730510508F01ACD880F991FAA1FBB1F5B
:10080000E2CF20813181235131092F30310540F46D
:10081000440F551F661F771F4160029634962ACDFC
:10082000208131812A5031092930310508F04BCD22
:10083000440F551F661F771FF0CF8091DE02909105
:10084000DF02C697869708F08FCDE2EEF2E083E0F4
:1008500090E040E050E0BA0167CDD7014483558372
:10086000668377838BE090E030C1208131812C500A
:1008700031092A30310508F077CD440F551F661F26
:10088000771F50CD4D915C914C5051094B30510523
:1008900008F0B6CD440C551C661C771C93CD0CEBB0
:1008A00011E09E012D5F3F4F4B855C85B701C5016F
:1008B0000E94C90F98878F83E3E06E16710489F454
:1008C0000CEB11E09E012D5F3F4F4B855C85B7011E
:1008D000C5010E94C90FAF81B885A817B90709F0F3
:1008E00087CE8D819E81892B81F4EF81F8853197A8
:1008F00009F07ECED201C101880F991FAA1FBB1F2C
:100900001C012D01689420F80FC02D813E812130FB
:10091000310509F06DCE8F819885892B09F068CE5D
:10092000220C331C441C551C9FEF691A790A34CEE3
:1009300019967C926E921897F7012482358246822E
:10094000578282E090E000C1848195814B97459762
:1009500008F04DC0DF0116964F0116EC810E911C78
:1009600020E030E040E050E060E070E080E090E0C7
:10097000AD90BC90119719E0A11AB10818E0A1162A
:10098000B104A8F51296AD90BC90139711E1A11A8D
:10099000B1081DE0A116B104D8F401E00E94481D81
:1009A00021601496A815B90519F7F701248335833A
:1009B0004683578300E20E94631D2283338385E0D0
:1009C00090E09183808380E390E091878087BEC030
:1009D0001296AD90BC90139714E0A11AB10815E0DF
:1009E000A116B10420F401E00E94481DDACF8091E5
:1009F000D702893340F082819381895791098335E9
:100A0000910508F4ABC18091D702823209F4C0C0CD
:100A100082819381895791098335910508F418C221
:100A2000828193818C549109C59708F0B8C0809158
:100A3000D702843031F4848195818097479708F4F8
:100A400067C28091D702843408F4A9C0848195815B
:100A500089549109C39708F0A2C09F012A5F3F4FB4
:100A6000BF016A577F4F812C912C5401D9014D91C0
:100A70005C91495051094930510508F090C0D901A5
:100A800012964D915C911397465151094131510590
:100A900008F054C2D501C401880F991FAA1FBB1FBB
:100AA0004C015D01689480F82C5F3F4F2617370793
:100AB000E9F620E230E0F70131872087D701848210
:100AC0009582A682B78287E090E08D939C933EC08A
:100AD000980122503109D9012D913C9129503109B9
:100AE0002830310508F097C0BC016F5F7F4FD801F7
:100AF0002D913C91275031092730310508F081C2F2
:100B0000440F551F416002960C5F1F4F2091D70282
:100B100030E02450310982179307D4F2019795955C
:100B20008795D70119969C938E9318978A970CF402
:100B300072C0052E000C660B770BF70144835583BA
:100B40006683778389E090E091838083F601ED5A94
:100B5000FC4F0190F081E02D84819581A681B781C1
:100B6000F601EB5AFC4F80839183A283B383F60195
:100B7000878F90A3A1A3B2A322E02093D302109267
:100B8000D70283A394A3A5A3B6A384E0808782C2DF
:100B9000828193810A97099708F43BC139CF8091EC
:100BA000D702863460F1828193810C970B9708F409
:100BB000D5C125C0D90112966D917C9113976E51C4
:100BC00071096731710508F0FDC1D501C401880FB5
:100BD000991FAA1FBB1F4C015D01689480F84E5FEE
:100BE0005F4F2C5F3F4F4534510509F4D2C1D90105
:100BF0006D917C916C5071096B307105D8F28091C8
:100C0000D702883540F082819381855891098B35D0
:100C1000910508F4E7C18091D7028032E1F4828126
:100C2000938106970697B8F484819581099709976F
:100C300090F49F012A5F3F4FBF01625C7F4F812C80
:100C4000912C5401D9014D915C9146505109463087
:100C5000510508F4E3C1D7011C960D90BC91A02D5D
:100C6000BE83AD8316970CF410C21F01B6E02B0EA5
:100C7000311C03E010E075EC872E7DE9972E7CE1B6
:100C8000A72E71E8B72EF1016081718134976080E1
:100C9000718080E090E00E94E8196F8378878987EF
:100CA0009A87B30180E090E00E94E8192B013C0193
:100CB0002DEC3CEC4CE45FE30E94491A9B01AC0133
:100CC0006F81788589859A850E94E31987FD19C00F
:100CD0002DEC3CEC4CE45FE36F81788589859A8547
:100CE0000E94491A9B01AC01C301B2010E94E319A1
:100CF000E82F880FFF0BEE27FF0FEE1FFF2731961F
:100D000002C0E0E0F0E0A501940163E971E080E059
:100D100091E00E941E1D4F01FF0FAA08BB08862606
:100D20009726A826B9260F5F1F4FF2E02F0E311C21
:100D30002D813E810217130709F0A5CFD701149624
:100D40008D929D92AD92BC92179780E290E0199699
:100D50009C938E9318978FEF9FEFB7CE84819581E8
:100D6000CA97899708F04FCE9F012A5F3F4F812C89
:100D7000912C540143E050E0D9016D917C916A506F
:100D800071096930710508F03ECED90112966D9156
:100D90007C911397665171096131710550F5D50148
:100DA000C401880F991FAA1FBB1F4C015D016894E5
:100DB00080F84E5F5F4F2C5F3F4F4B335105E1F69C
:100DC0009F012A583F4FD9012D913C912A5031095A
:100DD0002930310508F017CE2CE130E0F7013187DA
:100DE0002087D70184829582A682B7828AE090E02C
:100DF0006CCED90112966D917C9113976650710952
:100E00006730710508F0FFCD880C991CAA1CBB1C2B
:100E1000D0CF2091D702CF01820F911D820F911D5B
:100E2000DC0112978D919C910A97099708F0F0CDFB
:100E3000D70119961C921E9218978FEF9FEFDC0135
:100E4000F70184839583A683B78386E090E07CCE08
:100E50008091D702813208F4E3CD84819581CA97CD
:100E6000899708F0DDCD9F012A5F3F4F812C912C9F
:100E7000540143E050E0D9016D917C916A507109B1
:100E80006930710508F0CCCDD90112966D917C9135
:100E90001397665171096131710550F5D501C4018F
:100EA000880F991FAA1FBB1F4C015D01689480F831
:100EB0004E5F5F4F2C5F3F4F43325105E1F69F017C
:100EC0002A5B3F4FD9012D913C912A50310929309D
:100ED000310508F0A5CD20E130E0F701318720870A
:100EE000D70184829582A682B78286E090E0EDCD1C
:100EF000D90112966D917C911397665071096730F4
:100F0000710508F08DCD880C991CAA1CBB1CD0CF94
:100F1000868197810997099708F093CDD701199693
:100F20001C921E9218978FEF9FEFDC01F7018483CC
:100F30009583A683B78387E090E006CED901129609
:100F40004D915C911397465051094730510508F077
:100F500026CE880C991CAA1CBB1CA6CD8481958129
:100F60000997099708F04BCE868197818C974F9708
:100F700008F045CE8085918589974D9708F03FCE42
:100F80009F01265F3F4F812C912C540145E050E09A
:100F90002ECE9F0126573F4FD9012D913C912C50C9
:100FA00031092B30310508F02ACE20E230E0F7017C
:100FB00031872087D70184829582A682B78288E014
:100FC00090E083CDD90112966D917C911397695071
:100FD00071096930710508F012CE880C991CAA1CA1
:100FE000BB1CFDCD84819581825491098E9708F0B8
:100FF00012CE8F01045C1F4F8DE190E040E050E085
:1010000085CDD8012D913C912851310922313105EE
:1010100010F0CB0183CD440F551F75CDD901129629
:101020004D915C9113974951510943315105E8F4B1
:10103000D501C401880F991FAA1FBB1F4C015D0178
:10104000689480F82C5F3F4F2617370709F0FACDD8
:101050002EE030E0F70131872087D7018482958226
:10106000A682B7828FE090E030CDD90112964D91E3
:101070005C911397495051094930510508F0EBCD67
:10108000880C991CAA1CBB1CDDCF82E08093D30284
:101090001092D7022C960FB6F894DEBF0FBECDBFCC
:1010A000DF91CF911F910F91FF90EF90DF90CF9044
:1010B000BF90AF909F908F907F906F905F904F9078
:1010C0003F902F900895CF92DF92EF92FF920F936F
:1010D0001F93CF93DF936C017A018B01C0E0D0E0C6
:1010E000CE15DF0589F0D8016D918D01D601ED9106
:1010F000FC910190F081E02DC6010995892B11F436
:101100007E0102C02196ECCFC701DF91CF911F91E4
:101110000F91FF90EF90DF90CF900895FC01918D9B
:10112000828D981761F0828DDF01A80FB11D5D9649
:101130008C91928D9F5F9F73928F90E008958FEFB7
:101140009FEF0895FC01918D828D981731F0828D6B
:10115000E80FF11D858D90E008958FEF9FEF0895C2
:10116000FC01918D228D892F90E0805C9F4F821B26
:1011700091098F739927089586E392E00E94B00841
:1011800021E0892B09F420E0822F08950E948A1F14
:10119000AF92BF92CF92DF92EF92FF920F931F9385
:1011A000CF93DF93DC01CD90DC901197C114D10473
:1011B00009F442C01496CD91DC9115972097E1F186
:1011C0008C0156017501BFEFAB1ABB0AF701808194
:1011D000082E000C990B0E94C219892B99F72197B0
:1011E000CC0DDD1D8881082E000C990B0E94C219C0
:1011F000892B91F4AE014F5F5F4F4E195F09D80103
:1012000015965C934E931497CE14DF0450F4B701F7
:10121000C6010E94971F05C0CE15DF0558F3219720
:10122000E1CFD801ED91FC91119714968D919C918D
:101230001597E80FF91F1082DF91CF911F910F9141
:10124000FF90EF90DF90CF90BF90AF900895FB019B
:1012500044815581FC01248135812417350778F0BC
:1012600080819181009759F0FB0160817181611546
:10127000710529F00E94B01F21E0892B09F020E0C0
:10128000822F0895FC0124813581232B31F421E044
:1012900061157105A1F0FB0108C0FC0180819181FD
:1012A0006115710531F421E0FC018081882339F05A
:1012B00005C00E94A01F21E0892B09F020E0822FA9
:1012C00008950F931F93CF93DF93EC018881998149
:1012D000009729F02A813B812617370788F48B0174
:1012E0006F5F7F4F0E94C01E009761F099838883D3
:1012F0001B830A832C813D81232B11F4FC01108276
:1013000081E001C080E0DF91CF911F910F9108959E
:10131000EF92FF920F931F93CF93DF93EC0119820B
:1013200018821B821A821D821C826115710549F187
:101330008B01FB0101900020E9F731977F01E61A4C
:10134000F70AB7010E9461092881398181110DC016
:101350002115310519F0C9010E94281E1982188231
:101360001D821C821B821A820CC0FD82EC82B80195
:10137000C901DF91CF911F910F91FF90EF900C94D5
:10138000A91FDF91CF911F910F91FF90EF900895CA
:10139000EF92FF920F931F93CF93DF93EC0181E0C5
:1013A000888F9B8D8C8D981305C0E889F989808181
:1013B00085FD24C0F62E0B8D10E00F5F1F4F0F73BD
:1013C0001127E02E8C8DE8120CC00FB607FCFACF67
:1013D000E889F989808185FFF5CFCE010E948D0DC6
:1013E000F1CF8B8DFE01E80FF11DE35AFF4FF08224
:1013F0000B8FEA89FB898081806207C0EE89FF89B3
:101400006083E889F98980818064808381E090E04D
:10141000DF91CF911F910F91FF90EF900895CF939F
:10142000DF93EC01888D8823C9F0EA89FB898081EC
:1014300085FD05C0A889B9898C9186FD0FC00FB6BE
:1014400007FCF5CF808185FFF2CFA889B9898C91FF
:1014500085FFEDCFCE010E948D0DE7CFDF91CF91BB
:1014600008951F920F920FB60F9211242F933F935E
:101470004F935F936F937F938F939F93AF93BF939C
:10148000EF93FF9386E392E00E948D0DFF91EF9121
:10149000BF91AF919F918F917F916F915F914F918C
:1014A0003F912F910F900FBE0F901F9018951F9294
:1014B0000F920FB60F9211242F938F939F93EF9358
:1014C000FF93E0914602F09147028081E0914C0247
:1014D000F0914D0282FD12C0908180914F028F5F8A
:1014E0008F7320915002821751F0E0914F02F0E08B
:1014F000EA5CFD4F958F80934F0201C08081FF9180
:10150000EF919F918F912F910F900FBE0F901F9091
:101510001895E0913602F09137020190F081E02DAC
:10152000682F86E392E00994009769F0FC0101902E
:101530000020E9F73197AF01481B590BBC0186E346
:1015400092E00C94630880E090E008958F929F925F
:10155000AF92BF920F931F93CF93DF93CDB7DEB7B8
:10156000A1970FB6F894DEBF0FBECDBF19A24230CF
:1015700008F44AE08E010F5D1F4F842E912CA12CA0
:10158000B12CA50194010E94731BE62FB901CA0179
:1015900001501109EA3014F4E05D01C0E95CD801A2
:1015A000EC93232B242B252B61F7C8010E94940A6E
:1015B000A1960FB6F894DEBF0FBECDBFDF91CF91DD
:1015C0001F910F91BF90AF909F908F900895CF93F0
:1015D000DF930E94940AEC0182E791E00E94940A52
:1015E0008C0F9D1FDF91CF910895CF92DF92EF92E4
:1015F000FF92CF93DF936C01990FEE08FF08F7FE7F
:1016000012C08DE20E94890AEC0166277727CB0180
:101610006C197D098E099F094AE00E94A60A7C0187
:10162000EC0EFD1E06C04AE0C701B6010E94A60AE4
:101630007C0182E791E00E94940A8E0D9F1DDF914C
:10164000CF91FF90EF90DF90CF9008950C94940A83
:10165000CF92DF92EF92FF92CF93DF936C01990FBD
:10166000EE08FF08F7FE17C08DE20E94890AEC0120
:1016700066277727CB016C197D098E099F094AE0FF
:101680000E94A60A8C0F9D1FDF91CF91FF90EF90D3
:10169000DF90CF9008954AE0C701B601DF91CF9166
:1016A000FF90EF90DF90CF900C94A60A8F929F92BC
:1016B000AF92BF92CF92DF92EF92FF920F931F9360
:1016C000CF93DF938091A9039091AA030E945512B2
:1016D000C091B403D091B5038C018EEAE82E83E06B
:1016E000F82E680186E0C80ED11C812C912C540183
:1016F000F801819191918F01F701219131917F0141
:10170000821B930B889FB001899F700D700D11246F
:10171000072E000C880B990B0E94EA199B01AC0163
:10172000C501B4010E94A51B4B015C010C151D05F0
:10173000F9F60E94C41C6B017C01CE019927BC0103
:10174000990F880B990B0E94EA199B01AC01C70104
:10175000B6010E94E31987FF05C082E08093AD03C4
:1017600081E001C080E0DF91CF911F910F91FF9048
:10177000EF90DF90CF90BF90AF909F908F900895A3
:101780004F925F926F927F928F929F92AF92BF9291
:10179000CF92DF92EF92FF926B017C019B01AC0133
:1017A0000E94041D882319F086E292E01AC04601C7
:1017B0005701E894B7F82FEF3FEF4FE75FE7C50118
:1017C000B4010E94041D811110C02FEF3FEF4FE7BD
:1017D0005FE7C501B4010E94E319181634F48AE2E8
:1017E00092E00E94940A7C017FC02FEF3FEF4FE709
:1017F0005FE4C701B6010E94B91C18161CF48EE202
:1018000092E0EFCF2FEF3FEF4FE75FECC701B6015C
:101810000E94E31987FDF3CF20E030E0A901C70162
:10182000B6010E94E31987FF09C08DE20E94890A70
:101830005C01F7FAF094F7F8F09402C0A12CB12CF7
:101840002AE037ED43EA5BE3C701B6010E94A51B1E
:101850002B013C010E948A1C6B017C010E94E8194B
:101860009B01AC01C301B2010E94A41B2B013C01EE
:101870004AE0C701B6010E94A60A7C01EA0CFB1CE3
:101880008EE20E94890AE80EF91E20E030E040E274
:1018900051E4C301B2010E94491A2B013C010E948C
:1018A0008A1C4B01A12CB12C4AE0C501B4010E9455
:1018B000A60AE80EF91EC501B4010E94E8199B01B1
:1018C000AC01C301B2010E94A41B20E030E040E261
:1018D00051E40E94491A0E948A1C80E090E04AE08C
:1018E0000E94A60AE80EF91E82E791E00E94940A7F
:1018F0008E0D9F1DFF90EF90DF90CF90BF90AF9027
:101900009F908F907F906F905F904F900895CF93AE
:10191000DF93FC014481558141155105C9F06115E2
:101920007105B1F04617570708F4BA01EC01888138
:101930009981461B570B5D834C83680F791F0E946A
:10194000BE1FE881F9818C819D81E80FF91F10820B
:10195000DF91CF9108952FB7F89480913202909142
:101960003302A0913402B09135022FBF80933E0222
:1019700090933F02A0934002B0934102E09136025F
:10198000F09137020680F781E02D86E392E0099519
:1019900097FF26C02FB7F8948091320290913302BE
:1019A000A0913402B09135022FBF40913E02509178
:1019B0003F026091400270914102841B950BA60B7F
:1019C000B70B40913A0250913B0260913C027091FA
:1019D0003D0284179507A607B70780F28FEF9FEFA8
:1019E000089580E090E0892B29F00E94BC088111C5
:1019F0000C9400000895833081F028F4813099F030
:101A00008230A1F008958730A9F08830B9F0843091
:101A1000D1F4809180008F7D03C0809180008F770A
:101A200080938000089584B58F7702C084B58F7D40
:101A300084BD08958091B0008F7703C08091B0007D
:101A40008F7D8093B00008953FB7F89480912D0763
:101A500090912E07A0912F07B091300726B5A89B33
:101A600005C02F3F19F00196A11DB11D3FBFBA2F30
:101A7000A92F982F8827820F911DA11DB11DBC0190
:101A8000CD0142E0660F771F881F991F4A95D1F755
:101A90000895CF92DF92EF92FF92CF93DF93EC0104
:101AA000072E000C880B990B0E94EA196B017C0130
:101AB00020E030E040E45FE30E94491A20E030E09B
:101AC00048E452E40E94111C0E94831CC617D707E9
:101AD000D4F020E030E040EA5FE3C701B6010E94A5
:101AE000491A20E030E048E452E40E94111C20E052
:101AF00030E040E85FE30E94A51B0E94831C21E0C8
:101B00006C177D070CF420E0822F90E0DF91CF91DD
:101B1000FF90EF90DF90CF900895FC01848DDF015E
:101B2000A80FB11DA35ABF4F2C91848D90E0019650
:101B30008F739927848FA689B7892C93A089B1893F
:101B40008C9180648C93938D848D981306C0028849
:101B5000F389E02D80818F7D808308951F93CF933B
:101B6000DF93282F30E0F901E75FFE4F8491F90100
:101B7000EB50FF4FD491F901EF51FF4FC491CC23AB
:101B8000C9F0162F81110E94FB0CEC2FF0E0EE0F34
:101B9000FF1FE952FF4FA591B4918FB7F89411112F
:101BA00005C09C91ED2FE095E92302C0EC91ED2B4F
:101BB000EC938FBFDF91CF911F910895CF93DF9367
:101BC00090E0FC01EB50FF4F2491FC01EF51FF4FDF
:101BD0008491882361F190E0880F991FFC01E35301
:101BE000FF4FC591D491FC01E952FF4FA591B491EB
:101BF000611109C09FB7F89488812095822388835A
:101C0000EC912E230BC0623061F49FB7F8943881B9
:101C1000822F809583238883EC912E2B2C939FBF5A
:101C200006C08FB7F894E8812E2B28838FBFDF91F1
:101C3000CF9108958E3008F08E5087708064809325
:101C40007C0080917A00806480937A0080917A0091
:101C500086FDFCCF809178002091790090E0922B56
:101C600008958F929F92AF92BF92CF92DF92EF92A0
:101C7000FF926B017C010E94240D4B015C01C11499
:101C8000D104E104F104F1F00E94240DDC01CB0148
:101C900088199909AA09BB09883E9340A105B10595
:101CA00070F321E0C21AD108E108F10888EE880E2D
:101CB00083E0981EA11CB11CC114D104E104F104FD
:101CC00019F7DDCFFF90EF90DF90CF90BF90AF90EE
:101CD0009F908F9008952F923F924F925F926F92B4
:101CE0007F928F929F92AF92BF92CF92DF92EF92AC
:101CF000FF920F931F93CF93DF93CDB7DEB72F974C
:101D00000FB6F894DEBF0FBECDBF9F878E876901E7
:101D10007A01262E312CFC0127E0629FE00DF11D97
:101D200011248285843118F461E00E94AE0DF7FE23
:101D30000BC0F094E094D094C094C11CD11CE11C61
:101D4000F11C3FEF398302C041E04983812C912C83
:101D5000540127E0229DC001239D900D1124EE85A2
:101D6000FF858E0F9F1F8C01075F1F4FAC014B5FDC
:101D70005F4F5C834B83FC013496FE83ED834D5FA4
:101D80005F4F58874F83B1016F5F7F4F269FA00140
:101D9000279F500D1124EE85FF85E40FF51FFA876C
:101DA000E9879C012A5F3F4F3C872B8780E6482EBE
:101DB0008AEE582E612C712C8C149D04AE04BF0445
:101DC00009F45BC0F8019081943021F09F3F19F431
:101DD00093E001C090E0F801908391FF02C081E0A0
:101DE000982791FB662760F9EB81FC8180819D87B4
:101DF0000E94AE0D9D85292F21702A83622FED81CF
:101E0000FE8180810E94AE0DEF81F88580819D85E5
:101E1000843099F421E091FB662760F96227E98517
:101E2000FA8580812D870E94AE0D2D856A816227FB
:101E3000EB85FC8580810E94AE0DEE85FF85A6892D
:101E4000B78920813181428153810E94341B9B01DB
:101E5000AC01C301B2010E94731BCA01B9010E9407
:101E6000310EFFEF8F1A9F0AAF0ABF0AF801808177
:101E7000F9818F0FF80180839FCF27E0229DC00159
:101E8000239D900D11242E853F85820F931FFC0109
:101E900082858431D8F460E02F960FB6F894DEBFC7
:101EA0000FBECDBFDF91CF911F910F91FF90EF90AB
:101EB000DF90CF90BF90AF909F908F907F906F906A
:101EC0005F904F903F902F900C94AE0D2F960FB6D1
:101ED000F894DEBF0FBECDBFDF91CF911F910F9160
:101EE000FF90EF90DF90CF90BF90AF909F908F903A
:101EF0007F906F905F904F903F902F9008951F922A
:101F00000F920FB60F9211242F933F938F939F93AD
:101F1000AF93BF938091320290913302A09134022B
:101F2000B091350230912C0723E0230F2D3720F498
:101F30000196A11DB11D05C026E8230F0296A11D23
:101F4000B11D20932C078093320290933302A0930B
:101F50003402B093350280912D0790912E07A09105
:101F60002F07B09130070196A11DB11D80932D0759
:101F700090932E07A0932F07B0933007BF91AF9196
:101F80009F918F913F912F910F900FBE0F901F90B7
:101F900018958F929F92AF92BF92CF92DF92EF925D
:101FA000FF920F931F93CF93DF93DA01CD91DC91D2
:101FB000FB0184859585C817D9070CF04CC0CE016C
:101FC000880F991F0284F385E02DE80FF91F8080A8
:101FD0009180C170DD27F1E0CF27209719F484E6C6
:101FE00090E002C08CE99FEF59016A017801E80E88
:101FF000F91EB701C4010E94490D892B99F4E00E26
:10200000F11EB701C4010E94490D892B71F4B7017B
:10201000600F711FC4010E94490D892BF9F023E064
:1020200030E005C021E030E002C022E030E0D50120
:102030008D919C91119701968217930744F0F501B9
:1020400011821082D6018D919C91119701968D93EA
:102050009C93CE0105C081E090E002C08FEF9FEF1E
:10206000DF91CF911F910F91FF90EF90DF90CF9074
:10207000BF90AF909F908F9008951F920F920FB6D0
:102080000F9211242F933F934F935F936F937F93FE
:102090008F939F93AF93BF93CF93DF93EF93FF9370
:1020A0002091D40230E0F901E75FFE4F8491F901FD
:1020B000EB50FF4FD491F901EF51FF4FC491CC2366
:1020C000A1F081110E94FB0CEC2FF0E0EE0FFF1F3E
:1020D000ED53FF4FA591B491EC91ED2331E020E059
:1020E00009F430E0832F922F02C080E090E020912D
:1020F000D8023091D9022F5F3F4F3093D9022093FD
:10210000D8022091D702253618F026E02093D3027A
:102110002091D3022430D9F128F4223069F0233001
:10212000D9F060C0253009F453C0263009F05AC0F8
:1021300021E02093A40353C0009709F053C02091DD
:10214000D8023091D9022436310508F443C01092E8
:10215000A4031092D7021DC08130910509F042C03E
:10216000E091D70221E02E0F2093D702F0E02091DA
:10217000D8023091D902EE0FFF1FED52FD4F30878C
:1021800027831092D9021092D80224E029C0009728
:10219000B9F4E091D70221E02E0F2093D702F0E0AE
:1021A0002091D8023091D902EE0FFF1FED52FD4F62
:1021B000308727831092D9021092D80223E010C0F2
:1021C0002091D8023091D9022536310558F007C048
:1021D000009741F41092D9021092D80203C025E072
:1021E0002093D3022091D6022223B9F0892B51F4F7
:1021F0008091D502882321F08091D50261E009C049
:102200002D9A0BC08091D502882331F08091D502A0
:1022100060E00E94AE0D01C02D98FF91EF91DF911B
:10222000CF91BF91AF919F918F917F916F915F916E
:102230004F913F912F910F900FBE0F901F901895C7
:102240004F925F926F927F928F929F92AF92BF92C6
:10225000CF92DF92EF92FF92CF93DF93EC016A016E
:102260007B01812C912C5401442455243201441AC1
:10227000550A660A770AD701C601F7FE02C0D301E4
:10228000C20188169906AA06BB06B4F5F7FC03C07E
:1022900081E090E002C08FEF9FEF4A895B89849FC5
:1022A0009001859F300D949F300D1124032E000C5A
:1022B000440B550B60E0CE010E946B0EF7FC03C08F
:1022C0008FEF9FEF02C081E090E04C895D89849F91
:1022D0009001859F300D949F300D1124032E000C2A
:1022E000440B550B61E0CE010E946B0E8FEF881AF4
:1022F000980AA80AB80ABFCFDF91CF91FF90EF905C
:10230000DF90CF90BF90AF909F908F907F906F9015
:102310005F904F9008954F925F926F927F928F924D
:102320009F92AF92BF92CF92DF92EF92FF92CF93A4
:10233000DF93EC016A017B01812C912C5401442430
:1023400055243201441A550A660A770AD701C60194
:10235000F7FE02C0D301C20188169906AA06BB0681
:10236000B4F5F7FC03C081E090E002C08FEF9FEF6F
:102370004A895B89849F9001859F300D949F300D21
:102380001124032E000C440B550B60E0CE010E947B
:102390006B0EF7FC03C081E090E002C08FEF9FEF6F
:1023A0004C895D89849F9001859F300D949F300DED
:1023B0001124032E000C440B550B61E0CE010E944A
:1023C0006B0E8FEF881A980AA80AB80ABFCFDF9160
:1023D000CF91FF90EF90DF90CF90BF90AF909F9004
:1023E0008F907F906F905F904F9008950F931F9301
:1023F000CF93DF93EC0160E08E810E94AE0D83E00D
:1024000090E00197F1F761E08E810E94AE0D83E2CA
:1024100090E00197F1F760E08E810E94AE0D2F8170
:1024200030E0F901EB50FF4F6491F901EF51FF4F9C
:10243000E491F0E0EE0FFF1FED53FF4F8591949173
:1024400000E412E42FE030E0462F0E94D012611524
:1024500071058105910539F0DC01CB010196A11DC3
:10246000B11DBF7003C080E090E0DC01BC01CD0174
:1024700096958795779567950E94E8192BE032ED40
:102480004CE05DE30E94491A20E030E040E85FE361
:102490000E94A41B2F89388D498D5A8D0E94491A9C
:1024A000DF91CF911F910F9108954F925F926F929C
:1024B0007F928F929F92AF92BF92CF92DF92EF92D4
:1024C000FF920F931F93CF93DF93EC0124968C011F
:1024D0007C012AE0E20EF11C4E0195E0A92EB12C00
:1024E00019821882680161E0F80180810E94AE0DB6
:1024F0006AE070E080E090E00E94310E85E0682E96
:10250000712C8EE00E941A0E28813981820F931F50
:1025100099838883F1E06F1A710899F74C845D8480
:10252000052C000C66087708B5010E942E1DCB0112
:10253000770FAA0BBB0B9C01AD0124193509460985
:102540005709AFEFB0E00E94291B2E813F81032E77
:10255000000C440B550B24193509460957090E94F4
:102560000A1B299339930F5F1F4F60E0F6018081AA
:102570000E94AE0DCE15DF0509F0B2CFC401DF9188
:10258000CF911F910F91FF90EF90DF90CF90BF9070
:10259000AF909F908F907F906F905F904F90089535
:1025A000CF92DF92EF92FF920F931F93E82FF92FB4
:1025B00005C0015011092109310961F1908196236B
:1025C0009417B9F305C0015011092109310911F11E
:1025D000908196239413F7CFC12CD12CE12CF12CB0
:1025E0000AC08FEFC81AD80AE80AF80A0C151D05A8
:1025F0002E053F0579F080818623841791F36C2D99
:102600007D2D8E2D9F2D1F910F91FF90EF90DF90CC
:10261000CF90089560E070E080E090E01F910F910E
:10262000FF90EF90DF90CF900895CF93DF93CDB7D9
:10263000DEB72C970FB6F894DEBF0FBECDBF7894EF
:1026400084B5826084BD84B5816084BD85B58260B7
:1026500085BD85B5816085BD80916E008160809368
:102660006E001092810080918100826080938100D1
:1026700080918100816080938100809180008160E1
:10268000809380008091B10084608093B10080913C
:10269000B00081608093B00080917A008460809364
:1026A0007A0080917A00826080937A0080917A002B
:1026B000816080937A0080917A00806880937A00AC
:1026C0001092C10083E290E0A0E0B0E08093FE06AB
:1026D0009093FF06A0930007B0930107E091460294
:1026E000F091470212E01083E0914202F091430220
:1026F0001082E0914402F09145028FEC80831092A9
:102700004E02E0914A02F0914B0286E08083E09114
:102710004802F0914902808180618083E091480203
:10272000F0914902808188608083E0914802F091B5
:102730004902808180688083E0914802F0914902DB
:1027400080818F7D808304E00093080761E084E04E
:102750000E94DE0D60E084E00E94AE0D00930F0742
:1027600061E084E00E94DE0D60E084E00E94AE0D36
:10277000F8941093B0001093B10084E68093B300F6
:102780001092B2001093700078941093D3021092BC
:10279000D7028091D40260E00E94DE0D8AE491E0CD
:1027A0000E94E70A86E392E00E94B0081816190614
:1027B0000CF03EC264E771E0CE0107960E948809E2
:1027C0000E94AB0C97FD1BC089831A820B851C8568
:1027D0000F5F1F4FB801CE0107960E946109882341
:1027E00079F32F8138858B859C85BE016F5F7F4F84
:1027F000820F931F0E94A91F1C870B87E1CFCE0178
:1028000007960E94C8080F8118850115110509F562
:102810004B855C856F81788586E392E00E94630832
:1028200082E791E00E94940A65E771E0CE0101968B
:102830000E948809BE016F5F7F4FCE0107960E94FC
:102840002709182F89819A810E94281E11110EC014
:1028500060C0F80180818823D9F2082E000C990B02
:102860000E948F1FF80181938F01F3CF66E070E023
:10287000CE0107960E94870CCE0107960E94C808D9
:102880006DE771E0CE0101960E948809BE016F5F7D
:102890007F4FCE0107960E942709182F89819A81C0
:1028A0000E94281E112361F161E070E0CE010796BD
:1028B0000E94870CCE0107960E94C80860E871E06C
:1028C000CE0107960E94420981119CC063E871E025
:1028D000CE0107960E9442098111BEC18F81988561
:1028E000009719F00E94291803C060E070E0CB0146
:1028F00024E0660F771F2A95E1F76E5F7F4F84C053
:1029000066E871E0CE0107960E9442098111A7C1D5
:1029100087C168E871E0CE0101960E948809BE0176
:102920006F5F7F4FCE0107960E942709182F89817C
:102930009A810E94281E112309F45BC065E070E0B3
:10294000CE0107960E94870CCE0107960E94C80808
:102950006FE871E0CE0101960E948809BE016F5FA9
:102960007F4FCE0107960E942709182F89819A81EF
:102970000E94281E112361F161E070E0CE010796EC
:102980000E94870CCE0107960E94C80860E871E09B
:10299000CE0107960E944209811164C163E871E08B
:1029A000CE0107960E94420981115FC18F819885EF
:1029B000009719F00E94291803C060E070E0CB0175
:1029C00094E0660F771F9A95E1F76A5F7F4F1CC00E
:1029D00062E971E0CE0107960E944209811148C167
:1029E00066E871E0CE0107960E944209811143C159
:1029F00017C164E971E0CE0107960E944209811176
:102A00003DC10EC160E070E0FB01EF70FF27EC5CA0
:102A1000FF4F0C94421D2DEC3CEC4CEC5DE36091BF
:102A2000BC037091BD038091BE039091BF030E94CF
:102A3000A51B0EC02DEC3CEC4CEC5DE36091BC039F
:102A40007091BD038091BE039091BF030E94A41BAF
:102A50006093BC037093BD038093BE039093BF0348
:102A600088E991E00E94260B85EA93E00E94F61126
:102A70002BC08F819885009719F00E94251803C0FC
:102A800060E070E0CB016093BC037093BD03809362
:102A9000BE039093BF03C8C085EA93E00E94F6117D
:102AA0006093B8037093B9038093BA039093BB0308
:102AB00088E991E00E94260B6091B8037091B903F8
:102AC0008091BA039091BB030E94C00BADC080916E
:102AD000B4039091B503019605C08091B403909121
:102AE000B50301979093B5038093B40309C084E0C4
:102AF000759567958A95E1F77093B5036093B40374
:102B000086EA91E00E94260B8091B4039091B50370
:102B10000E94F50A0E94560B811103C08AE391E0DE
:102B200002C086E291E00E94260B83EB91E00E94B6
:102B3000260B4EC00E94560B81112EC08AE391E0F5
:102B40000E94260B83EB91E00E94260B89EB91E01B
:102B50000E94260B8091AE039091AF030E94280B38
:102B60008DEB91E00E94260B8091B0039091B10310
:102B70000E94280B85EC91E00E94260B8091B20305
:102B80009091B3030E94F50A86E392E00E94B00898
:102B9000181619067CF648C086E291E0D1CF8091E4
:102BA000A9039091AA030E945512FC018081918192
:102BB0009093AF038093AE03828193819093B1038E
:102BC0008093B003848195819093B3038093B20383
:102BD00089EB91E00E94260B8091AE039091AF03A8
:102BE0000E94280B8DEB91E00E94260B8091B00390
:102BF0009091B1030E94280B85EC91E00E94260B76
:102C00008091B2039091B3030E94F50A0DC08DEC40
:102C100091E00E94E70A8F8198850E94281E0FC0CC
:102C200084EE91E00E94E70A8F8198850E94281E19
:102C300064EF71E080E090E00E94310EB3CD85EA50
:102C400093E00E94BA0064E670E080E090E00E94A9
:102C5000310E0E94F10CF3CF61E070E0D5CE63E05D
:102C600070E0D2CE64E070E0CFCE65E070E0CCCE14
:102C700067E070E0C9CE68E070E0C6CE6FE070E05B
:102C8000C3CEEF92FF920F931F93CF93DF931092D7
:102C900039021092380288EE93E0A0E0B0E0809311
:102CA0003A0290933B02A0933C02B0933D028EE027
:102CB00091E0909337028093360285EC90E09093F8
:102CC00043028093420284EC90E09093450280930B
:102CD000440280EC90E0909347028093460281EC9E
:102CE00090E0909349028093480282EC90E09093A8
:102CF0004B0280934A0286EC90E090934D028093C1
:102D00004C0210924F0210925002109251021092F7
:102D1000520289E190E0A0E0B0E08093FE0690933B
:102D2000FF06A0930007B09301078AE08093020793
:102D30008BE08093030782E08093060798E09093EE
:102D4000090799E090930A0780930D0710920E07E8
:102D5000109207078FEF80930F078093080788EC86
:102D600090E0909315078093140781E090E0909392
:102D70001107809310079093130780931207C0E008
:102D8000D0E08091060790E0C817D9074CF4FE0107
:102D9000E250F94F61E084810E94DE0D2196F1CF6F
:102DA000C0E0D0E080910D0790E0C817D9074CF43F
:102DB000FE01EB5FF84F61E084810E94DE0D2196F9
:102DC000F1CF85E08093160786E08093170787E0B0
:102DD000809318078EE08093190706E117E0C0E2A0
:102DE000D7E0EE24EA9483E0F82E61E0F8018191C7
:102DF0008F010E94DE0DE992F9921D821C82F7E09C
:102E0000C632DF0791F781E090E00E94931DEC014C
:102E100083E08093D4021092D6028EE191E09093E9
:102E2000A6038093A5038EEF96E09093A80380936A
:102E3000A70386E197E09093AA038093A9038CE00F
:102E40008093AB038DE08093AC038AE090E0909395
:102E5000B5038093B40380E090E0A0E8BFE38093E3
:102E6000BC039093BD03A093BE03B093BF0384EE55
:102E70009BECA6E9B1E48093CC039093CD03A0939F
:102E8000CE03B093CF038BED9FE0A9E4B2E480932F
:102E9000D0039093D103A093D203B093D30361E006
:102EA0008CE00E94DE0D60E08DE00E94DE0D6091FE
:102EB000140770911507072E000C880B990B0E94C0
:102EC000EA192091D0033091D1034091D20350915F
:102ED000D3030E94491A2091CC033091CD03409135
:102EE000CE035091CF030E94111C0E94831C70934B
:102EF000B7036093B60381E08093F4061092D40385
:102F00001092D5031092D6031092D7031092D803D3
:102F10001092D9031092DA031092DB031092F50697
:102F20001092C4031092C5031092C6031092C703F7
:102F30001092C0031092C1031092C2031092C303F7
:102F400082E10E941A0EBC01990F880B990B611542
:102F500071058105910511F00E941C1884E291E031
:102F60009093A6038093A503D093F706C093F6062B
:102F700080E190E00E94931D9093F9068093F806FB
:102F80001092AD03DF91CF911F910F91FF90EF90C1
:102F900008958F929F92AF92BF92CF92DF92EF925D
:102FA000FF92CF93DF93EC01688179818A819B81C5
:102FB000611571058105910521F464E279ED8BE5D8
:102FC00097E02DE133EF41E050E00E940A1B4901F8
:102FD0005A019B01AC01A7EAB1E40E94291B6B01D5
:102FE0007C01ACEEB4EFA50194010E94371BDC011B
:102FF000CB018C0D9D1DAE1DBF1DB7FF03C00197FA
:10300000A109B04888839983AA83BB83BC01CD0101
:103010009F77DF91CF91FF90EF90DF90CF90BF909F
:10302000AF909F908F9008950E94C917089580E0F7
:1030300091E00E94C9170895609300017093010107
:1030400080930201909303010895662777270C94DB
:1030500065181F93FC0199278827BC01E8941191FA
:103060001032E9F3193010F01E30C8F31B3251F062
:103070001D3249F4689406C00E945018610F711DFA
:10308000811D911D119110531A30B0F33EF49095AB
:103090008095709561957F4F8F4F9F4F1F91089539
:1030A000592F482F372F262F660F771F881F991FFC
:1030B000660F771F881F991F620F731F841F951F4C
:1030C000660F771F881F991F0895A0E0B0E0EBE618
:1030D000F8E10C94401BEC017B016115710519F0BE
:1030E000DB018D939C938E010F5F1F4F7880872D9E
:1030F00090E00E94C219892B11F0E801F4CFBDE2E3
:103100007B1205C00F5F1F4F7980C1E008C0EBE262
:103110007E1204C08E010E5F1F4F7980C0E06801EF
:10312000F1E0CF1AD10843E050E060E970E0C60159
:103130000E94CB19892BF1F4680122E0C20ED11C48
:1031400045E050E06BE870E0C6010E94CB19892B86
:1031500021F4680187E0C80ED11CE114F10419F0D4
:10316000D701CD92DC92C111FFC060E070E080E831
:103170009FE703C143E050E068E870E0C6010E94A9
:10318000CB19892B51F4E114F10409F4F2C00E5F5C
:103190001F4FF70111830083ECC0680160E070E00D
:1031A000CB0100E010E0F601D0EDD70DDA3058F594
:1031B0002C2F2260622E2C2F2870C2FF05C02111F7
:1031C00028C00F5F1F4F25C0222311F001501109A5
:1031D000A5E0B0E09B01AC010E94291B4B015C0102
:1031E000880C991CAA1CBB1CC501B4016D0F711D74
:1031F000811D911D6839A9E97A078A07A9E19A0713
:1032000040F0C66005C0DE3F51F4C3FD44C0C86055
:103210006C2EBFEFCB1ADB0A7080C62DC4CF2D2FCA
:103220002F7D2531C1F540814D3211F4C06106C0BA
:103230004B3221F0319621E030E006C03296D601C3
:1032400011964C9122E030E0A0EDA40FAA3018F0C6
:10325000E21BF30B20C040E050E04038BCE05B07CD
:103260005CF49A01220F331F220F331F420F531FAA
:10327000440F551F4A0F511D3196DF0111972C91B4
:10328000A0EDA20FAA3048F3C4FF03C051954195A9
:103290005109040F151FC1FF07C0E114F10421F00B
:1032A0003197D701ED93FC930E94E819C370C330A6
:1032B00019F06B017C0106C06B017C01F7FAF094F8
:1032C000F7F8F09420E030E0A901C701B6010E94B0
:1032D000E319882309F445C017FF06C0119501952D
:1032E0001109C7EAD0E002C0CFEBD0E05E01B8E13F
:1032F000AB1AB1084601BE2DAF2D90E2E92EF12C9C
:103300000E151F0584F0FE012591359145915491CC
:10331000B4018B2F9A2F0E94491A4B01B82FA92F65
:103320000E191F09EDCF2497F594E794CA15DB0514
:1033300039F76401EB2EFA2E8E2D880F8F2D881F02
:103340008F3F49F020E030E0A901C701B6010E949B
:10335000E319811106C082E290E0909332078093D6
:103360003107C701B60109C060E070E080E89FEF57
:1033700004C060E070E080EC9FE7CDB7DEB7EEE020
:103380000C945C1B91110C94B61A803219F0895080
:103390008550C8F70895FB01DC014150504088F08A
:1033A0008D9181341CF08B350CF4805E6591613415
:1033B0001CF06B350CF4605E861B611171F3990B88
:1033C0000895881BFCCF0E94251A08F481E0089517
:1033D000E89409C097FB3EF49095809570956195AF
:1033E0007F4F8F4F9F4F9923A9F0F92F96E9BB2765
:1033F0009395F695879577956795B795F111F8CFE1
:10340000FAF4BB0F11F460FF1BC06F5F7F4F8F4F4B
:103410009F4F16C0882311F096E911C0772321F041
:103420009EE8872F762F05C0662371F096E8862FD9
:1034300070E060E02AF09A95660F771F881FDAF730
:10344000880F9695879597F90895990F0008550F5D
:10345000AA0BE0E8FEEF16161706E807F907C0F01A
:1034600012161306E407F50798F0621B730B840B22
:10347000950B39F40A2661F0232B242B252B21F4FC
:1034800008950A2609F4A140A6958FEF811D811D9C
:1034900008950E945C1A0C94D01A0E94C21A38F047
:1034A0000E94C91A20F0952311F00C94B91A0C94BB
:1034B000BF1A11240C94041B0E94E11A70F3959F0B
:1034C000C1F3950F50E0551F629FF001729FBB271B
:1034D000F00DB11D639FAA27F00DB11DAA1F649FB7
:1034E0006627B00DA11D661F829F2227B00DA11D6A
:1034F000621F739FB00DA11D621F839FA00D611DF0
:10350000221F749F3327A00D611D231F849F600D10
:10351000211D822F762F6A2F11249F5750409AF039
:10352000F1F088234AF0EE0FFF1FBB1F661F771FC5
:10353000881F91505040A9F79E3F510580F00C9490
:10354000B91A0C94041B5F3FE4F3983ED4F38695BC
:1035500077956795B795F795E7959F5FC1F7FE2B30
:10356000880F911D9695879597F908959927882733
:10357000089597F99F6780E870E060E008959FEFF5
:1035800080EC089500240A941616170618060906FA
:10359000089500240A9412161306140605060895C9
:1035A000092E0394000C11F4882352F0BB0F40F451
:1035B000BF2B11F460FF04C06F5F7F4F8F4F9F4F91
:1035C000089557FD9058440F551F59F05F3F71F013
:1035D0004795880F97FB991F61F09F3F79F087957A
:1035E0000895121613061406551FF2CF4695F1DF03
:1035F00008C0161617061806991FF1CF8695710593
:10360000610508940895E894BB2766277727CB01C6
:1036100097F90895052E97FB1EF400940E94211B34
:1036200057FD07D00E94731B07FC03D04EF40C9487
:10363000211B50954095309521953F4F4F4F5F4F3F
:10364000089590958095709561957F4F8F4F9F4F0E
:1036500008950E94951BA59F900DB49F900DA49F67
:10366000800D911D11240895B7FF0C94291B0E9411
:10367000291B821B930B08952F923F924F925F92CA
:103680006F927F928F929F92AF92BF92CF92DF9272
:10369000EF92FF920F931F93CF93DF93CDB7DEB7D7
:1036A000CA1BDB0B0FB6F894DEBF0FBECDBF09946B
:1036B0002A88398848885F846E847D848C849B84C2
:1036C000AA84B984C884DF80EE80FD800C811B81D0
:1036D000AA81B981CE0FD11D0FB6F894DEBF0FBEFF
:1036E000CDBFED010895A1E21A2EAA1BBB1BFD015F
:1036F0000DC0AA1FBB1FEE1FFF1FA217B307E407D1
:10370000F50720F0A21BB30BE40BF50B661F771F28
:10371000881F991F1A9469F7609570958095909508
:103720009B01AC01BD01CF010895A29FB001B39FE1
:10373000C001A39F700D811D1124911DB29F700DBA
:10374000811D1124911D08955058BB27AA270E945E
:10375000BC1B0C94D01A0E94C21A38F00E94C91ADD
:1037600020F039F49F3F19F426F40C94BF1A0EF49C
:10377000E095E7FB0C94B91AE92F0E94E11A58F37F
:10378000BA17620773078407950720F079F4A6F546
:103790000C94031B0EF4E0950B2EBA2FA02D0B01F9
:1037A000B90190010C01CA01A0011124FF27591B86
:1037B00099F0593F50F4503E68F11A16F040A22F8C
:1037C000232F342F4427585FF3CF469537952795FD
:1037D000A795F0405395C9F77EF41F16BA0B620BFC
:1037E000730B840BBAF09150A1F0FF0FBB1F661F43
:1037F000771F881FC2F70EC0BA0F621F731F841F86
:1038000048F4879577956795B795F7959E3F08F0AB
:10381000B0CF9395880F08F09927EE0F979587956D
:1038200008950E94251C0C94D01A0E94C91A58F0C1
:103830000E94C21A40F029F45F3F29F00C94B91A93
:1038400051110C94041B0C94BF1A0E94E11A68F3E6
:103850009923B1F3552391F3951B550BBB27AA2749
:1038600062177307840738F09F5F5F4F220F331F83
:10387000441FAA1FA9F335D00E2E3AF0E0E832D04B
:1038800091505040E695001CCAF72BD0FE2F29D04E
:10389000660F771F881FBB1F261737074807AB0720
:1038A000B0E809F0BB0B802DBF01FF2793585F4F95
:1038B0003AF09E3F510578F00C94B91A0C94041B11
:1038C0005F3FE4F3983ED4F3869577956795B79577
:1038D000F7959F5FC9F7880F911D9695879597F982
:1038E0000895E1E0660F771F881FBB1F62177307FB
:1038F0008407BA0720F0621B730B840BBA0BEE1F10
:1039000088F7E09508950E948A1C6894B1110C9480
:10391000041B08950E94E91A88F09F5798F0B92F68
:103920009927B751B0F0E1F0660F771F881F991FF4
:103930001AF0BA95C9F714C0B13091F00E94031B78
:10394000B1E008950C94031B672F782F8827B85F88
:1039500039F0B93FCCF3869577956795B395D9F74C
:103960003EF490958095709561957F4F8F4F9F4F56
:1039700008950E94251A08F48FEF089519F416F49B
:103980000C94BF1A0C94091D0E94E91AB8F39923EC
:10399000C9F3B6F39F57550B87FF0E94171D0024EC
:1039A000A0E640EA900180585695979528F4805CEF
:1039B000660F771F881F20F026173707480730F457
:1039C000621B730B840B202931294A2BA69517946F
:1039D0000794202531254A2758F7660F771F881F3F
:1039E00020F026173707480730F4620B730B840B5F
:1039F000200D311D411DA09581F7B901842F9158EB
:103A0000880F9695879508950E94251A880B990B23
:103A100008959F3F31F0915020F4879577956795F1
:103A2000B795880F911D9695879597F908959150B0
:103A30005040660F771F881FD2F70895DB018F93E0
:103A40009F930E94291BBF91AF91A29F800D911D52
:103A5000A39F900DB29F900D1124089597FB072E00
:103A600016F4009407D077FD09D00E947F1D07FC53
:103A700005D03EF4909581959F4F0895709561957E
:103A80007F4F0895EE0FFF1F0590F491E02D0994EC
:103A90000F93083090F0982F872F762F652F542F93
:103AA000432F322F22270850F4CF220F331F441FF9
:103AB000551F661F771F881F991F0A95B2F70F9130
:103AC000089597FB10F8169400080F93083098F0AB
:103AD0000850232F342F452F562F672F782F892FEB
:103AE000902DF4CF05949795879577956795579581
:103AF0004795379527950A95AAF70F910895AA1B20
:103B0000BB1B51E107C0AA1FBB1FA617B70710F0C8
:103B1000A61BB70B881F991F5A95A9F780959095FA
:103B2000BC01CD010895CF93DF938230910510F44D
:103B300082E090E0E0913507F091360720E030E038
:103B4000C0E0D0E0309711F140815181481759070A
:103B5000C0F04817590761F482819381209719F0CA
:103B60009B838A832BC0909336078093350726C0AA
:103B70002115310519F04217530718F49A01BE01B7
:103B8000DF01EF010280F381E02DDCCF211531054B
:103B900009F1281B390B2430310590F412968D91D0
:103BA0009C9113976115710521F0FB01938382832A
:103BB00004C09093360780933507FD01329644C0C8
:103BC000FD01E20FF31F81939193225031092D9350
:103BD0003C933AC02091330730913407232B41F4B2
:103BE0002091060130910701309334072093330769
:103BF00020910401309105012115310541F42DB7C3
:103C00003EB74091080150910901241B350BE0910A
:103C10003307F0913407E217F307A0F42E1B3F0B94
:103C20002817390778F0AC014E5F5F4F241735072E
:103C300048F04E0F5F1F5093340740933307819332
:103C4000919302C0E0E0F0E0CF01DF91CF910895C1
:103C50000F931F93CF93DF93009709F48CC0FC015F
:103C600032971382128200913507109136070115A1
:103C7000110581F420813181820F931F2091330738
:103C8000309134072817390779F5F0933407E0931A
:103C9000330771C0D80140E050E0AE17BF0750F4C1
:103CA00012962D913C911397AD012115310509F123
:103CB000D901F3CF9D01DA013383228360817181C1
:103CC000860F971F8217930769F4EC0128813981C9
:103CD000260F371F2E5F3F4F318320838A819B81C0
:103CE00093838283452B29F4F0933607E0933507BD
:103CF00042C01396FC93EE931297ED0149915991AE
:103D00009E01240F351FE217F30771F48081918122
:103D1000840F951F029611969C938E9382819381B6
:103D200013969C938E931297E0E0F0E0D8011296E0
:103D30008D919C911397009719F0F8018C01F6CFA3
:103D40008D919C9198012E5F3F4F820F931F209180
:103D50003307309134072817390769F4309729F46D
:103D6000109236071092350702C013821282109308
:103D7000340700933307DF91CF911F910F9108957E
:103D8000A0E0B0E0E6ECFEE10C94401BEC010097F3
:103D900021F4CB010E94931DB8C0FC01E60FF71F70
:103DA0009C0122503109E217F30708F4ACC0D90195
:103DB0000D911C91119706171707B0F005301105EA
:103DC00008F49FC0C80104978617970708F499C0A4
:103DD00002501109061B170B019311936D937C93ED
:103DE000CF010E94281E8DC05B01A01AB10A4C01B0
:103DF000800E911EA0913507B091360740E050E04B
:103E0000E12CF12C109709F44AC0A815B905D1F599
:103E10006D907C901197630182E0C80ED11CCA148A
:103E2000DB0480F1A3014A195B096A0182E0C80E34
:103E3000D11C1296BC9012971396AC91B5E0CB169C
:103E4000D10440F0B282A38351834083D9016D93A2
:103E50007C930AC00E5F1F4FC301800F911FF901B1
:103E600091838083EB2DFA2FE114F10431F0D70117
:103E70001396FC93EE93129744C0F0933607E093A9
:103E800035073FC08D919C9111974817590708F449
:103E9000AC017D0112960D90BC91A02DB3CF809105
:103EA00033079091340788159905E1F446175707B1
:103EB000C8F48091040190910501009741F48DB7F9
:103EC0009EB74091080150910901841B950BE8179A
:103ED000F907C8F4F0933407E0933307F9017183CD
:103EE00060830FC0CB010E94931D7C01009759F0A5
:103EF000A801BE010E94971FCE010E94281EC70183
:103F000004C0CE0102C080E090E0CDB7DEB7EEE0A5
:103F10000C945C1B81E090E0F8940C94CD1F9111FF
:103F2000089581548A5108F4805E855A0895FB01F2
:103F3000DC0102C001900D9241505040D8F7089525
:103F4000FB01DC018D91019080190110D9F3990BCF
:103F50000895FB01DC0101900D920020E1F7089526
:103F6000FB01DC014150504030F08D9101908019EF
:103F700019F40020B9F7881B990B0895FB01DC01A7
:103F80004150504048F001900D920020C9F701C007
:0E3F90001D9241505040E0F70895F894FFCF85
:103F9E000100000000003707800000000000C80983
:103FAE006308B0088E08A2080F0A00000000C608B9
:103FBE0000000000BA00436F6C6F7220456E636F95
:103FCE006E747261646F212120004E4F2065732044
:103FDE00656C20436F6C6F7220004269656E76656A
:103FEE006E69646F2061206C6120696E7465726603
:103FFE00617A2064652063616C6962726163696FC6
:10400E006E000D0A00756C747261732000632000DF
:10401E002B2B002D2D007300636F6C6F72200074BC
:10402E002000700066696E00556C747261736F6E5D
:10403E0069636F3A2000746F6C6572616E636961BB
:10404E003A20005265663A2000723A200020202065
:10405E0020673A200020202020623A200043616C25
:10406E006962726163696F6E2066696E616C697AEE
:10407E00616461004572726F723A20656C207661E0
:10408E006C6F7220696E74726F64756369646F20F1
:10409E006E6F207365207265636F6E6F636520634C
:1040AE006F6D6F20756E20636F6D616E646F20761D
:1040BE00616C69646F006E616E00696E66006F768A
:0240CE0066008A
:00000001FF
