:100000000C946C000C9494000C9494000C94940048
:100010000C9494000C9494000C9494000C9453044D
:100020000C9494000C9494000C9494000C94940000
:100030000C9494000C9494000C9494000C949400F0
:100040000C9481030C9494000C94EE020C94C8025E
:100050000C9494000C9494000C9494000C949400D0
:100060000C9494000C94940057025D026702750290
:1000700077027D0287029502A702A9020000000014
:1000800023002600290000000000240027002A0089
:1000900000000000250028002B00040404040404D0
:1000A0000404020202020202030303030303010227
:1000B00004081020408001020408102001020408F6
:1000C00010200000000800020100000304070000E7
:1000D000000000000000920E11241FBECFEFD8E0F8
:1000E000DEBFCDBF11E0A0E0B1E0ECEEF6E202C071
:1000F00005900D92A233B107D9F722E0A2E3B1E057
:1001000001C01D92AD3CB207E1F710E0CCE6D0E0B3
:1001100004C02197FE010E94940FCB36D107C9F786
:100120000E9441060C9474130C940000CF92DF924D
:10013000EF92FF920F931F93CF93DF936C017A019D
:100140008B01C0E0D0E0CE15DF0589F0D8016D91BC
:100150008D01D601ED91FC910190F081E02DC60159
:100160000995892B11F47E0102C02196ECCFC701BD
:10017000DF91CF911F910F91FF90EF90DF90CF9083
:100180000895FC01918D828D981761F0828DDF01B9
:10019000A80FB11D5D968C91928D9F5F9F73928F7A
:1001A00090E008958FEF9FEF0895FC01918D828D6F
:1001B000981731F0828DE80FF11D858D90E008953C
:1001C0008FEF9FEF0895FC01918D228D892F90E094
:1001D000805C9F4F821B91098F73992708958FE44C
:1001E00091E00E94E30021E0892B09F420E0822FB6
:1001F0000895FC01848DDF01A80FB11DA35ABF4FE4
:100200002C91848D90E001968F739927848FA68915
:10021000B7892C93A089B1898C9180648C93938D3C
:10022000848D981306C00288F389E02D80818F7D2C
:1002300080830895EF92FF920F931F93CF93DF93E4
:10024000EC0181E0888F9B8D8C8D981305C0E88927
:10025000F989808185FD24C0F62E0B8D10E00F5F9B
:100260001F4F0F731127E02E8C8DE8120CC00FB6B4
:1002700007FCFACFE889F989808185FFF5CFCE01A7
:100280000E94F900F1CF8B8DFE01E80FF11DE35ABA
:10029000FF4FF0820B8FEA89FB898081806207C063
:1002A000EE89FF896083E889F98980818064808391
:1002B00081E090E0DF91CF911F910F91FF90EF903F
:1002C0000895CF93DF93EC01888D8823C9F0EA89E4
:1002D000FB89808185FD05C0A889B9898C9186FD3F
:1002E0000FC00FB607FCF5CF808185FFF2CFA8893C
:1002F000B9898C9185FFEDCFCE010E94F900E7CF3F
:10030000DF91CF91089580E090E0892B29F00E9441
:10031000EF0081110C9400000895833081F028F4DF
:10032000813099F08230A1F008958730A9F08830AB
:10033000B9F08430D1F4809180008F7D03C080912A
:1003400080008F7780938000089584B58F7702C0F6
:1003500084B58F7D84BD08958091B0008F7703C0F0
:100360008091B0008F7D8093B00008951F93CF934C
:10037000DF93282F30E0F901EE53FF4F8491F9010C
:10038000E255FF4FD491F901E656FF4FC491CC23BB
:10039000C9F0162F81110E948D01EC2FF0E0EE0FB5
:1003A000FF1FE057FF4FA591B4918FB7F89411113B
:1003B00005C09C91ED2FE095E92302C0EC91ED2B57
:1003C000EC938FBFDF91CF911F9108950F931F93EF
:1003D000CF93DF93EC018B01888599850297F1F427
:1003E0006130710569F024F4672BC1F460E009C045
:1003F0006230710559F06330710581F460E007C027
:1004000061E08C850E94B60161E005C061E08C85E9
:100410000E94B60160E08E850E94B60188859985AC
:100420000497B9F501301105B1F04CF4011511052F
:1004300081F561E08C850E94B60160E011C0023058
:100440001105B9F00330110521F561E08C850E949A
:10045000B60160E013C060E08C850E94B60161E0E7
:100460008E850E94B60161E088890E94B60160E035
:100470000DC060E08C850E94B60161E08E850E940F
:10048000B60160E088890E94B60161E08A890E9415
:10049000B60188859985059709F073C00A30110562
:1004A00008F06FC0F801EC5CFF4F0C94940F60E013
:1004B0008C850E94B60161E051C060E08C850E948D
:1004C000B60161E08E850E94B60160E04BC060E03D
:1004D0008C850E94B60161E08E850E94B60160E0C5
:1004E00088890E94B60161E041C060E001C061E01E
:1004F0008C850E94B60161E005C061E08C850E9498
:10050000B60160E08E850E94B60160E009C061E03E
:100510008C850E94B60160E08E850E94B60161E084
:1005200088890E94B60161E00DC061E08C850E945F
:10053000B60160E08E850E94B60161E088890E9464
:10054000B60160E08A890E94B60160E013C061E0F4
:1005500001C060E08C850E94B60160E08E850E943B
:10056000B60161E088890E94B60160E08A890E9434
:10057000B60161E08C89DF91CF911F910F910C94AE
:10058000B601DF91CF911F910F9108950E946F13D3
:100590001F920F920FB60F9211242F933F934F93F8
:1005A0005F936F937F938F939F93AF93BF93EF93DB
:1005B000FF938FE491E00E94F900FF91EF91BF91CA
:1005C000AF919F918F917F916F915F914F913F91EB
:1005D0002F910F900FBE0F901F9018951F920F92A2
:1005E0000FB60F9211242F938F939F93EF93FF9346
:1005F000E0915F01F09160018081E0916501F091EF
:10060000660182FD12C09081809168018F5F8F73B7
:1006100020916901821751F0E0916801F0E0E15BFF
:10062000FE4F958F8093680101C08081FF91EF910B
:100630009F918F912F910F900FBE0F901F90189543
:10064000CF93DF9390E0FC01E255FF4F2491FC0132
:10065000E656FF4F8491882361F190E0880F991F3F
:10066000FC01EA57FF4FC591D491FC01E057FF4FC1
:10067000A591B491611109C09FB7F8948881209524
:1006800082238883EC912E230BC0623061F49FB7E4
:10069000F8943881822F809583238883EC912E2BC8
:1006A0002C939FBF06C08FB7F894E8812E2B288328
:1006B0008FBFDF91CF9108953FB7F89480913B01B0
:1006C00090913C01A0913D01B0913E0126B5A89BBF
:1006D00005C02F3F19F00196A11DB11D3FBFBA2FD4
:1006E000A92F982F8827820F911DA11DB11DBC0134
:1006F000CD0142E0660F771F881F991F4A95D1F7F9
:1007000008951F920F920FB60F9211242F933F93CB
:100710008F939F93AF93BF9380913701909138014E
:10072000A0913901B0913A013091360123E0230FB5
:100730002D3720F40196A11DB11D05C026E8230F19
:100740000296A11DB11D209336018093370190932D
:100750003801A0933901B0933A0180913B01909107
:100760003C01A0913D01B0913E010196A11DB11D3A
:1007700080933B0190933C01A0933D01B0933E01D7
:10078000BF91AF919F918F913F912F910F900FBE8D
:100790000F901F9018954F925F926F927F928F9259
:1007A0009F92AF92BF92CF92DF92EF92FF920F9300
:1007B0001F93CF93DF93EC018B0177FF04C00027D9
:1007C0001127061B170B161617062CF481E090E074
:1007D0009983888304C0672B11F01982188284E002
:1007E000E82EF12C9AE0C92ED12C0115110509F43F
:1007F00049C00E945C038E889F88A88CB98C2B010D
:100800003C01481859086A087B088A809B80AC80A4
:10081000BD80481459046A047B0438F36E8B7F8BC7
:10082000888F998F288139818A859B852130310570
:1008300059F401969B878A872E813F8182179307FF
:1008400071F41B861A860BC0892B21F48E819F813F
:100850009B878A878A859B8501979B878A8701501A
:100860001109288539858A859B852530310511F444
:10087000B60101C0B7010E945E0FBC01CE010E940B
:10088000E601B3CFDF91CF911F910F91FF90EF90D1
:10089000DF90CF90BF90AF909F908F907F906F90A0
:1008A0005F904F9008951F920F920FB60F921124F0
:1008B0002F933F934F935F936F937F938F939F9368
:1008C000AF93BF93CF93DF93EF93FF932091ED010D
:1008D00030E0F901EE53FF4F8491F901E255FF4FEB
:1008E000D491F901E656FF4FC491CC23A1F08111B8
:1008F0000E948D01EC2FF0E0EE0FFF1FE458FF4F38
:10090000A591B491EC91ED2331E020E009F430E0C1
:10091000832F922F02C080E090E02091F10130916E
:10092000F2012F5F3F4F3093F2012093F1012091AC
:10093000F001253618F026E02093EC012091EC011F
:100940002430D9F128F4223069F02330D9F060C086
:10095000253009F453C0263009F05AC021E0209315
:10096000BD0253C0009709F053C02091F1013091AE
:10097000F2012436310508F443C01092BD021092F2
:10098000F0011DC08130910509F042C0E091F001F5
:1009900021E02E0F2093F001F0E02091F101309141
:1009A000F201EE0FFF1FE451FE4F308727831092B4
:1009B000F2011092F10124E029C00097B9F4E0910E
:1009C000F00121E02E0F2093F001F0E02091F101E1
:1009D0003091F201EE0FFF1FE451FE4F3087278365
:1009E0001092F2011092F10123E010C02091F10168
:1009F0003091F2012536310558F007C0009741F4D7
:100A00001092F2011092F10103C025E02093EC0155
:100A10002091EF012223B9F0892B51F48091EE014E
:100A2000882321F08091EE0161E009C02D9A0BC06E
:100A30008091EE01882331F08091EE0160E00E9408
:100A4000B60101C02D98FF91EF91DF91CF91BF9139
:100A5000AF919F918F917F916F915F914F913F9156
:100A60002F910F900FBE0F901F901895CF92DF928D
:100A7000EF92FF92CF93DF93EC01072E000C880BCF
:100A8000990B0E941B116B017C0120E030E040E4D7
:100A90005FE30E94D01120E030E048E452E40E947D
:100AA00071100E94E310C617D707D4F020E030E0A1
:100AB00040EA5FE3C701B6010E94D01120E030E0B8
:100AC00048E452E40E94711020E030E040E85FE327
:100AD0000E9400100E94E31021E06C177D070CF4C7
:100AE00020E0822F90E0DF91CF91FF90EF90DF9098
:100AF000CF900895009769F0FC0101900020E9F77C
:100B00003197AF01481B590BBC018FE491E00C9465
:100B1000960080E090E008958F929F92AF92BF92EE
:100B20000F931F93CF93DF93CDB7DEB7A1970FB687
:100B3000F894DEBF0FBECDBF19A2423008F44AE0E0
:100B40008E010F5D1F4F842E912CA12CB12CA5017D
:100B500094010E94720FE62FB901CA0101501109D8
:100B6000EA3014F4E05D01C0E95CD801EC93232B7A
:100B7000242B252B61F7C8010E947A05A1960FB698
:100B8000F894DEBF0FBECDBFDF91CF911F910F91C3
:100B9000BF90AF909F908F9008958F929F92AF9249
:100BA000BF92CF92DF92EF92FF920F931F93CF935A
:100BB000DF93FC01C081D18120914B0130914C0128
:100BC000C217D3070CF04BC09E01220F331FE091D8
:100BD0004901F0914A01E20FF31F80809180C170BA
:100BE000DD27F1E0CF27209719F404E610E002C0DA
:100BF0000CE91FEF7A015B016C01040F151FB801AE
:100C0000C4010E943605892B99F40E0D1F1DB801F1
:100C1000C4010E943605892B71F4B8016E0D7F1D49
:100C2000C4010E943605892BE9F023E030E005C0BD
:100C300021E030E002C022E030E0F50180819181C6
:100C40000196821793073CF0F50111821082F6019C
:100C500080819181019691838083CE0105C081E0DE
:100C600090E002C08FEF9FEFDF91CF911F910F9126
:100C7000FF90EF90DF90CF90BF90AF909F908F90BC
:100C80000895CF93DF93CDB7DEB727970FB6F894CB
:100C9000DEBF0FBECDBF789484B5826084BD84B5BD
:100CA000816084BD85B5826085BD85B5816085BD67
:100CB00080916E00816080936E001092810080911F
:100CC00081008260809381008091810081608093A7
:100CD0008100809180008160809380008091B100CC
:100CE00084608093B1008091B00081608093B000F7
:100CF00080917A00846080937A0080917A0082608B
:100D000080937A0080917A00816080937A0080914C
:100D10007A00806880937A001092C100E0915F01B0
:100D2000F091600182E08083E0915B01F0915C01D1
:100D30001082E0915D01F0915E019FEC9083109232
:100D40006701E0916301F091640196E09083E09186
:100D50006101F0916201908190619083E091610165
:100D6000F0916201908198609083E0916101F0912F
:100D70006201908190689083E0916101F09162013D
:100D800090819F7D9083F8948093B0008093B10010
:100D900094E69093B3001092B20080937000789420
:100DA0008093EC011092F0018091ED0160E00E94CF
:100DB000200361E08CE00E94200360E08DE00E944F
:100DC000200383EF91E090934A0180934901809141
:100DD000F00190E090934C0180934B018091BD0213
:100DE00090E090934E0180934D011091EC011D8392
:100DF000153009F04CC28091F5019091F6018858A8
:100E000091098D35910588F48091F001843041F489
:100E10008091F7019091F8018097479708F4E8C115
:100E20008091F001843408F070C28091F0018A3121
:100E300008F452C08091F3019091F401843F9140F5
:100E400080F410924801109247018FEF9FEFDC0170
:100E50008093430190934401A0934501B0934601D0
:100E600059C08091F5019091F60185974B97A0F5B7
:100E7000E9EFF1E082E090E0C12CD12C7601AC01E9
:100E80004F5F5F4F2091F00130E0421753075CF451
:100E9000DF0112972D913C91275031092730310500
:100EA00008F47DC2CA0101979595879590934801F2
:100EB000809347010C972CF410924801109247013F
:100EC0000BC0C0924301D0924401E0924501F092E0
:100ED000460184E090E08FC38091F0018A3108F4EC
:100EE0004CC08091F3019091F4018032934008F45A
:100EF000A8CF8091F5019091F601C697869708F4E6
:100F00006BC23BC0C0924301D0924401E0924501C4
:100F1000F09246018BE090E06EC320813181255232
:100F200031092B31310508F067C2CC0CDD1CEE1CF9
:100F3000FF1C6894C0F802963496AC014F5F5F4F77
:100F40002091F00130E04217530754F4DF0112976B
:100F50002D913C912C5031092B303105F0F2CA0112
:100F600001979595879590934801809347010C9739
:100F70004CF610924801109247018091F0018232A4
:100F800008F44DC08091F5019091F60106970797FE
:100F900008F045C0E9EFF1E082E090E0C12CD12CEF
:100FA00076019C012F5F3F4F4091F00150E02417E4
:100FB0003507E4F4DF0112974D915C9111974E5182
:100FC00051094731510508F024C2CC0CDD1CEE1C40
:100FD000FF1C6894C0F840815181349643505109F8
:100FE0004530510510F40296DCCFC9010197959563
:100FF0008795909348018093470140972CF4109275
:101000004801109247010BC0C0924301D0924401A5
:10101000E0924501F09246018CE090E0ECC21C8227
:101020001B82E1E0F0E0FA83E9838091F0018D30EA
:1010300008F46CC049E753E0BE016D5F7F4FCE01FD
:1010400001960E94CD05892B09F060C049E753E065
:10105000BE016D5F7F4FCE0101960E94CD050197C5
:1010600009F054C049E753E0BE016D5F7F4FCE01E8
:1010700001960E94CD05892B09F048C0812C912C46
:101080005401E12CF12C8091F00190E029813A810A
:101090002817390764F549E753E0BE016D5F7F4FBC
:1010A000CE0101960E94CD056C0149E753E0BE01D7
:1010B0006D5F7F4FCE0101960E94CD05F1E0CF1606
:1010C000D10449F4892B11F5880C991CAA1CBB1C6E
:1010D000689480F808C0CD28C9F40197B9F4880C49
:1010E000991CAA1CBB1C1FEFE11AF10ACCCFF0928D
:1010F0004801E09247018092430190924401A092FE
:101100004501B092460181E090E075C21C821B82CD
:10111000A1E0B0E0BA83A98380914B0190914C018A
:10112000181619060CF059C0E0914901F0914A01D6
:1011300082E090E09A8389838281938189974E9798
:1011400008F04BC083E090E09A8389838481958185
:101150000B970A9708F041C04CEB51E0BE016D5F60
:101160007F4FCE0101960E94CD05892BB1F54CEB46
:1011700051E0BE016D5F7F4FCE0101960E94CD050B
:10118000019759F5412C512C3201E12CF12C298188
:101190003A8180914B0190914C01281739070CF04E
:1011A0007DC14CEB51E0BE016D5F7F4FCE010196DA
:1011B0000E94CD056C01B3E0EB16F10409F036C1D5
:1011C0004CEB51E0BE016D5F7F4FCE0101960E9456
:1011D000CD05C816D90609F429C1E0914901F0915D
:1011E0004A0182819381C697869708F466C1C1C17E
:1011F0008091F9019091FA010997099708F010CEB2
:1012000010924801109247018FEF9FEFDC0180930D
:10121000430190934401A0934501B0934601A3E09C
:10122000B0E0B0934001A0933F01809143019091C1
:101230004401A0914501B091460180933201909301
:101240003301A0933401B093350185E291E00E940F
:101250007A05C0903201D0903301E0903401F090D3
:101260003501A7019601C701B6010E943D128823EE
:1012700009F4C6C186E191E00E947A0582E291E01C
:101280000E947A0582E08093EC011092F001609157
:10129000C3027091C4028091BF029091C0020E946B
:1012A000CB036091C5027091C6028091C1029091FA
:1012B000C2020E94CB030E945C034B015C0104EF5D
:1012C000C02EDD24D394E12CF12C0E945C03DC01C0
:1012D000CB0188199909AA09BB09883E9340A10549
:1012E000B10558F021E0C21AD108E108F10848EE32
:1012F000840E43E0941EA11CB11CC114D104E1046E
:10130000F10419F70E9483015CCD8091F70190915F
:10131000F801825491098E9708F087CD80E090E023
:1013200040E050E0BA01FC01E750FE4F20813181DE
:10133000295031092930310508F077CDFC01E550FD
:10134000FE4F20813181275131092231310508F1C9
:1013500020813181265031092730310508F065CDD3
:10136000440F551F661F771F049680389105D9F6E4
:10137000E0E2F0E0F0934801E0934701409343013D
:1013800050934401609345017093460183E090E0DF
:1013900032C1440F551F661F771F4160E5CF208182
:1013A0003181235131092F30310548F4CC0CDD1C3B
:1013B000EE1CFF1C6894C0F80296349660CD208124
:1013C00031812A5031092930310508F085CDCC0C06
:1013D000DD1CEE1CFF1CF0CF8091F7019091F8010D
:1013E000C697869708F0C9CDEBEFF1E083E090E077
:1013F000C12CD12C7601A1CD208131812C50310915
:101400002A30310508F0B9CDCC0CDD1CEE1CFF1CD8
:1014100092CD4D915C914C5051094B30510508F0E3
:10142000FECDCC0CDD1CEE1CFF1CD5CD4CEB51E0F1
:10143000BE016D5F7F4FCE0101960E94CD055C011C
:10144000E3E0EE16F10469F44CEB51E0BE016D5F90
:101450007F4FCE0101960E94CD05A816B90609F06E
:10146000BCCEC114D10459F4AA94AB2809F0B5CE6E
:10147000440C551C661C771C689440F80BC0CA9439
:10148000CD2809F0AACEAB2809F0A7CE440C551CF4
:10149000661C771C2FEFE21AF20A79CEF09248010F
:1014A000E09247014092430150924401609245010D
:1014B0007092460182E090E09EC0848195814B97B6
:1014C000459708F056C0DF0116967F0196ECE90EAD
:1014D000F11C20E030E040E050E060E070E080E0AF
:1014E00090E0CD90DC90119719E0C11AD10818E076
:1014F000C116D104F0F51296CD90DC90139711E14E
:10150000C11AD1081DE0C116D10470F11296CD9018
:10151000DC90139714E0C11AD10815E0C116D1046C
:1015200040F501E00E94A50F1496AE15BF05C9F65F
:101530002093430130934401409345015093460169
:1015400000E20E94C00F209341013093420185E0E8
:1015500090E09093400180933F0180E390E090936E
:1015600048018093470161CE01E00E94A50F2160F0
:10157000DBCF8091F001893340F0828193818957DC
:1015800091098335910508F4E2C18091F00182321E
:1015900009F4CFC0828193818957910983359105E0
:1015A00008F452C2828193818C549109C59708F046
:1015B000CCC08091F001843009F0C2C08481958153
:1015C0008097479708F0BCC0868197810997099753
:1015D00008F0B6C010924801109247018FEF9FEFBC
:1015E000DC018093430190934401A0934501B093A3
:1015F000460187E090E09093400180933F0115CE33
:1016000046015701E894B7F82FEF3FEF4FE75FE748
:10161000C501B4010E943D1281110DC02FEF3FEFB3
:101620004FE75FE7C501B4010E946C1018161CF467
:101630008AE191E021CE2FEF3FEF4FE75FE4C70152
:10164000B6010E94CB1118161CF48EE191E014CE65
:101650002FEF3FEF4FE75FECC701B6010E946C1020
:1016600087FDF3CF20E030E0A901C701B6010E9459
:101670006C1087FF0FC0E0914F01F0915001019075
:10168000F081E02D6DE28FE491E00995F7FAF09496
:10169000F7F8F09426E137EB41E558E3C701B601CE
:1016A0000E9400106B017C010E94EA104B015C015A
:1016B0000E9419119B01AC01C701B6010E94FF0FE6
:1016C0006B017C014AE0C501B4010E948C05E091E8
:1016D0004F01F09150010190F081E02D6EE28FE416
:1016E00091E009951D8111501D83112309F4C6CD88
:1016F00020E030E040E251E4C701B6010E94D01181
:101700006B017C010E94EA104B01A12CB12C4AE034
:10171000C501B4010E948C05C501B4010E941911D4
:101720009B01AC01C701B6010E94FF0F6B017C0158
:10173000D9CF828193810A97099708F466C12ACF8D
:101740008091F001843408F0E1C18091F001863489
:1017500060F1828193810C970B9708F428C225C011
:10176000D90112966D917C9113976E517109673171
:10177000710508F054C2D701C601880F991FAA1F2E
:10178000BB1F6C017D016894C0F84E5F5F4F2C5FFA
:101790003F4F4534510509F425C2D9016D917C9123
:1017A0006C5071096B307105D8F28091F001883569
:1017B00080F182819381855891098B35910508F4D8
:1017C0003EC227C0BC016F5F7F4FD7014D915C9136
:1017D000475051094730510508F041C2220F331FCD
:1017E00021600296B4E0EB0EF11C4091F00150E054
:1017F00044505109841795070CF03AC2A701425092
:101800005109DA014D915C91495051094830510517
:10181000C8F28091F0018032E1F4828193810697D1
:101820000697B8F4848195810997099790F49F01F0
:101830002A5F3F4FBF01625C7F4FC12CD12C7601E4
:10184000D9014D915C91465051094630510508F43B
:101850002BC280914B0190914C019F838E83069700
:101860000CF410CD1F0196E0290E311C03E010E0AE
:1018700095ECC92E9DE9D92E9CE1E92E91E8F92E2F
:10188000D1016D917C91F1013497A080B18080E00D
:1018900090E00E9419112B013C01B50180E090E01D
:1018A0000E9419114B015C012DEC3CEC4CE45FE310
:1018B0000E94D0119B01AC01C301B2010E946C10C7
:1018C00087FD17C02DEC3CEC4CE45FE3C301B20193
:1018D0000E94D0119B01AC01C501B4010E946C10A3
:1018E000E82F880FFF0BEE27FF0FEE1FFF27319623
:1018F00002C0E0E0F0E0A701960163E971E080E05A
:1019000091E00E944E0F6F01FF0FEE08FF08C62600
:10191000D726E826F9260F5F1F4FB2E02B0E311CA9
:10192000EE81FF810E171F0709F0AACFC092430175
:10193000D0924401E0924501F092460180E290E0AD
:1019400090934801809347018FEF9FEF54CE84819D
:101950009581CA97899708F018CE9F012A5F3F4F5B
:10196000C12CD12C760143E050E0D9016D917C91DE
:101970006A5071096930710508F007CED9011296D5
:101980006D917C911397665171096131710590F1E8
:1019900012966D917C9113976650710967307105AD
:1019A00008F0F3CDCC0CDD1CEE1CFF1C4E5F5F4F2E
:1019B0002C5F3F4F4B335105C1F69F012A583F4FD3
:1019C000D9012D913C912A5031092930310508F077
:1019D000DCCD2CE130E03093480120934701C092E8
:1019E0004301D0924401E0924501F09246018AE021
:1019F00090E001CED701C601880F991FAA1FBB1F17
:101A00006C017D016894C0F8D1CF2091F001CF0125
:101A1000820F911D820F911DDC0112978D919C9177
:101A20000A97099708F0B6CD109248011092470125
:101A30008FEF9FEFDC018093430190934401A093CB
:101A40004501B09346016BC18091F001813208F4E9
:101A5000A9CD84819581CA97899708F0A3CD9F016C
:101A60002A5F3F4FC12CD12C760143E050E0D901D1
:101A70006D917C916A5071096930710508F092CDC1
:101A8000D90112966D917C9113976651710961315C
:101A9000710560F5D701C601880F991FAA1FBB1FEA
:101AA0006C017D016894C0F84E5F5F4F2C5F3F4F23
:101AB00043325105E1F69F012A5B3F4FD9012D9139
:101AC0003C912A5031092930310508F06BCDE0E115
:101AD000F0E0F0934801E0934701C0924301D092B7
:101AE0004401E0924501F092460119C1D9011296D4
:101AF0006D917C911397665071096730710508F0FC
:101B000051CDCC0CDD1CEE1CFF1CCECF8481958109
:101B100089549109C39708F018CE9F012A5F3F4F5F
:101B2000BF016A577F4FC12CD12C7601D9014D914D
:101B30005C91495051094930510508F006CED90150
:101B400012964D915C9113974651510941315105BF
:101B5000F0F4D701C601880F991FAA1FBB1F6C01A3
:101B60007D016894C0F82C5F3F4F26173707F1F6C8
:101B7000E0E2F0E0F0934801E0934701C0924301B6
:101B8000D0924401E0924501F092460132CDD90154
:101B900012964D915C91139746505109473051056B
:101BA00008F0D3CDCC0CDD1CEE1CFF1CDCCF8481F7
:101BB00095810997099708F0F8CD868197818C97D0
:101BC0004F9708F0F2CD8085918589974D9708F061
:101BD000ECCD9F01265F3F4FC12CD12C760145E013
:101BE00050E0DBCD9F0126573F4FD9012D913C910D
:101BF0002C5031092B30310508F0D7CDE0E2F0E070
:101C0000F0934801E0934701C0924301D092440110
:101C1000E0924501F092460188E090E0ECCCD901D9
:101C200012966D917C911397695071096930710515
:101C300008F0BBCDCC0CDD1CEE1CFF1CA6CD8481B6
:101C40009581825491098E9708F0E3CD7F011CE3C2
:101C5000E10EF11C8DE190E020E030E0C6CDD7012F
:101C60004D915C914851510942315105D0F0CB0161
:101C700001979595879590934801809347018A979E
:101C80000CF4C7CDC901330FAA0BBB0B80934301E2
:101C900090934401A0934501B093460189E090E000
:101CA000AACC220F331F9DCDD90112964D915C9184
:101CB0001397495151094331510508F5D701C60120
:101CC000880F991FAA1FBB1F6C017D016894C0F883
:101CD0002C5F3F4F2617370709F0B2CD2EE030E0DA
:101CE0003093480120934701C0924301D0924401B0
:101CF000E0924501F09246018FE090E07CCCD90162
:101D000012964D915C9113974950510949305105F4
:101D100008F09FCDCC0CDD1CEE1CFF1CD9CF86E05B
:101D200090E069CCCF92DF92EF92FF920F931F93D6
:101D3000CF93DF93EFE4F1E01382128288EE93E019
:101D4000A0E0B0E084839583A683B7838AE091E026
:101D50009183808385EC90E09587848784EC90E084
:101D60009787868780EC90E0918B808B81EC90E068
:101D7000938B828B82EC90E0958B848B86EC90E049
:101D8000978B868B118E128E138E148E8AE190E0C3
:101D90000E944212EC011B861A86198218821E8A42
:101DA0001F8A188E198E80E3E82EF12CFF82EE82B6
:101DB0008BE090E09D878C8789E090E09F878E87FD
:101DC0008AE090E0998B888B88E090E09B8B8A8BEF
:101DD00061E08BE00E94200361E08E850E94200379
:101DE00061E088890E94200361E08A890E942003C3
:101DF0001D8A1C8A94E0C92ED12CD986C8860FEB87
:101E000012E0F801D183C0838AE190E00E9442127F
:101E1000EC011B861A86198218821E8A1F8A188E68
:101E2000198EFF82EE82DD86CC8686E090E09F8769
:101E30008E8785E090E0998B888B87E090E09B8B84
:101E40008A8B61E084E00E94200361E08E850E941D
:101E5000200361E088890E94200361E08A890E9452
:101E600020031D8A1C8AD986C886F801D383C283C1
:101E7000F186E08681E090E0958384839783868372
:101E8000ECEEF1E085E081831382DF91CF911F9129
:101E90000F91FF90EF90DF90CF900895DB018F932B
:101EA0009F930E949A0FBF91AF91A29F800D911DA9
:101EB000A39F900DB29F900D1124089597FB072EBC
:101EC00016F4009407D077FD09D00E94DC0F07FCC0
:101ED00005D03EF4909581959F4F0895709561953A
:101EE0007F4F0895A1E21A2EAA1BBB1BFD010DC056
:101EF000AA1FBB1FEE1FFF1FA217B307E407F507BA
:101F000020F0A21BB30BE40BF50B661F771F881F95
:101F1000991F1A9469F760957095809590959B012B
:101F2000AC01BD01CF010895EE0FFF1F0590F491A4
:101F3000E02D09940E94F00FA59F900DB49F900D85
:101F4000A49F800D911D112408950F93083090F0E7
:101F5000982F872F762F652F542F432F322F22272C
:101F60000850F4CF220F331F441F551F661F771FE1
:101F7000881F991F0A95B2F70F91089597FB10F8E3
:101F8000169400080F93083098F00850232F342F30
:101F9000452F562F672F782F892F902DF4CF05943A
:101FA0009795879577956795579547953795279591
:101FB0000A95AAF70F910895AA1BBB1B51E107C010
:101FC000AA1FBB1FA617B70710F0A61BB70B881FC9
:101FD000991F5A95A9F780959095BC01CD01089558
:101FE000A29FB001B39FC001A39F700D811D11245A
:101FF000911DB29F700D811D1124911D089550589F
:10200000BB27AA270E9417100C9491110E948311DC
:1020100038F00E948A1120F039F49F3F19F426F419
:102020000C9480110EF4E095E7FB0C947A11E92FE3
:102030000E94A21158F3BA17620773078407950725
:1020400020F079F4A6F50C94C4110EF4E0950B2E53
:10205000BA2FA02D0B01B90190010C01CA01A001FA
:102060001124FF27591B99F0593F50F4503E68F155
:102070001A16F040A22F232F342F4427585FF3CF96
:10208000469537952795A795F0405395C9F77EF467
:102090001F16BA0B620B730B840BBAF09150A1F0B0
:1020A000FF0FBB1F661F771F881FC2F70EC0BA0F36
:1020B000621F731F841F48F4879577956795B795BE
:1020C000F7959E3F08F0B0CF9395880F08F09927B9
:1020D000EE0F9795879508950E94561108F481E0B8
:1020E00008950E9485100C9491110E948A1158F055
:1020F0000E94831140F029F45F3F29F00C947A117B
:1021000051110C94C5110C9480110E94A21168F316
:102110009923B1F3552391F3951B550BBB27AA27A0
:1021200062177307840738F09F5F5F4F220F331FDA
:10213000441FAA1FA9F335D00E2E3AF0E0E832D0A2
:1021400091505040E695001CCAF72BD0FE2F29D0A5
:10215000660F771F881FBB1F261737074807AB0777
:10216000B0E809F0BB0B802DBF01FF2793585F4FEC
:102170003AF09E3F510578F00C947A110C94C511F9
:102180005F3FE4F3983ED4F3869577956795B795CE
:10219000F7959F5FC9F7880F911D9695879597F9D9
:1021A0000895E1E0660F771F881FBB1F6217730752
:1021B0008407BA0720F0621B730B840BBA0BEE1F67
:1021C00088F7E09508950E94EA106894B1110C9484
:1021D000C51108950E94AA1188F09F5798F0B92F51
:1021E0009927B751B0F0E1F0660F771F881F991F4C
:1021F0001AF0BA95C9F714C0B13091F00E94C41119
:10220000B1E008950C94C411672F782F8827B85F28
:1022100039F0B93FCCF3869577956795B395D9F7A3
:102220003EF490958095709561957F4F8F4F9F4FAD
:102230000895E89409C097FB3EF4909580957095B9
:1022400061957F4F8F4F9F4F9923A9F0F92F96E902
:10225000BB279395F695879577956795B795F11177
:10226000F8CFFAF4BB0F11F460FF1BC06F5F7F4F14
:102270008F4F9F4F16C0882311F096E911C0772326
:1022800021F09EE8872F762F05C0662371F096E82F
:10229000862F70E060E02AF09A95660F771F881FFE
:1022A000DAF7880F9695879597F90895990F0008A2
:1022B000550FAA0BE0E8FEEF16161706E807F90718
:1022C000C0F012161306E407F50798F0621B730BB3
:1022D000840B950B39F40A2661F0232B242B252B34
:1022E00021F408950A2609F4A140A6958FEF811DD7
:1022F000811D089597F99F6780E870E060E0089578
:102300009FEF80EC089500240A941616170618060D
:102310000906089500240A941216130614060506E9
:102320000895092E0394000C11F4882352F0BB0F7A
:1023300040F4BF2B11F460FF04C06F5F7F4F8F4FDD
:102340009F4F089557FD9058440F551F59F05F3F18
:1023500071F04795880F97FB991F61F09F3F79F0C7
:1023600087950895121613061406551FF2CF469549
:10237000F1DF08C0161617061806991FF1CF8695CB
:102380007105610508940895E894BB2766277727AF
:10239000CB0197F908950E94561108F48FEF089524
:1023A0000E94E3110C9491110E94831138F00E9455
:1023B0008A1120F0952311F00C947A110C9480115D
:1023C00011240C94C5110E94A21170F3959FC1F3C2
:1023D000950F50E0551F629FF001729FBB27F00DD3
:1023E000B11D639FAA27F00DB11DAA1F649F662728
:1023F000B00DA11D661F829F2227B00DA11D621F77
:10240000739FB00DA11D621F839FA00D611D221F30
:10241000749F3327A00D611D231F849F600D211D14
:10242000822F762F6A2F11249F5750409AF0F1F097
:1024300088234AF0EE0FFF1FBB1F661F771F881F00
:1024400091505040A9F79E3F510580F00C947A11AD
:102450000C94C5115F3FE4F3983ED4F386957795CD
:102460006795B795F795E7959F5FC1F7FE2B880FA6
:10247000911D9695879597F908950E945611880B9E
:10248000990B0895CF93DF938230910510F482E089
:1024900090E0E091CB02F091CC0220E030E0C0E08F
:1024A000D0E0309711F14081518148175907C0F0B1
:1024B0004817590761F482819381209719F09B8313
:1024C0008A832BC09093CC028093CB0226C0211527
:1024D000310519F04217530718F49A01BE01DF01C4
:1024E000EF010280F381E02DDCCF2115310509F1E8
:1024F000281B390B2430310590F412968D919C9154
:1025000013976115710521F0FB019383828304C049
:102510009093CC028093CB02FD01329644C0FD0122
:10252000E20FF31F81939193225031092D933C9335
:102530003AC02091C9023091CA02232B41F4209164
:102540000201309103013093CA022093C902209105
:102550000001309101012115310541F42DB73EB73D
:102560004091040150910501241B350BE091C902F3
:10257000F091CA02E217F307A0F42E1B3F0B2817B5
:10258000390778F0AC014E5F5F4F2417350748F0EC
:102590004E0F5F1F5093CA024093C90281939193DB
:1025A00002C0E0E0F0E0CF01DF91CF9108950F93FA
:1025B0001F93CF93DF93009709F48CC0FC013297EF
:1025C000138212820091CB021091CC0201151105E9
:1025D00081F420813181820F931F2091C9023091B3
:1025E000CA022817390779F5F093CA02E093C902A5
:1025F00071C0D80140E050E0AE17BF0750F412960A
:102600002D913C911397AD012115310509F1D901A7
:10261000F3CF9D01DA013383228360817181860FBC
:10262000971F8217930769F4EC0128813981260FDF
:10263000371F2E5F3F4F318320838A819B81938395
:102640008283452B29F4F093CC02E093CB0242C065
:102650001396FC93EE931297ED01499159919E01C7
:10266000240F351FE217F30771F480819181840FE5
:10267000951F029611969C938E9382819381139657
:102680009C938E931297E0E0F0E0D80112968D9122
:102690009C911397009719F0F8018C01F6CF8D915A
:1026A0009C9198012E5F3F4F820F931F2091C9028A
:1026B0003091CA022817390769F4309729F410922B
:1026C000CC021092CB0202C0138212821093CA0273
:1026D0000093C902DF91CF911F910F91089581E07E
:0C26E00090E0F8940C947413F894FFCF71
:1026EC000000CD028000000000001A019600E300FB
:1026FC00C100D50061016E616E00696E66006F7677
:10270C0066000D0A00726573756C7461646F733AC0
:02271C0020009B
:00000001FF
