:100000000C9462000C948A000C948A000C948A0070
:100010000C948A000C948A000C948A000C94990326
:100020000C948A000C948A000C948A000C948A0028
:100030000C948A000C948A000C948A000C948A0018
:100040000C94DB020C948A000C9448020C9422025B
:100050000C948A000C948A000C948A000C948A00F8
:100060000C948A000C948A000000000023002600F3
:10007000290000000000240027002A0000000000E2
:10008000250028002B0004040404040404040202D4
:100090000202020203030303030301020408102007
:1000A0004080010204081020010204081020000012
:1000B0000008000201000003040700000000000027
:1000C0000000F10C11241FBECFEFD8E0DEBFCDBF82
:1000D00011E0A0E0B1E0EEE8F4E202C005900D927C
:1000E000A233B107D9F722E0A2E3B1E001C01D922B
:1000F000A03DB207E1F710E0C2E6D0E004C02197CE
:10010000FE010E94BB0EC136D107C9F70E94CF0481
:100110000C9445120C940000CF92DF92EF92FF9264
:100120000F931F93CF93DF936C017A018B01C0E093
:10013000D0E0CE15DF0589F0D8016D918D01D60193
:10014000ED91FC910190F081E02DC6010995892B7C
:1001500011F47E0102C02196ECCFC701DF91CF914F
:100160001F910F91FF90EF90DF90CF900895FC01C9
:10017000918D828D981761F0828DDF01A80FB11DDE
:100180005D968C91928D9F5F9F73928F90E0089502
:100190008FEF9FEF0895FC01918D828D981731F0BC
:1001A000828DE80FF11D858D90E008958FEF9FEF10
:1001B0000895FC01918D228D892F90E0805C9F4FE6
:1001C000821B91098F73992708958BE391E00E9418
:1001D000D90021E0892B09F420E0822F0895FC0149
:1001E000848DDF01A80FB11DA35ABF4F2C91848DC0
:1001F00090E001968F739927848FA689B7892C93F5
:10020000A089B1898C9180648C93938D848D98138F
:1002100006C00288F389E02D80818F7D8083089558
:10022000EF92FF920F931F93CF93DF93EC0181E046
:10023000888F9B8D8C8D981305C0E889F989808102
:1002400085FD24C0F62E0B8D10E00F5F1F4F0F733E
:100250001127E02E8C8DE8120CC00FB607FCFACFE8
:10026000E889F989808185FFF5CFCE010E94EF00F2
:10027000F1CF8B8DFE01E80FF11DE35AFF4FF082A5
:100280000B8FEA89FB898081806207C0EE89FF8934
:100290006083E889F98980818064808381E090E0CF
:1002A000DF91CF911F910F91FF90EF900895CF9321
:1002B000DF93EC01888D8823C9F0EA89FB8980816E
:1002C00085FD05C0A889B9898C9186FD0FC00FB640
:1002D00007FCF5CF808185FFF2CFA889B9898C9181
:1002E00085FFEDCFCE010E94EF00E7CFDF91CF91E8
:1002F000089580E090E0892B29F00E94E5008111AB
:100300000C9400000895833081F028F4813099F036
:100310008230A1F008958730A9F08830B9F0843098
:10032000D1F4809180008F7D03C0809180008F7711
:1003300080938000089584B58F7702C084B58F7D47
:1003400084BD08958091B0008F7703C08091B00084
:100350008F7D8093B00008951F93CF93DF93282F54
:1003600030E0F901E255FF4F8491F901E656FF4F65
:10037000D491F901EA57FF4FC491CC23C9F0162F4D
:1003800081110E948301EC2FF0E0EE0FFF1FE45873
:10039000FF4FA591B4918FB7F894111105C09C91AE
:1003A000ED2FE095E92302C0EC91ED2BEC938FBF8C
:1003B000DF91CF911F910895CF92DF92EF92FF923C
:1003C000CF93DF93EC01072E000C880B990B0E9452
:1003D000EC0F6B017C0120E030E040E45FE30E9421
:1003E000A11020E030E048E452E40E94420F0E9455
:1003F000B40FC617D707D4F020E030E040EA5FE33F
:10040000C701B6010E94A11020E030E048E452E4A8
:100410000E94420F20E030E040E85FE30E94D10EEE
:100420000E94B40F21E06C177D070CF420E0822FAE
:1004300090E0DF91CF91FF90EF90DF90CF90089503
:100440000E9440121F920F920FB60F9211242F9309
:100450003F934F935F936F937F938F939F93AF934C
:10046000BF93EF93FF938BE391E00E94EF00FF9126
:10047000EF91BF91AF919F918F917F916F915F911C
:100480004F913F912F910F900FBE0F901F90189595
:100490001F920F920FB60F9211242F938F939F9359
:1004A000EF93FF93E0914B01F0914C018081E0913B
:1004B0005101F091520182FD12C09081809154014E
:1004C0008F5F8F7320915501821751F0E091540195
:1004D000F0E0E55CFE4F958F8093540101C0808170
:1004E000FF91EF919F918F912F910F900FBE0F90E1
:1004F0001F901895CF93DF9390E0FC01E656FF4FD5
:100500002491FC01EA57FF4F8491882361F190E028
:10051000880F991FFC01EE58FF4FC591D491FC0143
:10052000E458FF4FA591B491611109C09FB7F894A9
:100530008881209582238883EC912E230BC0623022
:1005400061F49FB7F8943881822F80958323888344
:10055000EC912E2B2C939FBF06C08FB7F894E881A7
:100560002E2B28838FBFDF91CF9108953FB7F8944A
:100570008091370190913801A0913901B0913A01F1
:1005800026B5A89B05C02F3F19F00196A11DB11DEE
:100590003FBFBA2FA92F982F8827820F911DA11D29
:1005A000B11DBC01CD0142E0660F771F881F991F66
:1005B0004A95D1F708951F920F920FB60F9211240A
:1005C0002F933F938F939F93AF93BF93809133016A
:1005D00090913401A0913501B091360130913201F2
:1005E00023E0230F2D3720F40196A11DB11D05C076
:1005F00026E8230F0296A11DB11D2093320180939E
:10060000330190933401A0933501B093360180916A
:10061000370190913801A0913901B0913A010196CA
:10062000A11DB11D8093370190933801A09339012A
:10063000B0933A01BF91AF919F918F913F912F91CC
:100640000F900FBE0F901F9018958F929F92AF92B0
:10065000BF92CF92DF92EF92FF920F931F93CF93AF
:10066000DF93DA01CD91DC91FB0184859585C81774
:10067000D9070CF04CC0CE01880F991F0284F38576
:10068000E02DE80FF91F80809180C170DD27F1E037
:10069000CF27209719F484E690E002C08CE99FEF01
:1006A00059016A017801E80EF91EB701C4010E94E0
:1006B000DC01892B99F4E00EF11EB701C4010E9400
:1006C000DC01892B71F4B701600F711FC4010E9416
:1006D000DC01892BF9F023E030E005C021E030E0B7
:1006E00002C022E030E0D5018D919C9111970196D6
:1006F0008217930744F0F50111821082D6018D9183
:100700009C91119701968D939C93CE0105C081E039
:1007100090E002C08FEF9FEFDF91CF911F910F917B
:10072000FF90EF90DF90CF90BF90AF909F908F9011
:1007300008951F920F920FB60F9211242F933F939B
:100740004F935F936F937F938F939F93AF93BF93D9
:10075000CF93DF93EF93FF932091D90130E0F9011C
:10076000E255FF4F8491F901E656FF4FD491F9010C
:10077000EA57FF4FC491CC23A1F081110E9483015D
:10078000EC2FF0E0EE0FFF1FE859FF4FA591B49159
:10079000EC91ED2331E020E009F430E0832F922F3B
:1007A00002C080E090E02091DD013091DE012F5FFA
:1007B0003F4F3093DE012093DD012091DC0125368F
:1007C00018F026E02093D8012091D8012430D9F1E7
:1007D00028F4223069F02330D9F060C0253009F4C4
:1007E00053C0263009F05AC021E02093A90253C01B
:1007F000009709F053C02091DD013091DE012436CD
:10080000310508F443C01092A9021092DC011DC00A
:100810008130910509F042C0E091DC0121E02E0F0A
:100820002093DC01F0E02091DD013091DE01EE0F3C
:10083000FF1FE852FE4F308727831092DE0110928F
:10084000DD0124E029C00097B9F4E091DC0121E04A
:100850002E0F2093DC01F0E02091DD013091DE01CC
:10086000EE0FFF1FE852FE4F308727831092DE0104
:100870001092DD0123E010C02091DD013091DE01F6
:100880002536310558F007C0009741F41092DE017B
:100890001092DD0103C025E02093D8012091DB01F7
:1008A0002223B9F0892B51F48091DA01882321F0B9
:1008B0008091DA0161E009C02D9A0BC08091DA01C4
:1008C000882331F08091DA0160E00E94AC0101C020
:1008D0002D98FF91EF91DF91CF91BF91AF919F91B3
:1008E0008F917F916F915F914F913F912F910F90D9
:1008F0000FBE0F901F901895009769F0FC010190B2
:100900000020E9F73197AF01481B590BBC018BE37D
:1009100091E00C948C0080E090E008958F929F927B
:10092000AF92BF920F931F93CF93DF93CDB7DEB7F4
:10093000A1970FB6F894DEBF0FBECDBF19A242300B
:1009400008F44AE08E010F5D1F4F842E912CA12CDC
:10095000B12CA50194010E94430EE62FB901CA01F2
:1009600001501109EA3014F4E05D01C0E95CD801DE
:10097000EC93232B242B252B61F7C8010E947C04C8
:10098000A1960FB6F894DEBF0FBECDBFDF91CF9119
:100990001F910F91BF90AF909F908F900895CF932C
:1009A000DF93CDB7DEB729970FB6F894DEBF0FBE41
:1009B000CDBF789484B5826084BD84B5816084BDE8
:1009C00085B5826085BD85B5816085BD80916E00ED
:1009D000816080936E00109281008091810082601E
:1009E000809381008091810081608093810080915B
:1009F00080008160809380008091B100846080934A
:100A0000B1008091B00081608093B00080917A0045
:100A1000846080937A0080917A00826080937A006B
:100A200080917A00816080937A0080917A0080685A
:100A300080937A001092C100E0914B01F0914C013B
:100A400082E08083E0914701F09148011082E091BB
:100A50004901F0914A019FEC908310925301E0917B
:100A60004F01F091500196E09083E0914D01F0919B
:100A70004E01908190619083E0914D01F0914E0183
:100A8000908198609083E0914D01F0914E019081AA
:100A900090689083E0914D01F0914E0190819F7D8F
:100AA0009083F8948093B0008093B10094E6909383
:100AB000B3001092B2008093700078948093D801B4
:100AC0001092DC018091D90160E00E947A02E090EE
:100AD000BC02F090BD02C090BA02D090BB02EFED14
:100AE000F1E0D7011B96FC93EE931A978091DC01FD
:100AF00090E01D969C938E931C978091A90290E0A4
:100B00001F969C938E931E97F091D801FD83F5302C
:100B100009F06EC28091E1019091E201885891093B
:100B20008D35910588F48091DC01843041F4809109
:100B3000E3019091E4018097479708F482C2809185
:100B4000DC01843408F0E4C18091DC018A3108F4CE
:100B500048C08091DF019091E001843F914050F4C2
:100B6000D70119961C921E9218978FEF9FEFDC0108
:100B7000F70149C08091E1019091E20185974B977F
:100B800080F5E5EEF1E082E090E040E050E0BA016F
:100B90008C010F5F1F4F2091DC0130E0021713071B
:100BA0006CF49F0122503109D9012D913C912750BD
:100BB00031092730310508F469C2C80101979595BC
:100BC0008795F701918780870C971CF41186108612
:100BD00008C0D701448355836683778384E090E01F
:100BE000AAC38091DC018A3108F44CC08091DF01F6
:100BF0009091E0018032934068F4F70111861086ED
:100C00008FEF9FEFDC0184839583A683B7838BE00E
:100C100090E0E4C68091E1019091E201C697869749
:100C200008F450C22FC020813181255231092B3167
:100C3000310508F05FC2440F551F661F771F4160E2
:100C4000029634968C010F5F1F4F2091DC0130E03B
:100C50000217130764F49F0122503109D9012D9125
:100C60003C912C5031092B303105E8F2C801019735
:100C700095958795F701918780870C970CF032C284
:100C8000118610868091DC01823208F447C0809181
:100C9000E1019091E2010697079708F03FC0E5EE69
:100CA000F1E082E090E040E050E0BA015C01BFEF8B
:100CB000AB1ABB0A2091DC0130E0A216B306DCF4CB
:100CC000DF0112970D911C9111970E5111090731F7
:100CD000110508F01CC2440F551F661F771F4160A5
:100CE000208131813496235031092530310510F4AB
:100CF0000296DCCFC501019795958795F7019187FD
:100D0000808740971CF41186108608C0D701448361
:100D10005583668377838CE090E00DC31C821B8231
:100D2000E1E0F0E0FA83E9838091DC018D3008F4A2
:100D300073C009E713E09E012D5F3F4FAE014F5F87
:100D40005F4FB701C6010E942503892B09F064C0DB
:100D50009E012D5F3F4FAE014F5F5F4FB701C60150
:100D60000E942503019709F057C09E012D5F3F4F58
:100D7000AE014F5F5F4FB701C6010E942503892B6B
:100D800009F04AC0412C512C3201A12CB12C809188
:100D9000DC0190E029813A812817390784F509E7B9
:100DA00013E09E012D5F3F4FAE014F5F5F4FB701D4
:100DB000C6010E9425034C019E012D5F3F4FAE01ED
:100DC0004F5F5F4FB701C6010E942503F1E08F1608
:100DD000910449F4892B01F5440C551C661C771CC1
:100DE000689440F808C08928B9F40197A9F4440C24
:100DF000551C661C771C2FEFA21AB20AC8CFD70168
:100E00001996BC92AE921897F70144825582668279
:100E1000778281E090E0E2C51C821B82A1E0B0E015
:100E2000BA83A983F70184859585181619060CF0F5
:100E300063C00284F385E02D82E090E09A83898389
:100E40008281938189974E9708F056C083E090E0A5
:100E50009A838983848195810B970A9708F04CC007
:100E60000CEB11E09E012D5F3F4FAE014F5F5F4FD6
:100E7000B701C6010E942503892BF1F50CEB11E0A7
:100E80009E012D5F3F4FAE014F5F5F4FB701C6011F
:100E90000E942503019781F5212C312C2101A12CE1
:100EA000B12C29813A81F701848595852817390766
:100EB0000CF07CC10CEB11E09E012D5F3F4FAE01A9
:100EC0004F5F5F4FB701C6010E9425033C01F3E06D
:100ED000AF16B10409F028C10CEB11E09E012D5FA3
:100EE0003F4FAE014F5F5F4FB701C6010E94250320
:100EF0006816790609F418C1D7011A96ED91FC918C
:100F00001B9782819381C697869708F459C1A5C122
:100F10008091E3019091E401825491098E9708F049
:100F200013CE80E090E040E050E0BA01FC01EB51CC
:100F3000FE4F20813181295031092930310508F0D7
:100F400003CEFC01E951FE4F208131812751310947
:100F50002231310508F08DC0440F551F661F771FE1
:100F6000416004968038910509F7E0E2F0E0D7018E
:100F70001996FC93EE93189714964D935D936D9389
:100F80007C931797E3E0F0E0ED93FC93E091BC02D3
:100F9000F091BD0284819581A681B7818093BE02C4
:100FA0009093BF02A093C002B093C10282E08093ED
:100FB000D8011092DC0185E291E00E947C04C0908F
:100FC000BE02D090BF02E090C002F090C102A70123
:100FD0009601C701B6010E940E11882309F4AEC123
:100FE00086E191E00E947C0482E291E00E947C0410
:100FF0000E94B6024B015C0134E6C32ED12CE12CD9
:10100000F12C0E94B602DC01CB0188199909AA09CA
:10101000BB09883E9340A105B10558F021E0C21AF2
:10102000D108E108F10888EE880E83E0981EA11C23
:10103000B11CC114D104E104F10419F70E94790133
:1010400046CD8091E5019091E6010997099708F056
:1010500076CDD70119961C921E9218978FEF9FEFAD
:10106000DC01F70184839583A683B78383E090E056
:10107000B5C420813181265031092730310508F06F
:1010800063CD440F551F661F771F6BCF20813181C1
:10109000235131092F30310540F4440F551F661F8D
:1010A000771F41600296349673CD208131812A509A
:1010B00031092930310508F094CD440F551F661FC2
:1010C000771FF0CF8091E3019091E401C697869756
:1010D00008F0D8CDE7EEF1E083E090E040E050E0AA
:1010E000BA01B0CDD70144835583668377838BE003
:1010F00090E021C1208131812C5031092A30310505
:1011000008F0C0CD440F551F661F771F99CD2D9154
:101110003C912C5031092B30310508F0FFCD440FA4
:10112000551F661F771FDCCD0CEB11E09E012D5F74
:101130003F4FAE014F5F5F4FB701C6010E942503CD
:101140004C0123E0A216B10481F40CEB11E09E01E6
:101150002D5F3F4FAE014F5F5F4FB701C6010E9449
:1011600025038816990609F0C7CE6114710479F435
:101170008A94892809F0C0CED201C101880F991F35
:10118000AA1FBB1F1C012D01689420F80BC06A9494
:10119000672809F0B1CE892809F0AECE220C331CA5
:1011A000441C551CAFEFAA1ABA0A7BCEB186A086A2
:1011B000D701248235824682578282E090E0BBC00C
:1011C000848195814B97459708F047C0DF011696BB
:1011D0006F0196ECC90ED11C20E030E040E050E0F9
:1011E00060E070E080E090E00D911C911197095053
:1011F00011090830110588F512960D911C9113976D
:10120000015111090D30110518F112960D911C9123
:1012100013970450110905301105F8F401E00E94FC
:10122000700E1496AC15BD05F9F6F70124833583CD
:101230004683578300E20E948B0E2283338385E02E
:1012400090E09183808380E390E0918780879ECEB9
:1012500001E00E94700E2160E4CF8091DC018933AF
:1012600040F082819381895791098335910508F473
:1012700009C28091DC01823209F4F9C08281938134
:10128000895791098335910508F472C2828193814F
:101290008C549109C59708F0F1C08091DC0184302D
:1012A00031F4848195818097479708F4C1C2809179
:1012B000DC01843408F4E2C0848195818954910969
:1012C000C39708F0DBC09F012A5F3F4FBF016A57F9
:1012D0007F4F812C912C5401D9014D915C91495043
:1012E00051094930510508F0C9C0D90112964D91F4
:1012F0005C911397465151094131510508F0ABC239
:10130000D501C401880F991FAA1FBB1F4C015D01A5
:10131000689480F82C5F3F4F26173707E9F680E284
:1013200090E0F70191878087D70184829582A68219
:10133000B78287E090E08D939C9328CE46015701B9
:10134000E894B7F82FEF3FEF4FE75FE7C501B4012F
:101350000E940E1181110DC02FEF3FEF4FE75FE7A5
:10136000C501B4010E943D0F18161CF48AE191E0FA
:1013700039CE2FEF3FEF4FE75FE4C701B6010E9480
:101380009C1018161CF48EE191E02CCE2FEF3FEF4D
:101390004FE75FECC701B6010E943D0F87FDF3CF19
:1013A00020E030E0A901C701B6010E943D0F87FF90
:1013B0000FC0E0913B01F0913C010190F081E02DE4
:1013C0006DE28BE391E00995F7FAF094F7F8F09469
:1013D00026E137EB41E558E3C701B6010E94D10E83
:1013E0006B017C010E94BB0F4B015C010E94EA0F64
:1013F0009B01AC01C701B6010E94D00E6B017C01BC
:101400004AE0C501B4010E948E04E0913B01F091D5
:101410003C010190F081E02D6EE28BE391E00995B3
:10142000FD81F150FD83FF2309F4DECD20E030E0A3
:1014300040E251E4C701B6010E94A1106B017C019A
:101440000E94BB0F4B01A12CB12C4AE0C501B40195
:101450000E948E04C501B4010E94EA0F9B01AC01F9
:10146000C701B6010E94D00E6B017C01D9CF8281E9
:1014700093810A97099708F45FC100CF8091DC013E
:10148000863460F1828193810C970B9708F4F3C145
:1014900025C0D90112966D917C9113976E517109F7
:1014A0006731710508F01BC2D501C401880F991F6F
:1014B000AA1FBB1F4C015D01689480F84E5F5F4F0F
:1014C0002C5F3F4F4534510509F4F0C1D9016D91AE
:1014D0007C916C5071096B307105D8F28091DC0100
:1014E000883578F182819381855891098B359105F2
:1014F00008F405C226C0BC016F5F7F4FD8014D9133
:101500005C91475051094730510508F007C2220F3E
:10151000331F216002960C5F1F4F4091DC0150E0A9
:1015200044505109841795070CF001C2A80142509C
:101530005109DA014D915C914950510948305105EA
:10154000D0F28091DC018032E1F4828193810697B0
:101550000697B8F4848195810997099790F49F01C3
:101560002A5F3F4FBF01625C7F4F812C912C540159
:10157000D9014D915C91465051094630510508F40E
:10158000F0C1D7011C962D903C901D97B6E02B160C
:1015900031040CF41DC28F010A5F1F4F53E0C52EAA
:1015A000D12C65EC862E6DE9962E6CE1A62E61E8B5
:1015B000B62EF8016081718134976080718080E07F
:1015C00090E00E94EA0F6E837F8388879987B3013A
:1015D00080E090E00E94EA0F2B013C012DEC3CECF6
:1015E0004CE45FE30E94A1109B01AC016E817F81FE
:1015F000888599850E943D0F87FD19C02DEC3CEC34
:101600004CE45FE36E817F81888599850E94A110FB
:101610009B01AC01C301B2010E943D0FE82F880F6E
:10162000FF0BEE27FF0FEE1FFF27319602C0E0E011
:10163000F0E0A501940163E971E080E091E00E948F
:101640001F0E4F01FF0FAA08BB0886269726A82663
:10165000B926FFEFCF1ADF0A0E5F1F4FC214D30463
:1016600009F0A7CFD70114968D929D92AD92BC92AE
:101670001797E0E2F0E01996FC93EE9318978FEF3E
:101680009FEF59CE84819581CA97899708F0F1CD53
:101690009F012A5F3F4F812C912C540143E050E081
:1016A000D9016D917C916A5071096930710508F01A
:1016B000E0CDD90112966D917C9113976651710915
:1016C0006131710570F112966D917C91139766509E
:1016D00071096730710508F0CCCD880C991CAA1CE3
:1016E000BB1C4E5F5F4F2C5F3F4F4B335105C1F624
:1016F0009F012A583F4FD9012D913C912A50310921
:101700002930310508F0B5CD2CE130E0F701318703
:101710002087D70184829582A682B7828AE090E0F2
:101720000ACED501C401880F991FAA1FBB1F4C0107
:101730005D01689480F8D5CF2091DC01CF01820F44
:10174000911D820F911DDC0112978D919C910A973A
:10175000099708F093CDF701118610868FEF9FEF60
:10176000DC0184839583A683B78386E090E036C14D
:101770008091DC01813208F489CD84819581CA97FA
:10178000899708F083CD9F012A5F3F4F812C912CD0
:10179000540143E050E0D9016D917C916A50710988
:1017A0006930710508F072CDD90112966D917C9166
:1017B0001397665171096131710550F5D501C40166
:1017C000880F991FAA1FBB1F4C015D01689480F808
:1017D0004E5F5F4F2C5F3F4F43325105E1F69F0153
:1017E0002A5B3F4FD9012D913C912A503109293074
:1017F000310508F04BCD80E190E0F70191878087BB
:10180000D70184829582A682B78286E090E093CD4C
:10181000D90112966D917C911397665071096730CA
:10182000710508F033CD880C991CAA1CBB1CD0CFC5
:10183000868197810997099708F039CDF7011186BC
:1018400010868FEF9FEFDC0184839583A683B78397
:1018500087E090E0C3C0D90112964D915C91139737
:10186000465051094730510508F008CE880C991CA4
:10187000AA1CBB1C4FCD848195810997099708F05C
:101880002DCE868197818C974F9708F027CE808543
:10189000918589974D9708F021CE9F01265F3F4F94
:1018A000812C912C540145E050E010CE9F01265729
:1018B0003F4FD9012D913C912C5031092B303105EE
:1018C00008F00CCE80E290E0F70191878087D70185
:1018D00084829582A682B78288E090E02CCDD901DF
:1018E00012966D917C911397695071096930710559
:1018F00008F0F4CD880C991CAA1CBB1CDFCD848198
:101900009581825491098E9708F01BCE8F01045C5B
:101910001F4F8DE190E020E030E0FFCDD8014D91E8
:101920005C914851510942315105C0F0CB010197FA
:1019300095958795D70119969C938E9318978A97BA
:101940000CF4FFCDC901330FAA0BBB0BF701848345
:101950009583A683B78389E090E040C0220F331FB0
:10196000D9CDD90112964D915C91139749515109E6
:1019700043315105E8F4D501C401880F991FAA1F0E
:10198000BB1F4C015D01689480F82C5F3F4F261708
:10199000370709F0EDCD2EE030E0F70131872087E1
:1019A000D70184829582A682B7828FE090E0C3CC73
:1019B000D90112964D915C911397495051094930C4
:1019C000510508F0DECD880C991CAA1CBB1CDDCF8C
:1019D00082E08093D8011092DC010ACB918380834E
:1019E000D5CA0F931F93CF93DF9310923E011092AD
:1019F0003D0188EE93E0A0E0B0E080933F0190933A
:101A00004001A0934101B09342018AE091E090939C
:101A10003C0180933B0185EC90E0909348018093DA
:101A2000470184EC90E090934A018093490180EC57
:101A300090E090934C0180934B0181EC90E0909367
:101A40004E0180934D0182EC90E090935001809381
:101A50004F0186EC90E090935201809351011092D7
:101A600054011092550110925601109257018AE1CB
:101A700090E00E941311EC011B861A8619821882CD
:101A80001E8A1F8A188E198E80E390E09F838E83B2
:101A90008BE090E09D878C8789E090E09F878E8720
:101AA0008AE090E0998B888B88E090E09B8B8A8B12
:101AB00061E08BE00E947A0261E08E850E947A02EA
:101AC00061E088890E947A0261E08A890E947A0234
:101AD0001D8A1C8A04E010E019870887D093C3028E
:101AE000C093C2028AE190E00E941311EC011B86B0
:101AF0001A86198218821E8A1F8A188E198E88ECFF
:101B000090E09F838E831D870C8786E090E09F87FF
:101B10008E8785E090E0998B888B87E090E09B8BA7
:101B20008A8B61E084E00E947A0261E08E850E94E7
:101B30007A0261E088890E947A0261E08A890E94C3
:101B40007A021D8A1C8A19870887D093C502C09320
:101B5000C40250E340E038EC20E0852F942F632F3F
:101B6000722F0E942F0EA901009719F0382F292FEC
:101B7000F4CF3093CA022093CB0280E390E0632F2E
:101B8000722F0E942F0E7093C7026093C60288ECDA
:101B900090E0632F722F0E942F0E7093C902609302
:101BA000C80281E090E00E941311EC0183E0809371
:101BB000D9011092DB0182EC92E09093AB0280930A
:101BC000AA028CE08093AC028DE08093AD028FE09E
:101BD00090E09093AF028093AE028EE08093B002CB
:101BE00082E08093B10281E08093B2021092B3024E
:101BF0002FEF30E03093B5022093B4023093B70258
:101C00002093B6023093B9022093B80261E08CE0D1
:101C10000E947A0260E08DE00E947A02D093BB02BB
:101C2000C093BA0280E190E00E9413119093BD022C
:101C30008093BC02DF91CF911F910F910895DB013A
:101C40008F939F930E94650EBF91AF91A29F800DCD
:101C5000911DA39F900DB29F900D1124089597FBA5
:101C6000072E16F4009407D077FD09D00E94A70E26
:101C700007FC05D03EF4909581959F4F089570958F
:101C800061957F4F0895A1E21A2EAA1BBB1BFD018F
:101C90000DC0AA1FBB1FEE1FFF1FA217B307E4074B
:101CA000F50720F0A21BB30BE40BF50B661F771FA3
:101CB000881F991F1A9469F7609570958095909583
:101CC0009B01AC01BD01CF0108950E94C10EA59FEB
:101CD000900DB49F900DA49F800D911D1124089527
:101CE0000F93083090F0982F872F762F652F542F61
:101CF000432F322F22270850F4CF220F331F441FC7
:101D0000551F661F771F881F991F0A95B2F70F91FD
:101D1000089597FB10F8169400080F93083098F078
:101D20000850232F342F452F562F672F782F892FB8
:101D3000902DF4CF0594979587957795679557954E
:101D40004795379527950A95AAF70F910895AA1BED
:101D5000BB1B51E107C0AA1FBB1FA617B70710F096
:101D6000A61BB70B881F991F5A95A9F780959095C8
:101D7000BC01CD010895EE0FFF1F0590F491E02DF9
:101D80000994A29FB001B39FC001A39F700D811D54
:101D90001124911DB29F700D811D1124911D089574
:101DA0005058BB27AA270E94E80E0C9462100E948C
:101DB000541038F00E945B1020F039F49F3F19F462
:101DC00026F40C9451100EF4E095E7FB0C944B10A4
:101DD000E92F0E94731058F3BA176207730784073C
:101DE000950720F079F4A6F50C9495100EF4E09583
:101DF0000B2EBA2FA02D0B01B90190010C01CA01C5
:101E0000A0011124FF27591B99F0593F50F4503E6F
:101E100068F11A16F040A22F232F342F4427585F61
:101E2000F3CF469537952795A795F0405395C9F779
:101E30007EF41F16BA0B620B730B840BBAF0915031
:101E4000A1F0FF0FBB1F661F771F881FC2F70EC0D0
:101E5000BA0F621F731F841F48F4879577956795A3
:101E6000B795F7959E3F08F0B0CF9395880F08F08F
:101E70009927EE0F9795879508950E94271008F4EB
:101E800081E008950E94560F0C9462100E945B102E
:101E900058F00E94541040F029F45F3F29F00C9450
:101EA0004B1051110C9496100C9451100E94731009
:101EB00068F39923B1F3552391F3951B550BBB2779
:101EC000AA2762177307840738F09F5F5F4F220FBE
:101ED000331F441FAA1FA9F335D00E2E3AF0E0E8B5
:101EE00032D091505040E695001CCAF72BD0FE2FFF
:101EF00029D0660F771F881FBB1F26173707480793
:101F0000AB07B0E809F0BB0B802DBF01FF2793584A
:101F10005F4F3AF09E3F510578F00C944B100C94B3
:101F200096105F3FE4F3983ED4F3869577956795D6
:101F3000B795F7959F5FC9F7880F911D969587957F
:101F400097F90895E1E0660F771F881FBB1F62179E
:101F500073078407BA0720F0621B730B840BBA0B5C
:101F6000EE1F88F7E09508950E94BB0F6894B111A9
:101F70000C94961008950E947B1088F09F5798F05B
:101F8000B92F9927B751B0F0E1F0660F771F881F7E
:101F9000991F1AF0BA95C9F714C0B13091F00E9498
:101FA0009510B1E008950C949510672F782F88272D
:101FB000B85F39F0B93FCCF3869577956795B395BF
:101FC000D9F73EF490958095709561957F4F8F4F2E
:101FD0009F4F0895E89409C097FB3EF49095809533
:101FE000709561957F4F8F4F9F4F9923A9F0F92FDF
:101FF00096E9BB279395F695879577956795B7955D
:10200000F111F8CFFAF4BB0F11F460FF1BC06F5F42
:102010007F4F8F4F9F4F16C0882311F096E911C054
:10202000772321F09EE8872F762F05C0662371F075
:1020300096E8862F70E060E02AF09A95660F771F89
:10204000881FDAF7880F9695879597F90895990F65
:102050000008550FAA0BE0E8FEEF16161706E80772
:10206000F907C0F012161306E407F50798F0621B93
:10207000730B840B950B39F40A2661F0232B242B68
:10208000252B21F408950A2609F4A140A6958FEF87
:10209000811D811D089597F99F6780E870E060E0D9
:1020A00008959FEF80EC089500240A9416161706F1
:1020B00018060906089500240A9412161306140639
:1020C00005060895092E0394000C11F4882352F09C
:1020D000BB0F40F4BF2B11F460FF04C06F5F7F4F54
:1020E0008F4F9F4F089557FD9058440F551F59F03B
:1020F0005F3F71F04795880F97FB991F61F09F3FF5
:1021000079F087950895121613061406551FF2CF1D
:102110004695F1DF08C0161617061806991FF1CF6D
:1021200086957105610508940895E894BB27662794
:102130007727CB0197F908950E94271008F48FEFB5
:1021400008950E94B4100C9462100E94541038F04C
:102150000E945B1020F0952311F00C944B100C940E
:10216000511011240C9496100E94731070F3959FD7
:10217000C1F3950F50E0551F629FF001729FBB277E
:10218000F00DB11D639FAA27F00DB11DAA1F649F1A
:102190006627B00DA11D661F829F2227B00DA11DCD
:1021A000621F739FB00DA11D621F839FA00D611D53
:1021B000221F749F3327A00D611D231F849F600D74
:1021C000211D822F762F6A2F11249F5750409AF09D
:1021D000F1F088234AF0EE0FFF1FBB1F661F771F29
:1021E000881F91505040A9F79E3F510580F00C94F4
:1021F0004B100C9496105F3FE4F3983ED4F3869511
:1022000077956795B795F795E7959F5FC1F7FE2B93
:10221000880F911D9695879597F908950E9427102C
:10222000880B990B0895CF93DF938230910510F4BA
:1022300082E090E0E091CE02F091CF0220E030E029
:10224000C0E0D0E0309711F1408151814817590723
:10225000C0F04817590761F482819381209719F0E3
:102260009B838A832BC09093CF028093CE0226C09B
:102270002115310519F04217530718F49A01BE01D0
:10228000DF01EF010280F381E02DDCCF2115310564
:1022900009F1281B390B2430310590F412968D91E9
:1022A0009C9113976115710521F0FB019383828343
:1022B00004C09093CF028093CE02FD01329644C0B9
:1022C000FD01E20FF31F81939193225031092D9369
:1022D0003C933AC02091CC023091CD02232B41F4A3
:1022E00020910201309103013093CD022093CC0262
:1022F00020910001309101012115310541F42DB7E4
:102300003EB74091040150910501241B350BE0912B
:10231000CC02F091CD02E217F307A0F42E1B3F0B85
:102320002817390778F0AC014E5F5F4F2417350747
:1023300048F04E0F5F1F5093CD024093CC02819323
:10234000919302C0E0E0F0E0CF01DF91CF910895DA
:102350000F931F93CF93DF93009709F48CC0FC0178
:102360003297138212820091CE021091CF02011592
:10237000110581F420813181820F931F2091CC02BD
:102380003091CD022817390779F5F093CD02E0930B
:10239000CC0271C0D80140E050E0AE17BF0750F446
:1023A00012962D913C911397AD012115310509F13C
:1023B000D901F3CF9D01DA013383228360817181DA
:1023C000860F971F8217930769F4EC0128813981E2
:1023D000260F371F2E5F3F4F318320838A819B81D9
:1023E00093838283452B29F4F093CF02E093CE02AE
:1023F00042C01396FC93EE931297ED0149915991C7
:102400009E01240F351FE217F30771F4808191813B
:10241000840F951F029611969C938E9382819381CF
:1024200013969C938E931297E0E0F0E0D8011296F9
:102430008D919C911397009719F0F8018C01F6CFBC
:102440008D919C9198012E5F3F4F820F931F209199
:10245000CC023091CD022817390769F4309729F45E
:102460001092CF021092CE0202C0138212821093F9
:10247000CD020093CC02DF91CF911F910F9108956F
:0E24800081E090E0F8940C944512F894FFCFA0
:10248E000000D00280000000000010018C00D90076
:10249E00B700CB0057016E616E00696E66006F76F5
:1024AE0066000D0A00726573756C7461646F733A21
:0224BE002000FC
:00000001FF
