:100000000C946C000C9494000C9494000C94940048
:100010000C9494000C9494000C9494000C940B0594
:100020000C9494000C9494000C9494000C94940000
:100030000C9494000C9494000C9494000C949400F0
:100040000C94C5030C9494000C9432030C940C0390
:100050000C9494000C9494000C9494000C949400D0
:100060000C9494000C94940057025D026702750290
:1000700077027D0287029502A702A9020000000014
:1000800023002600290000000000240027002A0089
:1000900000000000250028002B00040404040404D0
:1000A0000404020202020202030303030303010227
:1000B00004081020408001020408102001020408F6
:1000C00010200000000800020100000304070000E7
:1000D000000000000000780E11241FBECFEFD8E012
:1000E000DEBFCDBF11E0A0E0B1E0EEE8F7E202C074
:1000F00005900D92A233B107D9F722E0A2E3B1E057
:1001000001C01D92AC3CB207E1F710E0CCE6D0E0B4
:1001100004C02197FE010E94E50FCB36D107C9F735
:100120000E9441060C94C5130C940000CF92DF92FC
:10013000EF92FF920F931F93CF93DF936C017A019D
:100140008B01C0E0D0E0CE15DF0589F0D8016D91BC
:100150008D01D601ED91FC910190F081E02DC60159
:100160000995892B11F47E0102C02196ECCFC701BD
:10017000DF91CF911F910F91FF90EF90DF90CF9083
:100180000895FC01918D828D981761F0828DDF01B9
:10019000A80FB11D5D968C91928D9F5F9F73928F7A
:1001A00090E008958FEF9FEF0895FC01918D828D6F
:1001B000981731F0828DE80FF11D858D90E008953C
:1001C0008FEF9FEF0895FC01918D228D892F90E094
:1001D000805C9F4F821B91098F73992708958BE351
:1001E00091E00E94E30021E0892B09F420E0822FB6
:1001F0000895FC01848DDF01A80FB11DA35ABF4FE4
:100200002C91848D90E001968F739927848FA68915
:10021000B7892C93A089B1898C9180648C93938D3C
:10022000848D981306C00288F389E02D80818F7D2C
:1002300080830895EF92FF920F931F93CF93DF93E4
:10024000EC0181E0888F9B8D8C8D981305C0E88927
:10025000F989808185FD24C0F62E0B8D10E00F5F9B
:100260001F4F0F731127E02E8C8DE8120CC00FB6B4
:1002700007FCFACFE889F989808185FFF5CFCE01A7
:100280000E94F900F1CF8B8DFE01E80FF11DE35ABA
:10029000FF4FF0820B8FEA89FB898081806207C063
:1002A000EE89FF896083E889F98980818064808391
:1002B00081E090E0DF91CF911F910F91FF90EF903F
:1002C0000895CF93DF93EC01888D8823C9F0EA89E4
:1002D000FB89808185FD05C0A889B9898C9186FD3F
:1002E0000FC00FB607FCF5CF808185FFF2CFA8893C
:1002F000B9898C9185FFEDCFCE010E94F900E7CF3F
:10030000DF91CF91089580E090E0892B29F00E9441
:10031000EF0081110C9400000895833081F028F4DF
:10032000813099F08230A1F008958730A9F08830AB
:10033000B9F08430D1F4809180008F7D03C080912A
:1003400080008F7780938000089584B58F7702C0F6
:1003500084B58F7D84BD08958091B0008F7703C0F0
:100360008091B0008F7D8093B00008951F93CF934C
:10037000DF93282F30E0F901EE53FF4F8491F9010C
:10038000E255FF4FD491F901E656FF4FC491CC23BB
:10039000C9F0162F81110E948D01EC2FF0E0EE0FB5
:1003A000FF1FE057FF4FA591B4918FB7F89411113B
:1003B00005C09C91ED2FE095E92302C0EC91ED2B57
:1003C000EC938FBFDF91CF911F9108950F931F93EF
:1003D000CF93DF93EC018B01888599850297F1F427
:1003E0006130710569F024F4672BC1F460E009C045
:1003F0006230710559F06330710581F460E007C027
:1004000061E08C850E94B60161E005C061E08C85E9
:100410000E94B60160E08E850E94B60188859985AC
:100420000497B9F501301105B1F04CF4011511052F
:1004300081F561E08C850E94B60160E011C0023058
:100440001105B9F00330110521F561E08C850E949A
:10045000B60160E013C060E08C850E94B60161E0E7
:100460008E850E94B60161E088890E94B60160E035
:100470000DC060E08C850E94B60161E08E850E940F
:10048000B60160E088890E94B60161E08A890E9415
:10049000B60188859985059709F073C00A30110562
:1004A00008F06FC0F801EC5CFF4F0C94E50F60E0C2
:1004B0008C850E94B60161E051C060E08C850E948D
:1004C000B60161E08E850E94B60160E04BC060E03D
:1004D0008C850E94B60161E08E850E94B60160E0C5
:1004E00088890E94B60161E041C060E001C061E01E
:1004F0008C850E94B60161E005C061E08C850E9498
:10050000B60160E08E850E94B60160E009C061E03E
:100510008C850E94B60160E08E850E94B60161E084
:1005200088890E94B60161E00DC061E08C850E945F
:10053000B60160E08E850E94B60161E088890E9464
:10054000B60160E08A890E94B60160E013C061E0F4
:1005500001C060E08C850E94B60160E08E850E943B
:10056000B60161E088890E94B60160E08A890E9434
:10057000B60161E08C89DF91CF911F910F910C94AE
:10058000B601DF91CF911F910F910895CF92DF9225
:10059000EF92FF92CF93DF93EC01072E000C880BB4
:1005A000990B0E946C116B017C0120E030E040E46B
:1005B0005FE30E94211220E030E048E452E40E9410
:1005C000C2100E943411C617D707D4F020E030E0E3
:1005D00040EA5FE3C701B6010E94211220E030E04B
:1005E00048E452E40E94C21020E030E040E85FE3BB
:1005F0000E9451100E94341121E06C177D070CF409
:1006000020E0822F90E0DF91CF91FF90EF90DF907C
:10061000CF9008950E94C0131F920F920FB60F92B1
:1006200011242F933F934F935F936F937F938F93F7
:100630009F93AF93BF93EF93FF938BE391E00E945F
:10064000F900FF91EF91BF91AF919F918F917F91B1
:100650006F915F914F913F912F910F900FBE0F902F
:100660001F9018951F920F920FB60F9211242F937F
:100670008F939F93EF93FF93E0914B01F0914C0187
:100680008081E0915101F091520182FD12C0908170
:10069000809154018F5F8F7320915501821751F023
:1006A000E0915401F0E0E55CFE4F958F809354019A
:1006B00001C08081FF91EF919F918F912F910F90B9
:1006C0000FBE0F901F901895CF93DF9390E0FC0121
:1006D000E255FF4F2491FC01E656FF4F8491882399
:1006E00061F190E0880F991FFC01EA57FF4FC59117
:1006F000D491FC01E057FF4FA591B491611109C05D
:100700009FB7F8948881209582238883EC912E23CB
:100710000BC0623061F49FB7F8943881822F8095C6
:1007200083238883EC912E2B2C939FBF06C08FB719
:10073000F894E8812E2B28838FBFDF91CF91089505
:100740003FB7F8948091370190913801A091390119
:10075000B0913A0126B5A89B05C02F3F19F001962C
:10076000A11DB11D3FBFBA2FA92F982F8827820F37
:10077000911DA11DB11DBC01CD0142E0660F771F87
:10078000881F991F4A95D1F708951F920F920FB6AF
:100790000F9211242F933F938F939F93AF93BF9307
:1007A0008091330190913401A0913501B0913601CF
:1007B0003091320123E0230F2D3720F40196A11D43
:1007C000B11D05C026E8230F0296A11DB11D20937F
:1007D00032018093330190933401A0933501B0939B
:1007E00036018091370190913801A0913901B09183
:1007F0003A010196A11DB11D8093370190933801F4
:10080000A0933901B0933A01BF91AF919F918F911D
:100810003F912F910F900FBE0F901F9018954F9200
:100820005F926F927F928F929F92AF92BF92CF9280
:10083000DF92EF92FF920F931F93CF93DF93EC0120
:100840008B0177FF04C000271127061B170B161614
:1008500017062CF481E090E09983888304C0672B0D
:1008600011F01982188284E0E82EF12C9AE0C92E4A
:10087000D12C0115110509F449C00E94A0038E88EE
:100880009F88A88CB98C2B013C01481859086A082C
:100890007B088A809B80AC80BD80481459046A0420
:1008A0007B0438F36E8B7F8B888F998F28813981F9
:1008B0008A859B852130310559F401969B878A876B
:1008C0002E813F818217930771F41B861A860BC015
:1008D000892B21F48E819F819B878A878A859B85BE
:1008E00001979B878A8701501109288539858A8558
:1008F0009B852530310511F4B60101C0B7010E9476
:10090000AF0FBC01CE010E94E601B3CFDF91CF91C2
:100910001F910F91FF90EF90DF90CF90BF90AF901D
:100920009F908F907F906F905F904F9008958F92DF
:100930009F92AF92BF92CF92DF92EF92FF920F936E
:100940001F93CF93DF93DA01CD91DC91FB01848576
:100950009585C817D9070CF04CC0CE01880F991F98
:100960000284F385E02DE80FF91F80809180C1702B
:10097000DD27F1E0CF27209719F484E690E002C04C
:100980008CE99FEF59016A017801E80EF91EB70161
:10099000C4010E94C602892B99F4E00EF11EB70132
:1009A000C4010E94C602892B71F4B701600F711F48
:1009B000C4010E94C602892BF9F023E030E005C093
:1009C00021E030E002C022E030E0D5018D919C9121
:1009D000119701968217930744F0F5011182108256
:1009E000D6018D919C91119701968D939C93CE0188
:1009F00005C081E090E002C08FEF9FEFDF91CF91C3
:100A00001F910F91FF90EF90DF90CF90BF90AF902C
:100A10009F908F9008951F920F920FB60F921124FE
:100A20002F933F934F935F936F937F938F939F93F6
:100A3000AF93BF93CF93DF93EF93FF932091D901AF
:100A400030E0F901EE53FF4F8491F901E255FF4F79
:100A5000D491F901E656FF4FC491CC23A1F0811146
:100A60000E948D01EC2FF0E0EE0FFF1FE458FF4FC6
:100A7000A591B491EC91ED2331E020E009F430E050
:100A8000832F922F02C080E090E02091DD01309111
:100A9000DE012F5F3F4F3093DE012093DD01209177
:100AA000DC01253618F026E02093D8012091D801EA
:100AB0002430D9F128F4223069F02330D9F060C015
:100AC000253009F453C0263009F05AC021E02093A4
:100AD000A90253C0009709F053C02091DD01309165
:100AE000DE012436310508F443C01092A9021092A9
:100AF000DC011DC08130910509F042C0E091DC01AC
:100B000021E02E0F2093DC01F0E02091DD013091F7
:100B1000DE01EE0FFF1FE852FE4F30872783109251
:100B2000DE011092DD0124E029C00097B9F4E091C4
:100B3000DC0121E02E0F2093DC01F0E02091DD01AB
:100B40003091DE01EE0FFF1FE852FE4F3087278302
:100B50001092DE011092DD0123E010C02091DD0132
:100B60003091DE012536310558F007C0009741F479
:100B70001092DE011092DD0103C025E02093D80120
:100B80002091DB012223B9F0892B51F48091DA0105
:100B9000882321F08091DA0161E009C02D9A0BC011
:100BA0008091DA01882331F08091DA0160E00E94BF
:100BB000B60101C02D98FF91EF91DF91CF91BF91C8
:100BC000AF919F918F917F916F915F914F913F91E5
:100BD0002F910F900FBE0F901F901895009769F0FE
:100BE000FC0101900020E9F73197AF01481B590B38
:100BF000BC018BE391E00C94960080E090E00895B6
:100C00008F929F92AF92BF920F931F93CF93DF93D8
:100C1000CDB7DEB7A1970FB6F894DEBF0FBECDBF3C
:100C200019A2423008F44AE08E010F5D1F4F842E56
:100C3000912CA12CB12CA50194010E94C30FE62F89
:100C4000B901CA0101501109EA3014F4E05D01C094
:100C5000E95CD801EC93232B242B252B61F7C801E9
:100C60000E94EE05A1960FB6F894DEBF0FBECDBF71
:100C7000DF91CF911F910F91BF90AF909F908F9078
:100C80000895CF93DF93CDB7DEB729970FB6F894C9
:100C9000DEBF0FBECDBF789484B5826084BD84B5BD
:100CA000816084BD85B5826085BD85B5816085BD67
:100CB00080916E00816080936E001092810080911F
:100CC00081008260809381008091810081608093A7
:100CD0008100809180008160809380008091B100CC
:100CE00084608093B1008091B00081608093B000F7
:100CF00080917A00846080937A0080917A0082608B
:100D000080937A0080917A00816080937A0080914C
:100D10007A00806880937A001092C100E0914B01C4
:100D2000F0914C0182E08083E0914701F09148010D
:100D30001082E0914901F0914A019FEC908310925A
:100D40005301E0914F01F091500196E09083E091C2
:100D50004D01F0914E01908190619083E0914D01A1
:100D6000F0914E01908198609083E0914D01F09157
:100D70004E01908190689083E0914D01F0914E0179
:100D800090819F7D9083F8948093B0008093B10010
:100D900094E69093B3001092B20080937000789420
:100DA0008093D8011092DC018091D90160E00E940B
:100DB0006403E090B802F090B902C090B602D090FF
:100DC000B702EFEDF1E0D7011B96FC93EE931A9773
:100DD0008091DC0190E01D969C938E931C978091EE
:100DE000A90290E01F969C938E931E97F091D801D4
:100DF000FD83F53009F06EC28091E1019091E2012E
:100E0000885891098D35910588F48091DC018430F2
:100E100041F48091E3019091E4018097479708F4B1
:100E200097C28091DC01843408F0E4C18091DC0138
:100E30008A3108F448C08091DF019091E001843F3D
:100E4000914050F4D70119961C921E9218978FEF7B
:100E50009FEFDC01F70149C08091E1019091E2012F
:100E600085974B9780F5E5EEF1E082E090E040E079
:100E700050E0BA018C010F5F1F4F2091DC0130E080
:100E8000021713076CF49F0122503109D9012D91EB
:100E90003C91275031092730310508F47EC2C80142
:100EA000019795958795F701918780870C971CF49A
:100EB0001186108608C0D7014483558366837783E3
:100EC00084E090E0BFC38091DC018A3108F44CC01B
:100ED0008091DF019091E0018032934068F4F70146
:100EE000118610868FEF9FEFDC0184839583A683A4
:100EF000B7838BE090E0F9C68091E1019091E20127
:100F0000C697869708F465C22FC02081318125528B
:100F100031092B31310508F074C2440F551F661F8B
:100F2000771F4160029634968C010F5F1F4F20910E
:100F3000DC0130E00217130764F49F0122503109ED
:100F4000D9012D913C912C5031092B303105E8F21B
:100F5000C801019795958795F701918780870C9730
:100F60000CF047C2118610868091DC01823208F4B1
:100F700047C08091E1019091E2010697079708F040
:100F80003FC0E5EEF1E082E090E040E050E0BA01E1
:100F90005C01BFEFAB1ABB0A2091DC0130E0A21666
:100FA000B306DCF4DF0112970D911C9111970E51DD
:100FB00011090731110508F031C2440F551F661F92
:100FC000771F4160208131813496235031092530CB
:100FD000310510F40296DCCFC501019795958795F0
:100FE000F7019187808740971CF41186108608C00E
:100FF000D70144835583668377838CE090E022C3D6
:101000001C821B82E1E0F0E0FA83E9838091DC013D
:101010008D3008F473C009E713E09E012D5F3F4F48
:10102000AE014F5F5F4FB701C6010E949704892B45
:1010300009F064C09E012D5F3F4FAE014F5F5F4FCF
:10104000B701C6010E949704019709F057C09E019D
:101050002D5F3F4FAE014F5F5F4FB701C6010E944A
:101060009704892B09F04AC0412C512C3201A12C44
:10107000B12C8091DC0190E029813A812817390751
:1010800084F509E713E09E012D5F3F4FAE014F5FEE
:101090005F4FB701C6010E9497044C019E012D5F6E
:1010A0003F4FAE014F5F5F4FB701C6010E949704EB
:1010B000F1E08F16910449F4892B01F5440C551C7D
:1010C000661C771C689440F808C08928B9F4019719
:1010D000A9F4440C551C661C771C2FEFA21AB20A07
:1010E000C8CFD7011996BC92AE921897F7014482E7
:1010F00055826682778281E090E0F7C51C821B8270
:10110000A1E0B0E0BA83A983F7018485958518161C
:1011100019060CF063C00284F385E02D82E090E0B4
:101120009A8389838281938189974E9708F056C06C
:1011300083E090E09A838983848195810B970A9755
:1011400008F04CC00CEB11E09E012D5F3F4FAE014B
:101150004F5F5F4FB701C6010E949704892BF1F5DD
:101160000CEB11E09E012D5F3F4FAE014F5F5F4FD3
:10117000B701C6010E949704019781F5212C312CFB
:101180002101A12CB12C29813A81F7018485958513
:10119000281739070CF091C10CEB11E09E012D5F6F
:1011A0003F4FAE014F5F5F4FB701C6010E949704EA
:1011B0003C01F3E0AF16B10409F03DC10CEB11E0C6
:1011C0009E012D5F3F4FAE014F5F5F4FB701C601DC
:1011D0000E9497046816790609F42DC1D7011A9662
:1011E000ED91FC911B9782819381C697869708F4B5
:1011F0006EC1BAC18091E3019091E40182549109DA
:101200008E9708F013CE80E090E040E050E0BA0105
:10121000FC01EB51FE4F20813181295031092930E9
:10122000310508F003CEFC01E951FE4F20813181E8
:10123000275131092231310508F0A2C0440F551F52
:10124000661F771F416004968038910509F7E0E238
:10125000F0E0D7011996FC93EE93189714964D93EE
:101260005D936D937C931797E3E0F0E0ED93FC932F
:10127000E091B802F091B90284819581A681B7818D
:101280008093BA029093BB02A093BC02B093BD02BC
:1012900082E08093D8011092DC0185E291E00E9407
:1012A000EE05C090BA02D090BB02E090BC02F09074
:1012B000BD02A7019601C701B6010E948E128823C4
:1012C00009F4C3C186E191E00E94EE0582E291E05B
:1012D0000E94EE056091C2027091C3028091BE022D
:1012E0009091BF020E940F046091C4027091C502E8
:1012F0008091C0029091C1020E940F040E94A0033D
:101300004B015C0134EFC32EDD24D394E12CF12C8E
:101310000E94A003DC01CB0188199909AA09BB0925
:10132000883E9340A105B10558F021E0C21AD108CA
:10133000E108F10888EE880E83E0981EA11CB11C1C
:10134000C114D104E104F10419F70E94830131CDE5
:101350008091E5019091E6010997099708F061CD28
:10136000D70119961C921E9218978FEF9FEFDC0100
:10137000F70184839583A683B78383E090E0B5C4A7
:1013800020813181265031092730310508F04ECDBA
:10139000440F551F661F771F56CF2081318123517F
:1013A00031092F30310540F4440F551F661F771F58
:1013B0004160029634965ECD208131812A503109F8
:1013C0002930310508F07FCD440F551F661F771F68
:1013D000F0CF8091E3019091E401C697869708F0E1
:1013E000C3CDE7EEF1E083E090E040E050E0BA01E9
:1013F0009BCDD70144835583668377838BE090E050
:1014000021C1208131812C5031092A30310508F069
:10141000ABCD440F551F661F771F84CD2D913C9196
:101420002C5031092B30310508F0EACD440F551FFF
:10143000661F771FC7CD0CEB11E09E012D5F3F4F5C
:10144000AE014F5F5F4FB701C6010E9497044C0188
:1014500023E0A216B10481F40CEB11E09E012D5F94
:101460003F4FAE014F5F5F4FB701C6010E94970427
:101470008816990609F0B2CE6114710479F48A9441
:10148000892809F0ABCED201C101880F991FAA1F8C
:10149000BB1F1C012D01689420F80BC06A946728BB
:1014A00009F09CCE892809F099CE220C331C441CEB
:1014B000551CAFEFAA1ABA0A66CEB186A086D7012C
:1014C000248235824682578282E090E0BBC08481CC
:1014D00095814B97459708F047C0DF0116966F013D
:1014E00096ECC90ED11C20E030E040E050E060E016
:1014F00070E080E090E00D911C9111970950110966
:101500000830110588F512960D911C911397015121
:1015100011090D30110518F112960D911C911397B8
:101520000450110905301105F8F401E00E94F60F8E
:101530001496AC15BD05F9F6F7012483358346836F
:10154000578300E20E9411102283338385E090E0EC
:101550009183808380E390E09187808789CE01E04A
:101560000E94F60F2160E4CF8091DC01893340F0C6
:1015700082819381895791098335910508F409C2C5
:101580008091DC01823209F4F9C08281938189570C
:1015900091098335910508F472C2828193818C543C
:1015A0009109C59708F0F1C08091DC01843031F4D5
:1015B000848195818097479708F4C1C28091DC01AE
:1015C000843408F4E2C08481958189549109C397D9
:1015D00008F0DBC09F012A5F3F4FBF016A577F4F72
:1015E000812C912C5401D9014D915C9149505109A4
:1015F0004930510508F0C9C0D90112964D915C914E
:101600001397465151094131510508F0ABC2D5013C
:10161000C401880F991FAA1FBB1F4C015D0168946C
:1016200080F82C5F3F4F26173707E9F680E290E0FD
:10163000F70191878087D70184829582A682B7823D
:1016400087E090E08D939C9313CE46015701E89478
:10165000B7F82FEF3FEF4FE75FE7C501B4010E94F6
:101660008E1281110DC02FEF3FEF4FE75FE7C501ED
:10167000B4010E94BD1018161CF48AE191E024CE3A
:101680002FEF3FEF4FE75FE4C701B6010E941C1246
:1016900018161CF48EE191E017CE2FEF3FEF4FE7C5
:1016A0005FECC701B6010E94BD1087FDF3CF20E0BB
:1016B00030E0A901C701B6010E94BD1087FF0FC02D
:1016C000E0913B01F0913C010190F081E02D6DE251
:1016D0008BE391E00995F7FAF094F7F8F09426E19E
:1016E00037EB41E558E3C701B6010E9451106B0189
:1016F0007C010E943B114B015C010E946A119B011D
:10170000AC01C701B6010E9450106B017C014AE098
:10171000C501B4010E940006E0913B01F0913C013B
:101720000190F081E02D6EE28BE391E00995FD815F
:10173000F150FD83FF2309F4C9CD20E030E040E201
:1017400051E4C701B6010E9421126B017C010E9485
:101750003B114B01A12CB12C4AE0C501B4010E9400
:101760000006C501B4010E946A119B01AC01C701CA
:10177000B6010E9450106B017C01D9CF8281938108
:101780000A97099708F45FC100CF8091DC01863485
:1017900060F1828193810C970B9708F4F3C125C007
:1017A000D90112966D917C9113976E517109673131
:1017B000710508F01BC2D501C401880F991FAA1F2B
:1017C000BB1F4C015D01689480F84E5F5F4F2C5F3A
:1017D0003F4F4534510509F4F0C1D9016D917C9119
:1017E0006C5071096B307105D8F28091DC0188353D
:1017F00078F182819381855891098B35910508F4A0
:1018000005C226C0BC016F5F7F4FD8014D915C912E
:10181000475051094730510508F007C2220F331FC6
:10182000216002960C5F1F4F4091DC0150E0445054
:101830005109841795070CF001C2A80142505109C3
:10184000DA014D915C914950510948305105D0F26F
:101850008091DC018032E1F48281938106970697C2
:10186000B8F4848195810997099790F49F012A5FC4
:101870003F4FBF01625C7F4F812C912C5401D901F5
:101880004D915C91465051094630510508F4F0C124
:10189000D7011C962D903C901D97B6E02B16310475
:1018A0000CF41DC28F010A5F1F4F53E0C52ED12CCF
:1018B00065EC862E6DE9962E6CE1A62E61E8B62EBB
:1018C000F8016081718134976080718080E090E0E0
:1018D0000E946A116E837F8388879987B30180E0B5
:1018E00090E00E946A112B013C012DEC3CEC4CE491
:1018F0005FE30E9421129B01AC016E817F8188858C
:1019000099850E94BD1087FD19C02DEC3CEC4CE47C
:101910005FE36E817F81888599850E9421129B01FA
:10192000AC01C301B2010E94BD10E82F880FFF0B6C
:10193000EE27FF0FEE1FFF27319602C0E0E0F0E038
:10194000A501940163E971E080E091E00E949F0F9E
:101950004F01FF0FAA08BB0886269726A826B9269E
:10196000FFEFCF1ADF0A0E5F1F4FC214D30409F036
:10197000A7CFD70114968D929D92AD92BC921797E6
:10198000E0E2F0E01996FC93EE9318978FEF9FEF4B
:1019900059CE84819581CA97899708F0F1CD9F012E
:1019A0002A5F3F4F812C912C540143E050E0D90134
:1019B0006D917C916A5071096930710508F0E0CD34
:1019C000D90112966D917C9113976651710961311D
:1019D000710570F112966D917C91139766507109A3
:1019E0006730710508F0CCCD880C991CAA1CBB1C73
:1019F0004E5F5F4F2C5F3F4F4B335105C1F69F0148
:101A00002A583F4FD9012D913C912A503109293054
:101A1000310508F0B5CD2CE130E0F70131872087A2
:101A2000D70184829582A682B7828AE090E00ACEAE
:101A3000D501C401880F991FAA1FBB1F4C015D016E
:101A4000689480F8D5CF2091DC01CF01820F911DE1
:101A5000820F911DDC0112978D919C910A97099735
:101A600008F093CDF701118610868FEF9FEFDC0110
:101A700084839583A683B78386E090E036C1809106
:101A8000DC01813208F489CD84819581CA978997D8
:101A900008F083CD9F012A5F3F4F812C912C540188
:101AA00043E050E0D9016D917C916A507109693031
:101AB000710508F072CDD90112966D917C91139742
:101AC000665171096131710550F5D501C401880F66
:101AD000991FAA1FBB1F4C015D01689480F84E5FDF
:101AE0005F4F2C5F3F4F43325105E1F69F012A5B68
:101AF0003F4FD9012D913C912A50310929303105B0
:101B000008F04BCD80E190E0F70191878087D70105
:101B100084829582A682B78286E090E093CDD90137
:101B200012966D917C91139766507109673071051B
:101B300008F033CD880C991CAA1CBB1CD0CF868121
:101B400097810997099708F039CDF701118610861A
:101B50008FEF9FEFDC0184839583A683B78387E0B3
:101B600090E0C3C0D90112964D915C9113974650F5
:101B700051094730510508F008CE880C991CAA1C61
:101B8000BB1C4FCD848195810997099708F02DCE14
:101B9000868197818C974F9708F027CE8085918515
:101BA00089974D9708F021CE9F01265F3F4F812CEA
:101BB000912C540145E050E010CE9F0126573F4F35
:101BC000D9012D913C912C5031092B30310508F071
:101BD0000CCE80E290E0F70191878087D701848264
:101BE0009582A682B78288E090E02CCDD90112962A
:101BF0006D917C911397695071096930710508F0F6
:101C0000F4CD880C991CAA1CBB1CDFCD8481958166
:101C1000825491098E9708F01BCE8F01045C1F4FF0
:101C20008DE190E020E030E0FFCDD8014D915C9156
:101C30004851510942315105C0F0CB0101979595AA
:101C40008795D70119969C938E9318978A970CF4D1
:101C5000FFCDC901330FAA0BBB0BF701848395831A
:101C6000A683B78389E090E040C0220F331FD9CD0F
:101C7000D90112964D915C91139749515109433105
:101C80005105E8F4D501C401880F991FAA1FBB1F95
:101C90004C015D01689480F82C5F3F4F2617370791
:101CA00009F0EDCD2EE030E0F70131872087D70134
:101CB00084829582A682B7828FE090E0C3CCD9015E
:101CC00012964D915C911397495051094930510535
:101CD00008F0DECD880C991CAA1CBB1CDDCF82E06D
:101CE0008093D8011092DC01F5CA91838083C0CA29
:101CF0000F931F93CF93DF9310923E0110923D01FB
:101D000088EE93E0A0E0B0E080933F019093400123
:101D1000A0934101B09342018AE091E090933C018D
:101D200080933B0185EC90E09093480180934701BC
:101D300084EC90E090934A018093490180EC90E01C
:101D400090934C0180934B0181EC90E090934E0175
:101D500080934D0182EC90E09093500180934F016D
:101D600086EC90E0909352018093510110925401BF
:101D70001092550110925601109257018AE190E09D
:101D80000E949312EC011B861A86198218821E8A01
:101D90001F8A188E198E80E390E09F838E838BE0DC
:101DA00090E09D878C8789E090E09F878E878AE00E
:101DB00090E0998B888B88E090E09B8B8A8B61E028
:101DC0008BE00E94640361E08E850E94640361E001
:101DD00088890E94640361E08A890E9464031D8AE5
:101DE0001C8A04E010E019870887D093BF02C093D3
:101DF000BE028AE190E00E949312EC011B861A86D3
:101E0000198218821E8A1F8A188E198E88EC90E01B
:101E10009F838E831D870C8786E090E09F878E8747
:101E200085E090E0998B888B87E090E09B8B8A8B94
:101E300061E084E00E94640361E08E850E94640397
:101E400061E088890E94640361E08A890E946403DA
:101E50001D8A1C8A19870887D093C102C093C002CB
:101E600050E340E038EC20E0852F942F632F722F51
:101E70000E94AF0FA901009719F0382F292FF4CF36
:101E80003093C6022093C70280E390E0632F722F45
:101E90000E94AF0F7093C3026093C20288EC90E07F
:101EA000632F722F0E94AF0F7093C5026093C4021C
:101EB00081E090E00E949312EC0183E08093D901CD
:101EC0001092DB018EEB92E09093AB028093AA021A
:101ED0008CE08093AC028DE08093AD028FE090E0C7
:101EE0009093AF028093AE028EE08093B00282E0C6
:101EF0008093B1028FEF90E09093B3028093B2028F
:101F000061E08CE00E94640360E08DE00E94640365
:101F100082E090E09093B5028093B402D093B70230
:101F2000C093B60280E190E00E9493129093B902B0
:101F30008093B802DF91CF911F910F910895DB013B
:101F40008F939F930E94EB0FBF91AF91A29F800D43
:101F5000911DA39F900DB29F900D1124089597FBA2
:101F6000072E16F4009407D077FD09D00E942D109B
:101F700007FC05D03EF4909581959F4F089570958C
:101F800061957F4F0895A1E21A2EAA1BBB1BFD018C
:101F90000DC0AA1FBB1FEE1FFF1FA217B307E40748
:101FA000F50720F0A21BB30BE40BF50B661F771FA0
:101FB000881F991F1A9469F7609570958095909580
:101FC0009B01AC01BD01CF010895EE0FFF1F0590ED
:101FD000F491E02D09940E944110A59F900DB49FAB
:101FE000900DA49F800D911D112408950F9308302A
:101FF00090F0982F872F762F652F542F432F322F55
:1020000022270850F4CF220F331F441F551F661F8D
:10201000771F881F991F0A95B2F70F91089597FBB4
:1020200010F8169400080F93083098F00850232FEA
:10203000342F452F562F672F782F892F902DF4CFCF
:102040000594979587957795679557954795379513
:1020500027950A95AAF70F910895AA1BBB1B51E17A
:1020600007C0AA1FBB1FA617B70710F0A61BB70B08
:10207000881F991F5A95A9F780959095BC01CD01AD
:102080000895A29FB001B39FC001A39F700D811D51
:102090001124911DB29F700D811D1124911D089571
:1020A0005058BB27AA270E9468100C94E2110E9486
:1020B000D41138F00E94DB1120F039F49F3F19F45D
:1020C00026F40C94D1110EF4E095E7FB0C94CB119F
:1020D000E92F0E94F31158F3BA17620773078407B8
:1020E000950720F079F4A6F50C9415120EF4E095FE
:1020F0000B2EBA2FA02D0B01B90190010C01CA01C2
:10210000A0011124FF27591B99F0593F50F4503E6C
:1021100068F11A16F040A22F232F342F4427585F5E
:10212000F3CF469537952795A795F0405395C9F776
:102130007EF41F16BA0B620B730B840BBAF091502E
:10214000A1F0FF0FBB1F661F771F881FC2F70EC0CD
:10215000BA0F621F731F841F48F4879577956795A0
:10216000B795F7959E3F08F0B0CF9395880F08F08C
:102170009927EE0F9795879508950E94A71108F467
:1021800081E008950E94D6100C94E2110E94DB11A8
:1021900058F00E94D41140F029F45F3F29F00C94CC
:1021A000CB1151110C9416120C94D1110E94F31101
:1021B00068F39923B1F3552391F3951B550BBB2776
:1021C000AA2762177307840738F09F5F5F4F220FBB
:1021D000331F441FAA1FA9F335D00E2E3AF0E0E8B2
:1021E00032D091505040E695001CCAF72BD0FE2FFC
:1021F00029D0660F771F881FBB1F26173707480790
:10220000AB07B0E809F0BB0B802DBF01FF27935847
:102210005F4F3AF09E3F510578F00C94CB110C942F
:1022200016125F3FE4F3983ED4F386957795679551
:10223000B795F7959F5FC9F7880F911D969587957C
:1022400097F90895E1E0660F771F881FBB1F62179B
:1022500073078407BA0720F0621B730B840BBA0B59
:10226000EE1F88F7E09508950E943B116894B11124
:102270000C94161208950E94FB1188F09F5798F055
:10228000B92F9927B751B0F0E1F0660F771F881F7B
:10229000991F1AF0BA95C9F714C0B13091F00E9495
:1022A0001512B1E008950C941512672F782F882726
:1022B000B85F39F0B93FCCF3869577956795B395BC
:1022C000D9F73EF490958095709561957F4F8F4F2B
:1022D0009F4F0895E89409C097FB3EF49095809530
:1022E000709561957F4F8F4F9F4F9923A9F0F92FDC
:1022F00096E9BB279395F695879577956795B7955A
:10230000F111F8CFFAF4BB0F11F460FF1BC06F5F3F
:102310007F4F8F4F9F4F16C0882311F096E911C051
:10232000772321F09EE8872F762F05C0662371F072
:1023300096E8862F70E060E02AF09A95660F771F86
:10234000881FDAF7880F9695879597F90895990F62
:102350000008550FAA0BE0E8FEEF16161706E8076F
:10236000F907C0F012161306E407F50798F0621B90
:10237000730B840B950B39F40A2661F0232B242B65
:10238000252B21F408950A2609F4A140A6958FEF84
:10239000811D811D089597F99F6780E870E060E0D6
:1023A00008959FEF80EC089500240A9416161706EE
:1023B00018060906089500240A9412161306140636
:1023C00005060895092E0394000C11F4882352F099
:1023D000BB0F40F4BF2B11F460FF04C06F5F7F4F51
:1023E0008F4F9F4F089557FD9058440F551F59F038
:1023F0005F3F71F04795880F97FB991F61F09F3FF2
:1024000079F087950895121613061406551FF2CF1A
:102410004695F1DF08C0161617061806991FF1CF6A
:1024200086957105610508940895E894BB27662791
:102430007727CB0197F908950E94A71108F48FEF31
:1024400008950E9434120C94E2110E94D41138F0C5
:102450000E94DB1120F0952311F00C94CB110C9409
:10246000D11111240C9416120E94F31170F3959F50
:10247000C1F3950F50E0551F629FF001729FBB277B
:10248000F00DB11D639FAA27F00DB11DAA1F649F17
:102490006627B00DA11D661F829F2227B00DA11DCA
:1024A000621F739FB00DA11D621F839FA00D611D50
:1024B000221F749F3327A00D611D231F849F600D71
:1024C000211D822F762F6A2F11249F5750409AF09A
:1024D000F1F088234AF0EE0FFF1FBB1F661F771F26
:1024E000881F91505040A9F79E3F510580F00C94F1
:1024F000CB110C9416125F3FE4F3983ED4F386950B
:1025000077956795B795F795E7959F5FC1F7FE2B90
:10251000880F911D9695879597F908950E94A711A8
:10252000880B990B0895CF93DF938230910510F4B7
:1025300082E090E0E091CA02F091CB0220E030E02E
:10254000C0E0D0E0309711F1408151814817590720
:10255000C0F04817590761F482819381209719F0E0
:102560009B838A832BC09093CB028093CA0226C0A0
:102570002115310519F04217530718F49A01BE01CD
:10258000DF01EF010280F381E02DDCCF2115310561
:1025900009F1281B390B2430310590F412968D91E6
:1025A0009C9113976115710521F0FB019383828340
:1025B00004C09093CB028093CA02FD01329644C0BE
:1025C000FD01E20FF31F81939193225031092D9366
:1025D0003C933AC02091C8023091C902232B41F4A8
:1025E00020910201309103013093C9022093C80267
:1025F00020910001309101012115310541F42DB7E1
:102600003EB74091040150910501241B350BE09128
:10261000C802F091C902E217F307A0F42E1B3F0B8A
:102620002817390778F0AC014E5F5F4F2417350744
:1026300048F04E0F5F1F5093C9024093C802819328
:10264000919302C0E0E0F0E0CF01DF91CF910895D7
:102650000F931F93CF93DF93009709F48CC0FC0175
:102660003297138212820091CA021091CB02011597
:10267000110581F420813181820F931F2091C802BE
:102680003091C9022817390779F5F093C902E09310
:10269000C80271C0D80140E050E0AE17BF0750F447
:1026A00012962D913C911397AD012115310509F139
:1026B000D901F3CF9D01DA013383228360817181D7
:1026C000860F971F8217930769F4EC0128813981DF
:1026D000260F371F2E5F3F4F318320838A819B81D6
:1026E00093838283452B29F4F093CB02E093CA02B3
:1026F00042C01396FC93EE931297ED0149915991C4
:102700009E01240F351FE217F30771F48081918138
:10271000840F951F029611969C938E9382819381CC
:1027200013969C938E931297E0E0F0E0D8011296F6
:102730008D919C911397009719F0F8018C01F6CFB9
:102740008D919C9198012E5F3F4F820F931F209196
:10275000C8023091C9022817390769F4309729F463
:102760001092CB021092CA0202C0138212821093FE
:10277000C9020093C802DF91CF911F910F91089574
:0E27800081E090E0F8940C94C513F894FFCF1C
:10278E000000CC028000000000001A019600E30059
:10279E00C100D50061016E616E00696E66006F76D4
:1027AE0066000D0A00726573756C7461646F733A1E
:0227BE002000F9
:00000001FF
