:100000000C9462000C948A000C948A000C948A0070
:100010000C948A000C948A000C948A000C947D0C39
:100020000C948A000C948A000C948A000C948A0028
:100030000C948A000C948A000C948A000C948A0018
:100040000C94BF0B0C948A000C94B8090C94920980
:100050000C948A000C948A000C948A000C948A00F8
:100060000C948A000C948A000000000024002700F1
:100070002A0000000000250028002B0004040404CE
:100080000404040402020202020203030303030342
:10009000010204081020408001020408102001021F
:1000A00004081020000000080002010000030407FB
:1000B00000000000000000000000000023002600F7
:1000C0002900ED0E11241FBECFEFD8E0DEBFCDBF5B
:1000D00011E0A0E0B1E0EAECFCE202C005900D9274
:1000E000A633B107D9F723E0A6E3B1E001C01D9222
:1000F000A131B207E1F710E0C2E6D0E004C02197D9
:10010000FE010E942B15C136D107C9F70E946A1063
:100110000C9463160C9400002F923F924F925F92C2
:100120006F927F928F929F92AF92BF92CF92DF9207
:10013000EF92FF920F931F93CF93DF93CDB7DEB76C
:100140002C970FB6F894DEBF0FBECDBF6C01DC015B
:1001500018968C911897823009F42DC2843009F4D6
:1001600026C2811117C79D96ED90FC909E979B9695
:10017000AD90BC909C978DE391E0F70193878287C7
:1001800080913A0190E0958784878091070290E002
:100190009787868780913601853009F0FBC680916C
:1001A0003F0190914001885891098D35910588F45F
:1001B00080913A01843041F4809141019091420153
:1001C0008097479708F462C280913A01843408F01E
:1001D00044C280913A018A3108F448C080913D01BF
:1001E00090913E01843F914050F4D70119961C92A2
:1001F0001E9218978FEF9FEFDC01F70149C08091A5
:100200003F019091400185974B9780F5E3E4F1E041
:1002100082E090E040E050E0BA018C010F5F1F4F98
:1002200020913A0130E0021713076CF49F0122502D
:100230003109D9012D913C912750310927303105E1
:1002400008F463C2C801019795958795F7019187D6
:1002500080870C971CF41186108608C0D701448350
:1002600055836683778384E090E0B3C380913A013D
:100270008A3108F44CC080913D0190913E0180325A
:10028000934068F4F701118610868FEF9FEFDC0131
:1002900084839583A683B7838BE090E0D9C3809154
:1002A0003F0190914001C697869708F44AC22FC03B
:1002B00020813181255231092B31310508F059C295
:1002C000440F551F661F771F4160029634968C01BC
:1002D0000F5F1F4F20913A0130E00217130764F4BB
:1002E0009F0122503109D9012D913C912C503109A7
:1002F0002B303105E8F2C801019795958795F701F4
:10030000918780870C970CF02CC211861086809103
:100310003A01823208F447C080913F019091400138
:100320000697079708F03FC0E3E4F1E082E090E031
:10033000412C512C32019C012F5F3F4F40913A01DB
:1003400050E024173507E4F4DF0112974D915C91DA
:1003500011974E5151094731510508F017C2440C0D
:10036000551C661C771C689440F840815181349676
:10037000435051094530510510F40296DCCFC901B4
:10038000019795958795F7019187808740971CF491
:100390001186108608C0D701448255826682778212
:1003A0008CE090E016C31C821B8281E090E09A836F
:1003B000898380913A018D3008F477C009E713E012
:1003C0009E012D5F3F4FAE014F5F5F4FB701C501EB
:1003D0000E94090C892B09F068C09E012D5F3F4FD8
:1003E000AE014F5F5F4FB701C5010E94090C019735
:1003F00009F05BC09E012D5F3F4FAE014F5F5F4F25
:10040000B701C5010E94090C892B09F04EC0212CAF
:10041000312C2101812C912C80913A0190E029818D
:100420003A8128173907A4F509E713E09E012D5FEB
:100430003F4FAE014F5F5F4FB701C5010E94090CEE
:100440003C019E012D5F3F4FAE014F5F5F4FB701F3
:10045000C5010E94090CB1E06B16710469F4892B87
:1004600021F5D201C101880F991FAA1FBB1F1C01D2
:100470002D01689420F808C06728B9F40197A9F401
:10048000220C331C441C551CEFEF8E1A9E0AC4CF5D
:10049000D70119969C928E921897F7012482358283
:1004A0004682578281E090E0D3C21C821B8281E0A9
:1004B00090E09A838983D7011C968D919C911D971A
:1004C000181619060CF067C01A96ED91FC911B974F
:1004D00082E090E09A8389838281938189974E9705
:1004E00008F059C083E090E09A83898384819581E4
:1004F0000B970A9708F04FC00CEB11E09E012D5F9F
:100500003F4FCE0101964C01AC01B701C5010E94DD
:10051000090C892B09F03FC00CEB11E09E012D5F07
:100520003F4FA401B701C5010E94090C019799F53D
:10053000212C312C2101612C712C8B869C862981E8
:100540003A81D7011C968D919C911D9728173907E8
:100550000CF072C10CEB11E09E012D5F3F4FA40126
:10056000B701C5010E94090C9E838D83B3E06B1611
:10057000710409F018C10CEB11E09E012D5F3F4F93
:10058000A401B701C5010E94090C2D813E812817E5
:10059000390709F408C1D7011A96ED91FC911B9710
:1005A00082819381C697869708F452C1A4C1C6017F
:1005B0000E94050EEFC4F60165897689072E000CAE
:1005C000880B990B0E949A134B015C01F60187A1DD
:1005D00090A5A1A5B2A5BC01CD0190582BED3FE09F
:1005E00049EC50E40E94F0129B01AC01C501B4013A
:1005F0000E944F140E946213AB01BC01D6011296F7
:100600008D919C9113970E94600DF60102811381D8
:10061000D80154966D917C915597072E000C880B4C
:10062000990B0E949A13F601278D30A141A152A186
:100630000E944F14D60157962D913D914D915C919A
:100640005A970E94F0120E946213AB01BC01C801CC
:100650000E94CB0D83E0F60119C280914101909177
:100660004201825491098E9708F0B3CD20E030E02A
:1006700080E090E0DC01F901ED5BFE4F40815181AB
:10068000495051094930510598F0A3CD809143015B
:10069000909144010997099708F096CDD7011996D2
:1006A0001C921E9218978FEF9FEFDC01F70119C083
:1006B000F901EB5BFE4F40815181475151094231B5
:1006C0005105B0F4880F991FAA1FBB1F81602C5FD2
:1006D0003F4F2038310579F620E230E0F7013187CD
:1006E000208784839583A683B78383E090E0B0C19D
:1006F00040815181465051094730510508F069CD7C
:10070000880F991FAA1FBB1FE2CF2081318123517F
:1007100031092F30310540F4440F551F661F771FF4
:1007200041600296349679CD208131812A50310979
:100730002930310508F09ACD440F551F661F771FE9
:10074000F0CF8091410190914201C697869708F0C1
:10075000DECDE5E4F1E083E090E040E050E0BA0176
:10076000B6CDD70144835583668377838BE090E0D1
:1007700030C1208131812C5031092A30310508F0F7
:10078000C6CD440F551F661F771F9FCD4D915C91BD
:100790004C5051094B30510508F005CE440C551C06
:1007A000661C771CE2CD0CEB11E09E012D5F3F4FE4
:1007B0004B855C85B701C5010E94090C98878F8322
:1007C000E3E06E16710489F40CEB11E09E012D5FDD
:1007D0003F4F4B855C85B701C5010E94090CAF8175
:1007E000B885A817B90709F0D6CE8D819E81892BCF
:1007F00081F4EF81F885319709F0CDCED201C101A6
:10080000880F991FAA1FBB1F1C012D01689420F897
:100810000FC02D813E812130310509F0BCCE8F8182
:100820009885892B09F0B7CE220C331C441C551C2B
:100830009FEF691A790A83CE19967C926E92189767
:10084000F701248235824682578282E090E000C11F
:10085000848195814B97459708F04DC0DF0116962E
:100860004F0196EC890E911C20E030E040E050E012
:1008700060E070E080E090E0AD90BC90119719E0EE
:10088000A11AB10818E0A116B104A8F51296AD900E
:10089000BC90139711E1A11AB1081DE0A116B10493
:1008A000D8F401E00E94E01421601496A815B9055F
:1008B00019F7F701248335834683578300E20E94AA
:1008C000FB142283338385E090E09183808380E36F
:1008D00090E091878087BEC01296AD90BC90139730
:1008E00014E0A11AB10815E0A116B10420F401E04A
:1008F0000E94E014DACF80913A01893340F082817E
:100900009381895791098335910508F4A7C1809196
:100910003A01823209F4BCC08281938189579109DE
:100920008335910508F414C2828193818C54910916
:10093000C59708F0B4C080913A01843031F48481C5
:1009400095818097479708F463C280913A01843477
:1009500008F4A5C08481958189549109C39708F052
:100960009EC09F012A5F3F4FBF016A577F4F812C76
:10097000912C5401D9014D915C9149505109493054
:10098000510508F08CC0D90112964D915C911397D6
:10099000465151094131510508F050C2D501C401F9
:1009A000880F991FAA1FBB1F4C015D01689480F836
:1009B0002C5F3F4F26173707E9F620E230E0F701BA
:1009C00031872087D70184829582A682B78287E00B
:1009D00090E08D939C933EC0980122503109D9013B
:1009E0002D913C91295031092830310508F093C0F0
:1009F000BC016F5F7F4FD8012D913C912750310989
:100A00002730310508F07DC2440F551F4160029622
:100A10000C5F1F4F20913A0130E0245031098217BA
:100A20009307D4F2019795958795D70119969C93D2
:100A30008E9318978A970CF46EC0052E000C660BE7
:100A4000770BF701448355836683778389E090E0D1
:100A500091838083D6019D96ED91FC919E97848130
:100A60009581A681B781F60187A790ABA1ABB2AB08
:100A700083A394A3A5A3B6A322E0209336011092EA
:100A80003A0187A390A7A1A7B2A784E0808782C27A
:100A9000828193810A97099708F43BC13DCF8091E9
:100AA0003A01863460F1828193810C970B9708F4A8
:100AB000D5C125C0D90112966D917C9113976E51C5
:100AC00071096731710508F0FDC1D501C401880FB6
:100AD000991FAA1FBB1F4C015D01689480F84E5FEF
:100AE0005F4F2C5F3F4F4534510509F4D2C1D90106
:100AF0006D917C916C5071096B307105D8F28091C9
:100B00003A01883540F082819381855891098B356F
:100B1000910508F4E7C180913A018032E1F48281C5
:100B2000938106970697B8F4848195810997099770
:100B300090F49F012A5F3F4FBF01625C7F4F812C81
:100B4000912C5401D9014D915C9146505109463088
:100B5000510508F4E3C1D7011C960D90BC91A02D5E
:100B6000BE83AD8316970CF410C21F01B6E02B0EA6
:100B7000311C03E010E075EC872E7DE9972E7CE1B7
:100B8000A72E71E8B72EF1016081718134976080E2
:100B9000718080E090E00E9498136F837887898746
:100BA0009A87B30180E090E00E9498132B013C01EA
:100BB0002DEC3CEC4CE45FE30E944F149B01AC0134
:100BC0006F81788589859A850E94EB1287FD19C00F
:100BD0002DEC3CEC4CE45FE36F81788589859A8548
:100BE0000E944F149B01AC01C301B2010E94EB12A1
:100BF000E82F880FFF0BEE27FF0FEE1FFF27319620
:100C000002C0E0E0F0E0A501940163E971E080E05A
:100C100091E00E94BC144F01FF0FAA08BB08862672
:100C20009726A826B9260F5F1F4FF2E02F0E311C22
:100C30002D813E810217130709F0A5CFD701149625
:100C40008D929D92AD92BC92179780E290E019969A
:100C50009C938E9318978FEF9FEFBBCE84819581E5
:100C6000CA97899708F053CE9F012A5F3F4F812C86
:100C7000912C540143E050E0D9016D917C916A5070
:100C800071096930710508F042CED90112966D9153
:100C90007C911397665171096131710550F5D50149
:100CA000C401880F991FAA1FBB1F4C015D016894E6
:100CB00080F84E5F5F4F2C5F3F4F4B335105E1F69D
:100CC0009F012A583F4FD9012D913C912A5031095B
:100CD0002930310508F01BCE2CE130E0F7013187D7
:100CE0002087D70184829582A682B7828AE090E02D
:100CF00070CED90112966D917C911397665071094F
:100D00006730710508F003CE880C991CAA1CBB1C27
:100D1000D0CF20913A01CF01820F911D820F911DFA
:100D2000DC0112978D919C910A97099708F0F4CDF8
:100D3000D70119961C921E9218978FEF9FEFDC0136
:100D4000F70184839583A683B78386E090E080CE05
:100D500080913A01813208F4E7CD84819581CA9768
:100D6000899708F0E1CD9F012A5F3F4F812C912C9C
:100D7000540143E050E0D9016D917C916A507109B2
:100D80006930710508F0D0CDD90112966D917C9132
:100D90001397665171096131710550F5D501C40190
:100DA000880F991FAA1FBB1F4C015D01689480F832
:100DB0004E5F5F4F2C5F3F4F43325105E1F69F017D
:100DC0002A5B3F4FD9012D913C912A50310929309E
:100DD000310508F0A9CD20E130E0F7013187208707
:100DE000D70184829582A682B78286E090E0F1CD19
:100DF000D90112966D917C911397665071096730F5
:100E0000710508F091CD880C991CAA1CBB1CD0CF91
:100E1000868197810997099708F097CDD701199690
:100E20001C921E9218978FEF9FEFDC01F7018483CD
:100E30009583A683B78387E090E00ACED901129606
:100E40004D915C911397465051094730510508F078
:100E500026CE880C991CAA1CBB1CAACD8481958126
:100E60000997099708F04BCE868197818C974F9709
:100E700008F045CE8085918589974D9708F03FCE43
:100E80009F01265F3F4F812C912C540145E050E09B
:100E90002ECE9F0126573F4FD9012D913C912C50CA
:100EA00031092B30310508F02ACE20E230E0F7017D
:100EB00031872087D70184829582A682B78288E015
:100EC00090E087CDD90112966D917C91139769506E
:100ED00071096930710508F012CE880C991CAA1CA2
:100EE000BB1CFDCD84819581825491098E9708F0B9
:100EF00012CE8F01045C1F4F8DE190E040E050E086
:100F000089CDD8012D913C912851310922313105EB
:100F100010F0CB0187CD440F551F79CDD901129622
:100F20004D915C9113974951510943315105E8F4B2
:100F3000D501C401880F991FAA1FBB1F4C015D0179
:100F4000689480F82C5F3F4F2617370709F0FACDD9
:100F50002EE030E0F70131872087D7018482958227
:100F6000A682B7828FE090E034CDD90112964D91E0
:100F70005C911397495051094930510508F0EBCD68
:100F8000880C991CAA1CBB1CDDCF82E08093360123
:100F900010923A012C960FB6F894DEBF0FBECDBF6B
:100FA000DF91CF911F910F91FF90EF90DF90CF9045
:100FB000BF90AF909F908F907F906F905F904F9079
:100FC0003F902F900895CF92DF92EF92FF920F9370
:100FD0001F93CF93DF936C017A018B01C0E0D0E0C7
:100FE000CE15DF0589F0D8016D918D01D601ED9107
:100FF000FC910190F081E02DC6010995892B11F437
:101000007E0102C02196ECCFC701DF91CF911F91E5
:101010000F91FF90EF90DF90CF900895FC01918D9C
:10102000828D981761F0828DDF01A80FB11D5D964A
:101030008C91928D9F5F9F73928F90E008958FEFB8
:101040009FEF0895FC01918D828D981731F0828D6C
:10105000E80FF11D858D90E008958FEF9FEF0895C3
:10106000FC01918D228D892F90E0805C9F4F821B27
:1010700091098F739927089588E092E00E943008C3
:1010800021E0892B09F420E0822F0895FC01848D52
:10109000DF01A80FB11DA35ABF4F2C91848D90E0A2
:1010A00001968F739927848FA689B7892C93A0897D
:1010B000B1898C9180648C93938D848D981306C034
:1010C0000288F389E02D80818F7D80830895EF92DF
:1010D000FF920F931F93CF93DF93EC0181E0888FF2
:1010E0009B8D8C8D981305C0E889F989808185FDD9
:1010F00024C0F62E0B8D10E00F5F1F4F0F731127CA
:10110000E02E8C8DE8120CC00FB607FCFACFE889F0
:10111000F989808185FFF5CFCE010E944608F1CF85
:101120008B8DFE01E80FF11DE35AFF4FF0820B8F0C
:10113000EA89FB898081806207C0EE89FF8960832C
:10114000E889F98980818064808381E090E0DF9183
:10115000CF911F910F91FF90EF900895CF93DF9360
:10116000EC01888D8823C9F0EA89FB89808185FD9F
:1011700005C0A889B9898C9186FD0FC00FB607FC00
:10118000F5CF808185FFF2CFA889B9898C9185FF41
:10119000EDCFCE010E944608E7CFDF91CF910895B1
:1011A00080E090E0892B29F00E943C0881110C948A
:1011B00000000895CF93DF9390E0FC01E057FF4FCC
:1011C0002491FC01E458FF4F8491882361F190E061
:1011D000880F991FFC01E859FF4FC591D491FC017C
:1011E000EE58FF4FA591B491611109C09FB7F894D3
:1011F0008881209582238883EC912E230BC0623056
:1012000061F49FB7F8943881822F80958323888377
:10121000EC912E2B2C939FBF06C08FB7F894E881DA
:101220002E2B28838FBFDF91CF910895009769F00F
:10123000FC0101900020E9F73197AF01481B590BE1
:10124000BC0188E092E00C94E30780E090E0089510
:101250008F929F92AF92BF920F931F93CF93DF9382
:10126000CDB7DEB7A1970FB6F894DEBF0FBECDBFE6
:1012700019A2423008F44AE08E010F5D1F4F842E00
:10128000912CA12CB12CA50194010E944D12E62FA6
:10129000B901CA0101501109EA3014F4E05D01C03E
:1012A000E95CD801EC93232B242B252B61F7C80193
:1012B0000E941609A1960FB6F894DEBF0FBECDBFEF
:1012C000DF91CF911F910F91BF90AF909F908F9022
:1012D0000895CF92DF92EF92FF92CF93DF936B014D
:1012E0007C01E0910802F09109020190F081E02D6B
:1012F0006DE288E092E00995EC0166277727CB0143
:101300006C197D098E099F094AE00E9428098C0FFB
:101310009D1FDF91CF91FF90EF90DF90CF900895C8
:101320000E945E161F920F920FB60F9211242F93F8
:101330003F934F935F936F937F938F939F93AF935D
:10134000BF93EF93FF9388E092E00E944608FF91DD
:10135000EF91BF91AF919F918F917F916F915F912D
:101360004F913F912F910F900FBE0F901F901895A6
:101370001F920F920FB60F9211242F938F939F936A
:10138000EF93FF93E0911802F09119028081E091B0
:101390001E02F0911F0282FD12C0908180912102F5
:1013A0008F5F8F7320912202821751F0E09121020A
:1013B000F0E0E85FFD4F958F8093210201C08081AE
:1013C000FF91EF919F918F912F910F900FBE0F90F2
:1013D0001F901895833081F028F4813099F0823085
:1013E000A1F008958730A9F08830B9F08430D1F4A5
:1013F000809180008F7D03C0809180008F778093E3
:101400008000089584B58F7702C084B58F7D84BD38
:1014100008958091B0008F7703C08091B0008F7DD8
:101420008093B00008951F93CF93DF93282F30E06F
:10143000F901EC55FF4F8491F901E057FF4FD4912A
:10144000F901E458FF4FC491CC23C9F0162F811144
:101450000E94EA09EC2FF0E0EE0FFF1FEE58FF4F5D
:10146000A591B4918FB7F894111105C09C91ED2FFF
:10147000E095E92302C0EC91ED2BEC938FBFDF9157
:10148000CF911F9108953FB7F894809109039091EF
:101490000A03A0910B03B0910C0326B5A89B05C0CD
:1014A0002F3F19F00196A11DB11D3FBFBA2FA92FE3
:1014B000982F8827820F911DA11DB11DBC01CD0160
:1014C00042E0660F771F881F991F4A95D1F708954C
:1014D000CF92DF92EF92FF92CF93DF93EC01072E32
:1014E000000C880B990B0E949A136B017C0120E081
:1014F00030E040E45FE30E944F1420E030E048E435
:1015000052E40E94F0120E946213C617D707D4F06B
:1015100020E030E040EA5FE3C701B6010E944F14CB
:1015200020E030E048E452E40E94F01220E030E095
:1015300040E85FE30E947F120E94621321E06C1773
:101540007D070CF420E0822F90E0DF91CF91FF9097
:10155000EF90DF90CF9008958E3008F08E50877016
:10156000806480937C0080917A00806480937A000C
:1015700080917A0086FDFCCF8091780020917900DF
:1015800090E0922B08958F929F92AF92BF92CF924C
:10159000DF92EF92FF926B017C010E94430A4B01A4
:1015A0005C01C114D104E104F104F1F00E94430A8A
:1015B000DC01CB0188199909AA09BB09883E93402F
:1015C000A105B10570F321E0C21AD108E108F108C4
:1015D00088EE880E83E0981EA11CB11CC114D104B2
:1015E000E104F10419F7DDCFFF90EF90DF90CF9089
:1015F000BF90AF909F908F9008952F923F924F92FF
:101600005F926F927F928F929F92AF92BF92CF9292
:10161000DF92EF92FF920F931F93CF93DF93CDB79B
:10162000DEB72A970FB6F894DEBF0FBECDBF1C0100
:1016300069017A0157FF0BC0F094E094D094C094F4
:10164000C11CD11CE11CF11C2FEF298302C081E0D9
:101650008983412C512C3201F10126E0629FE00D7B
:10166000F11D1124FA87E9878F010B5F1F4FAA2410
:10167000A3944F018FEF881A980A3496FB83EA836C
:10168000E985FA853396FD83EC8389859A850296F0
:101690009F838E834C145D046E047F0409F456C04E
:1016A000F8019081943021F09F3F19F493E001C03C
:1016B00090E0F801908391FD9A2591FB662760F9EF
:1016C000F401808198870E94130A9885F92FF170A0
:1016D000BF2E6F2FE985FA8580810E94130AEA8167
:1016E000FB8180819885843081F491FB662760F9C5
:1016F0006A25EC81FD8180810E94130A6B2D6A2589
:10170000EE81FF8180810E94130AF101A489B589CD
:1017100020893189428953890E9445129B01AC017D
:1017200060E67AEE80E090E00E944D12CA01B901B5
:101730000E94C30AFFEF4F1A5F0A6F0A7F0AF8017F
:101740008081F9818F0FF8018083A4CF2A960FB68C
:10175000F894DEBF0FBECDBFDF91CF911F910F91E7
:10176000FF90EF90DF90CF90BF90AF909F908F90C1
:101770007F906F905F904F903F902F9008951F92B1
:101780000F920FB60F9211242F933F938F939F9335
:10179000AF93BF938091050390910603A091070337
:1017A000B09108033091040323E0230F2D3720F478
:1017B0000196A11DB11D05C026E8230F0296A11DAB
:1017C000B11D209304038093050390930603A09317
:1017D0000703B09308038091090390910A03A09135
:1017E0000B03B0910C030196A11DB11D8093090359
:1017F00090930A03A0930B03B0930C03BF91AF9196
:101800009F918F913F912F910F900FBE0F901F903E
:1018100018958F929F92AF92BF92CF92DF92EF92E4
:10182000FF920F931F93CF93DF93DA01CD91DC9159
:10183000FB0184859585C817D9070CF04CC0CE01F3
:10184000880F991F0284F385E02DE80FF91F80802F
:101850009180C170DD27F1E0CF27209719F484E64D
:1018600090E002C08CE99FEF59016A017801E80E0F
:10187000F91EB701C4010E94680A892B99F4E00E91
:10188000F11EB701C4010E94680A892B71F4B701E7
:10189000600F711FC4010E94680A892BF9F023E0D0
:1018A00030E005C021E030E002C022E030E0D501A8
:1018B0008D919C91119701968217930744F0F50141
:1018C00011821082D6018D919C91119701968D9372
:1018D0009C93CE0105C081E090E002C08FEF9FEFA6
:1018E000DF91CF911F910F91FF90EF90DF90CF90FC
:1018F000BF90AF909F908F9008951F920F920FB658
:101900000F9211242F933F934F935F936F937F9385
:101910008F939F93AF93BF93CF93DF93EF93FF93F7
:101920002091370130E0F901EC55FF4F8491F90126
:10193000E057FF4FD491F901E458FF4FC491CC23F5
:10194000A1F081110E94EA09EC2FF0E0EE0FFF1FD9
:10195000E854FF4FA591B491EC91ED2331E020E0E4
:1019600009F430E0832F922F02C080E090E02091B4
:101970003B0130913C012F5F3F4F30933C0120935E
:101980003B0120913A01253618F026E020933601DC
:10199000209136012430D9F128F4223069F0233027
:1019A000D9F060C0253009F453C0263009F05AC080
:1019B00021E02093070253C0009709F053C0209103
:1019C0003B0130913C012436310508F443C01092AC
:1019D000070210923A011DC08130910509F042C002
:1019E000E0913A0121E02E0F20933A01F0E020919E
:1019F0003B0130913C01EE0FFF1FEA5CFE4F308748
:101A0000278310923C0110923B0124E029C00097EB
:101A1000B9F4E0913A0121E02E0F20933A01F0E071
:101A200020913B0130913C01EE0FFF1FEA5CFE4F1D
:101A30003087278310923C0110923B0123E010C0B5
:101A400020913B0130913C012536310558F007C00B
:101A5000009741F410923C0110923B0103C025E035
:101A600020933601209139012223B9F0892B51F4BA
:101A700080913801882321F08091380161E009C00C
:101A80002D9A0BC080913801882331F08091380164
:101A900060E00E94130A01C02D98FF91EF91DF9141
:101AA000CF91BF91AF919F918F917F916F915F91F6
:101AB0004F913F912F910F900FBE0F901F9018954F
:101AC0004F925F926F927F928F929F92AF92BF924E
:101AD000CF92DF92EF92FF92CF93DF93EC016A01F6
:101AE0007B01812C912C5401442455243201441A49
:101AF000550A660A770AD701C601F7FE02C0D3016C
:101B0000C20188169906AA06BB06B4F5F7FC03C005
:101B100081E090E002C08FEF9FEF4C855D85849F50
:101B20009001859F300D949F300D1124032E000CE1
:101B3000440B550B60E0CE010E94FD0AF7FC03C088
:101B40008FEF9FEF02C081E090E04E855F85849F1C
:101B50009001859F300D949F300D1124032E000CB1
:101B6000440B550B61E0CE010E94FD0A8FEF881AED
:101B7000980AA80AB80ABFCFDF91CF91FF90EF90E3
:101B8000DF90CF90BF90AF909F908F907F906F909D
:101B90005F904F9008958F929F92AF92BF92CF9295
:101BA000DF92EF92FF92CF93DF93EC014A015B014A
:101BB000C12CD12C7601C814D904EA04FB04D4F456
:101BC0002C853D85032E000C440B550B60E0CE01A7
:101BD0000E94FD0A2E853F85032E000C440B550BF9
:101BE00061E0CE010E94FD0A8FEFC81AD80AE80A08
:101BF000F80AE1CFDF91CF91FF90EF90DF90CF9087
:101C0000BF90AF909F908F900895CF92DF92EF9208
:101C1000FF920F931F93CF93DF93EC016D897E8921
:101C2000072E000C880B990B0E949A136B017C0104
:101C30002BED3FE049EC50E46BA17CA18DA19EA16E
:101C40000E94F0129B01AC01C701B6010E944F1423
:101C50000E946213AB01BC018A819B810E94600DCE
:101C600060E08E810E94130A83E090E00197F1F713
:101C700061E08E810E94130A83E290E00197F1F700
:101C800060E08E810E94130A2F8130E0F901E05755
:101C9000FF4F6491F901E458FF4FE491F0E0EE0F3B
:101CA000FF1FE854FF4F8591949100E412E42FE068
:101CB00030E0462F0E94A80E61157105810591053F
:101CC00039F0DC01CB010196A11DB11DBF7003C02D
:101CD00080E090E0DC01BC01CD0196958795779579
:101CE00067950E9498132BE032ED4CE05DE30E9473
:101CF0004F1420E030E040E85FE30E947E126B0169
:101D00007C0129853A854B855C85C701B6010E9417
:101D10004A141816A4F020E030E0A901C701B6016A
:101D20000E94EB1287FD0BC082E08887DF91CF9184
:101D30001F910F91FF90EF90DF90CF90089541E0B9
:101D400050E060E070E08A819B810E94CB0DD9CF8A
:101D5000CF92DF92EF92FF920F931F93E82FF92F0C
:101D600005C0015011092109310961F190819623C3
:101D70009417B9F305C0015011092109310911F176
:101D8000908196239413F7CFC12CD12CE12CF12C08
:101D90000AC08FEFC81AD80AE80AF80A0C151D0500
:101DA0002E053F0579F080818623841791F36C2DF1
:101DB0007D2D8E2D9F2D1F910F91FF90EF90DF9025
:101DC000CF90089560E070E080E090E01F910F9167
:101DD000FF90EF90DF90CF900895EF92FF920F93D6
:101DE0001F93CF93DF9310920B0210920A0288EE9A
:101DF00093E0A0E0B0E080930C0290930D02A093DA
:101E00000E02B0930F028EE091E09093090280934E
:101E1000080285EC90E0909315028093140284EC04
:101E200090E0909317028093160280EC90E09093DC
:101E300019028093180281EC90E090931B0280932A
:101E40001A0282EC90E090931D0280931C0286ECB3
:101E500090E090931F0280931E0210922102109234
:101E60002202109223021092240289E190E0A0E065
:101E7000B0E08093FE029093FF02A0930003B09322
:101E800001038AE08093EE028BE08093EF0282E010
:101E90008093F20298E09093F40299E09093F50217
:101EA0008093F8021092F9021092F30288EC90E00D
:101EB000909303038093020381E090E09093FB02F0
:101EC0008093FA029093FD028093FC02CEEED2E062
:101ED0008091F20290E09E012E5E32402817390771
:101EE0002CF461E089910E94DA08F2CFC0E0D0E0E2
:101EF0008091F80290E0C817D9074CF4FE01EC502D
:101F0000FD4F61E080810E94DA082196F1CF85E0E3
:101F10008093D80286E08093D90287E08093DA022A
:101F20008EE08093DB0208ED12E0C2EED2E0EE24F8
:101F3000EA9483E0F82E61E0F80181918F010E941C
:101F4000DA08E992F9921D821C82F2E0C83EDF07AE
:101F500091F781E090E00E943115EC0183E08093DD
:101F60003701109239018EE191E09093A60280939F
:101F7000A5028EEE92E09093A8028093A70288EDCE
:101F800092E09093AA028093A9028CE08093AB0226
:101F90008DE08093AC0280E090E0A0E7B1E4809314
:101FA000AE029093AF02A093B002B093B10282E070
:101FB00090E09093B9028093B80284EE9BECA6E97E
:101FC000B1E48093BC029093BD02A093BE02B09393
:101FD000BF028BED9FE0A9E4B2E48093C00290932E
:101FE000C102A093C202B093C30261E08CE00E94E0
:101FF000DA0860E08DE00E94DA0886EE90E09093C7
:10200000B3028093B20280EF90E09093B502809388
:10201000B40285EF90E09093B7028093B60260918E
:10202000020370910303072E000C880B990B0E948A
:102030009A132091C0023091C1024091C202509186
:10204000C3020E944F142091BC023091BD02409106
:10205000BE025091BF020E94F0120E946213709360
:10206000BB026093BA021092C8021092C902109289
:10207000CA021092CB021092C4021092C5021092B2
:10208000C6021092C70282E10E94AC0ABC01990FFD
:10209000880B990B611571058105910511F00E945E
:1020A000121284E291E09093A6028093A502D0934D
:1020B000D102C093D00280E190E00E94311590934C
:1020C000D3028093D202DF91CF911F910F91FF90A5
:1020D000EF900895789484B5826084BD84B5816062
:1020E00084BD85B5826085BD85B5816085BD8091E3
:1020F0006E00816080936E0010928100809181005B
:102100008260809381008091810081608093810052
:10211000809180008160809380008091B100846014
:102120008093B1008091B00081608093B000809175
:102130007A00846080937A0080917A008260809334
:102140007A0080917A00816080937A0080917A0091
:10215000806880937A001092C100E0911802F0919B
:10216000190282E08083E0911402F091150210823E
:10217000E0911602F09117029FEC908310922002DA
:10218000E0911C02F0911D0296E09083E0911A020A
:10219000F0911B02908190619083E0911A02F0917E
:1021A0001B02908198609083E0911A02F0911B02CB
:1021B000908190689083E0911A02F0911B029081C7
:1021C0009F7D9083F8948093B0008093B10094E653
:1021D0009093B3001092B200809370007894809333
:1021E000360110923A018091370160E00E94DA08CE
:1021F00080E090E0A0EFB1E48093C4029093C50228
:10220000A093C602B093C70289EF9FE0A9E4BFE3A1
:102210008093C8029093C902A093CA02B093CB02E4
:102220008093CC029093CD02A093CE02B093CF02C4
:1022300005E010E085EA92E00E94050ECCEDD2E0C8
:1022400098EDE92E92E0F92E19821882670161E07B
:10225000F70180810E94130A6AE070E080E090E05C
:102260000E94C30A85E0A82EB12C8EE00E94AC0A21
:1022700028813981820F931F99838883F1E0AF1AF7
:10228000B10899F78C849D84092C000CAA08BB081E
:10229000B8010E94CC14CB01770FAA0BBB0B9C0199
:1022A000AD01281939094A095B09AFEFB0E00E9476
:1022B0003A122E813F812901330F66087708A30166
:1022C0009201281939094A095B090E941B122993B6
:1022D00039932FEFE21AF20A60E0F60180810E9442
:1022E000130AF2E0C23EDF0709F0AECF86E291E0CA
:1022F0000E9416096091DC027091DD02072E000C2D
:10230000880B990B97FF03C00E94690903C04AE03C
:102310000E9428098AE291E00E9416096091DE027B
:102320007091DF02072E000C880B990B97FF03C0FA
:102330000E94690903C04AE00E9428098EE291E0E8
:102340000E9416096091E0027091E102072E000CD4
:10235000880B990B97FF03C00E94690903C04AE0EC
:102360000E94280982E391E00E94160964EF71E05F
:1023700080E090E00E94C30A0E94D0085BCF8F9259
:102380009F92AF92BF92CF92DF92EF92FF92CF9344
:10239000DF93EC01688179818A819B8161157105E8
:1023A0008105910521F464E279ED8BE597E02DE15B
:1023B00033EF41E050E00E941B1249015A019B019A
:1023C000AC01A7EAB1E40E943A126B017C01ACEEC9
:1023D000B4EFA50194010E944812DC01CB018C0DE1
:1023E0009D1DAE1DBF1DB7FF03C00197A109B048D9
:1023F00088839983AA83BB83BC01CD019F77DF913A
:10240000CF91FF90EF90DF90CF90BF90AF909F90D3
:102410008F9008950E94BF11089580E091E00E947E
:10242000BF11089560930001709301018093020130
:10243000909303010895052E97FB1EF400940E94CB
:10244000321257FD07D00E944D1207FC03D04EF404
:102450000C94321250954095309521953F4F4F4F37
:102460005F4F089590958095709561957F4F8F4F40
:102470009F4F08950E946F12A59F900DB49F900DDD
:10248000A49F800D911D11240895B7FF0C943A125A
:102490000E943A12821B930B0895A1E21A2EAA1BE6
:1024A000BB1BFD010DC0AA1FBB1FEE1FFF1FA21704
:1024B000B307E407F50720F0A21BB30BE40BF50B01
:1024C000661F771F881F991F1A9469F7609570958A
:1024D000809590959B01AC01BD01CF010895A29F0D
:1024E000B001B39FC001A39F700D811D1124911DE8
:1024F000B29F700D811D1124911D08955058BB2766
:10250000AA270E9496120C9410140E94021438F00C
:102510000E94091420F039F49F3F19F426F40C941A
:10252000FF130EF4E095E7FB0C94F913E92F0E94DA
:10253000211458F3BA17620773078407950720F030
:1025400079F4A6F50C9443140EF4E0950B2EBA2FF3
:10255000A02D0B01B90190010C01CA01A0011124A9
:10256000FF27591B99F0593F50F4503E68F11A1655
:10257000F040A22F232F342F4427585FF3CF4695E6
:1025800037952795A795F0405395C9F77EF41F1608
:10259000BA0B620B730B840BBAF09150A1F0FF0FD2
:1025A000BB1F661F771F881FC2F70EC0BA0F621FBE
:1025B000731F841F48F4879577956795B795F795AE
:1025C0009E3F08F0B0CF9395880F08F09927EE0F43
:1025D0009795879508950E94D51308F481E0089592
:1025E0000E9404130C9410140E94091458F00E94C5
:1025F000021440F029F45F3F29F00C94F9135111B3
:102600000C9444140C94FF130E94211468F3992332
:10261000B1F3552391F3951B550BBB27AA276217DE
:102620007307840738F09F5F5F4F220F331F441FEB
:10263000AA1FA9F335D00E2E3AF0E0E832D091501F
:102640005040E695001CCAF72BD0FE2F29D0660F0C
:10265000771F881FBB1F261737074807AB07B0E84F
:1026600009F0BB0B802DBF01FF2793585F4F3AF055
:102670009E3F510578F00C94F9130C9444145F3F7D
:10268000E4F3983ED4F3869577956795B795F795DB
:102690009F5FC9F7880F911D9695879597F90895C3
:1026A000E1E0660F771F881FBB1F6217730784075F
:1026B000BA0720F0621B730B840BBA0BEE1F88F76E
:1026C000E09508950E9469136894B1110C94441424
:1026D00008950E94291488F09F5798F0B92F9927E0
:1026E000B751B0F0E1F0660F771F881F991F1AF0FD
:1026F000BA95C9F714C0B13091F00E944314B1E00B
:1027000008950C944314672F782F8827B85F39F009
:10271000B93FCCF3869577956795B395D9F73EF495
:1027200090958095709561957F4F8F4F9F4F08953D
:10273000E89409C097FB3EF490958095709561955B
:102740007F4F8F4F9F4F9923A9F0F92F96E9BB2711
:102750009395F695879577956795B795F111F8CF8D
:10276000FAF4BB0F11F460FF1BC06F5F7F4F8F4FF8
:102770009F4F16C0882311F096E911C0772321F0EE
:102780009EE8872F762F05C0662371F096E8862F86
:1027900070E060E02AF09A95660F771F881FDAF7DD
:1027A000880F9695879597F90895990F0008550F0A
:1027B000AA0BE0E8FEEF16161706E807F907C0F0C7
:1027C00012161306E407F50798F0621B730B840BCF
:1027D000950B39F40A2661F0232B242B252B21F4A9
:1027E00008950A2609F4A140A6958FEF811D811D49
:1027F000089597F99F6780E870E060E008959FEF83
:1028000080EC089500240A94161617061806090687
:10281000089500240A941216130614060506089556
:10282000092E0394000C11F4882352F0BB0F40F4DE
:10283000BF2B11F460FF04C06F5F7F4F8F4F9F4F1E
:10284000089557FD9058440F551F59F05F3F71F0A0
:102850004795880F97FB991F61F09F3F79F0879507
:102860000895121613061406551FF2CF4695F1DF90
:1028700008C0161617061806991FF1CF8695710520
:10288000610508940895E894BB2766277727CB0154
:1028900097F908950E94D51308F48FEF08950E94C8
:1028A00062140C9410140E94021438F00E9409144F
:1028B00020F0952311F00C94F9130C94FF131124BC
:1028C0000C9444140E94211470F3959FC1F3950F4A
:1028D00050E0551F629FF001729FBB27F00DB11DA4
:1028E000639FAA27F00DB11DAA1F649F6627B00D34
:1028F000A11D661F829F2227B00DA11D621F739F1D
:10290000B00DA11D621F839FA00D611D221F749F2A
:102910003327A00D611D231F849F600D211D822F71
:10292000762F6A2F11249F5750409AF0F1F0882398
:102930004AF0EE0FFF1FBB1F661F771F881F9150C5
:102940005040A9F79E3F510580F00C94F9130C9468
:1029500044145F3FE4F3983ED4F3869577956795EA
:10296000B795F795E7959F5FC1F7FE2B880F911DEF
:102970009695879597F90895DB018F939F930E9411
:102980003A12BF91AF91A29F800D911DA39F900D10
:10299000B29F900D1124089597FB072E16F4009412
:1029A00007D077FD09D00E94171507FC05D03EF42B
:1029B000909581959F4F0895709561957F4F0895EB
:1029C0000F93083090F0982F872F762F652F542F74
:1029D000432F322F22270850F4CF220F331F441FDA
:1029E000551F661F771F881F991F0A95B2F70F9111
:1029F000089597FB10F8169400080F93083098F08C
:102A00000850232F342F452F562F672F782F892FCB
:102A1000902DF4CF05949795879577956795579561
:102A20004795379527950A95AAF70F910895AA1B00
:102A3000BB1B51E107C0AA1FBB1FA617B70710F0A9
:102A4000A61BB70B881F991F5A95A9F780959095DB
:102A5000BC01CD010895EE0FFF1F0590F491E02D0C
:102A60000994CF93DF938230910510F482E090E0D7
:102A7000E0910F03F091100320E030E0C0E0D0E0DF
:102A8000309711F14081518148175907C0F048171C
:102A9000590761F482819381209719F09B838A837F
:102AA0002BC09093100380930F0326C0211531058E
:102AB00019F04217530718F49A01BE01DF01EF0124
:102AC0000280F381E02DDCCF2115310509F1281BAF
:102AD000390B2430310590F412968D919C91139707
:102AE0006115710521F0FB019383828304C09093EB
:102AF000100380930F03FD01329644C0FD01E20FE5
:102B0000F31F81939193225031092D933C933AC046
:102B100020910D0330910E03232B41F420910601E7
:102B20003091070130930E0320930D03209104018F
:102B3000309105012115310541F42DB73EB7409183
:102B4000080150910901241B350BE0910D03F09110
:102B50000E03E217F307A0F42E1B3F0B28173907CB
:102B600078F0AC014E5F5F4F2417350748F04E0FE9
:102B70005F1F50930E0340930D038193919302C006
:102B8000E0E0F0E0CF01DF91CF9108950F931F9324
:102B9000CF93DF93009709F48CC0FC013297138226
:102BA000128200910F03109110030115110581F499
:102BB00020813181820F931F20910D0330910E03EC
:102BC0002817390779F5F0930E03E0930D0371C0D0
:102BD000D80140E050E0AE17BF0750F412962D9197
:102BE0003C911397AD012115310509F1D901F3CFBE
:102BF0009D01DA013383228360817181860F971FE3
:102C00008217930769F4EC0128813981260F371F59
:102C10002E5F3F4F318320838A819B819383828300
:102C2000452B29F4F0931003E0930F0342C0139651
:102C3000FC93EE931297ED01499159919E01240F57
:102C4000351FE217F30771F480819181840F951F7E
:102C5000029611969C938E938281938113969C93F6
:102C60008E931297E0E0F0E0D80112968D919C913E
:102C70001397009719F0F8018C01F6CF8D919C9174
:102C800098012E5F3F4F820F931F20910D033091CB
:102C90000E032817390769F4309729F410921003AE
:102CA00010920F0302C01382128210930E0300933E
:102CB0000D03DF91CF911F910F91089581E090E076
:0A2CC000F8940C946316F894FFCF0B
:102CCA0001000000000011038000000000006708F6
:102CDA00E30730080E082208AE0800000000900939
:102CEA00000000008C00723A2000673A2000623A25
:062CFA0020000D0A00009D
:00000001FF
