:100000000C9488000C94B0000C94B0000C94B000D8
:100010000C94B0000C94B0000C94B0000C94DB096C
:100020000C94B0000C94B0000C94B0000C94B00090
:100030000C94B0000C94B0000C94B0000C94B00080
:100040000C9491090C94B0000C945F090C9439093C
:100050000C94B0000C94B0000C94B0000C94B00060
:100060000C94B0000C94B000084AD73B3BCE016E14
:1000700084BCBFFDC12F3D6C74319ABD56833DDAFF
:100080003D00C77F11BED9E4BB4C3E916BAAAABE0E
:10009000000000803F05A84CCDB2D44EB93836A937
:1000A000020C50B9918688083CA6AAAA2ABE000074
:1000B00000803F000000000023002600290000000F
:1000C0000000240027002A0000000000250028006E
:1000D0002B000404040404040404020202020202C9
:1000E00003030303030301020408102040800102FC
:1000F000040810200102040810200000000800027B
:100100000100000304070000000000000000030BD2
:1001100011241FBECFEFD8E0DEBFCDBF11E0A0E0BD
:10012000B1E0E4E3F3E202C005900D92A833B10719
:10013000D9F723E0A8E3B1E001C01D92A830B207CF
:10014000E1F710E0C8E8D0E004C02197FE010E946A
:100150008D11C738D107C9F70E946A0C0C94981109
:100160000C940000CF92DF92EF92FF920F931F93B7
:10017000CF93DF936C017A018B01C0E0D0E0CE1504
:10018000DF0589F0D8016D918D01D601ED91FC91CB
:100190000190F081E02DC6010995892B11F47E01B3
:1001A00002C02196ECCFC701DF91CF911F910F9133
:1001B000FF90EF90DF90CF900895FC01918D828D9C
:1001C000981761F0828DDF01A80FB11D5D968C91AB
:1001D000928D9F5F9F73928F90E008958FEF9FEFB6
:1001E0000895FC01918D828D981731F0828DE80F72
:1001F000F11D858D90E008958FEF9FEF0895FC012C
:10020000918D228D892F90E0805C9F4F821B9109F8
:100210008F739927089583E192E00E94FF0021E007
:10022000892B09F420E0822F0895FC01848DDF01E1
:10023000A80FB11DA35ABF4F2C91848D90E0019659
:100240008F739927848FA689B7892C93A089B18948
:100250008C9180648C93938D848D981306C0028852
:10026000F389E02D80818F7D80830895EF92FF9246
:100270000F931F93CF93DF93EC0181E0888F9B8DC9
:100280008C8D981305C0E889F989808185FD24C08B
:10029000F62E0B8D10E00F5F1F4F0F731127E02E0E
:1002A0008C8DE8120CC00FB607FCFACFE889F989EB
:1002B000808185FFF5CFCE010E941501F1CF8B8D96
:1002C000FE01E80FF11DE35AFF4FF0820B8FEA8920
:1002D000FB898081806207C0EE89FF896083E8899D
:1002E000F98980818064808381E090E0DF91CF9103
:1002F0001F910F91FF90EF900895CF93DF93EC0142
:10030000888D8823C9F0EA89FB89808185FD05C035
:10031000A889B9898C9186FD0FC00FB607FCF5CF6F
:10032000808185FFF2CFA889B9898C9185FFEDCFB7
:10033000CE010E941501E7CFDF91CF91089580E0B3
:1003400090E0892B29F00E940B0181110C94000090
:100350000895833081F028F4813099F08230A1F043
:1003600008958730A9F08830B9F08430D1F48091B5
:1003700080008F7D03C0809180008F778093800004
:10038000089584B58F7702C084B58F7D84BD0895AC
:100390008091B0008F7703C08091B0008F7D8093F3
:1003A000B00008951F93CF93DF93282F30E0F90119
:1003B000E650FF4F8491F901EA51FF4FD491F901C2
:1003C000EE52FF4FC491CC23C9F0162F81110E9429
:1003D000A901EC2FF0E0EE0FFF1FE853FF4FA591AE
:1003E000B4918FB7F894111105C09C91ED2FE09551
:1003F000E92302C0EC91ED2BEC938FBFDF91CF91FD
:100400001F910895CF93DF9390E0FC01EA51FF4FD5
:100410002491FC01EE52FF4F8491882361F190E01A
:10042000880F991FFC01E254FF4FC591D491FC0144
:10043000E853FF4FA591B491611109C09FB7F8949B
:100440008881209582238883EC912E230BC0623013
:1004500061F49FB7F8943881822F80958323888335
:10046000EC912E2B2C939FBF06C08FB7F894E88198
:100470002E2B28838FBFDF91CF9108958E3008F007
:100480008E508770806480937C0080917A008064B5
:1004900080937A0080917A0086FDFCCF809178006D
:1004A0002091790090E0922B08953FB7F8948091C5
:1004B0000F0290911002A0911102B091120226B584
:1004C000A89B05C02F3F19F00196A11DB11D3FBF8C
:1004D000BA2FA92F982F8827820F911DA11DB11D1A
:1004E000BC01CD0142E0660F771F881F991F4A9516
:1004F000D1F708958F929F92AF92BF92CF92DF92E1
:10050000EF92FF926B017C010E9455024B015C014E
:10051000C114D104E104F104F1F00E945502DC01A0
:10052000CB0188199909AA09BB09883E9340A10506
:10053000B10570F321E0C21AD108E108F10888EE94
:10054000880E83E0981EA11CB11CC114D104E104E3
:10055000F10419F7DDCFFF90EF90DF90CF90BF90BF
:10056000AF909F908F9008958F929F92AF92BF927D
:10057000CF92DF92EF92FF926B017C010E945502B5
:100580004B015C0184E0C81AD108E108F108C80CED
:10059000D91CEA1CFB1CC814D904EA04FB0438F477
:1005A0000E94550286169706A806B906C8F30E944F
:1005B00055026C157D058E059F05C8F3FF90EF90E1
:1005C000DF90CF90BF90AF909F908F900895E0EB19
:1005D000F0E080818F7D808368E572E080E090E0CC
:1005E0000C94B4022F923F924F925F926F927F923F
:1005F0008F929F92AF92BF92CF92DF92EF92FF9233
:100600000F931F93CF93DF93CDB7DEB72A970FB623
:10061000F894DEBF0FBECDBF1C0169017A0157FF00
:100620000BC0F094E094D094C094C11CD11CE11C88
:10063000F11C2FEF298302C081E08983412C512CCA
:100640003201F10126E0629FE00DF11D1124FA87CD
:10065000E9878F010B5F1F4FAA24A3944F018FEFEF
:10066000881A980A3496FB83EA83E985FA853396DB
:10067000FD83EC8389859A8502969F838E834C1433
:100680005D046E047F0409F456C0F8019081943033
:1006900021F09F3F19F493E001C090E0F8019083AE
:1006A00091FD9A2591FB662760F9F4018081988776
:1006B0000E94D2019885F92FF170BF2E6F2FE98526
:1006C000FA8580810E94D201EA81FB818081988530
:1006D000843081F491FB662760F96A25EC81FD8105
:1006E00080810E94D2016B2D6A25EE81FF8180817D
:1006F0000E94D201F101A489B589208931894289FA
:1007000053890E947E0D9B01AC0160E67AEE80E089
:1007100090E00E94860DCA01B9010E947A02FFEFA3
:100720004F1A5F0A6F0A7F0AF8018081F9818F0FE3
:10073000F8018083A4CF2A960FB6F894DEBF0FBECF
:10074000CDBFDF91CF911F910F91FF90EF90DF9080
:10075000CF90BF90AF909F908F907F906F905F9061
:100760004F903F902F9008958F929F92AF92BF929B
:10077000CF92DF92EF92FF92CF93DF93EC014A0189
:100780005B01C12CD12C7601C814D904EA04FB0406
:10079000D4F42C853D85032E000C440B550B60E0F2
:1007A000CE010E94F2022E853F85032E000C440BE1
:1007B000550B61E0CE010E94F2028FEFC81AD80AF1
:1007C000E80AF80AE1CFDF91CF91FF90EF90DF9038
:1007D000CF90BF90AF909F908F9008954F925F926F
:1007E0006F927F928F929F92AF92BF92CF92DF9241
:1007F000EF92FF920F931F93CF93DF9300D000D01F
:10080000CDB7DEB78C019A01AB01FC016589768911
:10081000072E000C880B990B29833A834B835C834A
:100820000E944A0F29813A814B815C810E946D10A0
:100830000E94120F6B017C01F80102811381812C4F
:10084000912C5401442455243201461A570A680A4F
:10085000790AD701C601F7FE02C0D301C20188168A
:100860009906AA06BB06C4F5F7FC03C081E090E038
:1008700002C08FEF9FEFF80144855585849F90015A
:10088000859F300D949F300D1124032E000C440BD6
:10089000550B60E0C8010E94F202F7FC03C08FEF25
:1008A0009FEF02C081E090E0F80146855785849F64
:1008B0009001859F300D949F300D1124032E000C64
:1008C000440B550B61E0C8010E94F202FFEF8F1A42
:1008D0009F0AAF0ABF0ABDCF0F900F900F900F90E5
:1008E000DF91CF911F910F91FF90EF90DF90CF900C
:1008F000BF90AF909F908F907F906F905F904F9040
:100900000895009769F0FC0101900020E9F7319704
:10091000AF01481B590BBC0183E192E00C94B2007B
:1009200080E090E008958F929F92AF92BF920F93D4
:100930001F93CF93DF93CDB7DEB7A1970FB6F8948F
:10094000DEBF0FBECDBF19A2423008F44AE08E01CF
:100950000F5D1F4F842E912CA12CB12CA501940169
:100960000E94860DE62FB901CA0101501109EA3033
:1009700014F4E05D01C0E95CD801EC93232B242B37
:10098000252B61F7C8010E948104A1960FB6F89447
:10099000DEBF0FBECDBFDF91CF911F910F91BF90F2
:1009A000AF909F908F900895CF92DF92EF92FF9239
:1009B000CF93DF936B017C01E0911302F09114025D
:1009C0000190F081E02D6DE283E192E00995EC0168
:1009D00066277727CB016C197D098E099F094AE0AC
:1009E0000E9493048C0F9D1FDF91CF91FF90EF9099
:1009F000DF90CF9008952F923F924F925F926F9227
:100A00007F928F929F92AF92BF92CF92DF92EF929E
:100A1000FF920F931F93CF93DF9300D000D0CDB7F9
:100A2000DEB77C01DC0114960D911C911597F8013D
:100A30003496FC83EB8368015801FAE0AF0EB11CD9
:100A40002B8129838C818A8395E0892E912CAB811F
:100A5000BC811D921C92160161E0F60180810E940A
:100A6000D2016AE070E080E090E00E947A0285E0C6
:100A7000682E712C8EE00E943E02AB81BC812D91CC
:100A80003C911197820F931F8D939C93B1E06B1A49
:100A9000710881F7EB81FC8144845584052C000C9E
:100AA00066087708B4010E946511CB01770FAA0B85
:100AB000BB0B9C01AD012419350946095709AFEF5D
:100AC000B0E00E94730D26813781032E000C440B89
:100AD000550B24193509460957090E94540DAB815D
:100AE000BC812D933D93BC83AB83BFEFCB1ADB0A54
:100AF00060E0F10180810E94D2018B819C818A1586
:100B00009B0509F0A4CF80E291E00E948104D80106
:100B100014966D917C911597072E000C880B990BFC
:100B200097FF03C00E94D40403C04AE00E949304CC
:100B300084E291E00E948104F80166817781072EAA
:100B4000000C880B990B97FF03C00E94D40403C0CC
:100B50004AE00E9493048CE291E00E948104D80153
:100B600018966D917C911997072E000C880B990BA4
:100B700097FF03C00E94D40403C04AE00E9493047C
:100B800084E391E00E948104F70123893489E9819B
:100B9000FA81D7011D9640E050E033270191119171
:100BA0008D919D91BC01620F731F601771075CF0FE
:100BB000821B930B71E060E0081719070CF470E0DA
:100BC000872F962F02C080E090E0480F591FEA154A
:100BD000FB0521F74330510531F482E0D701189627
:100BE0008C9381E000C00F900F900F900F90DF91D9
:100BF000CF911F910F91FF90EF90DF90CF90BF901A
:100C0000AF909F908F907F906F905F904F903F90AC
:100C10002F9008950E9493110F931F93CF93DF930A
:100C2000EC0160E08E810E94D20183E090E00197A8
:100C3000F1F761E08E810E94D20183E290E001979A
:100C4000F1F760E08E810E94D2018F8190E0FC017B
:100C5000EA51FF4F6491FC01EE52FF4FE491F0E046
:100C6000EE0FFF1FEC54FF4F8591949100E412E4C6
:100C70002FE030E0462F0E94BE0A61157105810504
:100C8000910539F0DC01CB010196A11DB11DBF70AA
:100C900003C080E090E0DC01BC01CD019695879512
:100CA000779567950E94480F2BE032ED4CE05DE3AD
:100CB0000E946D1020E030E040E85FE30E94B70D35
:100CC000DF91CF911F910F910895CF92DF92EF9214
:100CD000FF92CF93DF9300D000D0CDB7DEB76B018A
:100CE0007C010E949B0E9B01AC01C701B6012983C8
:100CF0003A834B835C830E94DA1029813A814B81CD
:100D00005C810F900F900F900F90DF91CF91FF902B
:100D1000EF90DF90CF900C94370E4F925F926F92CE
:100D20007F928F929F92AF92BF92CF92DF92EF927B
:100D3000FF920F931F93CF93DF93CDB7DEB72C971E
:100D40000FB6F894DEBF0FBECDBF2B013C01298743
:100D50003A874B875C87E982FA820B831C83C60142
:100D6000B50184010E94B70D6B017C010E949B0EAE
:100D70006D837E838F839887A3019201C301B201A3
:100D80000E946D104B015C0129813A814B815C818D
:100D9000CA01B9010E946D109B01AC01C501B401EB
:100DA0000E94B80D4B015C01A3019201C301B20185
:100DB0000E94B80D29813A814B815C810E946D109F
:100DC0002D813E814F8158850E946D109B01AC01A1
:100DD000C501B4010E94B80D0E94E810F8016083BB
:100DE000718382839383C701B6010E94DA106B017D
:100DF0007C012D813E814F81588569817A818B816B
:100E00009C810E946D109B01AC01C301B2010E9444
:100E1000B80D4B015C01A701960169817A818B8134
:100E20009C810E946D10A50194010E94370E9B01C8
:100E3000AC0169857A858B859C850E94B80DEF8D04
:100E4000F8A160837183828393832C960FB6F89404
:100E5000DEBF0FBECDBFDF91CF911F910F91FF90ED
:100E6000EF90DF90CF90BF90AF909F908F907F904A
:100E70006F905F904F9008957F928F929F92AF9264
:100E8000BF92CF92DF92EF92FF920F931F93CF9377
:100E9000DF93EC010E94460D22E030E040E050E09C
:100EA0000E94540D672B682B692B29F4CC24CA941B
:100EB000DC2C760104C0C12CD12C7601C3940E9495
:100EC000460D23E030E040E050E00E94540DA701C1
:100ED00096010E9455110E944A0F20E030E040E048
:100EE0005EE30E946D106B017C01AB01BC01CE0181
:100EF0000E94EE032BED3FE049EC50E4C701B60140
:100F00000E946D100E9465066FA378A789A79AA713
:100F1000CE010E940C066B017C0129853A854B8528
:100F20005C850E94960E18160CF120E030E0A901B5
:100F3000C701B6010E94601087FD18C0CE010E9453
:100F4000FB04782E8111A2C040E050E060E07EE317
:100F5000CE010E94EE032BED3FE049E45FE36FA179
:100F600078A589A59AA50E94B80DCCCF00E010E025
:100F7000EA81FB818489958997FD019695958795EE
:100F800008171907ECF4CE010E940C066B017C01D6
:100F900029853A854B855C850E94960E18160CF4BF
:100FA0006AC020E030E0A901C701B6010E946010CC
:100FB00087FD61C0CE010E94FB04782E81112EC0F6
:100FC0004E018FE1880E911CAFA0B8A4C9A4DAA489
:100FD000EA81FB8164897589C8010E946511072E29
:100FE000000C880B990B0E944A0F2F89388D498D70
:100FF0005A8D0E946D107B018C012BA13CA14DA14B
:101000005EA16F8D78A189A19AA1A396DF93CF935A
:101010000E948D060F900F90712C38C04E018FE109
:10102000880E911CAFA0B8A4C9A4DAA4EA81FB8100
:1010300064897589C8010E946511072E000C880B10
:10104000990B0E944A0F2F89388D498D5A8D0E9425
:101050006D107B018C012BA13CA14DA15EA16F8D78
:1010600078A189A19AA1A396DF93CF930E948D06C0
:101070000F900F900BC041E050E060E070E08A817B
:101080009B810E94B4030F5F1F4F72CF872DDF91AA
:10109000CF911F910F91FF90EF90DF90CF90BF9075
:1010A000AF909F908F907F9008952F923F924F9294
:1010B0005F926F927F928F929F92AF92BF92CF92E8
:1010C000DF92EF92FF920F931F93CF93DF93EC0188
:1010D00088858230D9F0833009F44BC0813009F023
:1010E000B5C0CE01DF91CF911F910F91FF90EF908E
:1010F000DF90CF90BF90AF909F908F907F906F9038
:101100005F904F903F902F900C943C078FA198A533
:10111000A9A5BAA5BC01CD0190582BED3FE049EC43
:1011200050E40E94A00EAB01BC01CE010E94EE0370
:101130000A811B81F80164897589072E000C880BD0
:10114000990B0E944A0F2F8D38A149A15AA10E94E4
:101150006D102F89388D498D5A8D0E94A00E0E94E6
:10116000120FAB01BC01C8010E94B40383E0888761
:101170006DC003E010E04BA05CA06DA07EA07E01DE
:10118000FBE2EF0EF11C38EC332E42E4242E1092D9
:10119000700061E083E00E94020260E083E00E9450
:1011A000D20181E08093B00089E08093B100309259
:1011B000B3002092B4008091B00080628093B000B0
:1011C00060E679E080E090E00E94B402C7010E94EE
:1011D000E70290E2C92ED12C812C912CA12C20E881
:1011E000B22ED501C40184219521A621B721892BD6
:1011F0008A2B8B2B51F08091B00080628093B000DD
:1012000060EB74E080E090E009C08091B000806203
:101210008093B00068E572E080E090E00E94B40244
:10122000C7010E94E702B694A79497948794E1E0DF
:10123000CE1AD108B1F664E670E080E090E00E943A
:101240007A020150110909F0A2CF1886DF91CF91DF
:101250001F910F91FF90EF90DF90CF90BF90AF90D4
:101260009F908F907F906F905F904F903F902F90C6
:1012700008951F920F920FB60F9211242F933F9350
:101280004F935F936F937F938F939F93AF93BF938E
:10129000EF93FF9383E192E00E941501FF91EF919C
:1012A000BF91AF919F918F917F916F915F914F917E
:1012B0003F912F910F900FBE0F901F9018951F9286
:1012C0000F920FB60F9211242F938F939F93EF934A
:1012D000FF93E0912302F09124028081E0912902A2
:1012E000F0912A0282FD12C0908180912C028F5FC2
:1012F0008F7320912D02821751F0E0912C02F0E0C3
:10130000ED5EFD4F958F80932C0201C08081FF918F
:10131000EF919F918F912F910F900FBE0F901F9083
:1013200018951F920F920FB60F9211242F933F938F
:101330008F939F93AF93BF9380910B0290910C0278
:10134000A0910D02B0910E0230910A0223E0230F0A
:101350002D3720F40196A11DB11D05C026E8230FED
:101360000296A11DB11D20930A0280930B02909357
:101370000C02A0930D02B0930E0280910F02909187
:101380001002A0911102B09112020196A11DB11D8F
:1013900080930F0290931002A0931102B093120257
:1013A000BF91AF919F918F913F912F910F900FBE61
:1013B0000F901F9018951F920F920FB60F92112445
:1013C0002F933F934F935F936F937F938F939F934D
:1013D000AF93BF93CF93DF93EF93FF9320913901A6
:1013E00030E0F901E650FF4F8491F901EA51FF4FD7
:1013F000D491F901EE52FF4FC491CC23A1F0811199
:101400000E94A901EC2FF0E0EE0FFF1FEC54FF4FFC
:10141000A591B491EC91ED2331E020E009F430E0A6
:10142000832F922F02C080E090E020913D01309107
:101430003E012F5F3F4F30933E0120933D012091AD
:101440003C01253618F026E0209338012091380120
:101450002430D9F128F4223069F02330D9F060C06B
:10146000253009F453C0263009F05AC021E02093FA
:10147000090253C0009709F053C020913D013091FB
:101480003E012436310508F443C01092090210923F
:101490003C011DC08130910509F042C0E0913C0142
:1014A00021E02E0F20933C01F0E020913D0130918E
:1014B0003E01EE0FFF1FE85CFE4F3087278310923E
:1014C0003E0110923D0124E029C00097B9F4E0915B
:1014D0003C0121E02E0F20933C01F0E020913D01E2
:1014E00030913E01EE0FFF1FE85CFE4F30872783EF
:1014F00010923E0110923D0123E010C020913D0169
:1015000030913E012536310558F007C0009741F46F
:1015100010923E0110923D0103C025E02093380156
:1015200020913B012223B9F0892B51F480913A019B
:10153000882321F080913A0161E009C02D9A0BC007
:1015400080913A01882331F080913A0160E00E9455
:10155000D20101C02D98FF91EF91DF91CF91BF9102
:10156000AF919F918F917F916F915F914F913F913B
:101570002F910F900FBE0F901F901895CF92DF9272
:10158000EF92FF920F931F93E82FF92F05C00150A0
:1015900011092109310961F1908196239417B9F35A
:1015A00005C0015011092109310911F190819623DB
:1015B0009413F7CFC12CD12CE12CF12C0AC08FEF62
:1015C000C81AD80AE80AF80A0C151D052E053F05A9
:1015D00079F080818623841791F36C2D7D2D8E2DDB
:1015E0009F2D1F910F91FF90EF90DF90CF90089566
:1015F00060E070E080E090E01F910F91FF90EF902D
:10160000DF90CF900895EF92FF920F931F93CF93A7
:10161000DF93109216021092150288EE93E0A0E07C
:10162000B0E08093170290931802A0931902B09330
:101630001A0288E091E0909314028093130285ECE3
:1016400090E09093200280931F0284EC90E09093AE
:1016500022028093210280EC90E0909324028093F8
:10166000230281EC90E0909326028093250282EC85
:1016700090E0909328028093270286EC90E090936C
:101680002A028093290210922C0210922D021092AD
:101690002E0210922F0289E190E0A0E0B0E080934A
:1016A000020390930303A0930403B09305038AE01D
:1016B0008093F2028BE08093F30282E08093F60243
:1016C00098E09093F80299E09093F9028093FC02DD
:1016D0001092FD021092F70280E390E090930703CE
:1016E0008093060381E090E09093FF028093FE02D6
:1016F0009093010380930003C2EFD2E08091F60241
:1017000090E09E01225F3240281739072CF461E0F7
:1017100089910E940202F2CFC0E0D0E08091FC02E9
:1017200090E0C817D9074CF4FE01E850FD4F61E086
:1017300080810E9402022196F1CF85E08093DC0235
:1017400086E08093DD0287E08093DE028EE0809366
:10175000DF020CED12E0C6EED2E0EE24EA9483E064
:10176000F82E61E0F80181918F010E940202E99256
:10177000F9921D821C82F2E0CC3EDF0791F788E1EE
:1017800091E09093B1028093B00282EF92E0909347
:10179000B3028093B2028CED92E09093B5028093F5
:1017A000B4028CE08093B6028DE08093B70280E0B3
:1017B00090E0A0EAB0E48093B9029093BA02A093BB
:1017C000BB02B093BC0282E090E09093C40280938D
:1017D000C30284EE9BECA6E9B1E48093C702909328
:1017E000C802A093C902B093CA0280EE9DEEAFE298
:1017F000B2E48093CB029093CC02A093CD02B0933D
:10180000CE0261E08CE00E94020260E08DE00E9466
:1018100002028EEB90E09093BE028093BD02909303
:10182000C0028093BF0282EB90E09093C20280934B
:10183000C1026091060370910703072E000C880B0C
:10184000990B0E944A0F2091CB023091CC0240911B
:10185000CD025091CE020E946D102091C7023091AE
:10186000C8024091C9025091CA020E94A00E0E9473
:10187000120F7093C6026093C5021092D3021092A9
:10188000D4021092D5021092D6021092CF0210927A
:10189000D0021092D1021092D20282E10E943E0246
:1018A000BC01990F880B990B611571058105910594
:1018B00011F00E944B0D8EE191E09093B102809364
:1018C000B0021092B802DF91CF911F910F91FF905B
:1018D000EF900895789484B5826084BD84B581606A
:1018E00084BD85B5826085BD85B5816085BD8091EB
:1018F0006E00816080936E00109281008091810063
:10190000826080938100809181008160809381005A
:10191000809180008160809380008091B10084601C
:101920008093B1008091B00081608093B00080917D
:101930007A00846080937A0080917A00826080933C
:101940007A0080917A00816080937A0080917A0099
:10195000806880937A001092C10081E08093B80281
:10196000E0912302F091240282E08083E0911F0243
:10197000F09120021082E0912102F09122028FEC7E
:10198000808310922B02E0912702F091280286E0DA
:101990008083E0912502F09126028081806180831E
:1019A000E0912502F0912602808188608083E09199
:1019B0002502F0912602808180688083E0912502D3
:1019C000F091260280818F7D808380EB92E00E94DF
:1019D0003C076091B80270E080E090E04AE00E942D
:1019E000930484E391E00E9481040E949F01EDCF63
:1019F0008F929F92AF92BF92CF92DF92EF92FF921F
:101A0000CF93DF93EC01688179818A819B81611595
:101A100071058105910521F464E279ED8BE597E08C
:101A20002DE133EF41E050E00E94540D49015A018D
:101A30009B01AC01A7EAB1E40E94730D6B017C012C
:101A4000ACEEB4EFA50194010E94810DDC01CB0145
:101A50008C0D9D1DAE1DBF1DB7FF03C00197A109D1
:101A6000B04888839983AA83BB83BC01CD019F774B
:101A7000DF91CF91FF90EF90DF90CF90BF90AF902C
:101A80009F908F9008950E94F80C089580E091E057
:101A90000E94F80C089560930001709301018093F7
:101AA0000201909303010895052E97FB1EF4009404
:101AB0000E946B0D57FD07D00E94860D07FC03D0D6
:101AC0004EF40C946B0D50954095309521953F4FF9
:101AD0004F4F5F4F089590958095709561957F4F1A
:101AE0008F4F9F4F08950E94A80DA59F900DB49F02
:101AF000900DA49F800D911D11240895B7FF0C94A3
:101B0000730D0E94730D821B930B0895A1E21A2E90
:101B1000AA1BBB1BFD010DC0AA1FBB1FEE1FFF1F91
:101B2000A217B307E407F50720F0A21BB30BE40BE1
:101B3000F50B661F771F881F991F1A9469F7609528
:101B40007095809590959B01AC01BD01CF010895E2
:101B5000A29FB001B39FC001A39F700D811D1124EE
:101B6000911DB29F700D811D1124911D0895505833
:101B7000BB27AA270E94CF0D0C9412100E94D90FE8
:101B800038F00E94E00F20F039F49F3F19F426F45A
:101B90000C94AF0F0EF4E095E7FB0C94A90FE92F1E
:101BA0000E94371058F3BA17620773078407950726
:101BB00020F079F4A6F50C9459100EF4E0950B2E54
:101BC000BA2FA02D0B01B90190010C01CA01A0018F
:101BD0001124FF27591B99F0593F50F4503E68F1EA
:101BE0001A16F040A22F232F342F4427585FF3CF2B
:101BF000469537952795A795F0405395C9F77EF4FC
:101C00001F16BA0B620B730B840BBAF09150A1F044
:101C1000FF0FBB1F661F771F881FC2F70EC0BA0FCA
:101C2000621F731F841F48F4879577956795B79552
:101C3000F7959E3F08F0B0CF9395880F08F099274D
:101C4000EE0F9795879508950E94D90F60F080E870
:101C500091E009F49EEF0E94E00F28F040E851E087
:101C600071F45EEF0CC00C94AF0F0C945910E92F77
:101C7000E0780E94371040F3092E052AB1F32617A9
:101C800037074807590738F00E2E07F8E02569F0A6
:101C9000E025E0640AC0EF6307F8009407FADB016F
:101CA000B9019D01DC01CA01AD01EF930E94B70E9D
:101CB0000E9412100E94670E5F91552339F02BEDA0
:101CC0003FE049E450FD49EC0C94B80D0895DF93D2
:101CD000DD27B92FBF7740E85FE3161617064807E0
:101CE0005B0718F4D92F0E9465109F938F937F9301
:101CF0006F930E942811E8E6F0E00E94B20F0E9464
:101D000012102F913F914F915F910E948010DD231F
:101D100051F09058A2EA2AED3FE049EC5FE3D07819
:101D20005D270E94CF0DDF910C9412100E94850F49
:101D300008F481E008950E94E90FE3950C942310C4
:101D40000E94B40E0C9412100E94E00F58F00E94F2
:101D5000D90F40F029F45F3F29F00C94A90F5111DD
:101D60000C945A100C94AF0F0E94371068F399230B
:101D7000B1F3552391F3951B550BBB27AA27621787
:101D80007307840738F09F5F5F4F220F331F441F94
:101D9000AA1FA9F335D00E2E3AF0E0E832D09150C8
:101DA0005040E695001CCAF72BD0FE2F29D0660FB5
:101DB000771F881FBB1F261737074807AB07B0E8F8
:101DC00009F0BB0B802DBF01FF2793585F4F3AF0FE
:101DD0009E3F510578F00C94A90F0C945A105F3F68
:101DE000E4F3983ED4F3869577956795B795F79584
:101DF0009F5FC9F7880F911D9695879597F908956C
:101E0000E1E0660F771F881FBB1F62177307840707
:101E1000BA0720F0621B730B840BBA0BEE1F88F716
:101E2000E09508950E94190F6894B1110C945A100E
:101E300008950E943F1088F09F5798F0B92F992776
:101E4000B751B0F0E1F0660F771F881F991F1AF0A5
:101E5000BA95C9F714C0B13091F00E945910B1E0A1
:101E600008950C945910672F782F8827B85F39F0A0
:101E7000B93FCCF3869577956795B395D9F73EF43E
:101E800090958095709561957F4F8F4F9F4F0895E6
:101E9000E89409C097FB3EF4909580957095619504
:101EA0007F4F8F4F9F4F9923A9F0F92F96E9BB27BA
:101EB0009395F695879577956795B795F111F8CF36
:101EC000FAF4BB0F11F460FF1BC06F5F7F4F8F4FA1
:101ED0009F4F16C0882311F096E911C0772321F097
:101EE0009EE8872F762F05C0662371F096E8862F2F
:101EF00070E060E02AF09A95660F771F881FDAF786
:101F0000880F9695879597F90895990F0008550FB2
:101F1000AA0BE0E8FEEF16161706E807F907C0F06F
:101F200012161306E407F50798F0621B730B840B77
:101F3000950B39F40A2661F0232B242B252B21F451
:101F400008950A2609F4A140A6958FEF811D811DF1
:101F5000089597F99F6780E870E060E008959FEF2B
:101F600080EC0895DF93CF931F930F93FF92EF922E
:101F7000DF927B018C01689406C0DA2EEF010E948B
:101F80008010FE01E894A5912591359145915591D8
:101F9000A6F3EF010E94CF0DFE019701A801DA948C
:101FA00069F7DF90EF90FF900F911F91CF91DF9134
:101FB000089500240A9416161706180609060895AF
:101FC00000240A94121613061406050608950C94AC
:101FD000AF0F0E943F10D8F3E894E0E0BB279F5773
:101FE000F0F02AED3FE049EC06C0EE0FBB0F661F94
:101FF000771F881F28F0B23A62077307840728F01A
:10200000B25A620B730B840BE3959A9572F7803882
:1020100030F49A95BB0F661F771F881FD2F7904840
:102020000C942E11092E0394000C11F4882352F005
:10203000BB0F40F4BF2B11F460FF04C06F5F7F4FF4
:102040008F4F9F4F0895EF93E0FF07C0A2EA2AED5C
:102050003FE049EC5FEB0E94CF0D0E9412100F9001
:10206000039401FC9058E5E9F0E00C94411157FD10
:102070009058440F551F59F05F3F71F04795880FF6
:1020800097FB991F61F09F3F79F08795089512168D
:1020900013061406551FF2CF4695F1DF08C0161639
:1020A00017061806991FF1CF8695710561050894EA
:1020B0000895E894BB2766277727CB0197F9089501
:1020C0000E94850F08F48FEF08959B01AC0160E03A
:1020D00070E080E89FE30C94A00E0E9480100C94A6
:1020E00012100E94D90F38F00E94E00F20F09523C3
:1020F00011F00C94A90F0C94AF0F11240C945A10EA
:102100000E94371070F3959FC1F3950F50E0551F53
:10211000629FF001729FBB27F00DB11D639FAA273C
:10212000F00DB11DAA1F649F6627B00DA11D661F8B
:10213000829F2227B00DA11D621F739FB00DA11DAC
:10214000621F839FA00D611D221F749F3327A00D66
:10215000611D231F849F600D211D822F762F6A2F02
:1021600011249F5750409AF0F1F088234AF0EE0F67
:10217000FF1FBB1F661F771F881F91505040A9F794
:102180009E3F510580F00C94A90F0C945A105F3FAC
:10219000E4F3983ED4F3869577956795B795F795D0
:1021A000E7959F5FC1F7FE2B880F911D9695879548
:1021B00097F908959F930E94E90F0F9007FCEE5F37
:1021C0000C94231019F416F40C94AF0F0C942C11EA
:1021D0000E943F10B8F39923C9F3B6F39F57550BEC
:1021E00087FF0E943A110024A0E640EA900180583F
:1021F0005695979528F4805C660F771F881F20F00E
:1022000026173707480730F4621B730B840B20290D
:1022100031294A2BA69517940794202531254A2762
:1022200058F7660F771F881F20F0261737074807D3
:1022300030F4620B730B840B200D311D411DA095F2
:1022400081F7B901842F9158880F96958795089545
:102250009B01AC010C946D109F3F31F0915020F424
:10226000879577956795B795880F911D9695879572
:1022700097F9089591505040660F771F881FD2F745
:1022800008959F938F937F936F93FF93EF939B0199
:10229000AC010E946D10EF91FF910E94B20F2F913F
:1022A0003F914F915F910C946D10DB018F939F9341
:1022B0000E94730DBF91AF91A29F800D911DA39FAE
:1022C000900DB29F900D1124089597FB072E16F4E0
:1022D000009407D077FD09D00E94791107FC05D042
:1022E0003EF4909581959F4F0895709561957F4F2D
:1022F0000895AA1BBB1B51E107C0AA1FBB1FA6174D
:10230000B70710F0A61BB70B881F991F5A95A9F79E
:1023100080959095BC01CD010895EE0FFF1F0590AB
:10232000F491E02D099481E090E0F8940C949811D8
:04233000F894FFCF4F
:1023340001000000000000003601B200FF00DD00D3
:10234400F1007D01000000000A06000000005508AD
:10235400723A200020202020673A200020202020EC
:08236400623A20000D0A00009E
:00000001FF
