:100000000C94B6000C94DE000C94DE000C94DE0020
:100010000C94DE000C94DE000C94DE000C94A3071C
:100020000C94DE000C94DE000C94DE000C94DE00D8
:100030000C94DE000C94DE000C94DE000C94DE00C8
:100040000C9426070C94DE000C94FF020C94D90249
:100050000C94DE000C94DE000C94DE000C94DE00A8
:100060000C94DE000C94DE009912A812C712DA126A
:10007000F512FB12051356136113A613A613A6134C
:10008000A613A613A6139913084AD73B3BCE016EBD
:1000900084BCBFFDC12F3D6C74319ABD56833DDADF
:1000A0003D00C77F11BED9E4BB4C3E916BAAAABEEE
:1000B000000000803F05A84CCDB2D44EB93836A917
:1000C000020C50B9918688083CA6AAAA2ABE000054
:1000D00000803F004E414E494E495459494E46CD4D
:1000E000CCCC3D0AD7233C17B7D13877CC2B3295EF
:1000F00095E6241FB14F0A000020410000C84200CD
:10010000401C4620BCBE4CCA1B0E5AAEC59D740096
:100110000000002300260029000404040404040451
:1001200004020202020202030303030303010204A6
:100130000810204080010204081020010204081069
:100140002000000008000201000003040700000076
:10015000000000000000000000240027002A00002A
:10016000000000250028002B0000DF1311241FBE13
:10017000CFEFD8E0DEBFCDBF12E0A0E0B1E0E4E514
:10018000FCE302C005900D92A233B107D9F727E036
:10019000A2E3B2E001C01D92A133B207E1F710E083
:1001A000C6EBD0E004C02197FE010E94D41BC53BE2
:1001B000D107C9F70E94DA100C94281E0C94000095
:1001C000CF92DF92EF92FF920F931F93CF93DF9323
:1001D0006C017A018B01C0E0D0E0CE15DF0589F01B
:1001E000D8016D918D01D601ED91FC910190F081C6
:1001F000E02DC6010995892B11F47E0102C02196DC
:10020000ECCFC701DF91CF911F910F91FF90EF903D
:10021000DF90CF900895FC01918D828D981761F049
:10022000828DDF01A80FB11D5D968C91928D9F5F2D
:100230009F73928F90E008958FEF9FEF0895FC01D8
:10024000918D828D981731F0828DE80FF11D858D8B
:1002500090E008958FEF9FEF0895FC01918D228D1E
:10026000892F90E0805C9F4F821B91098F739927A3
:1002700008958DE093E00E942D0121E0892B09F47F
:1002800020E0822F0895FC01848DDF01A80FB11DAD
:10029000A35ABF4F2C91848D90E001968F739927BC
:1002A000848FA689B7892C93A089B1898C918064A9
:1002B0008C93938D848D981306C00288F389E02D6A
:1002C00080818F7D80830895EF92FF920F931F931B
:1002D000CF93DF93EC0181E0888F9B8D8C8D9813F9
:1002E00005C0E889F989808185FD24C0F62E0B8D33
:1002F00010E00F5F1F4F0F731127E02E8C8DE81257
:100300000CC00FB607FCFACFE889F989808185FF18
:10031000F5CFCE010E944301F1CF8B8DFE01E80F96
:10032000F11DE35AFF4FF0820B8FEA89FB89808130
:10033000806207C0EE89FF896083E889F98980813E
:100340008064808381E090E0DF91CF911F910F91D5
:10035000FF90EF900895CF93DF93EC01888D882371
:10036000C9F0EA89FB89808185FD05C0A889B98922
:100370008C9186FD0FC00FB607FCF5CF808185FFFD
:10038000F2CFA889B9898C9185FFEDCFCE010E946B
:100390004301E7CFDF91CF91089580E090E0892B72
:1003A00029F00E94390181110C94000008950E94E7
:1003B000E51DAF92BF92CF92DF92EF92FF920F9323
:1003C0001F93CF93DF93DC01CD90DC901197C11484
:1003D000D10409F442C01496CD91DC911597209771
:1003E000E1F18C0156017501BFEFAB1ABB0AF701B1
:1003F0008081082E000C990B0E944F17892B99F7CA
:100400002197CC0DDD1D8881082E000C990B0E94D0
:100410004F17892B91F4AE014F5F5F4F4E195F0963
:10042000D80115965C934E931497CE14DF0450F4C4
:10043000B701C6010E94F21D05C0CE15DF0558F3B5
:100440002197E1CFD801ED91FC91119714968D91F0
:100450009C911597E80FF91F1082DF91CF911F91A2
:100460000F91FF90EF90DF90CF90BF90AF900895E5
:10047000FB0144815581FC01248135812417350716
:1004800078F080819181009759F0FB016081718142
:100490006115710529F00E940B1E21E0892B09F0DE
:1004A00020E0822F0895FC0124813581232B31F433
:1004B00021E061157105A1F0FB0108C0FC018081FC
:1004C00091816115710531F421E0FC01808188235F
:1004D00039F005C00E94FB1D21E0892B09F020E0C6
:1004E000822F08950F931F93CF93DF93EC018881A0
:1004F0009981009729F02A813B812617370788F4D4
:100500008B016F5F7F4F0E941B1D009761F09983E5
:1005100088831B830A832C813D81232B11F4FC01EA
:10052000108281E001C080E0DF91CF911F910F9197
:100530000895EF92FF920F931F93CF93DF93EC01F7
:10054000198218821B821A821D821C826115710514
:1005500049F18B01FB0101900020E9F731977F0100
:10056000E61AF70AB7010E947202288139818111C7
:100570000DC02115310519F0C9010E94831C198293
:1005800018821D821C821B821A820CC0FD82EC82A2
:10059000B801C901DF91CF911F910F91FF90EF90AA
:1005A0000C94041EDF91CF911F910F91FF90EF905B
:1005B00008951F920F920FB60F9211242F933F931D
:1005C0004F935F936F937F938F939F93AF93BF935B
:1005D000EF93FF938DE093E00E944301FF91EF9131
:1005E000BF91AF919F918F917F916F915F914F914B
:1005F0003F912F910F900FBE0F901F9018951F9253
:100600000F920FB60F9211242F938F939F93EF9316
:10061000FF93E0911D03F0911E038081E09123037D
:10062000F091240382FD12C09081809126038F5F98
:100630008F7320912703821751F0E0912603F0E099
:10064000E35FFC4F958F8093260301C08081FF916B
:10065000EF919F918F912F910F900FBE0F901F9050
:100660001895CF93DF93282F30E0F901EF5BFE4F11
:100670008491F901E35DFE4FD491F901E75EFE4FED
:10068000C491CC2391F081110E942E04EC2FF0E054
:10069000EE0FFF1FE15FFE4FA591B491EC91ED23AA
:1006A00081E090E021F480E002C080E090E0DF9102
:1006B000CF9108953FB7F894809105039091060378
:1006C000A0910703B091080326B5A89B05C02F3F52
:1006D00019F00196A11DB11D3FBFBA2FA92F982F68
:1006E0008827820F911DA11DB11DBC01CD0142E0E3
:1006F000660F771F881F991F4A95D1F708954F926B
:100700005F926F927F928F929F92AF92BF92CF92A1
:10071000DF92EF92FF920F931F93CF93DF93CDB7AA
:10072000DEB72C970FB6F894DEBF0FBECDBF2B01FE
:100730003C0129873A874B875C87E982FA820B83E1
:100740001C83C601B50184010E9431196B017C0133
:100750000E94101A6D837E838F839887A301920174
:10076000C301B2010E94D6174B015C0129813A8175
:100770004B815C81CA01B9010E94D6179B01AC0173
:10078000C501B4010E9432194B015C01A301920121
:10079000C301B2010E94321929813A814B815C81E7
:1007A0000E94D6172D813E814F8158850E94D61711
:1007B0009B01AC01C501B4010E9432190E943E1B8D
:1007C000F8016083718382839383C701B6010E941D
:1007D000301B6B017C012D813E814F8158856981E1
:1007E0007A818B819C810E94D6179B01AC01C30149
:1007F000B2010E9432194B015C01A7019601698187
:100800007A818B819C810E94D617A50194010E9458
:10081000B1199B01AC0169857A858B859C850E9405
:100820003219EF8DF8A160837183828393832C96B4
:100830000FB6F894DEBF0FBECDBFDF91CF911F91F1
:100840000F91FF90EF90DF90CF90BF90AF909F906F
:100850008F907F906F905F904F900895833081F0DC
:1008600028F4813099F08230A1F008958730A9F002
:100870008830B9F08430D1F4809180008F7D03C03E
:10088000809180008F7780938000089584B58F7762
:1008900002C084B58F7D84BD08958091B0008F77AC
:1008A00003C08091B0008F7D8093B00008951F93A6
:1008B000CF93DF93282F30E0F901EF5BFE4F849157
:1008C000F901E35DFE4FD491F901E75EFE4FC4915B
:1008D000CC23C9F0162F81110E942E04EC2FF0E0DA
:1008E000EE0FFF1FE15AFE4FA591B4918FB7F89418
:1008F000111105C09C91ED2FE095E92302C0EC9108
:10090000ED2BEC938FBFDF91CF911F910895CF9383
:10091000DF9390E0FC01E35DFE4F2491FC01E75E74
:10092000FE4F8491882361F190E0880F991FFC01AC
:10093000EB5AFE4FC591D491FC01E15AFE4FA591AF
:10094000B491611109C09FB7F894888120958223E2
:100950008883EC912E230BC0623061F49FB7F8942A
:100960003881822F809583238883EC912E2B2C93C2
:100970009FBF06C08FB7F894E8812E2B28838FBFC6
:10098000DF91CF9108958E3008F08E50877080648B
:1009900080937C0080917A00806480937A008091BB
:1009A0007A0086FDFCCF809178002091790090E05C
:1009B000922B08958F929F92AF92BF92CF92DF9227
:1009C000EF92FF926B017C010E945A034B015C0184
:1009D000C114D104E104F104F1F00E945A03DC01D6
:1009E000CB0188199909AA09BB09883E9340A10542
:1009F000B10570F321E0C21AD108E108F10888EED0
:100A0000880E83E0981EA11CB11CC114D104E1041E
:100A1000F10419F7DDCFFF90EF90DF90CF90BF90FA
:100A2000AF909F908F9008952F923F924F925F9238
:100A30006F927F928F929F92AF92BF92CF92DF92EE
:100A4000EF92FF920F931F93CF93DF93CDB7DEB753
:100A50002F970FB6F894DEBF0FBECDBF9F878E874E
:100A600069017A01262E312CFC0127E0629FE00DFE
:100A7000F11D11248285843118F461E00E9457042D
:100A8000F7FE0BC0F094E094D094C094C11CD11C2C
:100A9000E11CF11C3FEF398302C041E04983812C06
:100AA000912C540127E0229DC001239D900D11241B
:100AB000EE85FF858E0F9F1F8C01075F1F4FAC01D6
:100AC0004B5F5F4F5C834B83FC013496FE83ED8369
:100AD0004D5F5F4F58874F83B1016F5F7F4F269FF8
:100AE000A001279F500D1124EE85FF85E40FF51F0F
:100AF000FA87E9879C012A5F3F4F3C872B8780E676
:100B0000482E8AEE582E612C712C8C149D04AE0454
:100B1000BF0409F45BC0F8019081943021F09F3F3D
:100B200019F493E001C090E0F801908391FF02C0B6
:100B300081E0982791FB662760F9EB81FC81808139
:100B40009D870E9457049D85292F21702A83622F3B
:100B5000ED81FE8180810E945704EF81F8858081BC
:100B60009D85843099F421E091FB662760F9622726
:100B7000E985FA8580812D870E9457042D856A8139
:100B80006227EB85FC8580810E945704EE85FF85F6
:100B9000A689B78920813181428153810E94C11881
:100BA0009B01AC01C301B2010E940019CA01B90145
:100BB0000E94DA04FFEF8F1A9F0AAF0ABF0AF801FA
:100BC0008081F9818F0FF80180839FCF27E0229DDC
:100BD000C001239D900D11242E853F85820F931F08
:100BE000FC0182858431D8F460E02F960FB6F8942A
:100BF000DEBF0FBECDBFDF91CF911F910F91FF9050
:100C0000EF90DF90CF90BF90AF909F908F907F90AC
:100C10006F905F904F903F902F900C9457042F96B9
:100C20000FB6F894DEBF0FBECDBFDF91CF911F91FD
:100C30000F91FF90EF90DF90CF90BF90AF909F907B
:100C40008F907F906F905F904F903F902F9008957E
:100C50004F925F926F927F928F929F92AF92BF92CC
:100C6000CF92DF92EF92FF92CF93DF93EC016A0174
:100C70007B01812C912C5401442455243201441AC7
:100C8000550A660A770AD701C601F7FE02C0D301EA
:100C9000C20188169906AA06BB06B4F5F7FC03C084
:100CA00081E090E002C08FEF9FEF4A895B89849FCB
:100CB0009001859F300D949F300D1124032E000C60
:100CC000440B550B60E0CE010E941405F7FC03C0F5
:100CD00081E090E002C08FEF9FEF4C895D89849F97
:100CE0009001859F300D949F300D1124032E000C30
:100CF000440B550B61E0CE010E9414058FEF881A5A
:100D0000980AA80AB80ABFCFDF91CF91FF90EF9061
:100D1000DF90CF90BF90AF909F908F907F906F901B
:100D20005F904F9008954F925F926F927F928F9253
:100D30009F92AF92BF92CF92DF92EF92FF920F936A
:100D40001F93CF93DF9300D000D0CDB7DEB78C01D7
:100D50009A01AB01FC0161897289072E000C880B96
:100D6000990B29833A834B835C830E9477172981EF
:100D70003A814B815C810E94D6170E94871A6B01D1
:100D80007C01F80102811381812C912C54014424AF
:100D900055243201461A570A680A790AD701C60152
:100DA000F7FE02C0D301C20188169906AA06BB0647
:100DB000C4F5F7FC03C081E090E002C08FEF9FEF25
:100DC000F80142895389849F9001859F300D949F3B
:100DD000300D1124032E000C440B550B60E0C801AC
:100DE0000E941405F7FC03C08FEF9FEF02C081E063
:100DF00090E0F80144895589849F9001859F300DCA
:100E0000949F300D1124032E000C440B550B61E010
:100E1000C8010E941405FFEF8F1A9F0AAF0ABF0A8C
:100E2000BDCF0F900F900F900F90DF91CF911F913A
:100E30000F91FF90EF90DF90CF90BF90AF909F9079
:100E40008F907F906F905F904F9008951F920F92B8
:100E50000FB60F9211242F933F938F939F93AF93CD
:100E6000BF938091090390910A03A0910B03B09165
:100E70000C033091040323E0230F2D3720F4019657
:100E8000A11DB11D05C026E8230F0296A11DB11DAD
:100E9000209304038093090390930A03A0930B0308
:100EA000B0930C038091050390910603A091070372
:100EB000B09108030196A11DB11D80930503909385
:100EC0000603A0930703B0930803BF91AF919F91CE
:100ED0008F913F912F910F900FBE0F901F901895FB
:100EE0008F929F92AF92BF92CF92DF92EF92FF923A
:100EF0006B017C010E945A034B015C0184E0C81A1B
:100F0000D108E108F108C80CD91CEA1CFB1CC81464
:100F1000D904EA04FB0438F40E945A0386169706A3
:100F2000A806B906C8F30E945A036C157D058E0504
:100F30009F05C8F3FF90EF90DF90CF90BF90AF90E8
:100F40009F908F9008951F920F920FB60F921124C9
:100F50002F933F934F935F936F937F938F939F93C1
:100F6000AF93BF93EF93FF93809133020E943103BD
:100F700020913702309138022F5F3F4F3093380273
:100F80002093370290913602953618F096E09093B0
:100F90003202909132029430C9F128F4923069F013
:100FA0009330D1F05EC0953009F451C0963009F00D
:100FB00058C091E09093030351C0811152C0209119
:100FC0003702309138022436310508F442C01092BD
:100FD0000303109236021CC0813009F042C0E09138
:100FE000360291E09E0F90933602F0E02091370296
:100FF00030913802EE0FFF1FEE5CFD4F30872783E4
:10100000109238021092370294E029C0811117C063
:10101000E091360291E09E0F90933602F0E020912D
:10102000370230913802EE0FFF1FEE5CFD4F308724
:101030002783109238021092370293E010C020915B
:101040003702309138022536310558F007C081113A
:1010500008C0109238021092370203C095E09093B6
:101060003202909135029923B9F081110AC0809122
:101070003402882321F08091340261E009C02D9A66
:101080000BC080913402882331F08091340260E0FB
:101090000E94570401C02D98FF91EF91BF91AF912D
:1010A0009F918F917F916F915F914F913F912F9180
:1010B0000F900FBE0F901F9018950F931F93CF9313
:1010C000DF93EC0160E08E810E94570483E090E0A2
:1010D0000197F1F761E08E810E94570483E290E06E
:1010E0000197F1F760E08E810E9457042F8130E074
:1010F000F901E35DFE4F6491F901E75EFE4FE49173
:10110000F0E0EE0FFF1FE15FFE4F8591949100E448
:1011100012E42FE030E0462F0E9495106115710512
:101120008105910539F0DC01CB010196A11DB11DAE
:10113000BF7003C080E090E0DC01BC01CD0196955A
:101140008795779567950E9475172BE032ED4CE0F7
:101150005DE30E94D61720E030E040E85FE30E94A4
:1011600031192F89388D498D5A8D0E94D617DF91FC
:10117000CF911F910F9108954F925F926F927F923E
:101180008F929F92AF92BF92CF92DF92EF92FF9297
:101190000F931F93CF93DF93EC0124968C017C0176
:1011A0002AE0E20EF11C4E0195E0A92EB12C198225
:1011B0001882680161E0F80180810E9457046AE0AA
:1011C00070E080E090E00E94DA0485E0682E712CE7
:1011D0008EE00E94C30428813981820F931F998376
:1011E0008883F1E06F1A710899F74C845D84052CAF
:1011F000000C66087708B5010E94C01BCB01770F71
:10120000AA0BBB0B9C01AD012419350946095709EE
:10121000AFEFB0E00E94B6182E813F81032E000C84
:10122000440B550B24193509460957090E94971894
:10123000299339930F5F1F4F60E0F60180810E9470
:101240005704CE15DF0509F0B2CFC401DF91CF916D
:101250001F910F91FF90EF90DF90CF90BF90AF90D4
:101260009F908F907F906F905F904F9008954F92D6
:101270005F926F927F92AF92BF92CF92DF92EF9286
:10128000FF920F931F93CF93DF938C01FC01848116
:1012900095810E94BC08F801C785D0897C0168014E
:1012A000F9E0CF0ED11C5C0186E0A80EB11C412CE8
:1012B000512C3201F701819191917F01F601219129
:1012C00031916F01821B930B889FB001899F700D34
:1012D000700D1124072E000C880B990B0E947717B4
:1012E0009B01AC01C301B2010E9432192B013C01E8
:1012F000EA14FB04F9F60E943E1B6B017C01AE016F
:101300005527BA01550F880B990B0E9477179B013F
:10131000AC01C701B6010E94701787FF05C082E0CB
:10132000F801808781E001C080E0DF91CF911F91BB
:101330000F91FF90EF90DF90CF90BF90AF907F9094
:101340006F905F904F9008952F923F924F925F92CF
:101350006F927F928F929F92AF92BF92CF92DF92C5
:10136000EF92FF920F931F93CF93DF93CDB7DEB72A
:10137000A8970FB6F894DEBF0FBECDBF1C01DC01ED
:1013800018968C91813009F1A8F0823009F407C4D5
:10139000833009F0A8C403E010E0D1015F964D90BE
:1013A0005D906D907C9092977101BFEAEB1ABCEF53
:1013B000FB0A36C4F101EE5AFC4F80810E943103D2
:1013C000892B09F090C481E028C428E030E03A87F6
:1013D0002987C101815B9C4F9AA389A3D1019F9664
:1013E000BCA3ABA30E94A41522E030E040E050E093
:1013F0000E949718672B682B692B29F4CC24CA9478
:10140000DC2C760104C0C12CD12C7601C3940E943F
:10141000A41523E030E040E050E00E949718A701B7
:1014200096010E94B01B0E94771720E030E040E058
:101430005EE30E94D6176C8F7D8F8E8F9F8F2BED72
:101440003FE049EC50E40E94D6176F87788B898B78
:101450009A8BF101278D30A141A152A1638D748D2A
:10146000858D968DA1E0B0E0AC0FBD1FBF93AF930B
:10147000FE0135964F01AF84B888C988DA88E12C1F
:10148000F12C87010E947F0389809A80AB80BC8009
:10149000CD80DE80EF80F884C501B4010E94101A6F
:1014A0009B01AC01C701B6010E94D6176B8B7C8BE8
:1014B0008D8B9E8B6D837E838F839887C501B4014E
:1014C0000E94301B9B01AC01C701B6010E94D617D8
:1014D0006F8B788F898F9A8F69837A838B839C83B4
:1014E000A9A1BAA1BC91B8A30BA11CA10F900F9008
:1014F000E1E0EB8F2B8D38A1231738F14C8D5D8DFA
:101500006E8D7F8DC1010E9493066F8578898989D0
:101510009A890E94101A9B01AC016F85788989898C
:101520009A892DA33EA34FA358A70E94301B2DA13B
:101530003EA14FA158A50E94B119D10193966D9378
:101540007D938D939C93969751C1D8018D919D91D8
:101550000D90BC91A02D8B879C87AD87BE879C0189
:10156000AD016B897C898D899E890E9431194B015F
:101570005C01F8014084518462847384A301920168
:101580006B897C898D899E890E9431196B017C0150
:1015900020E030E0A901C501B4010E94231B181608
:1015A00024F0B7FAB094B7F8B09420E030E0A90185
:1015B000C701B6010E94231B181624F0F7FAF09415
:1015C000F7F8F094A30192016B857C858D859E854B
:1015D0000E9431192B013C0120E030E0A9010E945A
:1015E000231B181624F077FA709477F87094A501ED
:1015F0009401C301B2010E94231B181674F4A701C1
:101600009601C301B2010E94231B181634F4FB8D0E
:10161000FF5FFB8F085F1F4F6DCFD80114968D9130
:101620009D910D90BC91A02D8B879C87AD87BE8727
:101630009C01AD016F89788D898D9A8D0E94311939
:101640004B015C01F8014484558466847784A301CE
:1016500092016F89788D898D9A8D0E9431196B0165
:101660007C0120E030E0A901C501B4010E94231BE8
:10167000181624F0B7FAB094B7F8B09420E030E030
:10168000A901C701B6010E94231B181624F0F7FA1E
:10169000F094F7F8F094A30192016B857C858D8519
:1016A0009E850E9431192B013C0120E030E0A90108
:1016B0000E94231B181624F077FA709477F8709420
:1016C000A5019401C301B2010E94231B18160CF05E
:1016D0009ECFA7019601C301B2010E94231B1816D9
:1016E0000CF095CF29853A85215031093A87298711
:1016F000232B09F077CE02CF20E030E040E85EE314
:10170000F10163897489858996890E94D6172B0116
:101710003C01D1011296AD90BC901397F5016689FA
:101720007789072E000C880B990B0E947717A3016D
:1017300092010E94D617D10197962D913D914D911E
:101740005C919A970E94151A0E94871A6B017C017E
:10175000AB01770F660B770BC5010E94280603309B
:10176000110509F484C0A3019201F101638D748D08
:10177000858D968D0E943219D1015B966D937D9374
:101780008D939C935E970F5F1F4F0430110509F0F6
:1017900049C040E050E060E07EE3C1010E94930652
:1017A0002BED3FE049E45FE3D10193966D917D918C
:1017B0008D919C9196970E9432196B017C010E9439
:1017C000101A9B01AC01C701B6012DA33EA34FA384
:1017D00058A70E94301B2DA13EA14FA158A50E94E1
:1017E000B119F10163A374A385A396A3C1010E945B
:1017F0005D086B017C01D10153962D913D914D9176
:101800005C9156970E94701718160CF4D1C020E016
:1018100030E0A901C701B6010E94231B00E010E0DF
:1018200087FD5BC0C1010E943709882309F464CF9A
:1018300041013BE1830E911CD1019396AD90BD9087
:10184000CD90DC9096975F962D913D914D915C9156
:1018500092975B966D917D918D919C915E97F10130
:101860007F96FF93EF93E12CF12C87019CC0A6019A
:10187000440F551FC40ED51E442755274C195D092A
:10188000052E000C660B770BF101828193810E947B
:10189000280620E030E040E450E4C301B2010E9499
:1018A000D6179B01AC01D1015B966D917D918D9115
:1018B0009C915E970E943119F101638F748F858F1F
:1018C000968F61CF41E050E060E070E0F1018281ED
:1018D00093810E9428060F5F1F4FD1011296ED9150
:1018E000FC9113978689978997FD01969595879521
:1018F000081719070CF0D8C0C1010E945D086B01E0
:101900007C01F10123893489458956890E94701729
:101910001816C4F220E030E0A901C701B6010E9408
:10192000231B87FDCFCFE12CF12CC1010E94370989
:10193000D10112960D90BC91A02DBA87A98788235A
:10194000D1F14101BBE18B0E911CF101A3A0B4A028
:10195000C5A0D6A0A985BA8556966D917C9157975A
:10196000C8010E94C01B072E000C880B990B0E9417
:101970007717F10127A130A541A552A50E94D617DE
:101980007B018C01D1015F962D913D914D915C9130
:1019900092975B966D917D918D919C915E97F101EF
:1019A0007F96FF93EF930E947F030F900F909BC150
:1019B00000E010E092CF20E030E040E85EE3F1018B
:1019C00063897489858996890E94D6174B015C01C9
:1019D000A985BA8556966D917C915797072E000C74
:1019E000880B990B0E947717A50194010E94D617C6
:1019F000F10127A130A541A552A50E94151A0E9408
:101A0000871A2B013C01AB01770F660B770B898599
:101A10009A850E942806F3E0EF16F10489F0A501EB
:101A20009401D1015B966D917D918D919C915E9712
:101A30000E943219F101638F748F858F968F2CC0AD
:101A4000A201440F551F440E551E44275527441923
:101A50005509052E000C660B770BD10112968D915E
:101A60009C9113970E94280620E030E040E450E467
:101A7000C501B4010E94D6179B01AC01F101638D31
:101A8000748D858D968D0E943119D1015B966D9371
:101A90007D938D939C935E97BFEFEB1AFB0AE4E076
:101AA000EE16F10409F041CFD1019396AD90BD90AF
:101AB000CD90DC9096971296ED91FC9113976689E4
:101AC0007789C8010E94C01B072E000C880B990B58
:101AD0000E947717F10127A130A541A552A50E94C8
:101AE000D6177B018C01D1015F962D913D914D91CF
:101AF0005C9192975B966D917D918D919C915E9793
:101B0000F1017F96FF93EF934101BBE18B0E911C96
:101B10000E947F03F101E15BFC4F80810F900F90E9
:101B2000D1015F964D915D916D917C9192975B96FD
:101B30000D911D912D913C915E97843698F4D101C1
:101B400098E0899FA00DB11D11249F960D931D93C0
:101B50002D933C93D297D3964D935D936D937C9345
:101B6000D69718C0F101E05BFC4F8081D10198E06D
:101B7000899FA00DB11D11249F960D931D932D9348
:101B80003C93D297D3964D935D936D937C93D69768
:101B9000833610F48F5F01C080E08083A4C02BEDFA
:101BA0003FE049EC50E4D10193966D917D918D9188
:101BB0009C9196970E94151A20E030E040E05FE388
:101BC0000E943219AB01BC01C1010E949306F101D0
:101BD00002811381D80156966D917C915797072EFB
:101BE000000C880B990B0E947717F101238D348D1F
:101BF000458D568D0E94D617D10197962D913D9116
:101C00004D915C919A970E94151A0E94871AAB0118
:101C1000BC01C8010E94280683E0F101808763C0EF
:101C20001092700061E083E00E94870460E083E02E
:101C30000E94570481E08093B000E9E0E093B10096
:101C4000F8ECF093B30022E42093B4008091B0004C
:101C500080628093B00060E679E080E090E00E94CE
:101C60007007C7010E948A1090E2C92ED12C812CE6
:101C7000912CA12C20E8B22ED501C40184219521FC
:101C8000A621B721892B8A2B8B2B51F08091B00094
:101C900080628093B00060EB74E080E090E009C067
:101CA0008091B00080628093B00068E572E080E0CF
:101CB00090E00E947007C7010E948A10B694A79412
:101CC0009794879431E0C31AD108B1F664E670E0C6
:101CD00080E090E00E94DA040150110909F0A0CFE1
:101CE000D10118961C92A8960FB6F894DEBF0FBECD
:101CF000CDBFDF91CF911F910F91FF90EF90DF90BB
:101D0000CF90BF90AF909F908F907F906F905F909B
:101D10004F903F902F900895E0910D03F0910E03A6
:101D20000190F081E02D682F8DE093E009940097F9
:101D300069F0FC0101900020E9F73197AF01481BE1
:101D4000590BBC018DE093E00C94E00080E090E042
:101D50000895CF93DF930E94970EEC0182E791E004
:101D60000E94970E8C0F9D1FDF91CF9108958F9247
:101D70009F92AF92BF920F931F93CF93DF93CDB7F4
:101D8000DEB7A1970FB6F894DEBF0FBECDBF19A284
:101D9000423008F44AE08E010F5D1F4F842E912CD3
:101DA000A12CB12CA50194010E940019E62FB901C4
:101DB000CA0101501109EA3014F4E05D01C0E95C88
:101DC000D801EC93232B242B252B61F7C8010E940B
:101DD000970EA1960FB6F894DEBF0FBECDBFDF9170
:101DE000CF911F910F91BF90AF909F908F900895CA
:101DF000CF92DF92EF92FF92CF93DF936C01990F16
:101E0000EE08FF08F7FE12C08DE20E948C0EEC0176
:101E100066277727CB016C197D098E099F094AE057
:101E20000E94B70E7C01EC0EFD1E06C04AE0C70101
:101E3000B6010E94B70E7C0182E791E00E94970EE6
:101E40008E0D9F1DDF91CF91FF90EF90DF90CF908F
:101E500008950C94970ECF92DF92EF92FF92CF935A
:101E6000DF936C01990FEE08FF08F7FE17C08DE2B3
:101E70000E948C0EEC0166277727CB016C197D0937
:101E80008E099F094AE00E94B70E8C0F9D1FDF91BB
:101E9000CF91FF90EF90DF90CF9008954AE0C70177
:101EA000B601DF91CF91FF90EF90DF90CF900C942F
:101EB000B70E4F925F926F927F928F929F92AF92E6
:101EC000BF92CF92DF92EF92FF926B017C019B0158
:101ED000AC010E94821B882319F086E292E01AC0AE
:101EE00046015701E894B7F82FEF3FEF4FE75FE760
:101EF000C501B4010E94821B811110C02FEF3FEF7A
:101F00004FE75FE7C501B4010E947017181634F45B
:101F10008AE292E00E94970E7C017FC02FEF3FEF94
:101F20004FE75FE4C701B6010E94231B18161CF49B
:101F30008EE292E0EFCF2FEF3FEF4FE75FECC7016C
:101F4000B6010E94701787FDF3CF20E030E0A901B1
:101F5000C701B6010E94701787FF09C08DE20E9479
:101F60008C0E5C01F7FAF094F7F8F09402C0A12C03
:101F7000B12C2AE037ED43EA5BE3C701B6010E94CA
:101F800032192B013C010E948E1A6B017C010E94C8
:101F900075179B01AC01C301B2010E9431192B01DD
:101FA0003C014AE0C701B6010E94B70E7C01EA0C71
:101FB000FB1C8EE20E948C0EE80EF91E20E030E041
:101FC00040E251E4C301B2010E94D6172B013C014B
:101FD0000E948E1A4B01A12CB12C4AE0C501B4011C
:101FE0000E94B70EE80EF91EC501B4010E947517D4
:101FF0009B01AC01C301B2010E94311920E030E025
:1020000040E251E40E94D6170E948E1A80E090E0D0
:102010004AE00E94B70EE80EF91E82E791E00E94A6
:10202000970E8E0D9F1DFF90EF90DF90CF90BF9089
:10203000AF909F908F907F906F905F904F9008959A
:10204000CF93DF93FC014481558141155105C9F0BF
:1020500061157105B1F04617570708F4BA01EC0194
:1020600088819981461B570B5D834C83680F791FCC
:102070000E94191EE881F9818C819D81E80FF91F6A
:102080001082DF91CF9108952FB7F89480910903C2
:1020900090910A03A0910B03B0910C032FBF809382
:1020A000150390931603A0931703B0931803E091C0
:1020B0000D03F0910E030680F781E02D8DE093E093
:1020C000099597FF26C02FB7F89480910903909146
:1020D0000A03A0910B03B0910C032FBF409115038D
:1020E000509116036091170370911803841B950B90
:1020F000A60BB70B4091110350911203609113038B
:102100007091140384179507A607B70780F28FEF25
:102110009FEF0895E0EBF0E080818F7D808368E59C
:1021200072E080E090E00C947007CF92DF92EF9223
:10213000FF920F931F93E82FF92F05C0015011094B
:102140002109310961F1908196239417B9F305C0F3
:10215000015011092109310911F19081962394133D
:10216000F7CFC12CD12CE12CF12C0AC08FEFC81A6B
:10217000D80AE80AF80A0C151D052E053F0579F066
:1021800080818623841791F36C2D7D2D8E2D9F2DBC
:102190001F910F91FF90EF90DF90CF90089560E036
:1021A00070E080E090E01F910F91FF90EF90DF9042
:1021B000CF900895CF93DF93CDB7DEB72C970FB6AE
:1021C000F894DEBF0FBECDBF789484B5826084BD25
:1021D00084B5816084BD85B5826085BD85B581602B
:1021E00085BD80916E00816080936E0010928100A9
:1021F0008091810082608093810080918100816064
:102200008093810080918000816080938000809124
:10221000B10084608093B1008091B00081608093B0
:10222000B00080917A00846080937A0080917A0077
:10223000826080937A0080917A00816080937A0036
:1022400080917A00806880937A001092C100E091BA
:102250001D03F0911E0382E08083E0911903F09149
:102260001A031082E0911B03F0911C038FEC808312
:1022700010922503E0912103F091220386E08083F0
:10228000E0911F03F0912003808180618083E091C1
:102290001F03F0912003808188608083E0911F03F9
:1022A000F0912003808180688083E0911F03F0918A
:1022B000200380818F7D80838AE491E00E94A90EB3
:1022C0008DE093E00E942D01181619060CF042C211
:1022D00064E771E0CE0107960E9499020E944410C3
:1022E00097FD1BC089831A820B851C850F5F1F4FCA
:1022F000B801CE0107960E947202882379F32F81DC
:1023000038858B859C85BE016F5F7F4F820F931F41
:102310000E94041E1C870B87E1CFCE0107960E9406
:10232000D9010F8118850115110509F54B855C85CB
:102330006F8178858DE093E00E94E00082E791E074
:102340000E94970E65E771E0CE0101960E94990206
:10235000BE016F5F7F4FCE0107960E943802182F93
:1023600089819A810E94831C11110EC060C0F801FE
:1023700080818823D9F2082E000C990B0E94EA1D57
:10238000F80181938F01F3CF66E070E0CE010796EC
:102390000E942010CE0107960E94D9016DE771E0DE
:1023A000CE0101960E949902BE016F5F7F4FCE0160
:1023B00007960E943802182F89819A810E94831CF7
:1023C000112361F161E070E0CE0107960E942010B8
:1023D000CE0107960E94D90160E871E0CE01079610
:1023E0000E94530281119CC063E871E0CE01079600
:1023F0000E9453028111CEC18F819885009719F0F8
:102400000E94B61503C060E070E0CB0124E0660FC7
:10241000771F2A95E1F76E5F7F4F84C066E871E011
:10242000CE0107960E9453028111B7C18BC168E8A3
:1024300071E0CE0101960E949902BE016F5F7F4F4D
:10244000CE0107960E943802182F89819A810E9436
:10245000831C112309F45BC065E070E0CE01079690
:102460000E942010CE0107960E94D9016FE871E00A
:10247000CE0101960E949902BE016F5F7F4FCE018F
:1024800007960E943802182F89819A810E94831C26
:10249000112361F161E070E0CE0107960E942010E7
:1024A000CE0107960E94D90160E871E0CE0107963F
:1024B0000E945302811174C163E871E0CE01079656
:1024C0000E94530281116FC18F819885009719F086
:1024D0000E94B61503C060E070E0CB0194E0660F87
:1024E000771F9A95E1F76A5F7F4F1CC062E971E040
:1024F000CE0107960E945302811158C166E871E02F
:10250000CE0107960E945302811153C11BC164E999
:1025100071E0CE0107960E94530281114DC112C194
:1025200060E070E0FB01EF70FF27EC5CFF4F0C9464
:10253000D41B2DEC3CEC4CEC5DE36091C10370913D
:10254000C2038091C3039091C4030E9432190EC04C
:102550002DEC3CEC4CEC5DE36091C1037091C20347
:102560008091C3039091C4030E9431196093C10309
:102570007093C2038093C3039093C40388E991E0EE
:102580000E94290F8AEA93E00E945D082BC08F8188
:102590009885009719F00E94B21503C060E070E0C2
:1025A000CB016093C1037093C2038093C3039093E4
:1025B000C403CCC08AEA93E00E945D086093BD0327
:1025C0007093BE038093BF039093C00388E991E0AA
:1025D0000E94290F6091BD037091BE038091BF03DB
:1025E0009091C0030E94590FB1C08091B90390919E
:1025F000BA03019605C08091B9039091BA0301977F
:102600009093BA038093B90309C084E075956795E8
:102610008A95E1F77093BA036093B90386EA91E073
:102620000E94290F8091B9039091BA030E94F80E7D
:102630008AEA93E00E943709811103C08AE391E09E
:1026400002C086E291E00E94290F83EB91E00E9494
:10265000290F50C08AEA93E00E94370981112EC0E9
:102660008AE391E00E94290F83EB91E00E94290FF9
:1026700089EB91E00E94290F8091B3039091B403FC
:102680000E942B0F8DEB91E00E94290F8091B503E2
:102690009091B6030E942B0F85EC91E00E94290FC8
:1026A0008091B7039091B8030E94F80E8DE093E0FB
:1026B0000E942D01181619066CF648C086E291E0BA
:1026C000D1CF8091AE039091AF030E94BC08FC0172
:1026D000808191819093B4038093B303828193812D
:1026E0009093B6038093B503848195819093B8034A
:1026F0008093B70389EB91E00E94290F8091B30387
:102700009091B4030E942B0F8DEB91E00E94290F52
:102710008091B5039091B6030E942B0F85EC91E058
:102720000E94290F8091B7039091B8030E94F80E80
:102730000DC08DEC91E00E94A90E8F8198850E94BA
:10274000831C0FC084EE91E00E94A90E8F819885B2
:102750000E94831C64EF71E080E090E00E94DA0444
:10276000AFCD8AEA93E00E94A4096091B20370E0C1
:1027700080E090E04AE00E94B70E82E791E00E947C
:10278000970E64EF71E080E090E00E94DA040E940E
:10279000CD01E7CF61E070E0C5CE63E070E0C2CE6E
:1027A00064E070E0BFCE65E070E0BCCE67E070E052
:1027B000B9CE68E070E0B6CE6FE070E0B3CEEF92D5
:1027C000FF920F931F93CF93DF93109210031092F9
:1027D0000F0388EE93E0A0E0B0E0809311039093A4
:1027E0001203A0931303B09314038EE091E090932F
:1027F0000E0380930D0385EC90E090931A03809371
:10280000190384EC90E090931C0380931B0380ECED
:1028100090E090931E0380931D0381EC90E09093D1
:10282000200380931F0382EC90E090932203809317
:10283000210386EC90E0909324038093230310926D
:10284000260310922703109228031092290389E18E
:1028500090E0A0E0B0E08093130790931407A0935A
:102860001507B09316078AE0809317078BE08093D3
:10287000180782E080931B0798E090931E0799E069
:1028800090931F07809322071092230710921C0732
:102890008FEF8093240780931D0780E390E090934F
:1028A0002A078093290781E090E090932607809380
:1028B00025079093280780932707C0E0D0E08091F8
:1028C0001B0790E0C817D9074CF4FE01ED5EF84FE6
:1028D00061E084810E9487042196F1CFC0E0D0E0BE
:1028E0008091220790E0C817D9074CF4FE01E65EFC
:1028F000F84F61E084810E9487042196F1CF85E042
:102900008093FD0686E08093FE0687E08093FF06B5
:102910008EE0809300070DEF16E0C7E0D7E0EE24CD
:10292000EA9483E0F82E61E0F80181918F010E9422
:102930008704E992F9921D821C82F7E0CD30DF070F
:1029400091F78EE191E09093AB038093AA0383E12A
:1029500097E09093AD038093AC038DEF96E0909356
:10296000AF038093AE038CE08093B0038DE080933F
:10297000B1038AE090E09093BA038093B90380E0BA
:1029800090E0A0E8BFE38093C1039093C203A093BB
:10299000C303B093C40384EE9BECA6E9B1E4809337
:1029A000D1039093D203A093D303B093D40380EECA
:1029B0009DEEAFE2B2E48093D5039093D603A0934B
:1029C000D703B093D80361E08CE00E94870460E0F5
:1029D0008DE00E9487046091290770912A07072ED5
:1029E000000C880B990B0E9477172091D50330912A
:1029F000D6034091D7035091D8030E94D617209157
:102A0000D1033091D2034091D3035091D4030E945B
:102A1000151A0E94871A7093BC036093BB0381E070
:102A20008093F9061092D9031092DA031092DB0317
:102A30001092DC031092DD031092DE031092DF038C
:102A40001092E0031092FA061092C9031092CA0382
:102A50001092CB031092CC031092C5031092C603C0
:102A60001092C7031092C80382E10E94C304BC0104
:102A7000990F880B990B611571058105910511F06E
:102A80000E94A91584E291E09093AB038093AA037E
:102A900084E08093FC061092B20362E0DF91CF9154
:102AA0001F910F91FF90EF900C9487048F929F924B
:102AB000AF92BF92CF92DF92EF92FF92CF93DF93CC
:102AC000EC01688179818A819B816115710581059D
:102AD000910521F464E279ED8BE597E02DE133EF88
:102AE00041E050E00E94971849015A019B01AC0156
:102AF000A7EAB1E40E94B6186B017C01ACEEB4EF1A
:102B0000A50194010E94C418DC01CB018C0D9D1D10
:102B1000AE1DBF1DB7FF03C00197A109B048888350
:102B20009983AA83BB83BC01CD019F77DF91CF91AD
:102B3000FF90EF90DF90CF90BF90AF909F908F90DD
:102B400008950E945615089580E091E00E94561560
:102B500008956093000170930101809302019093A6
:102B600003010895662777270C94F2151F93FC0143
:102B700099278827BC01E89411911032E9F31930A4
:102B800010F01E30C8F31B3251F01D3249F4689426
:102B900006C00E94DD15610F711D811D911D1191EF
:102BA00010531A30B0F33EF490958095709561956E
:102BB0007F4F8F4F9F4F1F910895592F482F372FC9
:102BC000262F660F771F881F991F660F771F881F94
:102BD000991F620F731F841F951F660F771F881F31
:102BE000991F0895A0E0B0E0E8EFF5E10C94CD184E
:102BF000EC017B016115710519F0DB018D939C934C
:102C00008E010F5F1F4F7880872D90E00E944F1735
:102C1000892B11F0E801F4CFBDE27B1205C00F5FF4
:102C20001F4F7980C1E008C0EBE27E1204C08E0124
:102C30000E5F1F4F7980C0E06801F1E0CF1AD10824
:102C400043E050E06CED70E0C6010E945817892BFC
:102C5000F1F4680122E0C20ED11C45E050E067EDBE
:102C600070E0C6010E945817892B21F4680187E0A3
:102C7000C80ED11CE114F10419F0D701CD92DC92F9
:102C8000C111FFC060E070E080E89FE703C143E04E
:102C900050E064ED70E0C6010E945817892B51F492
:102CA000E114F10409F4F2C00E5F1F4FF701118324
:102CB0000083ECC0680160E070E0CB0100E010E050
:102CC000F601D0EDD70DDA3058F52C2F2260622EA8
:102CD0002C2F2870C2FF05C0211128C00F5F1F4F85
:102CE00025C0222311F001501109A5E0B0E09B019D
:102CF000AC010E94B6184B015C01880C991CAA1CFF
:102D0000BB1CC501B4016D0F711D811D911D68397A
:102D1000A9E97A078A07A9E19A0740F0C66005C0C9
:102D2000DE3F51F4C3FD44C0C8606C2EBFEFCB1A28
:102D3000DB0A7080C62DC4CF2D2F2F7D2531C1F524
:102D400040814D3211F4C06106C04B3221F0319602
:102D500021E030E006C03296D60111964C9122E077
:102D600030E0A0EDA40FAA3018F0E21BF30B20C056
:102D700040E050E04038BCE05B075CF49A01220F71
:102D8000331F220F331F420F531F440F551F4A0F8B
:102D9000511D3196DF0111972C91A0EDA20FAA30A1
:102DA00048F3C4FF03C0519541955109040F151F05
:102DB000C1FF07C0E114F10421F03197D701ED9371
:102DC000FC930E947517C370C33019F06B017C012E
:102DD00006C06B017C01F7FAF094F7F8F09420E05C
:102DE00030E0A901C701B6010E947017882309F4D9
:102DF00045C017FF06C0119501951109C3EFD0E03A
:102E000002C0CBE0D1E05E01B8E1AB1AB1084601E7
:102E1000BE2DAF2D90E2E92EF12C0E151F0584F08A
:102E2000FE012591359145915491B4018B2F9A2F34
:102E30000E94D6174B01B82FA92F0E191F09EDCFED
:102E40002497F594E794CA15DB0539F76401EB2E56
:102E5000FA2E8E2D880F8F2D881F8F3F49F020E08E
:102E600030E0A901C701B6010E947017811106C0A8
:102E700082E290E090932C0780932B07C701B60164
:102E800009C060E070E080E89FEF04C060E070E09F
:102E900080EC9FE7CDB7DEB7EEE00C94E918911116
:102EA0000C944318803219F089508550C8F7089562
:102EB000FB01DC014150504088F08D9181341CF0C1
:102EC0008B350CF4805E659161341CF06B350CF42D
:102ED000605E861B611171F3990B0895881BFCCF0E
:102EE0000E94B21708F481E00895E89409C097FBA6
:102EF0003EF490958095709561957F4F8F4F9F4FD1
:102F00009923A9F0F92F96E9BB279395F695879514
:102F100077956795B795F111F8CFFAF4BB0F11F4D7
:102F200060FF1BC06F5F7F4F8F4F9F4F16C088237E
:102F300011F096E911C0772321F09EE8872F762FB4
:102F400005C0662371F096E8862F70E060E02AF0F5
:102F50009A95660F771F881FDAF7880F96958795E1
:102F600097F90895990F0008550FAA0BE0E8FEEFB6
:102F700016161706E807F907C0F012161306E4073D
:102F8000F50798F0621B730B840B950B39F40A2636
:102F900061F0232B242B252B21F408950A2609F414
:102FA000A140A6958FEF811D811D08950E94E9170C
:102FB0000C945D180E944F1838F00E94561820F0AB
:102FC000952311F00C9446180C944C1811240C9471
:102FD00091180E946E1870F3959FC1F3950F50E001
:102FE000551F629FF001729FBB27F00DB11D639FBB
:102FF000AA27F00DB11DAA1F649F6627B00DA11D61
:10300000661F829F2227B00DA11D621F739FB00D06
:10301000A11D621F839FA00D611D221F749F332776
:10302000A00D611D231F849F600D211D822F762F0F
:103030006A2F11249F5750409AF0F1F088234AF0EC
:10304000EE0FFF1FBB1F661F771F881F9150504058
:10305000A9F79E3F510580F00C9446180C949118E6
:103060005F3FE4F3983ED4F3869577956795B795DF
:10307000F795E7959F5FC1F7FE2B880F911D9695F9
:10308000879597F9089599278827089597F99F6755
:1030900080E870E060E008959FEF80EC08950024E0
:1030A0000A941616170618060906089500240A94AD
:1030B00012161306140605060895092E0394000C33
:1030C00011F4882352F0BB0F40F4BF2B11F460FFC2
:1030D00004C06F5F7F4F8F4F9F4F089557FD9058EB
:1030E000440F551F59F05F3F71F04795880F97FBCC
:1030F000991F61F09F3F79F0879508951216130686
:103100001406551FF2CF4695F1DF08C016161706B4
:103110001806991FF1CF86957105610508940895E9
:10312000E894BB2766277727CB0197F90895052EEA
:1031300097FB1EF400940E94AE1857FD07D00E9422
:10314000001907FC03D04EF40C94AE18509540952E
:10315000309521953F4F4F4F5F4F08959095809543
:10316000709561957F4F8F4F9F4F08950E94221950
:10317000A59F900DB49F900DA49F800D911D1124CB
:103180000895B7FF0C94B6180E94B618821B930BD3
:1031900008952F923F924F925F926F927F928F92FB
:1031A0009F92AF92BF92CF92DF92EF92FF920F93D6
:1031B0001F93CF93DF93CDB7DEB7CA1BDB0B0FB6E0
:1031C000F894DEBF0FBECDBF09942A88398848889D
:1031D0005F846E847D848C849B84AA84B984C88433
:1031E000DF80EE80FD800C811B81AA81B981CE0F2A
:1031F000D11D0FB6F894DEBF0FBECDBFED0108950F
:10320000A1E21A2EAA1BBB1BFD010DC0AA1FBB1FEA
:10321000EE1FFF1FA217B307E407F50720F0A21B5C
:10322000B30BE40BF50B661F771F881F991F1A94C9
:1032300069F760957095809590959B01AC01BD01F3
:10324000CF010895A29FB001B39FC001A39F700D4D
:10325000811D1124911DB29F700D811D1124911D9E
:1032600008955058BB27AA270E9449190C945D184D
:103270000E944F1838F00E94561820F039F49F3FF2
:1032800019F426F40C944C180EF4E095E7FB0C941A
:103290004618E92F0E946E1858F3BA176207730791
:1032A0008407950720F079F4A6F50C9490180EF495
:1032B000E0950B2EBA2FA02D0B01B90190010C0146
:1032C000CA01A0011124FF27591B99F0593F50F45E
:1032D000503E68F11A16F040A22F232F342F4427B6
:1032E000585FF3CF469537952795A795F0405395AE
:1032F000C9F77EF41F16BA0B620B730B840BBAF07E
:103300009150A1F0FF0FBB1F661F771F881FC2F7E8
:103310000EC0BA0F621F731F841F48F487957795FC
:103320006795B795F7959E3F08F0B0CF9395880FB6
:1033300008F09927EE0F9795879508950E944F18EA
:1033400060F080E891E009F49EEF0E94561828F0A2
:1033500040E851E071F45EEF0CC00C944C180C94F2
:103360009018E92FE0780E946E1840F3092E052A84
:10337000B1F3261737074807590738F00E2E07F81C
:10338000E02569F0E025E0640AC0EF6307F80094E7
:1033900007FADB01B9019D01DC01CA01AD01EF9320
:1033A0000E942C1A0E945D180E94E1195F9155231A
:1033B00039F02BED3FE049E450FD49EC0C94321913
:1033C0000895DF93DD27B92FBF7740E85FE3161636
:1033D000170648075B0718F4D92F0E94281B9F93F4
:1033E0008F937F936F930E947E1BE8E8F0E00E942A
:1033F000BD1A0E945D182F913F914F915F910E94DD
:10340000E917DD2351F09058A2EA2AED3FE049EC9C
:103410005FE3D0785D270E944919DF910C945D1815
:103420000E94E61AE3950C940F1B0E94291A0C9433
:103430005D180E94561858F00E944F1840F029F469
:103440005F3F29F00C94461851110C9491180C947C
:103450004C180E946E1868F39923B1F3552391F329
:10346000951B550BBB27AA2762177307840738F0F3
:103470009F5F5F4F220F331F441FAA1FA9F335D050
:103480000E2E3AF0E0E832D091505040E695001C04
:10349000CAF72BD0FE2F29D0660F771F881FBB1FBE
:1034A000261737074807AB07B0E809F0BB0B802D9C
:1034B000BF01FF2793585F4F3AF09E3F510578F0C8
:1034C0000C9446180C9491185F3FE4F3983ED4F3A3
:1034D000869577956795B795F7959F5FC9F7880F9C
:1034E000911D9695879597F90895E1E0660F771FEE
:1034F000881FBB1F621773078407BA0720F0621B7F
:10350000730B840BBA0BEE1F88F7E09508950E94A9
:103510008E1A6894B1110C94911808950E9476182F
:1035200088F09F5798F0B92F9927B751B0F0E1F084
:10353000660F771F881F991F1AF0BA95C9F714C034
:10354000B13091F00E949018B1E008950C94901859
:10355000672F782F8827B85F39F0B93FCCF386956D
:1035600077956795B395D9F73EF4909580957095CA
:1035700061957F4F8F4F9F4F0895DF93CF931F9398
:103580000F93FF92EF92DF927B018C01689406C04B
:10359000DA2EEF010E94E917FE01E894A59125912A
:1035A000359145915591A6F3EF010E944919FE010D
:1035B0009701A801DA9469F7DF90EF90FF900F91DF
:1035C0001F91CF91DF9108950C944C180E947618AA
:1035D000D8F3E894E0E0BB279F57F0F02AED3FE0F6
:1035E00049EC06C0EE0FBB0F661F771F881F28F03F
:1035F000B23A62077307840728F0B25A620B730B62
:10360000840BE3959A9572F7803830F49A95BB0F46
:10361000661F771F881FD2F790480C94891BEF9381
:10362000E0FF07C0A2EA2AED3FE049EC5FEB0E9411
:1036300049190E945D180F90039401FC9058E5EB26
:10364000F0E00C949C1B0E94B21708F48FEF0895D1
:103650009B01AC0160E070E080E89FE30C94151AD8
:103660009F930E94E61A0F9007FCEE5F0C940F1BCD
:1036700019F416F40C944C180C94871B0E947618BD
:10368000B8F39923C9F3B6F39F57550B87FF0E94F0
:10369000951B0024A0E640EA900180585695979526
:1036A00028F4805C660F771F881F20F026173707E5
:1036B000480730F4621B730B840B202931294A2BF5
:1036C000A69517940794202531254A2758F7660FA9
:1036D000771F881F20F026173707480730F4620B42
:1036E000730B840B200D311D411DA09581F7B9018D
:1036F000842F9158880F9695879508959B01AC016A
:103700000C94D6170E94B217880B990B08959F3F0F
:1037100031F0915020F4879577956795B795880F8C
:10372000911D9695879597F9089591505040660F91
:10373000771F881FD2F708959F938F937F936F937E
:10374000FF93EF939B01AC010E94D617EF91FF917D
:103750000E94BD1A2F913F914F915F910C94D61703
:10376000DB018F939F930E94B618BF91AF91A29FE8
:10377000800D911DA39F900DB29F900D112408956F
:1037800097FB072E16F4009407D077FD09D00E940E
:10379000DA1B07FC05D03EF4909581959F4F089564
:1037A000709561957F4F0895EE0FFF1F0590F4917E
:1037B000E02D0994AA1BBB1B51E107C0AA1FBB1F28
:1037C000A617B70710F0A61BB70B881F991F5A95AD
:1037D000A9F780959095BC01CD010895CF93DF9313
:1037E0008230910510F482E090E0E0912F07F09193
:1037F000300720E030E0C0E0D0E0309711F14081A8
:10380000518148175907C0F04817590761F4828160
:103810009381209719F09B838A832BC09093300764
:1038200080932F0726C02115310519F04217530741
:1038300018F49A01BE01DF01EF010280F381E02D4F
:10384000DCCF2115310509F1281B390B2430310556
:1038500090F412968D919C9113976115710521F04A
:10386000FB019383828304C09093300780932F07DA
:10387000FD01329644C0FD01E20FF31F8193919345
:10388000225031092D933C933AC020912D0730915D
:103890002E07232B41F4209106013091070130932C
:1038A0002E0720932D072091040130910501211549
:1038B000310541F42DB73EB74091080150910901FF
:1038C000241B350BE0912D07F0912E07E217F3072B
:1038D000A0F42E1B3F0B2817390778F0AC014E5F80
:1038E0005F4F2417350748F04E0F5F1F50932E0788
:1038F00040932D078193919302C0E0E0F0E0CF0167
:10390000DF91CF9108950F931F93CF93DF9300978B
:1039100009F48CC0FC0132971382128200912F07A8
:10392000109130070115110581F420813181820F3A
:10393000931F20912D0730912E072817390779F50D
:10394000F0932E07E0932D0771C0D80140E050E0BE
:10395000AE17BF0750F412962D913C911397AD010D
:103960002115310509F1D901F3CF9D01DA01338326
:10397000228360817181860F971F8217930769F4F4
:10398000EC0128813981260F371F2E5F3F4F31838D
:1039900020838A819B8193838283452B29F4F09332
:1039A0003007E0932F0742C01396FC93EE931297D3
:1039B000ED01499159919E01240F351FE217F3073C
:1039C00071F480819181840F951F029611969C93CA
:1039D0008E938281938113969C938E931297E0E04D
:1039E000F0E0D80112968D919C911397009719F0F1
:1039F000F8018C01F6CF8D919C9198012E5F3F4F7D
:103A0000820F931F20912D0730912E072817390719
:103A100069F4309729F41092300710922F0702C0F2
:103A20001382128210932E0700932D07DF91CF91FE
:103A30001F910F910895A0E0B0E0E1E2FDE10C9448
:103A4000CD18EC01009721F4CB010E94EE1BB8C009
:103A5000FC01E60FF71F9C0122503109E217F30722
:103A600008F4ACC0D9010D911C91119706171707E6
:103A7000B0F00530110508F49FC0C80104978617FF
:103A8000970708F499C002501109061B170B019300
:103A900011936D937C93CF010E94831C8DC05B01B9
:103AA000A01AB10A4C01800E911EA0912F07B0916F
:103AB000300740E050E0E12CF12C109709F44AC0A7
:103AC000A815B905D1F56D907C901197630182E03E
:103AD000C80ED11CCA14DB0480F1A3014A195B098A
:103AE0006A0182E0C80ED11C1296BC901297139600
:103AF000AC91B5E0CB16D10440F0B282A3835183E0
:103B00004083D9016D937C930AC00E5F1F4FC301A0
:103B1000800F911FF90191838083EB2DFA2FE1141F
:103B2000F10431F0D7011396FC93EE93129744C041
:103B3000F0933007E0932F073FC08D919C91119730
:103B40004817590708F4AC017D0112960D90BC91FD
:103B5000A02DB3CF80912D0790912E078815990540
:103B6000E1F446175707C8F48091040190910501CC
:103B7000009741F48DB79EB740910801509109011B
:103B8000841B950BE817F907C8F4F0932E07E09310
:103B90002D07F901718360830FC0CB010E94EE1BDA
:103BA0007C01009759F0A801BE010E94F21DCE01D0
:103BB0000E94831CC70104C0CE0102C080E090E0D7
:103BC000CDB7DEB7EEE00C94E91881E090E0F89410
:103BD0000C94281E9111089581548A5108F4805E36
:103BE000855A0895FB01DC0102C001900D924150FD
:103BF0005040D8F70895FB01DC018D9101908019A8
:103C00000110D9F3990B0895FB01DC0101900D928D
:103C10000020E1F70895FB01DC014150504030F0F5
:103C20008D910190801919F40020B9F7881B990B28
:103C30000895FB01DC014150504048F001900D9285
:103C40000020C9F701C01D9241505040E0F708958F
:043C5000F894FFCF16
:103C54000100000000003107800000000000640142
:103C6400E0002D010B011F01AB0100000000D70192
:103C740000000000A409436F6C6F7220456E636FEF
:103C84006E747261646F212120004E4F2065732091
:103C9400656C20436F6C6F7220004269656E7665B7
:103CA4006E69646F2061206C6120696E7465726650
:103CB400617A2064652063616C6962726163696F13
:103CC4006E000D0A00756C7472617320006320002D
:103CD4002B2B002D2D007300636F6C6F722000740A
:103CE4002000700066696E00556C747261736F6EAB
:103CF40069636F3A2000746F6C6572616E63696109
:103D04003A20005265663A2000723A2000202020B2
:103D140020673A200020202020623A200043616C72
:103D24006962726163696F6E2066696E616C697A3B
:103D3400616461004572726F723A20656C2076612D
:103D44006C6F7220696E74726F64756369646F203E
:103D54006E6F207365207265636F6E6F6365206399
:103D64006F6D6F20756E20636F6D616E646F20766A
:103D7400616C69646F006E616E00696E66006F76D7
:023D84006600D7
:00000001FF
