:100000000C946C000C9494000C9494000C94940048
:100010000C9494000C9494000C9494000C94D004D0
:100020000C9494000C9494000C9494000C94940000
:100030000C9494000C9494000C9494000C949400F0
:100040000C9486040C9494000C9454040C942E0488
:100050000C9494000C9494000C9494000C949400D0
:100060000C9494000C949400D502DB02E502F30298
:10007000F502FB020503130325032703000000001C
:1000800023002600290000000008000201000003F0
:100090000407000000000000000000000000250030
:1000A00028002B0000000000240027002A00040480
:1000B0000404040404040202020202020303030310
:1000C00003030102040810204080010204081020EC
:1000D000010204081020B30511241FBECFEFD8E0A1
:1000E000DEBFCDBF11E0A0E0B1E0E2E7F1E102C088
:1000F00005900D92A833B107D9F722E0A8E3B1E04B
:1001000001C01D92AE3BB207E1F710E0CCE6D0E0B3
:1001100004C02197FE010E946B07CB36D107C9F7B7
:100120000E945A060C94B7080C94000090E0FC0161
:10013000EE53FF4F2491FC01E255FF4F8491882339
:1001400099F090E0880F991FFC01EC55FF4FA591A5
:10015000B491FC01E656FF4F859194918FB7F894C6
:10016000EC91E22BEC938FBF0895CF92DF92EF9248
:10017000FF920F931F93CF93DF936C017A018B0152
:10018000C0E0D0E0CE15DF0589F0D8016D918D017A
:10019000D601ED91FC910190F081E02DC601099509
:1001A000892B11F47E0102C02196ECCFC701DF91AB
:1001B000CF911F910F91FF90EF90DF90CF90089516
:1001C000FC01918D828D981761F0828DDF01A80F5F
:1001D000B11D5D968C91928D9F5F9F73928F90E081
:1001E00008958FEF9FEF0895FC01918D828D9817F0
:1001F00031F0828DE80FF11D858D90E008958FEF2D
:100200009FEF0895FC01918D228D892F90E0805CF5
:100210009F4F821B91098F739927089583E192E084
:100220000E94020121E0892B09F420E0822F089529
:10023000FC01848DDF01A80FB11DA35ABF4F2C9183
:10024000848D90E001968F739927848FA689B78952
:100250002C93A089B1898C9180648C93938D848D2B
:10026000981306C00288F389E02D80818F7D8083FA
:100270000895EF92FF920F931F93CF93DF93EC01BA
:1002800081E0888F9B8D8C8D981305C0E889F98952
:10029000808185FD24C0F62E0B8D10E00F5F1F4F6F
:1002A0000F731127E02E8C8DE8120CC00FB607FCDF
:1002B000FACFE889F989808185FFF5CFCE010E94C8
:1002C0001801F1CF8B8DFE01E80FF11DE35AFF4FAE
:1002D000F0820B8FEA89FB898081806207C0EE89FA
:1002E000FF896083E889F98980818064808381E067
:1002F00090E0DF91CF911F910F91FF90EF900895C3
:10030000CF93DF93EC01888D8823C9F0EA89FB89BC
:10031000808185FD05C0A889B9898C9186FD0FC0B3
:100320000FB607FCF5CF808185FFF2CFA889B98988
:100330008C9185FFEDCFCE010E941801E7CFDF91B0
:10034000CF91089580E090E0892B29F00E940E0162
:1003500081110C9400000895833081F028F48130DD
:1003600099F08230A1F008958730A9F08830B9F073
:100370008430D1F4809180008F7D03C08091800013
:100380008F7780938000089584B58F7702C084B5FD
:100390008F7D84BD08958091B0008F7703C08091D8
:1003A000B0008F7D8093B00008951F93CF93DF93AB
:1003B000282F30E0F901EA57FF4F8491F901EE53FD
:1003C000FF4FD491F901E255FF4FC491CC23C9F0FE
:1003D000162F81110E94AC01EC2FF0E0EE0FFF1FF1
:1003E000E656FF4FA591B4918FB7F894111105C04F
:1003F0009C91ED2FE095E92302C0EC91ED2BEC935D
:100400008FBFDF91CF911F9108953FB7F8948091EE
:100410000F0290911002A0911102B091120226B524
:10042000A89B05C02F3F19F00196A11DB11D3FBF2C
:10043000BA2FA92F982F8827820F911DA11DB11DBA
:10044000BC01CD0142E0660F771F881F991F4A95B6
:10045000D1F708958F929F92AF92BF92CF92DF9281
:10046000EF92FF926B017C010E9405024B015C013F
:10047000C114D104E104F104F1F00E940502DC0191
:10048000CB0188199909AA09BB09883E9340A105A7
:10049000B10570F321E0C21AD108E108F10888EE35
:1004A000880E83E0981EA11CB11CC114D104E10484
:1004B000F10419F7DDCFFF90EF90DF90CF90BF9060
:1004C000AF909F908F9008950F931F93CF93DF93DA
:1004D000EC018B01888599850297F1F461307105F3
:1004E00069F024F4672BC1F460E009C06230710543
:1004F00059F06330710581F460E007C061E08C85DC
:100500000E94D50161E005C061E08C850E94D501A3
:1005100060E08E850E94D501888599850497B9F59C
:1005200001301105B1F04CF40115110581F561E0C0
:100530008C850E94D50160E011C002301105B9F030
:100540000330110521F561E08C850E94D50160E042
:1005500013C060E08C850E94D50161E08E850E9409
:10056000D50161E088890E94D50160E00DC060E09E
:100570008C850E94D50161E08E850E94D50160E0E6
:1005800088890E94D50161E08A890E94D501888509
:100590009985059709F073C00A30110508F06FC0FE
:1005A000F801EC5CFF4F0C946B0760E08C850E94B7
:1005B000D50161E051C060E08C850E94D50161E009
:1005C0008E850E94D50160E04BC060E08C850E9462
:1005D000D50161E08E850E94D50160E088890E9486
:1005E000D50161E041C060E001C061E08C850E94FE
:1005F000D50161E005C061E08C850E94D50160E015
:100600008E850E94D50160E009C061E08C850E9462
:10061000D50160E08E850E94D50161E088890E9445
:10062000D50161E00DC061E08C850E94D50160E0DC
:100630008E850E94D50161E088890E94D50160E025
:100640008A890E94D50160E013C061E001C060E0CA
:100650008C850E94D50160E08E850E94D50161E005
:1006600088890E94D50160E08A890E94D50161E0F5
:100670008C89DF91CF911F910F910C94D501DF915F
:10068000CF911F910F9108954F925F926F927F9239
:100690008F929F92AF92BF92CF92DF92EF92FF9292
:1006A0000F931F93CF93DF93EC018B0177FF04C06F
:1006B00000271127061B170B161617062CF481E0CE
:1006C00090E09983888304C0672B11F01982188207
:1006D00084E0E82EF12C9AE0C92ED12C01151105E9
:1006E00009F449C00E9405028E889F88A88CB98CA5
:1006F0002B013C01481859086A087B088A809B80B6
:10070000AC80BD80481459046A047B0438F36E8BB6
:100710007F8B888F998F288139818A859B852130AD
:10072000310559F401969B878A872E813F81821774
:10073000930771F41B861A860BC0892B21F48E81D6
:100740009F819B878A878A859B8501979B878A875C
:1007500001501109288539858A859B852530310509
:1007600011F4B60101C0B7010E945707BC01CE01C8
:100770000E946402B3CFDF91CF911F910F91FF9040
:10078000EF90DF90CF90BF90AF909F908F907F9031
:100790006F905F904F9008958F929F92AF92BF920B
:1007A000CF92DF92EF92FF926B017C010E940502D3
:1007B0004B015C0184E0C81AD108E108F108C80CBB
:1007C000D91CEA1CFB1CC814D904EA04FB0438F445
:1007D0000E94050286169706A806B906C8F30E946D
:1007E00005026C157D058E059F05C8F3FF90EF90FF
:1007F000DF90CF90BF90AF909F908F900895E0EBE7
:10080000F0E080818F7D808368E572E080E090E099
:100810000C94CC03CF93DF93009779F0FC01019007
:100820000020E9F73197AF01481B590BBC0183E168
:1008300092E00E94B500EC0102C0C0E0D0E042E0CE
:1008400050E066E171E083E192E00E94B5008C0F18
:100850009D1FDF91CF9108950E94B2081F920F92C1
:100860000FB60F9211242F933F934F935F936F9383
:100870007F938F939F93AF93BF93EF93FF9383E106
:1008800092E00E941801FF91EF91BF91AF919F916B
:100890008F917F916F915F914F913F912F910F9029
:1008A0000FBE0F901F9018951F920F920FB60F92C8
:1008B00011242F938F939F93EF93FF93E091230243
:1008C000F09124028081E0912902F0912A0282FDB8
:1008D00012C0908180912C028F5F8F7320912D0226
:1008E000821751F0E0912C02F0E0ED5EFD4F958F04
:1008F00080932C0201C08081FF91EF919F918F9195
:100900002F910F900FBE0F901F9018951F920F926E
:100910000FB60F9211242F933F938F939F93AF9312
:10092000BF9380910B0290910C02A0910D02B091A7
:100930000E0230910A0223E0230F2D3720F4019696
:10094000A11DB11D05C026E8230F0296A11DB11DF2
:1009500020930A0280930B0290930C02A0930D0245
:10096000B0930E0280910F0290911002A09111029B
:10097000B09112020196A11DB11D80930F029093B8
:100980001002A0931102B0931202BF91AF919F91F8
:100990008F913F912F910F900FBE0F901F90189540
:1009A0001F920F920FB60F9211242F933F934F93E4
:1009B0005F936F937F938F939F93AF93BF93CF93E7
:1009C000DF93EF93FF932091390130E0F901EA576B
:1009D000FF4F8491F901EE53FF4FD491F901E25595
:1009E000FF4FC491CC23A1F081110E94AC01EC2FE8
:1009F000F0E0EE0FFF1FE458FF4FA591B491EC918A
:100A0000ED2331E020E009F430E0832F922F02C083
:100A100080E090E020913D0130913E012F5F3F4FFB
:100A200030933E0120933D0120913C01253618F082
:100A300026E020933801209138012430D9F128F4A0
:100A4000223069F02330D9F060C0253009F453C05A
:100A5000263009F05AC021E02093090253C00097C4
:100A600009F053C020913D0130913E0124363105FB
:100A700008F443C01092090210923C011DC081305D
:100A8000910509F042C0E0913C0121E02E0F209336
:100A90003C01F0E020913D0130913E01EE0FFF1F3F
:100AA000E85CFE4F3087278310923E0110923D0193
:100AB00024E029C00097B9F4E0913C0121E02E0F19
:100AC00020933C01F0E020913D0130913E01EE0F7A
:100AD000FF1FE85CFE4F3087278310923E01109283
:100AE0003D0123E010C020913D0130913E012536AB
:100AF000310558F007C0009741F410923E01109262
:100B00003D0103C025E02093380120913B012223C1
:100B1000B9F0892B51F480913A01882321F080911A
:100B20003A0161E009C02D9A0BC080913A018823F7
:100B300031F080913A0160E00E94D50101C02D980A
:100B4000FF91EF91DF91CF91BF91AF919F918F91E5
:100B50007F916F915F914F913F912F910F900FBEB9
:100B60000F901F901895CF92DF92EF92FF920F9304
:100B70001F93CF93DF93E3E1F2E01382128288EEBA
:100B800093E0A0E0B0E084839583A683B7838AE0F6
:100B900091E09183808385EC90E09587848784EC55
:100BA00090E09787868780EC90E0918B808B81EC3A
:100BB00090E0938B828B82EC90E0958B848B86EC1B
:100BC00090E0978B868B118E128E138E148E8AE195
:100BD00090E00E948507EC011B861A861982188214
:100BE0001E8A1F8A188E198E80E3E82EF12CFF8250
:100BF000EE8289E090E09D878C8788E090E09F8777
:100C00008E8789E00E9496008E850E949600198A40
:100C1000188A1B8A1A8A1D8A1C8A82E090E09987AA
:100C2000888700EB12E0F801D183C0838AE190E06D
:100C30000E948507EC011B861A86198218821E8A7B
:100C40001F8A188E198EFF82EE8294E0C92ED12C55
:100C5000DD86CC8686E090E09F878E8785E090E0F9
:100C6000998B888B87E090E09B8B8A8B84E00E9435
:100C700096008E850E94960088890E9496008A8937
:100C80000E9496001D8A1C8AD986C886F801D383E3
:100C9000C283F186E08681E090E095838483978328
:100CA0008683DF91CF911F910F91FF90EF90DF909E
:100CB000CF900895789484B5826084BD84B58160B6
:100CC00084BD85B5826085BD85B5816085BD809117
:100CD0006E00816080936E0010928100809181008F
:100CE0008260809381008091810081608093810087
:100CF000809180008160809380008091B100846049
:100D00008093B1008091B00081608093B0008091A9
:100D10007A00846080937A0080917A008260809368
:100D20007A0080917A00816080937A0080917A00C5
:100D3000806880937A001092C100E0912302F091C4
:100D4000240282E08083E0911F02F0912002108251
:100D5000E0912102F09122028FEC808310922B020D
:100D6000E0912702F091280286E08083E09125023D
:100D7000F0912602808180618083E0912502F091CC
:100D80002602808188608083E0912502F09126020E
:100D9000808180688083E0912502F0912602808125
:100DA0008F7D8083BB24B39429E0A22E38EC932E50
:100DB00042E4842E89E191E00E940A04C3E0D0E07D
:100DC0001092700083E00E94960060E083E00E9431
:100DD000D501B092B000A092B1009092B300809281
:100DE000B4008091B00080628093B00060E679E04A
:100DF00080E090E00E94CC030E94FF0300E210E03C
:100E0000C12CD12CE12C90E8F92ED701C601837CAE
:100E1000957FA47EB074892B8A2B8B2B51F0809107
:100E2000B00080628093B00060EB74E080E090E0FE
:100E300009C08091B00080628093B00068E572E0E4
:100E400080E090E00E94CC030E94FF03F694E794B8
:100E5000D794C79401501109C1F664E670E080E0B0
:100E600090E00E942A02219709F0AACF88E291E03F
:100E70000E940A046091B4027091B5028091B002A0
:100E80009091B1020E9444036091B6027091B70242
:100E90008091B2029091B3020E94440368E873E12A
:100EA00080E090E00E942A020E94A20183CF97FB7B
:100EB000072E16F4009407D077FD09D00E94710721
:100EC00007FC05D03EF4909581959F4F089570954D
:100ED00061957F4F0895EE0FFF1F0590F491E02D6F
:100EE0000994AA1BBB1B51E107C0AA1FBB1FA61771
:100EF000B70710F0A61BB70B881F991F5A95A9F7C3
:100F000080959095BC01CD010895CF93DF938230F9
:100F1000910510F482E090E0E091BC02F091BD02F6
:100F200020E030E0C0E0D0E0309711F14081518105
:100F300048175907C0F04817590761F48281938117
:100F4000209719F09B838A832BC09093BD028093D6
:100F5000BC0226C02115310519F04217530718F4B9
:100F60009A01BE01DF01EF010280F381E02DDCCFA9
:100F70002115310509F1281B390B2430310590F476
:100F800012968D919C9113976115710521F0FB01CB
:100F90009383828304C09093BD028093BC02FD01C1
:100FA000329644C0FD01E20FF31F819391932250CA
:100FB00031092D933C933AC02091BA023091BB0283
:100FC000232B41F420910201309103013093BB02A5
:100FD0002093BA02209100013091010121153105C1
:100FE00041F42DB73EB74091040150910501241BF7
:100FF000350BE091BA02F091BB02E217F307A0F4BF
:101000002E1B3F0B2817390778F0AC014E5F5F4F5E
:101010002417350748F04E0F5F1F5093BB024093D3
:10102000BA028193919302C0E0E0F0E0CF01DF913A
:10103000CF9108950F931F93CF93DF93009709F4F7
:101040008CC0FC013297138212820091BC02109175
:10105000BD020115110581F420813181820F931F9A
:101060002091BA023091BB022817390779F5F09325
:10107000BB02E093BA0271C0D80140E050E0AE1765
:10108000BF0750F412962D913C911397AD01211595
:10109000310509F1D901F3CF9D01DA0133832283B0
:1010A00060817181860F971F8217930769F4EC01A5
:1010B00028813981260F371F2E5F3F4F31832083D0
:1010C0008A819B8193838283452B29F4F093BD020F
:1010D000E093BC0242C01396FC93EE931297ED018D
:1010E000499159919E01240F351FE217F30771F4BE
:1010F00080819181840F951F029611969C938E9307
:101100008281938113969C938E931297E0E0F0E096
:10111000D80112968D919C911397009719F0F801C0
:101120008C01F6CF8D919C9198012E5F3F4F820FDD
:10113000931F2091BA023091BB022817390769F436
:10114000309729F41092BD021092BC0202C01382A3
:1011500012821093BB020093BA02DF91CF911F91CC
:101160000F91089581E090E0F8940C94B708F894FA
:02117000FFCFAF
:101172000000BE028000000000003901B50002013B
:10118200E000F40080010D0A00656E7669616E640C
:101192006F206461746F73006461746F7320656E95
:0811A200766961646F730000BF
:00000001FF
